:020000041000EA
:10000000002008205D0100101B0100101D010010E0
:100010001101001011010010110100101101001058
:100020001901001019010010190100101F01001022
:10003000110100101901001021010010230100100E
:100040001101001011010010110100101101001028
:100050001101001011010010110100101101001018
:100060001101001011010010110100101101001008
:1000700011010010110100101101001011010010F8
:1000800011010010110100101101001011010010E8
:1000900011010010110100101101001011010010D8
:1000A00011010010110100101101001011010010C8
:1000B00011010010110100101101001011010010B8
:1000C00011010010110100101101001011010010A8
:1000D0001101001011010010110100101101001098
:1000E0001101001011010010110100101101001088
:1000F0001101001011010010110100101101001078
:100100001101001011010010110100101101001067
:10011000EFF30580103800BE00BE00BE00BE00BE7A
:1001200000BE00BEF2EB88710496061028960610F9
:10013000A001001090A31AE7D3DEFFFF42012110B7
:10014000FF01000074C40600793512AB4FF00000C7
:100150001E49086006C881F3088810474FF05040D8
:10016000006810B14FF00000F2E70DA40ECC00299A
:1001700002D000F012F8F9E71549164A002000E015
:1001800001C19142FCD11449884714498847144958
:10019000884700BEFDE701C901C29A42FBD3704700
:1001A0002896061020010020A4300020ACC50610BF
:1001B0000000082000000820ACC506100010082030
:1001C00000100820000000007047000008ED00E06B
:1001D000A430002098CC0220296300109D0200105A
:1001E00021630010F8B500BF064B0749C91A8910F2
:1001F00048BF0131491003D0044B0BB101481847E7
:10020000704700BFA4300020A43000200000000090
:1002100008B5054B1BB105490548AFF30080BDE8A3
:100220000840FFF7E1BF00BF00000000543B012081
:1002300050D4021084464FF4007300B50348DFF831
:1002400010E0CCF800E00860136000BD44EE002030
:1002500044F6002010B58C244FF4007EDFF818C05F
:1002600004FB03C40460034800EBC3200860C2F829
:1002700000E010BDE80701205C07012084464FF430
:10028000806300B50348DFF810E0CCF800E00860B8
:10029000136000BDD0F60020D006012010B582B05A
:1002A00006F0BAF940F6B83003F0F6FD254806F03E
:1002B0003DFA0A242E2006F0F7F94FF4FA7003F005
:1002C000EBFD013CF6D10A2006F0EEF91E4814F0D1
:1002D0005DF88646DFF898C04FF480711B4B1C4ACE
:1002E00000942020CCF800E014F0A2FA8646DFF853
:1002F00084C06221174A184B00940820CCF800E013
:1003000014F096FA154B1860154806F00FFA00F035
:10031000A3F801F04FF802F007F802F0F1F81148E5
:1003200006F004FA02F058FA0F4802F03BFA0120F6
:1003300016F0F8FF17F09AF80C4802F033FA16F0AE
:100340000FF9FEE750D40210ECC5002044C5002090
:100350000CC600200CE6002098C50020DC210120FE
:1003600070D4021088D40210A4D40210C4D4021095
:10037000D8210120D421012070B52B4802F012FAB7
:100380000EF002FF38B1294802F00CFABDE87040C7
:10039000002016F067B9264802F004FA254D0EF049
:1003A0009FFE254E08E001460522244802F0FAF996
:1003B00041F2883016F0ECFA2149224802F0F2F9B5
:1003C00047F230532049214A1D480EF095FE00287F
:1003D000E9D113F05BF8286804300EF035FB0446D1
:1003E00013F05CF821461A4802F0DCF9012130686C
:1003F00014F046F840F6B83016F0CAFA13F046F892
:100400002B6893F8334013F049F86307F2D411488E
:1004100002F0C8F90121306814F020F84FF47A7026
:1004200016F0B6FAC8E700BFDCD40210F4D402100C
:1004300020D50210443B0120D82101205CD50210B8
:1004400038D5021040D5021010F10210040040000F
:100450008CD50210ACD5021010B503240B480C4902
:1004600084B0CDE9011000234FF4006209490A4825
:10047000009415F01FFF08B104B010BD23464FF4DF
:1004800000620449054802F0CFFB00BFA033002002
:1004900044650020C0D5021079030010C8D50210B1
:1004A000704700BF003A18BF012242EC401070476D
:1004B0004FF05042012352688B40134214BF012079
:1004C0000020704700207047704700BF704700BF92
:1004D000704700BF704700BF704700BF4FF05042E9
:1004E0000123D0F8FC1152688B40134214BF012045
:1004F00000207047704700BF00B5084683B00192E6
:10050000009102F06BFB019A0099A2F10102B2FA8C
:1005100082F2520942EC441003B000BD844610B58B
:100520000C4B84B00FCB8DE80F00BCF81000DCF84A
:100530000820DCF80430DCF80C40ADF80C0069460B
:100540000CF184000294019200931AF0EDFF04B0C4
:1005500010BD00BFB0FF021070B50D464FF486729B
:1005600082B000F18404002128462BF021FD0121F6
:1005700020461DF0FDFAFF220646294620461EF0C1
:1005800081F9034610B1184602B070BD019085F89C
:10059000006120461BF01EFC02462046C5F80421DF
:1005A0001DF012FB019BC5F80801184602B070BD92
:1005B00084301CF0FBBF00BF00B5282183B0019040
:1005C00004F0C0FA019803B000BD00BF00B54FF4BD
:1005D000007183B0019004F0B5FA019803B000BD3A
:1005E00038B504461549006A08F03AFD226A02252A
:1005F000134653F8040F02F5805C03F5405ECEF815
:100600000050126803F5005382F00702284002F000
:10061000CF02CCF80020186094F82400012102F0E9
:10062000EFF994F82500012102F0EAF994F8260088
:100630000121BDE8384002F0E3B900BF40420F009D
:100640009446006A1A4663462CF08ABE08B503F049
:1006500047FD08BD08B503F043FD29B14FF47A7298
:1006600000232CF06DFE08BD024BA3FB0030800977
:1006700008BD00BFD34D62100846002103F0A6BBA1
:10068000084603F009BC00BF084600220C2102F016
:10069000F7B900BF084619461346012202F014BA02
:1006A0002DE9F04F2DED0C8B1020ADF5257D02F0DE
:1006B00095FA10234FF0010242EC443042EC4030F6
:1006C000DFF844B14FF4FA7016F062F95846FFF7BC
:1006D00025FF40B10146424802F064F84FF0FF3078
:1006E00016F056F9FAE707213BA3D3E900230024CB
:1006F0003C4D3D480091CDE9024502F053F80BF125
:1007000084001CF053FF9FED39BADFED39AADFED0D
:10071000398A41F221070DF5C2784FF0504201218C
:10072000DBF8FC31526801FA03F3134203D10520D0
:1007300016F02EF9F1E74FF48672002140462BF0B7
:1007400037FC01212C481DF013FAFF2204464146D4
:1007500029481EF097F8054630B1284802F022F8E3
:1007600025481CF023FFD8E7234888F800411BF0F8
:1007700031FBC8F8040120481DF026FA98F8004122
:100780001090122CC8F808010FD945F2AA53B8F8F6
:1007900000209A423AD02D2C07D9D8F80030184AB8
:1007A00023F07F43934200F02F82D8F804012CF00D
:1007B000B7FD054610980E462CF0B2FD2A46CDE94D
:1007C0000001334621460F4801F0ECFF0A481CF0B7
:1007D000EDFEA2E7AFF300800000000000988C401F
:1007E00018D6021000405F4044D60210CDCCCC3D5C
:1007F0000000C84200FEFF46A0E900207CD602109F
:10080000AA550100F0D702101CE90020B8F80D30FD
:10081000EC2BC0D803F113029442BCD103F10F02B8
:1008200008EB02018878BB28B5D1C9786629B2D116
:1008300038F802609E464FF6FF7203F10D000DF28C
:10084000851111F801CFD84B8CEA122C33F81CC05B
:1008500001358CEA0222A84292B2F2D8B242734623
:1008600099D198F80260D8F807500F2E00F09083C5
:100870001F2EABD00A2E40F067831F2B8BD1D8F8E8
:100880001BC0D8F813300CEE10CAB8F91FC0B8F866
:100890002C4009EE10CAB8F921C012930DEE10CA0F
:1008A000B8F923C0B8F8293008EE10CAB8F825C046
:1008B00064220BEE90CAB8F827C00021169347A80F
:1008C000E3B20AEE10CAD8ED41CAD8F817601A93FD
:1008D0002BF06EFB4FF07E5312984E9304F01EF8EF
:1008E000ADA3D3E9002303F097FFDFEDB09AB8EE94
:1008F000CDDACDE91201304604F010F8A6A3D3E911
:10090000002303F089FF2DEE29DAB8EECC7AB8EE99
:10091000C99A27EE29CA29EE299AB8EEC88A2DEE7F
:100920000D7A28EE298AA9EE097AA8EE087ACDE98F
:10093000140117EE100A2CF033FD99A3D3E900231C
:10094000DDED167AF8EE6BBAB8EE677AB8EE4AAA21
:10095000FDEEEC7A1890DDE91201CDED167A6BEE22
:10096000A9BA2AEE29AA1E9567EE299A03F054FF28
:1009700003F0F8FF8AA3D3E900231F90DDE91401F7
:1009800003F04AFF03F0EEFFB2EE047ADFED887A5F
:100990002CEE077A6CEE277ABDEEC77AFDEEE77A89
:1009A000DFED846A00238DED217ACDED227A20904F
:1009B0004EA90DF18A02F1EC017A67EEA67AFDEEFE
:1009C000E77A17EE900A0133042B22F8020FF2D1D6
:1009D000DDED107AFEEECF7A9FED757A17EE903A44
:1009E000DDED187A27EE876A29EE079ABCEEC66A13
:1009F0008DF8AD3000236DEE077ABDEEC99ACDF8C3
:100A0000A230ADF8A630ADF8A8308DF8B030ADF812
:100A1000AE3016EE103A28EE078AFDEEE77AADF812
:100A2000943019EE103A6BEE876ABDEEC88AADF8C5
:100A3000963017EE903A2AEE07AAFCEEE66AADF879
:100A4000983018EE103A69EE879ABCEECAAAADF853
:100A50009A3016EE903AFCEEE99AADF89C301AEE18
:100A6000103AADF89E3019EE903AADF8A03003235D
:100A7000169A8DF8B6308DF8AC2045F2AA523C2378
:100A8000ADF8B4204C4AADF8B8301378ADF8AA40B0
:100A90008DF8B73001331EAE13700DF1BA0C344629
:100AA0000CF1100C0FCC4CF8043C2AAB9C4206F124
:100AB00010064CF8100C4CF80C1C4CF8082CEED11D
:100AC00007CE4FF6FF7341F221050DF1B504CCF8C6
:100AD0000000CCF80410CCF8082014F8012F83EAA9
:100AE00002235A00190448BF6A405300120448BF49
:100AF0006B405A001E0448BF6A405300100448BFB0
:100B00006B405A00190448BF6A405300120448BFA2
:100B10006B405A001E0448BF6A4010044FEA42036B
:100B20000DF1F50248BF6B40A242D6D146F2BB623E
:100B3000ADF8F630ADF8F820002346221F48ADF896
:100B400014212DA91A46006813F0C0FE06461CEEBB
:100B5000100A2CF0E5FBCDE9100118982CF0E0FB11
:100B6000CDE916011BEE900A2CF0DAFBCDE9180155
:100B7000D8F804012CF0D4FB0446D8F808010D463F
:100B80002CF0CEFB9DED187B8DED087B9DED167B4B
:100B90008DED067B14E000BF48AFBC9AF2D77A3ED9
:100BA00000000000D0126341B0FD02100AD7233CC0
:100BB0000000C84200FEFF4685CC0220DC21012057
:100BC0009DED107BCDE90C010B480C498DED027BAE
:100BD000012E08BF01469DED147B1A9B0E910493D4
:100BE0008DED007BDDE91223CDE90A450449054876
:100BF00001F0D8FDEAE500BF00D6021008D60210C9
:100C000098D60210A0D60210B8F80430242B7FF436
:100C1000CCAD4FF6FF7341F221010DF2851010F8B3
:100C2000012F83EA02235A001D0448BF4A405300A3
:100C3000120448BF4B405A001B0448BF4A405300AF
:100C4000160448BF4B405A001D0448BF4A40530099
:100C5000120448BF4B405A001E0448BF4A4053008C
:100C600015049BB248BF4B400DF2AD1248BF9BB27A
:100C70009042D4D1B8F82A209A427FF496AD46F239
:100C8000BB63B8F82C209A427FF48FADD8F80441AA
:100C90000DF5C5750DF58C7C6646EB6828686968AE
:100CA000AA6810350FC60DF5D5739D420CF1100CD6
:100CB000F2D1DDF8AA01CCF80000DDE94630169348
:100CC00003F02CFEAAA3D3E9002303F0CBFDCDE96A
:100CD0001201489803F022FEA5A3D3E9002303F0F4
:100CE000C1FD9DED4A7ABDF92C21F8EEC75A06EEFA
:100CF000102ABDF92E21DDED497A06EE902ABDF9C4
:100D00003021F8EEE77A07EE102AB8EEC77ABDF97F
:100D10003221C7EE28BA07EE102ABDF8342127EE9B
:100D20008B8A07EE902AB8EEC66AF8EEE66AB8EE4D
:100D3000C77AF8EE677A9DF83821CDE9140110984A
:100D400085EEAA9AC6EE28CA86EEA8CA87EE28AA19
:100D5000C7EEAA9A10922CF0E3FACDE906012046DC
:100D60002CF0DEFACDE9040119EE100A2CF0D8FAC5
:100D7000DDE912239DED147BCDE902018DED007BB1
:100D80007D489DF836619DF8375101F00BFDDDE996
:100D90001201D8ED417AFDEEE77A169B17EE904AE4
:100DA0002D9373A3D3E9002303F036FD03F0DAFD9E
:100DB0006FA3D3E900232E90DDE9140103F02CFD8D
:100DC00003F0D0FD2CEEA85A00236CEE285ABDEE9D
:100DD000C55ACDE93633CDF8D230ADF8D630389398
:100DE0008DF8E4308DF8EC30ADF8EA302BEEA86ADF
:100DF00015EE103AFDEEE55AADF8C8306AEE286AF5
:100E000015EE903ABDEEC66AADF8CA3029EEAA7A60
:100E100016EE103AFDEEE66A98ED42DAADF8CC3007
:100E2000BCEEC77A16EE903AF2EE047AADF8CE3008
:100E3000F0EE4D4A17EE103A68EE277AADF8D03052
:100E400029EE2A9A45F2AA53FEEECF4A109AADF83F
:100E500018318DF8E720032314EE902AFDEEE77A8F
:100E6000BDEEC99A8DF8E5608DF8E6508DF8E92061
:100E7000CDED307A8DED319A2F908DF8E8408DF8D8
:100E80001A313C233D4AADF81C3113782DAE8DF854
:100E90001B3101330DF58F751370344610350FCCAF
:100EA00045F8043C39AB9C4206F1100645F8100C9D
:100EB00045F80C1C45F8082CEFD107CE4FF6FF7310
:100EC0000DF2191428606960AA6014F8012F83EAF2
:100ED00002235A00190448BF7A405300120448BF45
:100EE0007B405A001B0448BF7A405300160448BF99
:100EF0007B405A001D0448BF7A405300100448BF8D
:100F00007B405A00190448BF7A40530012040DF286
:100F1000591248BF7B40A242D7D146F2BB62ADF81E
:100F20005A31ADF85C21002346221548ADF87821EE
:100F300000681A4646A913F0C9FC01283FF446ACE4
:100F4000104801F02FFC41E410982CF0E9F9CDE9AC
:100F50000201D8F804012CF0E3F92346CDE90001A1
:100F600032460949094801F01DFC2FE4AFF3008027
:100F700000000000D0126341A4D7021085CC0220EB
:100F8000DC2101202CD8021098D6021064D7021060
:100F9000242B7FF400ACB8F92330B8F92B200CEEE9
:100FA000903AB8F92530B8F92D100CEE103AB8F98E
:100FB0002730D8F811000BEE903AB8F92930149286
:100FC000129398F8323016911C9303F0A7FCF2A309
:100FD000D3E9002303F020FCCDE91801D8F815006F
:100FE00003F09CFCECA3D3E9002303F015FCCDE94E
:100FF0001A01B8F91F00DFEDDC7A09EE100AB8F922
:101000001D00B8EEC99A09EE900AB8F92100F8EE71
:10101000E99A08EE100AD8F81900B8EEC88A0AEE64
:10102000100A29EE279AB8EECAAA69EEA79A2AEE04
:1010300027AA28EE278A69EE097AE9EEA97AE8EE6E
:10104000087AB8F92F4017EE900A0DEE104A98F87A
:101050000F6098F831402CF0A3F9DDED127AB8EE6C
:10106000E76ADDED147AF8EEE76ADDED167A9FEDBA
:10107000BF5AB8EEE77AF8EECD7A67EE857ACDED15
:10108000517AD8ED417ADFEDBA4A66EE856A27EEED
:10109000057AFDEEE77AF8EEEB5A26EE056AF8EEF1
:1010A000ECCAB8EECCCA062C98BFB24B1D9098BFC4
:1010B0001C5DDDE91801AAA3D3E90023CDED4F6A39
:1010C0008DED507A6CEEA4CA2CEE24CA65EEA4BA5B
:1010D0008DED4E6A88BFFF241E9517EE905A03F0DF
:1010E0009BFB03F03FFC9EA3D3E900231F90DDE9A7
:1010F0001A0103F091FB03F035FCB2EE047ADFED48
:101100009E7A2AEE077A6AEE277ABDEEC77AFDEE5E
:10111000E77ADFED9A6A00238DED217ACDED227A10
:1011200020904EA90DF18A02F1EC017A67EEA67AC1
:10113000FDEEE77A17EE900A0133042B22F8020F36
:10114000F2D19DED107ABEEECF7A1C9BDFED8A7A4C
:101150008DF8AB3017EE103A9DED1D7A27EE277A09
:101160009FED875A69EEA74ABCEEC77A8DF8AD307D
:101170000023CCEE855A8CEE056ACBEE856AFDEE37
:10118000E44A29EE275A2793ADF8A0308DF8AA300B
:101190008DF8B030ADF8AE3017EE103A9FED794AC9
:1011A00068EE277ABDEEC55AADF8943014EE903A49
:1011B00065EE845AFDEEE77AADF8963015EE103AFA
:1011C00026EE046AFDEEE55AADF8983017EE903A37
:1011D00066EE846ABDEEC66AADF89A3015EE903AB6
:1011E000FDEEE66AADF8A23016EE103AADF8A43086
:1011F00016EE903AADF8A630032345F2AA528DF8C8
:10120000B6303C23ADF8B4205F4AADF8B83013785F
:101210008DF8A8608DF8B73001338DF8A9408DF8AE
:10122000AC501EAE13700DF1BA0C34460CF1100C1C
:101230000FCC4CF8043C2AAB9C4206F110064CF84B
:10124000100C4CF80C1C4CF8082CEED107CE4FF6C5
:10125000FF7341F221050DF1B504CCF80000CCF884
:101260000410CCF8082014F8012F83EA02235A0056
:10127000190448BF6A405300120448BF6B405A002B
:101280001E0448BF6A405300100448BF6B405A0018
:10129000190448BF6A405300120448BF6B405A000B
:1012A0001B0448BF6A4016044FEA42030DF1F502E1
:1012B00048BF6B40A242D6D146F2BB62ADF8F630D1
:1012C000ADF8F820002346223048ADF814212DA9AE
:1012D0001A46006813F0FAFA06461AEE100A2CF0C5
:1012E0001FF8CDE9100119EE900A2CF019F8CDE99C
:1012F000120119EE100A2CF013F8CDE9140118EEC2
:10130000100A2CF00DF8CDE91601D8F804012CF0E4
:1013100007F80446D8F808010D462CF001F8DDE97D
:1013200018239DED167B8DED087B9DED147B8DEDD7
:10133000067B9DED127B8DED047B9DED107BCDE951
:101340000C01134813498DED027B012E08BF0146A5
:101350009DED1A7B0E918DED007BCDE90A451FE0D6
:1013600000000000D01263410AD7233C000000387F
:1013700012AC203C10FD02100000C84200FEFF46E7
:101380000AE81C4100007A4485CC0220DC210120BF
:1013900000D6021008D6021048AFBC9AF2D77A3EA7
:1013A0000249034801F0FEF9FFF710BA98D602107F
:1013B00008D7021010B504240B480C4984B0CDE9BD
:1013C000011000234FF4006209490A48009414F008
:1013D00071FF08B104B010BD23464FF40062044908
:1013E000054801F021FC00BF2C340020448500207A
:1013F00098D60210A1060010C8D5021010B51E4CD8
:101400000421A4461D4A84B04FF0010E02914CF80D
:10141000042B08221A4BCDF800E001920FCB8CE888
:101420000F0000237246194604F1140016F094F8D8
:101430004FF0FF3141F212324FF0140C16231148D5
:10144000606101912287104A04EB0C01009301F1C5
:1014500028001123626384F83AC0152216F0A2F81E
:1014600004F13C0104F184001AF0AAFB1123C4F832
:10147000FC3104B010BD00BF1CE9002088FD021043
:10148000A0FD021020FD0210000008404FF0504265
:101490000123D0F8FC1152688B40134214BF012085
:1014A00000207047704700BFF0B590F91460384BCA
:1014B0000D2E89B0C0F800323346A8BF0D23427DFF
:1014C000044690ED016AD0ED026A90ED037AD0ED0A
:1014D000047A002A18BF1E46DFF8CCE00DF10C0C90
:1014E000877DBEE80F00ACE80F00DEF8003004F1A5
:1014F0008C0003A9CCF800308DED036ACDED046AB1
:101500008DED057ACDED067AADF81E708DF81C6074
:1015100019F0BEFC034610B1184609B0F0BD1D49D4
:10152000627EC4F8001204F18C0004F1170119F076
:101530008DF803460028EFD1174BA17EC4F8003286
:1015400004F18C0019F0B6F903460028E4D1134BDE
:10155000E17EC4F8003204F18C0017F055FF034619
:101560000028D9D1627D1AB90D4AC4F80022D3E708
:101570000C490190C4F80012012294F9141004F1EE
:101580008C0018F0FBFF019B0028EDD00346C3E759
:1015900058D8021060D802106CD8021084D80210FB
:1015A00094D802109CD802100002031070B50C46AB
:1015B00005464FF486720021204682B02AF0F8FCDE
:1015C000AA7E8C35FAB1402A28BF402221462846FF
:1015D000019218F04FF9064690B9019AA3182AB162
:1015E00013F8011D11B9013A002AF9D1284684F8EF
:1015F000002117F083FA0023C4F80401C4F808316D
:10160000304602B070BD0121284617F08DFA02461F
:10161000D9E700BF8C3017F03DBC00BF00B54FF4D8
:10162000017183B0019003F08DFA019803B000BD01
:101630002DE9F04F2DED0E8B1C20ADF5257D01F031
:10164000CDFA1C234FF0010242EC443042EC403012
:10165000DFF864A14FF4FA7015F09AF95046FFF7DD
:1016600023FF50B10146DAF80022494801F09AF808
:101670004FF0FF3015F08CF9FAE746483EA3D3E966
:1016800000233FA5D5E90045CDE9004501F08AF8E2
:101690000AF18C0017F0FEFBDFED3F9A9FED3F9AB9
:1016A0009FED3F8A9FED38ABDFED3E8A0DF5C27BA3
:1016B0004FF050420121DAF8FC31526801FA03F38D
:1016C000134203D1052015F063F9F1E74FF4867258
:1016D000002158462AF06CFC9AF81A40002C43D09E
:1016E000402C28BF4024594622462F4818F0C2F803
:1016F00030B12E4801F056F82B4817F0CBFBD7E756
:101700000BEB04032CB113F8012D12B9013C002C92
:10171000F9D125488BF8004117F0F0F99BF80061EA
:101720000546122ECBED428ACBF804010FD945F2C3
:10173000AA53BBF800209A4240D02D2E07D9DBF8DF
:1017400000301B4A23F07F43934200F03382284647
:101750002BF0E6FD02460B461648314601F022F812
:10176000114817F097FBA3E701210F4817F0DCF9A8
:101770000446B5E7AFF300800000000000887A401F
:101780000000004033331340000000000000000060
:10179000B0D80210E0D80210CDCCCC3D0000C84239
:1017A00000FEFF4600000000A8EB002010D9021048
:1017B000AA55010070D902101CEB0020BBF80D30B7
:1017C000EC2BBAD803F113029642B6D103F10F0203
:1017D0000BEB02018878BB28AFD1C9786629ACD160
:1017E0003BF8021000204FF6FF729E4603F10D07F2
:1017F0000BF1010414F801CFD94B8CEA122C33F809
:101800001CC001308CEA0222874292B2F2D88A428E
:10181000734692D19BF80270DBF807400F2F00F05F
:101820007B831F2F9CD00A2F40F058831F2B84D11D
:10183000DBF81BC0BBF82C300EEE10CABBF91FC082
:1018400064220CEE10CABBF921C000210BEE90CA35
:10185000BBF923C0ADF860300BEE10CABBF825C051
:10186000DBB20DEE90CABBF827C047A80DEE10CA38
:10187000BBF829C0DBF813700EEE90CADBF81760D6
:1018800014932AF095FB4FF07E53DFEDB6CAF8EEC5
:10189000EBBA38464E9303F041F8ADA3D3E90023E9
:1018A00002F0BAFF6BEEACBAB8EECCCACDE91001CB
:1018B000304603F033F8A6A3D3E9002302F0ACFFCF
:1018C0002CEE2CCAB8EECBBA6BEEAB7A2BEE2CBA60
:1018D000ECEE0C7AEBEE0B7A064617EE900A0F460A
:1018E0002BF05EFD9CA3D3E9002307EE105AF8EE1F
:1018F0006E7ABDEEC77AB8EECEEAF8EE6DDAB8EEE3
:101900004DDA1290DDE910018DED167A2EEE2CEAFB
:101910006DEEACDA2DEE2CDA1E9467EEACCA02F056
:101920007BFF03F01FF88CA3D3E900231F903946F7
:10193000304602F071FF03F015F8B2EE047ADFEDE5
:101940008A7A2EEE077A6EEE277ABDEEC77AFDEE22
:10195000E77ADFED866A00238DED217ACDED227ADC
:1019600020904EA90DF18A02F1EC017A67EEA67A79
:10197000FDEEE77A17EE900A0133042B22F8020FEE
:10198000F2D1DFED797A9DED127ABDF8603067EE25
:10199000276AADF8AA30169B2CEE27CA8DF8AC301A
:1019A0000023FCEEE66ACDF8A230ADF8A630ADF823
:1019B000A8308DF8AD308DF8B030ADF8AE300323DF
:1019C0006BEEA7BABDEECCCA8DF8B63016EE903AE3
:1019D0002BEE27BAFDEEEBBAADF894301CEE103AC0
:1019E0002DEEA77ABDEECBBAADF896301BEE903A4D
:1019F0002DEE27DABCEEC77AADF898301BEE103A20
:101A00006CEEA7CABCEECDDAADF89A3017EE103AFC
:101A1000FCEEECCAADF89C301DEE103AADF89E30ED
:101A20001CEE903A45F2AA52ADF8A0303C23ADF836
:101A3000B4204F4AADF8B83013780DF1780C8DF81A
:101A4000B730013313700DF1BA0E64460EF1100E6B
:101A50000FCC4EF8043C2AAB9C420CF1100C4EF813
:101A6000100C4EF80C1C4EF8082CEED1BCE8070008
:101A70004FF6FF7341F221050DF1B504CEF80000D9
:101A8000CEF80410CEF8082014F8012F83EA0223C0
:101A90005A00190448BF6A405300120448BF6B4003
:101AA0005A001B0448BF6A405300100448BF6B40F3
:101AB0005A00190448BF6A405300120448BF6B40E3
:101AC0005A001B0448BF6A4010044FEA42030DF15C
:101AD000F50248BF6B40A242D6D146F2BB62ADF8D8
:101AE000F630ADF8F820002346222248ADF8142144
:101AF0002DA91A46006812F0E9FE16901EEE100A93
:101B00002BF00EFCCDE9180112982BF009FCCDE961
:101B100012011DEE900A2BF003FCCDE91A01DBF84F
:101B200004012BF0FDFB0446DBF808010D462BF009
:101B3000F7FB9DED1A7B8DED087B9DED127BCDE9CA
:101B40000C01CDE90A450C48169C17E0AFF3008064
:101B500048AFBC9AF2D77A3E00000000D012634131
:101B6000000003100AD7233C0000C84200FEFF46D5
:101B700085CC0220DC21012000D602100A498DED1F
:101B8000067B012C08BF01469DED187B149B0E912E
:101B900004938DED027BDDE91023CDE90067034955
:101BA000034800F0FFFDDBE508D602102CD9021037
:101BB000A0D60210BBF80430242B7FF4C8AD4FF63A
:101BC000FF7341F221010BF101000BF1290410F820
:101BD000012F83EA02235A001F0448BF4A405300E2
:101BE000120448BF4B405A001F0448BF4A405300EC
:101BF000120448BF4B405A001F0448BF4A405300DC
:101C0000120448BF4B405A001B0448BF4A405300CF
:101C100017049BB244BF4B409BB2A042D7D1BBF844
:101C20002A209A427FF493AD46F2BB63BBF82C2086
:101C30009A427FF48CAD0DF5C57446AF3E46E3681D
:101C400020686168A26810340FC60DF5D5739C42F8
:101C500007F11007F2D1DDF8AA013860DDE946404E
:101C600002F05CFEA4A3D3E9002302F0FBFDCDE962
:101C70001001489802F052FE9FA3D3E9002302F01E
:101C8000F1FD9DED4A7ABDF92C31F8EEC75A06EE0A
:101C9000103ABDF92E31DDED497A06EE903ABDF9E4
:101CA0003031F8EEE77A07EE103AB8EEC77ABDF9B0
:101CB000323187EE08DA07EE103ABDF8343127EEFC
:101CC000A9BA07EE903AB8EEC66AF8EEE66AB8EE40
:101CD000C77AF8EE677ACDE912012846C5EE89BACF
:101CE00086EE08EAC6EE88DAC7EE08CA87EE89CA29
:101CF0002BF016FBCDE904011BEE900A2BF010FB34
:101D0000DDE910239DED127BCDE902018DED007B15
:101D10007B489DF836719DF837619DF8385100F089
:101D200041FD75A3D3E90023DDE91001DBED417A24
:101D3000FDEEE77A2D9417EE904A02F06DFD02F069
:101D400011FE6DA3D3E900232E90DDE9120102F00C
:101D500063FD02F007FE2EEE085A00236DEE885A4E
:101D6000BDEEC55ACDE93633CDF8D230ADF8D63018
:101D700038938DF8E4308DF8EC30ADF8EA302DEE84
:101D8000086A15EE103AFDEEE55AADF8C8306CEE73
:101D9000886A15EE903ABDEEC66AADF8CA302CEEF0
:101DA000097A16EE103AFDEEE66AADF8CC30BCEEDC
:101DB000C77A16EE903ADBED42EAADF8CE3017EE78
:101DC000103AF0EE6E4AADF8D030F2EE047A45F2F9
:101DD000AA53FEEECF4AADF818316BEE277A0323F3
:101DE0006BEE89BA14EE902A8DF81A31FDEEE77A7F
:101DF0003C23FDEEEBBA8DF8E920424A8DF8E57000
:101E00008DF8E660CDED307ACDED31BA2F908DF8BA
:101E1000E7508DF8E840ADF81C3113782DAF8DF800
:101E20001B3101330DF58F7613703C4610360FCC05
:101E300046F8043C39AB9C4207F1100746F8100CF9
:101E400046F80C1C46F8082CEFD107CF4FF6FF736D
:101E500041F221040DF2191530607160B26015F87D
:101E6000012F83EA02235A00190448BF624053003D
:101E7000120448BF63405A001B0448BF624053002D
:101E8000170448BF63405A001E0448BF6240530015
:101E9000100448BF63405A00190448BF6240530011
:101EA00012040DF2591248BF6340AA42D7D146F23C
:101EB000BB62ADF85A31ADF85C21002346221248CE
:101EC000ADF8782100681A4646A912F0FFFC0128F7
:101ED0003FF446AC0D4800F065FC41E428468DED2A
:101EE00002AB2BF01DFA3346CDE900013A46084912
:101EF000084800F057FC33E400000000D0126341B2
:101F000034D9021085CC0220DC210120A0D9021096
:101F10002CD9021064D70210242B7FF40EACBBF92D
:101F20002330BBF92B200CEE103ABBF92530BBF95E
:101F30002D100BEE903ABBF92730DBF811000BEEB9
:101F4000103ABBF92930129210939BF83230149159
:101F50001A9302F0E3FCF2A3D3E9002302F05CFC45
:101F6000CDE91601DBF8150002F0D8FCECA3D3E9AB
:101F7000002302F051FCCDE91801BBF91F00DFED91
:101F8000DA7A05EE900ABBF91D00F8EEE55A06EE86
:101F9000100ABBF92100B8EEC66A06EE900ADBF81B
:101FA0001900F8EEE66A07EE100A25EEA7DAB8EE99
:101FB000C77A66EE27DA27EE27EA66EEA7CA6DEE45
:101FC0000D7AEDEEAD7AECEEAC7ABBF92F6017EE40
:101FD000900A0EEE906A9BF80F709BF831602BF020
:101FE000DFF9DDED107AB8EEE76ADDED127AF8EE92
:101FF000E76ADDED147ADFEDBD5AB8EEE77AF8EE68
:10200000EE7A67EEA57ACDED517A07EE905A9FED04
:10201000B85A66EEA56A27EE257AFDEEE77AF8EE65
:10202000CC3AB8EEEB4AF8EECB4A26EE256A062EFD
:1020300098BFB04B1D9098BF9E5DDDE91601A8A327
:10204000D3E90023CDED4F6A8DED507A17EE905A0B
:1020500023EE85CA64EE05BA24EE85BA8DED4E6A8C
:1020600088BFFF261E9402F0D7FB02F07BFC9CA3E6
:10207000D3E900231F90DDE9180102F0CDFB02F047
:1020800071FCB2EE047ADFED9C7A2EEE077A6EEEEA
:10209000277ABDEEC77AFDEEE77ADFED986A002376
:1020A0008DED217ACDED227A20904EA90DF18A0294
:1020B000F1EC017A67EEA67AFDEEE77A17EE900A68
:1020C0000133042B22F8020FF2D1DFED8B7A9DED64
:1020D0001D7A27EE277A1A9B9FED895A6DEEA74A43
:1020E000BCEEC77A8DF8AB300023CCEE055A8BEEF0
:1020F000856ACBEE056AFDEEE44A2DEE275A27935A
:10210000ADF8A0308DF8AA308DF8AD308DF8B03034
:10211000ADF8AE3017EE103A9FED7A4A6CEEA77A22
:10212000BDEEC55AADF8943014EE903A65EE845A7F
:10213000FDEEE77AADF8963015EE103A26EE046A19
:10214000FDEEE55AADF8983017EE903A66EE846AE7
:10215000BDEEC66AADF89A3015EE903AFDEEE66A2D
:10216000ADF8A23016EE103AADF8A43016EE903A63
:10217000ADF8A630032345F2AA528DF8B6303C23C1
:10218000ADF8B420604AADF8B83013788DF8A87077
:102190008DF8B73001338DF8A9608DF8AC501EAEC4
:1021A00013700DF1BA07344610370FCC47F8043CD2
:1021B0002AAB9C4206F1100647F8100C47F80C1C9D
:1021C00047F8082CEFD107CE4FF6FF7341F22105F7
:1021D0000DF1B50438607960BA6014F8012F83EA14
:1021E00002235A00190448BF6A405300120448BF32
:1021F0006B405A001B0448BF6A405300170448BF95
:102200006B405A001E0448BF6A405300100448BF88
:102210006B405A00190448BF6A40530012040DF184
:10222000F50248BF6B40A242D7D146F2BB62ADF87F
:10223000F630ADF8F820002346223448ADF81421DA
:102240002DA91A46006812F041FB10901EEE100AEC
:102250002BF066F8CDE912011DEE900A2BF060F824
:10226000CDE914011DEE100A2BF05AF8CDE91A0140
:102270001CEE900A2BF054F80646DBF804010F46DA
:102280002BF04EF80446DBF808010D462BF048F819
:10229000DDE916239DED1A7B8DED067B9DED147B0C
:1022A0008DED047B9DED127BCDE90C01CDE90A4556
:1022B0001748109C17498DED027B012C08BF014681
:1022C0009DED187B0E918DED007BCDE908671249DD
:1022D000124800F067FAFFF743BA00BFAFF300807F
:1022E00000000000D01263410AD7233C00000038F0
:1022F00012AC203CC0FF02100000C84200FEFF46A6
:102300000AE81C4100007A4485CC0220DC2101202F
:1023100000D6021008D602102CD9021008D70210DD
:1023200048AFBC9AF2D77A3E10B504240B480C494A
:1023300084B0CDE9011000234FF4006209490A4836
:10234000009413F0B7FF08B104B010BD23464FF45A
:1023500000620449054800F067FC00BFB834002063
:1023600044A500202CD9021031160010C8D5021047
:1023700070B5204C0422A446012608251E4B84B0CB
:10238000DFF884E002924CF8043BBEE80F000096B0
:102390000195ACE80F009EE8030000238CE80300E1
:1023A0003246194604F11C0015F0D6F84FF0FF3004
:1023B0001A2340F60A32114984F84250019010481D
:1023C000E16104F11C0100931B23E063A4F84020A9
:1023D00001F12800092215F0E5F804F1440104F1A7
:1023E0008C0017F0FBFA1B23064AC4E97F3204B0C5
:1023F00070BD00BF1CEB0020D0FF021020FD0210BA
:1024000000800840CCD90210E8FF0210F0B5334834
:102410009DB000F0C7F94FF0FF3101233048002292
:1024200000680091194611F0C3FF2E4802A90CF074
:102430004BFA40B92B492C4800F0B4F94FF0FF306B
:1024400014F0A6FAFAE711F021F808F071FE074639
:1024500011F024F88FB341F28D322249234800F065
:10246000A1F9234C6422206803A912F005FB01287E
:10247000F8D1BDF86C30002BF4D011F007F84FF410
:1024800020723620BDF86C1007F03CFE0546E0B126
:10249000BDF86C2003A9406829F0C4FF41F28D33D8
:1024A0002946384602AA08F0E5FC0646284607F009
:1024B000B5FF76B910F0F2FFD4E70E4800F072F9DC
:1024C0004FF0FF3014F064FAFAE70B4800F06AF9B5
:1024D000F0E73146094800F065F9EBE7D8D902107A
:1024E000D821012004DA021014DA021078DA02107E
:1024F000DC2101204CDA0210B4DA02109CDA02105E
:1025000010B502240B480C4984B0CDE9011000231A
:102510004FF4806209490A48009413F0CBFE08B1D9
:1025200004B010BD23464FF480620449054800F012
:102530007BFB00BF20ED002044350020D0DA0210E4
:102540000D240010C8D502102DE9F04F0025E3B08E
:1025500002AC80220021204629F02AFD2E46794F28
:10256000DFF83482DFF834A2DFF834920A223868C8
:1025700022A912F081FA012800F0C280002004F0A4
:102580004DF8831CF2D0FF28F0DC0D2810D00A286B
:102590000ED008284FD07F2857D01F28EEDD7E2D83
:1025A000ECD8605504F080F8013504F023F8E5E735
:1025B000654804F0BBF86655002D34D0042220464F
:1025C000624929F0A1FD00284DD00622204660492D
:1025D00029F09AFD0546002849D0052220465D498C
:1025E00029F092FD00287CD023786C2B36D16378BB
:1025F0006F2B33D1A378672B30D1E378202B0DF1EB
:102600000B0303D113F8012F202AFBD01A786F2A6D
:102610005CD15A786E2A59D101234F494F4888F826
:10262000003004F001F94E48267004F0FDF803F084
:10263000E1FF0025A2E7002DFBD0013D494866558A
:1026400004F0F2F803F0D6FF98E7002DF5D16055BD
:1026500004F02AF8013503F0CDFF8FE72146424808
:1026600004F0E2F8DFE7414804F060F8DBE714F03B
:102670005DFF834614F060FF594602463C4804F073
:10268000D3F82946DAF8000011F0E8FEC2074CBF83
:1026900038493949394804F0C7F8386812F06AFAFD
:1026A00020220146364804F0BFF8D9F8000012F0A5
:1026B00061FA08220146334804F0B6F898F8003071
:1026C000ABB12549304804F0AFF8ACE71A786F2A6F
:1026D0000FD15A78662A0CD19B78663B09D12B49D9
:1026E0009CE72B4804F0A0F803F084FF9BE7274900
:1026F000E8E798F80030002B8ED0002323498DE7BF
:1027000098F800B0BBF1000F03D016E098F8003045
:102710005BB90022386822A912F0AEF90128F5D081
:10272000BBF1000F3FF42AAF8CE71A4822A90193AE
:1027300004F07AF8DDF804B0EBE722A9154804F0BC
:1027400073F8E6E7D4210120F0DA0210F4DA02107F
:10275000ACDB02102CDC021030F302103CDC021067
:1027600074DC021078DC02104CDC0210FCDA02107F
:10277000B4DB0210DCDA0210E0DA0210D4DB021063
:10278000E8DB021000DC021018DC0210E8DA0210AC
:1027900034DC0210ECDA021008290020D8210120D4
:1027A000DC2101200FB400B5C3B044AB53F8042BB7
:1027B0004FF4807102A8019303F02CFD0023054A19
:1027C00002A910681A4612F081F843B05DF804EBD4
:1027D00004B07047D421012010B501240D480E49E2
:1027E00084B0CDE9011000234FF400620B490C487E
:1027F000009413F05FFD28B1214604B0BDE81040FD
:1028000012F0B2BE23464FF400620449054800F0BE
:102810000BFA00BFACED0020444500207CDC021028
:1028200049250010C8D502104FF050422DE9F84F4D
:102830006E4BD2F800A053F82A70BAF1000F2BD0DB
:10284000DFF8B48167B30026DFF8A4B1DFF8A49104
:10285000F3080C3358F8235034460836C5B105F058
:102860000F012D0989B15BF82A2004F00703E2402B
:10287000E0089B00D20701FA03F300F18C0C03D4AB
:10288000204649F82C30B84715B10134B442E6D39C
:10289000202EDDD1BDE8F88FDFF86081002FD2D186
:1028A000534DFC0804F10C0358F8233007F10800DD
:1028B000002B7CD013F00F064FEA13120AD055F804
:1028C0002A10F940C90703D44A498C3441F82460DE
:1028D000002A6CD012F00F024FEA13210DD055F8E8
:1028E0002A407E1CF440E40705D4F408414E12014E
:1028F0008C3446F82420002959D011F00F014FEAFA
:10290000133407D055F82A20BE1CF240D20758D500
:10291000002C4CD014F00F044FEA134107D055F8A7
:102920002A20FE1CF240D20752D500293FD011F0D8
:102930000F014FEA135207D02D4C54F82A603C1D6A
:10294000E640F6074BD592B312F00F024FEA13613F
:102950000DD0274C54F82A607C1DE640F60705D4BC
:10296000244EE40812058C3446F82420F9B111F005
:102970000F014FEA13731FD01D4CBE1D54F82A20BF
:10298000F240D20705D4F2081A4E09068C3246F8F6
:10299000221007375BB154F82A20FA40D10706D439
:1029A0001449FF081B0707F18C0241F82230202848
:1029B0003FF470AF074674E7002BF8D00C4C073794
:1029C000E9E7F2080B4E09028C3246F822109FE725
:1029D000F208084E24038C3246F82240A5E7054E43
:1029E000E40809048C3446F82410ACE77C17012075
:1029F000044A012000800240908202404882024046
:102A00004FF4807C0C4B00B553F8202003EB80037F
:102A1000C00082F0400200F1804003F5805E02F0C9
:102A2000C00200F5203003F54053CEF8002041608D
:102A3000C3F800C000BD00BF04800340DFF81CC025
:102A4000C90041EA82015CF820200CEB8003514070
:102A500003F5805301F00C011960704704800340B6
:102A6000064B022203EB800319B103F500531A60F1
:102A7000704703F540531A60704700BF048003405D
:102A80004FF050431B6893B10C4B4FEAD00C00F051
:102A90000700800081400A4803EB8C030CF18C0C8A
:102AA00040F82C102AB103F5005319607047054B0C
:102AB000EBE703F540531960704700BF9082024076
:102AC00000800240488202402DE9F0414FF050461C
:102AD00090461D463268214B0F4653F8221004469B
:102AE00082B031B38DB3114643F82250C9B11C4BAB
:102AF000E10804F007041B48A40007FA04F403EB00
:102B000081038C3140F82140B8F1000F0BD0012136
:102B1000152003F500531C6002B0BDE8F04100F041
:102B2000A9B9114BE4E703F540531C6002B0BDE8BE
:102B3000F08145B143F8225015200A460B4900F0B8
:102B400013FA3168D2E71146D0E7084915200192FF
:102B500000F004FB3168019A004BC5E77C170120A7
:102B600090820240008002404882024029280010E2
:102B700030B54FF050450F4C2B6885B054F823C04A
:102B80001CEA000F09D140EA0C0044F8230015208C
:102B900005B0BDE8304000F0E7B9CDE90212019080
:102BA00001F092FCDDE902122B68019854F823C071
:102BB000E9E700BF044A012010B50446152000F0E3
:102BC000CDFA4FF05043044A196852F8213023EAF5
:102BD000040342F8213010BD044A01204FF00003E5
:102BE00000B543EC440043EC40004FF0050E4FF4B9
:102BF000807C0C4BC20053F8201003EB800081F066
:102C0000400102F1804303F5203301F0C00200F5DA
:102C1000805100F540500A60C3F804E0C0F800C0DD
:102C200000BD00BF048003400FB400B5084883B066
:102C300003F07CFD049B3BB105A91846019103F00C
:102C400009FB044803F072FD012003F01BFB00BFE9
:102C500080DC021090DC0210EFF3108072B6064B9D
:102C6000D3E8CF1F01220029FAD1C3E8412F002960
:102C7000F6D1BFF35F8F70474B1201200023034A48
:102C8000C2E88F3F80F31088704700BF4B120120CD
:102C900070B51646EFF3108472B6DFF848E0DEE850
:102CA000CF2F0123002AFAD1CEE8423F002AF6D1E5
:102CB000BFF35F8F012301F0070CCA0803FA0CF37E
:102CC00010F802C01CEA030508D14CEA030C00F816
:102CD00002C0CEE88F5F84F3108870BD3046FFF7E6
:102CE000A3FF00BF4B120120F8B50F461946EFF3C2
:102CF000108672B61C4DD5E8CF4F0123002CFAD1B7
:102D0000C5E8443F002CF6D1BFF35F8F8A421BD841
:102D1000012402E00132914222D3D30810F803E0EB
:102D200002F0070C04FA0CFC1EEA0C0FF2D14EEA7A
:102D30000C0E00F803E010460023C5E88F3F86F331
:102D40001088984207DBF8BD0023C5E88F3F86F363
:102D500010884FF0FF30002FF5D00698FFF764FF82
:102D60004FF0FF30E8E700BF4B12012000B5EFF352
:102D7000108E72B6104BD3E8CFCF0122BCF1000FFA
:102D8000F9D1C3E84C2FBCF1000FF4D1BFF35F8F32
:102D900001224FEAD10C01F0070102FA01F110F80B
:102DA0000C2022EA010200F80C200022C3E88F2F39
:102DB0008EF3108800BD00BF4B120120044A10782A
:102DC000431CDBB2182B28BF10231370704700BFC1
:102DD000092900200146024A0248FFF759BF00BFF7
:102DE00094DC02108C17012000B5DFF81CC083B002
:102DF00001461F231822CDF800C00248FFF774FFD8
:102E000003B000BD8C170120B4DC02104FF0E022AB
:102E1000936843F000539360704700BF0021044B58
:102E200003F12002C3E88F1F01339342FAD17047A8
:102E3000401201204FF0E0234FF08032C3F800240D
:102E4000C3F80424C3F80824C3F80C24C3F81024DE
:102E5000C3F81424C3F81824C3F81C24C3F820248E
:102E6000C3F82424C3F82824C3F82C24C3F830243E
:102E700062B67047012300F01F029340400941B140
:102E8000800000F1604000F56140C0F880310360CF
:102E90007047024A203042F82030704700E100E0DD
:102EA0000123064A410952F8212000F01F00834007
:102EB000134214BF01200020704700BF00E100E072
:102EC00001224309034900F01F008240403341F8CA
:102ED0002320704700E100E0054A10309268054B5E
:102EE00052F82000C01A2F288CBF00200120704704
:102EF00000ED00E00C29002010B582B0EFF3108443
:102F000072B6164BD3E8CFCF0122BCF1000FF9D136
:102F1000C3E84C2FBCF1000FF4D1BFF35F8F104A10
:102F200010309268DFF83CC052F82020624508D08B
:102F3000914206D0CDE9000101F0C6FA0199074B94
:102F40000098074A926842F82010BFF35F8F002272
:102F5000C3E88F2F84F3108802B010BD49120120FE
:102F600000ED00E0110100102DE9F04F06468A4601
:102F7000154683B0EFF3108872B6714FD7E8CF2FA4
:102F80000123002AFAD1C7E8423F002AF6D1BFF355
:102F90005F8F6C4991F90020002A7BDB6A4802EBC5
:102FA000420400EB840393F806C0103681F800C099
:102FB0006649A40089684FEA420B51F826E0AEEB5F
:102FC00000012F292ED962498E4540F0848043F0BC
:102FD000010E604B02340444043B1B1BC3F34A0341
:102FE0006FEAC3434FF421416FEAD3435A4420F8B8
:102FF000221000EB820253804BF601539380FF2393
:10300000D571C2F808A09371504B9B6843F826E035
:10301000BFF35F8F0023C7E88F3F88F3108803B0AA
:10302000BDE8F08F2EF0010C9CF80710A9425AD988
:10303000B14601941E4603E0CB79AB4230D98C46B1
:103040009CF9064004EB4401002C00EB8101F3DA0B
:1030500000944BF6015433464E460CF10409043BF0
:10306000A3EB0903C3F34A036FEAC3436FEAD343F5
:10307000ACF80430384B0BEB02018CF8062040F81A
:103080002130009B00EB810294809371D571C2F8CE
:1030900008A0B9E701F018FA2A4991F900207DE764
:1030A0006FF007010094019C33460C1B6146241A03
:1030B000019431F8044F4E4644F30A04023401EB04
:1030C0004404894601990C44C4F34A046FEAC44499
:1030D0006FEAD444C3E7CDE9002301F0F5F9DDE957
:1030E0000023194873E71B4AA11CDD710144043A0F
:1030F000251D521A0544ACF10401491BC1F34A01D4
:103100006FEAC141C2F34A026FEAC2426FEAD1419B
:103110004FF4214E6FEAD24299800F4920F804E023
:103120005A804AF6AA256246121A524155432D0D7D
:10313000C3F808A09D7143F0010ECCF8001063E7BE
:10314000491201208DCC02200C29002000ED00E066
:10315000110100103C290020014880472DE9F04F63
:10316000034685B0EFF3108772B6764CD4E8CF0FE4
:1031700001220028FAD1C4E8402F0028F6D1BFF37D
:103180005F8F714A03F110069268DFF8D48152F81C
:10319000260040454BD0884257D06C4DA0EB050C23
:1031A000BCF12F0F43D84FF0010E4FEA531C4FEAEA
:1031B0008C0C0CF1604202F56142D2F800C003F0C1
:1031C0001F030EFA03F300920193C2F8803003EA62
:1031D0000C09BFF35F8FEFF30583DBB29A46002B38
:1031E00035D09E4205D0CDE9020101F06DF9DDE94F
:1031F000020120F0010EDEF808C0614505D18CE027
:10320000D3F808C0614532D09E469EF9062002EBF5
:103210004203002A05EB8303F2DA614560D0DDE961
:103220000032B9F1000F1FD0C3F880211A60464B5D
:103230009B6843F82600BFF35F8F0023C4E88F3FED
:1032400087F3108805B0BDE8F08F4046EFE720F027
:10325000010EDEF808C06145D7D19EF906B09B4546
:10326000734609DA404646E0C3F88020DFE793F969
:1032700006B0BBF1000F34DB0BEB4B0C05EB8C0203
:1032800092F807E04FEA8C010291916883F807E019
:1032900092F906C09960BCF1000F83F806C04FEAAE
:1032A0004B0E38DB6FF0070C9288029942F30A024A
:1032B00001EB420208322A44ACEB030C6244C2F335
:1032C0004A026FEAC2426FEAD2429A80204BDE4441
:1032D0001A7805EB8E0E83F800B08EF806209EE774
:1032E0007346BAF1000F1ED1FF228EF806204BF66E
:1032F0000152AEF80420DFF858C04AF6AA229CF822
:1033000000E01946491B49414A43120D83F806E083
:103310008CF8002083E70F4AD7E79EF906B0734682
:10332000BBF1000FA8DA0C4A0C4DD21A083AC2F3CE
:103330000A316FEA01516FEA115145EA5202DA800F
:1033400099806CE74912012000ED00E00C29002073
:103350008DCC022001BDFFFF4629002000F8FFFFB1
:10336000110100104FF0FF0C20F0030303F1604344
:1033700003F5644300F003001A68C0000CFA00FC77
:1033800022EA0C0281400A431A6070472DE9F0419D
:10339000EFF30583DBB29E46EFF3108572B6294941
:1033A000D1E8CF2F0123002AFAD1C1E8423F002AF9
:1033B000F6D1BFF35F8FDFF89C8040F00106D8F8AC
:1033C00008704AF6AA2357F82E7004461E4AA41A1B
:1033D000644163431B0DB7425BB21ED092F90640B5
:1033E0009C4220D092F912409C4227D092F91E4074
:1033F0009C4225D092F92A409C4208BF032413D056
:10340000124A002492F800C0137080F806C0C1E888
:103410008F4F85F31088BDE8F081D8F808200C4C58
:1034200042F82E40ECE7002404EB440402EB840253
:10343000FF2494714BF601549480E1E70124F3E7F3
:103440000224F1E7491201200C2900208DCC022032
:103450001101001000ED00E0C0F133010148FFF759
:1034600085BC00BF94CC022000B5DFF824C083B037
:10347000014605230022CDF800C00448FFF734FCC4
:103480000028A8BFC0F1330003B000BD94CC0220D7
:10349000D0DC021030B583B004460D460192FFF730
:1034A0008DFC0146204600F007F8019AA580E280D5
:1034B000BFF35F8F03B030BD014B0B440360704717
:1034C00040120120F8B5124C124DAC4211D24FF00F
:1034D000FF36002723686BB1FFF770FC01462046DA
:1034E000FFF7EAFF66602772BFF35F8F0C34AC42D0
:1034F000F0D3F8BDFFF762FC01462046FFF7DCFF82
:103500006660BFF35F8F0834AC42E3D3F8BD00BF01
:1035100094300020A430002010B50446FFF74EFC84
:1035200001462046FFF7C8FF4FF0FF336360BFF34B
:103530005F8F10BD10B50446FFF740FC01462046E2
:10354000FFF7BAFF4FF0FF32002362602372BFF330
:103550005F8F10BD10B504460120FFF745FC034BFB
:1035600003442360BFF35F8F10BD00BF40120120F2
:10357000024B0B440360BFF35F8F70474012012082
:103580002DE9F04F2DED028B85B0EFF30583DBB213
:10359000103B9A0818BF01224FF0010103F0030B02
:1035A00018BFA94CA94B08BFA94C0BEB820253F8DA
:1035B000225001FA0BF204F541539FEDA18B0292C8
:1035C0005A602FE0AB88190440F19480AB79002B4E
:1035D00040F0DE80B5F90860002EC0F21C816B69F6
:1035E00006EB460603EBC603D3E90267B7F1FF3FDC
:1035F00008BFB6F1FF3F0ED004EB8B01A36A0A6946
:10360000D21AF31A934205D30123226A03FA0BF369
:10361000134200D10E61204600F05AFDB042B9417C
:10362000C0F2F980B5F90860029B002EE363C9DBA4
:10363000D5F8149006EB460A09EBCA07BB6820468A
:10364000D7F80C80019300F043FD019B984271EB89
:103650000801B7DBB8F1000FC0F2C080D7E9043130
:103660007C4A934200F0F8807A88B5F9080092B25B
:1036700042EA0040984702460B4652EA030100F036
:10368000AD80002B80F2CD800199B1EB020E68EB8A
:10369000030839F93A30C7E902E8002B92DB686980
:1036A00003EB430200EBC202D2E90271BE4578EBA4
:1036B000010C4FEA430285DBAC462CF8083F06E0DC
:1036C00003EB430100EBC1015A00D1E90271BE4591
:1036D00078EB01011A4405DB30F9323000EBC20C03
:1036E000002BEDDA29F83A30ACF80060AB88190409
:1036F0003FF56CAF2B69EFF3108272B6D3E8CF0FB2
:1037000001210028FAD1C3E8401F0028F6D1BFF3F9
:103710005F8F4FF6FF76A8880023296900B2AE803C
:10372000C1E88F3F82F310889842FFF64FAF0746FB
:10373000A1466E6905F10808B5F9083007EB470E98
:10374000002BC44606EBCE0215DBD2E90240AA46A6
:10375000019704E036F935309446002B09DB03EB82
:10376000430506EBC502D2E90271BC4270EB0101D0
:10377000F0DA5546019FACF8007036F93E7026F835
:103780003E30002FD8DAAB794C46002B3FF422AF05
:103790000023AB71B5F90860721C33463BD06869F1
:1037A00005F1080E03E08E465A1C3FF415AF03EBFB
:1037B000430200EBC2014F889C463F0430F932308F
:1037C000F1D5664581ED028BEED0AEF80030298947
:1037D000664620F83210A5F808C0E5E739F83A3017
:1037E0002B812B69EFF3108272B6D3E8CF0F012142
:1037F0000028FAD1C3E8401F0028F6D1BFF35F8F3D
:103800006B88296929F83A3000236E80C1E88F3F20
:1038100082F31088D6E640BF05B0BDEC028BBDE850
:10382000F08F20460393019200F052FC019A039B13
:1038300010EB020E43EB01082BE700BFAFF3008053
:10384000FFFFFFFFFFFFFFFF00800B40743B0120E5
:1038500000000B408135001008460B690391984722
:103860000028BBD00399D1E9002306E70B4808B52F
:103870000368EFF3108172B6D3E8CFCF0122BCF119
:10388000000FF9D1C3E84C2FBCF1000FF4D1BFF306
:103890005F8F10F0D5FB0020002108BD184A0120E1
:1038A00038B5384B1C692CB1BDE838400A21364880
:1038B000FFF702BE0321354800F0D6FB334D314BF4
:1038C000DD60FFF77BFA324A4FF0504E024403208E
:1038D0002C4B4FF00F0C18701A61DEF800204FF6D9
:1038E000FF715A705A69A3F802C014834FF00204A2
:1038F000A2F848404FF00404A2F878404FF00504C5
:10390000A2F890404FF00604A2F8A8404FF0070438
:10391000A2F8C0404FF00904A2F8F0404FF00A04AA
:10392000A2F808414FF00B04A2F820414FF00C041C
:10393000A2F838414FF0010414864FF00804A2F8B1
:10394000D840144C4FF00D0E4FF00E0C9C60082424
:103950009980A2F850E1A2F868C1A2F86000118035
:103960000D4A2C620D49D360FFF7C6FA01210320EE
:10397000FFF780FA0A4B0A211C640348BDE838406F
:10398000FFF79ABD54290020184A012000000B407F
:1039900040120120FFFF1000743B01208135001010
:1039A00000200B4000487047542900202DE9F041C9
:1039B000064618200C4601F057F80546002842D06C
:1039C0001821204601F06CF801216861304600F0B2
:1039D00069FBEE600746FFF7F1F94FF050414FF6F3
:1039E000FF721A4B2F7003442B610B686C816B7054
:1039F000631E2A81AA806B805CB1002304EB44041F
:103A00006869A10020F813200C33994202F10102E9
:103A1000F8D10F4C4FF00108341BB4FA84F4640958
:103A200007EB84040B4B08FA07F720460A49376274
:103A300043F8245006F50156FFF75EFA414620464A
:103A4000FFF718FA37602846BDE8F08140120120E0
:103A500000800B40743B0120813500101D4B9842C3
:103A600037D030B5C3681C4D0446581B0121B0FA4D
:103A700080F0227803F5415E01FA02FC400985B02E
:103A800002EB8000C3F820C0CEF800C0039202937E
:103A90000190FFF7EFF901981049FFF75FFBDDE9AF
:103AA000020100F0F3FAE3684FF0000C5A1BB2FA7F
:103AB00082F223780A495209606903EB820341F8D4
:103AC00023C001F02BF8204605B0BDE8304001F0DE
:103AD00025B870475429002000800B408135001024
:103AE000743B0120F0B583B09DF828401D46034685
:103AF00054B9CDE9000200F0F3FA019A009B82422A
:103B000065EB0101A1425BDB1969EFF3108072B62E
:103B1000D1E8CF6F0124002EFAD1C1E8464F002E24
:103B2000F6D1BFF35F8FB3F902401F69002C3EDB73
:103B3000D3F814C004EB440E3CF83E100026598024
:103B40000CEBCE01C7E88F6F80F310884888C1E97D
:103B500002250130C0F30E00012838BF0120089A69
:103B600048800A61099A40EA04404A611A69EFF301
:103B7000108172B6D2E8CF7F0125002FFAD1C2E8BA
:103B8000475F002FF6D1BFF35F8F9A882CF83E2055
:103B90001A699C80C2E88F6F81F3108801211C781C
:103BA000DA68A14002F50153596003B0F0BD00236B
:103BB000C7E88F3F80F310884FF0FF3003B0F0BDAF
:103BC000204603B0F0BD00BFF0B516461F4602699F
:103BD0000346EFF3108072B6D2E8CF4F0121002CDC
:103BE000FAD1C2E8441F002CF6D1BFF35F8FB3F9BE
:103BF00002101D69002945DBD3F814E001EB4102F6
:103C00003EF832400EEBC20C5C800024C5E88F4FBA
:103C100080F3108805983546CCF8100006983E468B
:103C2000CCF81400BCF80200CCE902560130C0F315
:103C30000E00012838BF0120ACF8020040EA014024
:103C4000D3F810C0EFF3108572B6DCE8CF7F012601
:103C5000002FFAD1CCE8476F002FF6D1BFF35F8F6A
:103C6000B3F804C02EF832C099801A69C2E88F4FA9
:103C700085F3108801211C78DA68A14002F5015310
:103C80005960F0BD0023C5E88F3F80F310884FF0E6
:103C9000FF30F0BD03464089B0EB214F3ADD586953
:103CA0000A1402EB420210B5D3F810C000EBC200B8
:103CB000EFF3108E72B6DCE8CF4F0122002CFAD160
:103CC000CCE8442F002CF6D1BFF35F8F428889B235
:103CD00092B28A4207D000221B69C3E88F2F8EF36D
:103CE0001088002010BD6FEA42426FEA52424280C3
:103CF0000121002218699971C0E88F2F8EF3108876
:103D000093F800C0DA68084602F5015301FA0CF195
:103D1000596010BD0020704740787047F0B5B0F191
:103D2000960461F10006A04271EB060338BF00243F
:103D300083B038BF264605460F4600F0D1F9201A59
:103D400066EB0101012871F1000106DA28463946C7
:103D500003B0BDE8F04000F0FDB900F0C1F98442C5
:103D600066EB010100290ADB0021144B2246009377
:103D7000134833460191FFF727FF0130E6D0114A7F
:103D8000536A9E4204D8916AA142DFD29E42DDD19D
:103D90000D4B1B68EFF3108172B6D3E8CFCF012033
:103DA000BCF1000FF9D1C3E84C0FBCF1000FF4D106
:103DB000BFF35F8F044810F00FF9E0E76D38001093
:103DC0005429002000000B40184A0120F0B583B0B0
:103DD00004460D4600F084F94FF0FF326FF00043C7
:103DE000241845EB0105A24273EB05013CBF1446C4
:103DF0001D46B4F1960645F1FF37B44275EB070353
:103E00003CBF0026374600F06BF9301A67EB010122
:103E1000012871F1000106DA2046294603B0BDE809
:103E2000F04000F097B900F05BF9864267EB0101C2
:103E300000290ADB0021144B3246009313483B460D
:103E40000191FFF7C1FE0130E6D0114A536A9F424B
:103E500004D8916AB142DFD29F42DDD10D4B1B687D
:103E6000EFF3108172B6D3E8CFCF0120BCF1000F81
:103E7000F9D1C3E84C0FBCF1000FF4D1BFF35F8F51
:103E8000044810F0A9F8E0E76D380010542900202C
:103E900000000B40184A0120F0B583B0064600F040
:103EA0001FF94FF47A7304464FF0FF306FF0004271
:103EB000E6FB0341A04272EB01033ABF04461546FC
:103EC0000D46B4F1960645F1FF37B44275EB070392
:103ED0003CBF0026374600F003F9301A67EB0101BA
:103EE000012871F1000106DA2046294603B0BDE839
:103EF000F04000F02FB900F0F3F8864267EB0101C3
:103F000000290ADB0021144B3246009313483B463C
:103F10000191FFF759FE0130E6D0114A536A9F42E2
:103F200004D8916AB142DFD29F42DDD10D4B1B68AC
:103F3000EFF3108172B6D3E8CFCF0120BCF1000FB0
:103F4000F9D1C3E84C0FBCF1000FF4D1BFF35F8F80
:103F5000044810F041F8E0E76D38001054290020C3
:103F600000000B40184A0120EFF30582D2B282B163
:103F7000384B5A6A8A4202D200221046704714BF58
:103F8000012200229B6A834228BF42F001021046B0
:103F9000704770B584B003922F4A0646D3681578EF
:103FA00018460C46029300F093F8029B05F1040CAE
:103FB00053F82CC0039AACEB000C301A64EB0101EF
:103FC000604571F100010FDB20BF224B596AA1420D
:103FD00007D314BF012200229B6AB34228BF42F0DC
:103FE0000102104604B070BD029200F079F88642DA
:103FF00064EB01010029029A1BDB18492346CDE935
:10400000001215483246FFF7DFFD011E11DD114B8E
:104010005A6AA2421CD39B6AB34217D30E48FFF7D9
:1040200039FE0C4B5A6AA242D3D20022104604B089
:1040300070BD084B5A6AA242F7D3121B18BF012267
:104040009B6AB34228BF42F00102CAE7A242E5D10F
:1040500020BFE3E700000B40542900206D3800101A
:104060000048704700000B4010B4054B054C064A51
:10407000A04214BF1846581C10BCFEF709BE00BF72
:104080009017012000800B40ECDC0210034B044A27
:10409000904214BF1846581CFEF768BE90170120C6
:1040A00000800B4010B5074A074B084C82B0A04275
:1040B00014BF1046501C009300220323FEF714FE89
:1040C00002B010BD9017012010DD021000800B40DF
:1040D0000346416A0A46986A596A8A42FAD1704789
:1040E000034B596A0A46986A596A9142FAD1704755
:1040F00000000B4000B58E46154A536A9C46916AF3
:10410000536A6345FAD1401853EB0E034FF0000297
:1041100028BF0122BAB10E4B5A6A531C08BF104681
:1041200008D04FF0FF33184609494A6A9A42FCD337
:104130009A4207D1064B02E0596A914202D1996A2C
:104140008142F9D300BD024A526A9342ECD8EFE7AC
:1041500000000B40074A536A9942FCD8994207D1A4
:10416000044B02E05A6A914202D19A6A9042F9D80D
:10417000704700BF00000B4000EB400C4FEA8C0C76
:104180000CF1804C0CF5803C70B51E46DCF8043018
:10419000041FB3F5803F38BF4FF48033E4B238BF1B
:1041A000CCF80430012C2ED94FF40065284B0CF5C7
:1041B000405ECEF8005053F820E0BEF1000F17D15A
:1041C000DCF800E0012C8EEA421202F0E0020CF56D
:1041D000805ECEF800202BD94FF4006143F82060B8
:1041E0004FF480330CF500521160CCF8043070BDF0
:1041F0005D69B5FBFEFE0EF1010E0EEB4E0EBEF13B
:10420000030EFCD2DCE70129CED103240CF5405388
:104210001C60DCF80830DB07FBD5DCF800300CF55F
:10422000805E83EA421303F0E003CEF80030084BCF
:104230000122DCF800404C4004F00304CEF80040BA
:1042400002FA01F1DCF808200A42FBD0C4E700BF03
:1042500098170120014B53F8200070479817012050
:1042600010B5029C8E464FEA043C4CEA034C1C4BB2
:10427000B3FBF1F30168B2FBF3F4002920DB194A28
:10428000194B904214BF4FF480424FF4004217493B
:104290001A6003F580531A608B6832EA0303FBD17E
:1042A000212200F540530433C0F800E084601A6016
:1042B0000268002AFCDA0822C0F80CC01A6010BD9F
:1042C000036803F03F037345D9D18368C3F30B033D
:1042D000A342D4D1C36803F4EE236345CFD110BD0C
:1042E000001BB70000800540002002400000024093
:1042F0004FF0804C214B00B5C3F800C0002839D0E6
:10430000DFF888C0A3F54053C3F81CC0DFF880C0B5
:1043100040F0010080EA0C0CC3F820C0596298629A
:104320004FF0804E4FF0E061144B1548DFF864C049
:10433000C3F800E0C0F808C019602AB94FF0004285
:10434000A3F580531A6000BD4FF47A7303FB02F2A9
:10435000B2F1807F2ABF6FF07F4313461A464FF0B9
:104360008041DFF834C00748CCF80030064B42608B
:10437000196000BD034BD861D2E700BF00B00D400B
:1043800000A0014000800D4000A00D40D3C007B048
:104390002D3FF84FF3FFFF0108260120012300EB1A
:1043A0004000800000F1804000F58410416003600F
:1043B000704700BF10B5002482B00B46E48A00218C
:1043C00041E800F1CDE900034B0254BF1021042164
:1043D00044F25220A047DDE9002386460A214FF42B
:1043E0008170F44602B0BDE8104060470023DB8ACC
:1043F000002242E800F2520201D4102118470421A1
:10440000184700BF08B503460846191E02DB1AB15B
:1044100040F03000FFF7CEFF40F02000FAE700BF89
:10442000002310B5DA8A044686B0002343E800F37F
:104430005B0254BF1021042145F2473090471022FF
:104440000346052101A89847052802D0002006B0A0
:1044500010BD0DF1080CBCE80F0020600120616068
:10446000A260E36006B010BD034AD2F82838002BE2
:10447000FBD0BFF35F8F704700000E400021044B5C
:10448000044ABFF35F8F43F8041B9342F9D170478E
:104490000C080E402C080E404FF42A6C4FF48D701F
:1044A000054A064B0649C2F800C0D060196053683F
:1044B000002BFCDA704700BF0080044000A00440DD
:1044C00000B0FA00704700BF08B50148FEF7ACFB2A
:1044D00024DD021038B5054C054DAC4204D254F829
:1044E000043B9847AC42FAD338BD00BFF8D3021062
:1044F00038D4021038B5054C054DAC4204D254F8FE
:10450000043B9847AC42FAD338BD00BF24D4021014
:1045100038D402100648DFF828C0064B064A07497F
:10452000C0F800C01A608B6832EA0303FBD1704701
:104530000020024000300240F6FFF303000002407A
:104540007F3BEFEF044BDB6CB3F5004F03D14FF42F
:104550008022024BDA647047000011500020115095
:104560004FF0E022044BD2F8881D0B43C2F8883D7F
:1045700010EE3004704700BF030330006FF060415D
:10458000044B054A19609368DB4333F06043FAD16A
:10459000704700BF003002400000024010B545F2F5
:1045A0005320FFF723FFBDE81040034604201847BF
:1045B00010B545F25320FFF719FFBDE81040034640
:1045C00001201847FEF72ABC1449154B70B55C1A38
:1045D000A610442E324628BF4422124D920028468F
:1045E00027F020FFB4F5867F13D80F4A14D0C6F108
:1045F00044002B19410803EBC101C3E90022083331
:104600009942FAD1C30704D520F00100304445F89F
:104610002020064B9D6070BD4320F8E7000000108D
:1046200010010010000000201101001000ED00E05A
:10463000002370B52B4C82B0C4F88430FFF72CFFF8
:104640000122294BDA63636C012BFCD10321264A3A
:10465000244B11639C6B012CFCD1022605252146BD
:104660000523224A22480096FFF7FAFD21462B46F1
:10467000204A21480095FFF7F3FD0022042031462F
:104680001E4BFFF779FD2146284600221C4BFFF701
:1046900073FD0022082011461A4BFFF76DFD002222
:1046A00009201146174BFFF767FD0022062011462F
:1046B000134BFFF761FD0022114B07201146FFF756
:1046C0005BFD0420FFF7C6FD00240F4BA3FB003564
:1046D000AD0CE0B229460134FFF760FE062CF8D19C
:1046E00002B070BD0000014000300140002F685949
:1046F00000000540008C864700800540001BB70085
:1047000080D1F008006CDC0283DE1B43C1F30A5346
:104710000A4673B3A3F2FF33002B23DB332B2CDCCD
:104720000121844600B5C3F11400C3F1340E143BDB
:1047300001FA00F021FA03F3002A40EA030001FA2B
:104740000EF107DB1CF1FF3C42F1FF321CEB010CC8
:1047500040EB02024B4260EB400E0EEA020103EA1C
:104760000C0000BD00294FF0000007DA4FF00041B7
:104770007047184601F00041704770470049704784
:104780000000F03F86B003B451FC0804CDE90201FB
:1047900051FC0904CDE9040151EC0A04CDE90601FC
:1047A00003BCF047BDE800504EEC00C4BDE800502B
:1047B0004EEC01C4BDE800504EEC02C400BD000048
:1047C00000B5FFF7DFFF02E010FE30F4F8D441EC53
:1047D000100443EC112400EE010410EE010480EEFD
:1047E000200451EC1004704700B5FFF7CBFF02E046
:1047F00010FE30F4F8D441EC100443EC112400EE28
:10480000010410EE210480EE200451EC30047047C6
:1048100000B5FFF7B7FF02E010FE30F4F8D410B592
:1048200041EC100443EC112451EC040453EC052436
:10483000A0FB024C5FF0000EE0FB03CEE1FB02CEDA
:104840004CEC20440024E1FB03E444EC30E480EE33
:10485000200451EC5004BDE81040704700B5FFF74C
:1048600091FF02E010FE30F4F8D441EC100443EC68
:10487000112451EC2104A0FB01126FEA820252FBC9
:10488000100052FB12F252FB1000A0EBD07C53EC54
:1048900004245CFB13F153EC1524A1FB022001FB63
:1048A000030053EC4424A2EB000050FB1CF24FEA3F
:1048B000111312EB017043EBE27140EA515020EA10
:1048C000915020F0070053EC7524A0FB023C53EC00
:1048D000752400FB03CC01FB02CC53EC0424ACEBAD
:1048E000824C40EA5C70A0F1010041EC400480EE93
:1048F000200451EC7004704700B5FFF743FF02E05D
:1049000010FE30F4F8D441EC100480EE220410EED6
:10491000B204704700B5FFF735FF02E010FE30F437
:10492000F8D440EC700400EE010410EE210480EE97
:10493000200451EC3004704700B5FFF723FF02E07C
:1049400010FE30F4F8D440EC600400EE010410EEE8
:10495000210480EE200451EC3004704700B5FFF7CD
:1049600011FF02E010FE30F4F8D441EC800400EEB8
:10497000010410EE010480EE400410EE13047047B1
:1049800000B5FFF7FFFE02E010FE30F4F8D441EC72
:10499000800400EE010410EE010480EE400410EEED
:1049A0003304704700B5FFF7EDFE02E010FE30F46F
:1049B000F8D441EC100443EC112400EE010410EE95
:1049C0003004C0F30070704700B5FFF7DBFE02E073
:1049D00010FE30F4F8D443EC102441EC110400EE46
:1049E000010410EE30F48CBF01200020704700BF9E
:1049F00000B5FFF7C7FE02E010FE30F4F8D443EC38
:104A0000102441EC110400EE010410EE30F42CBF30
:104A100001200020704700BF00B5FFF7B3FE02E0A1
:104A200010FE30F4F8D441EC100443EC112400EEF5
:104A3000010410EE30F42CBF01200020704700BFAD
:104A400000B5FFF79FFE02E010FE30F4F8D441EC11
:104A5000100443EC112400EE010410EE30F48CBF7E
:104A600001200020704700BF38B50446094828F0EF
:104A70007FFC204626F098FA0546064828F064FC9C
:104A80002DB1054B2C449C4201D8284638BD034823
:104A9000FEF7CAF8943000200000082030DD021034
:104AA00070B504460E460B4828F062FC314620469D
:104AB00026F0E6F90546074828F046FC35B106FB26
:104AC0000454054B9C4201D8284670BD0348FEF7AC
:104AD000ABF800BF943000200000082030DD021049
:104AE00038B505460C460A4828F042FC28462146BF
:104AF00026F0D2FD0546064828F026FC2DB1054BD0
:104B00002C449C4201D8284638BD0348FEF78CF857
:104B1000943000200000082030DD021010B504465B
:104B2000054828F025FC204626F046FABDE810404E
:104B3000014828F009BC00BF94300020FFF794BF63
:104B4000FFF7ECBFFFF7EABF9A4238BF88547047BF
:104B5000704700BF2DE9F04F83B00F461146DDE9E5
:104B60000EB292079846DDE90C93064629D00D4611
:104B70009BB109EB030405EB040A01950D460D9367
:104B8000AAEB040214F8010D43463946B047A1458B
:104B9000F6D129460D9B019D1D440F9B9B070CD50B
:104BA0006C1AA34509D92A464346394620200134C8
:104BB000B0475C4505F10105F5D3284603B0BDE8D3
:104BC000F08F5B4515D28A461C468946ABEB030540
:104BD0000D4452464346394620200AF1010AB047A7
:104BE000AA45F6D149462346DDF83090002CC0D1C5
:104BF000E3E70D46002BBCD1DFE700BF2DE9F04F06
:104C00000F460F9906469DF82C008D079046DDE96A
:104C10000CA299468346099CDDF828C00E9B49D416
:104C2000002B42D1944545D201F0010504F1FF3E2D
:104C30003020E64405E00CF1010C62450EF8010F4E
:104C400002D9BCF1200FF6D1002D00F0878063451A
:104C500030D9601E4FF0300E604405E00CF1010CBD
:104C60009C4500F801EF25D0BCF1200FF6D1CD0610
:104C70000ED5480551D4624564D0634562D0BAF17F
:104C8000100F4DD0BAF1020F55D0BCF1200F2DD12D
:104C90002022CDE90B310A924B4642463946304636
:104CA0000994BDE8F04FFFF755BF11F001052ED173
:104CB0009445BBD3CD061ED54805E0D4BCF1000F0A
:104CC000D9D1BAF1100F5FD0BAF1020F74D03022EF
:104CD0004FF0010C2270BBF1000F12D1480742D5F2
:104CE0002B2204F80C200CF10102D2E762460CF1F1
:104CF000010C3020A054BCF1200FC9D0BBF1000F33
:104D0000ECD02D2204F80C200CF10102C1E798B37D
:104D1000944503F1FF3389D399E7BAF1100FB7D166
:104D20008D063DD5BCF1200FB2D0582204F80C20DE
:104D30000CF1010CA9E7BCF1200FA9D062460CF1DF
:104D4000010C08E0BCF10102BBD0BAF1100F35D064
:104D5000BAF1020FCDD16220A05496E7CD06CAD594
:104D6000480588D58BE70A0749BF2022624604F828
:104D70000C200CF101028CE711F00C0F00D0013B6C
:104D80009445FFF453AF62E78A0613D47822227069
:104D900030224FF0020C6270BBF1000F9ED0B0E7E2
:104DA000BCF1200F3FF474AF782204F80C200CF112
:104DB000010C6AE75822EAE76222E8E78D06ACF1C7
:104DC000020004D54FF0580E04F800E091E74FF0D0
:104DD000780E04F800E08CE700B9704701F064BC7D
:104DE00010B1D1E900311847704700BF0000000042
:104DF0002DE9F04F97B09DED207BDDE9225B8046E9
:104E0000894651EC170B9A46249B0C920793024655
:104E10000B468DED047BFFF7C9FD002840F0E381D0
:104E2000DDE904014FF0FF326FF48013FFF7D0FD8E
:104E3000002840F0CB80DDE904014FF0FF32B24B97
:104E4000FFF702FE002840F09F80DDE90467AAA377
:104E5000D3E9002330463946FFF7F6FD002840F03D
:104E60008280A7A3D3E9002330463946FFF7B0FD7F
:104E7000002878D13046394600220023FFF7A8FDEC
:104E8000002840F098800D90079B302113F4806F2C
:104E900008BF06250EAA2B46A5F1200605E0013B1A
:104EA000B34202F8011B00F06581092BF7D81E46BA
:104EB000ED1ADDE90401FFF755FD944B044603EBC1
:104EC000C60393ED007B8DED087BFFF727FD0246BF
:104ED0000B46DDE90401FFF78BFCDDE90823FFF752
:104EE0009BFCCDE90A01FFF74FFD0746FFF728FDC0
:104EF00002460B46DDE90A01FFF77AFC0022844BEB
:104F0000CDE90A01FFF7A0FD002800F088800137F5
:104F10003846FFF715FD02460B46DDE90801FFF7AD
:104F20006BFD08B100270134002E00F088800DF1E0
:104F30003703DFF8F0C158190DE0ACFB0721C908B1
:104F400001EB8102A7EB42023032092F00F8012F5A
:104F500040F2FB800F46202D06F1FF3605F10105DA
:104F6000EBD1202586E0079B9DED047BCDE923B3A3
:104F70004946534640460C9A8DED207B229517B04A
:104F8000BDE8F04F00F080B9079B494658074CBF79
:104F900004230323404621935346079A48BF5D4CA0
:104FA000CDE922B258BF5C4C0C9A209417B0BDE8F2
:104FB000F04FFFF7CFBD3B46324600200021FFF700
:104FC00017FC0123CDE904010D935DE7079B03F076
:104FD00002029C07049200F0F4800C9F3D464F4E65
:104FE000341D14F8010D2A4653464946C047A642CF
:104FF00005F10105F5D1049B3C1D63B10C9D631BBC
:105000009B4508D922465346494620200134C047D3
:10501000631B9B45F6D8204617B0BDE8F08F0022F1
:10502000DDE90A013A4BFFF7D3FC00287FF47CAF9F
:10503000002F40F0C2800137002E7FF478AF204669
:10504000FFF76CFC02460B46DDE90401FFF7D0FBDD
:1050500000222F4B06460F46FFF7BAFC40B93046F8
:10506000394600222A4BFFF7EFFC002800F0A18010
:105070000DF137032A4859190EE080FB0476C2EB84
:10508000A60202EB8206A4EB460630361446013532
:1050900001F8016F002A47D0202D4FEAE472ECD1CD
:1050A000079A02F00302012A14D1BBF1000F11D0BC
:1050B0000D9A002A60D00BF1FF3BBBF1200F09D9FC
:1050C00030222B4404E001355D4503F8012F31D235
:1050D000202DF8D1079B0EACCDE902B300945346C6
:1050E000494640460C9A0195FFF734FD0446204698
:1050F00017B0BDE8F08F00BF0000000065CDCD41C6
:105100000000000065CDCDC1FFFFEF7F80020310DE
:105110000000E03F90DD021098DD0210A0DD0210DB
:1051200067666666CDCCCCCC079A02F00302012AF2
:1051300000F09680202DCDD00D9B3BB32D220DEBA2
:10514000050383F838200135C4E7202D3FF409AF6B
:1051500030212E445A1905E00135202D02F8011F97
:105160003FF4FFAEAE42F7D12E226E44013586F8F1
:1051700038207FE720259CE6079A12F00C0F5AD0C2
:105180000BF1FF3BAB459BD8202DA3D0079B5A07C3
:1051900006D52B220DEB050383F83820013599E75E
:1051A0001B0797D520220DEB050383F83820013526
:1051B00090E7013424F001045AE7F9077FF5B4AE13
:1051C00039E7BBF1040F7FF608AF0C9B1D46043B8B
:1051D00003EB0B072A465346494620200135C047BA
:1051E000AF42F7D1FAE6079B03F002029D07049253
:1051F00025D00C9F3D46224EF41C14F8010D2A4682
:1052000053464946C047A64205F10105F5D1049B26
:10521000FC1C002B3FF4FFAE0C9D631B9B457FF6EF
:10522000FAAE22465346494620200134C047631B4C
:105230009B45F6D8EFE6AB453FF642AF4AE7BBF1F8
:10524000030FD6D90C9B1D46033B03EB0B072A46E5
:105250005346494620200135C047BD42F7D1C9E732
:10526000BBF1000F3FF466AF0D9A002A84D00BF11A
:10527000FF3B5D45FFF424AF202D7FF45FAF29E7AE
:105280009CDD0210000000002DE9F04F9FB01E468B
:10529000DDE928ABDDE92B982A9B04460D460B92ED
:1052A0000A9352465B4650465946FFF77FFB00285B
:1052B00040F0C680504659464FF0FF327B4BFFF717
:1052C000C3FB002840F0BC80504659464FF0FF32E7
:1052D0006FF48013FFF77CFB002840F0B18050464C
:1052E000594600220023FFF773FB002840F0DD81C0
:1052F000CDE908ABDDE9081218F480600B460F46D3
:1053000008F400610C921491159040F0A8801343AA
:1053100040F0D080002940F0EC8106230A9318F079
:105320000202109240F0DD814B46042B38BF04236B
:105330000E920422043B12921493504659460022C6
:105340000023FFF745FB002840F02A829DED087BF3
:10535000149B0B9A03930A9B8DED007B029328F418
:1053600000630493294633462046FFF741FD024679
:1053700018F0200F334629460CBF6520452002F166
:105380000108A047129B0DF1580A03F1FF3B0E9B49
:10539000002283EAE37C5046DFF814E10B9FACEB7C
:1053A000E37CD90FCDF8208002E0202AC44610D03B
:1053B000AEFB0C384FEAD80808EB8803ACEB43038C
:1053C00001303033BCF1090F02F1010200F8013C59
:1053D000EBD805234FF0000C06930A23DDF820805C
:1053E000CDE90121CDE9033CCDF800A0334642468A
:1053F00029462046CDF814B0FFF700FC109B8246EA
:10540000D3B1A0EB0708C14516D907EB0802334614
:105410002946202008F10108A047C145F5D87B1E88
:105420004B44C7F10102A3EB0A035244914538BF34
:1054300000230AF1010A9A4450461FB0BDE8F08FDC
:10544000334629462046CDE928AB0A9CCDE92B9866
:105450000B9A2A941FB0BDE8F04FFFF7C9BC57EA7A
:10546000020329D100293FF45AAF00230E930A9B6F
:105470000E9A934200F3BA81002750465946002203
:105480000023FFF7A5FA002840F015819DED087B69
:1054900028F4006343F480632C938DED287B33461E
:1054A00029462046CDE92A790B9AD3E7FFFFEF7F03
:1054B000CDCCCCCC06230A930C9BC3F30A50A0F2AC
:1054C000FF30FFF72BFAB2A3D3E90023FFF7A4F9CB
:1054D000B1A3D3E90023FFF777F90C9BCDE90E01C7
:1054E000C3F3130343F07F5138460022A24B41F42B
:1054F0004011FFF77DF994A3D3E90023FFF78CF95E
:1055000002460B46DDE90E01FFF75EF9FFF72AFAC6
:105510000E90FFF703FA8EA3D3E90023CDE90C0127
:10552000FFF77AF90022954BFFF74EF9FFF71AFAC9
:1055300089A3D3E900230746DDE90C01FFF76CF9E5
:10554000CDE90C013846FFF7E9F985A3D3E900233B
:10555000FFF762F902460B46DDE90C01FFF748F957
:1055600002460B46CDE90C23FFF756F9CDE91001B1
:10557000DDE90C0102460B46FFF726F90022CDE9D2
:105580001201DDE910017E4BFFF76CF900227D4B23
:10559000FFF71AF902460B46DDE91001FFF762F941
:1055A0000022794BFFF710F902460B46DDE91001A6
:1055B000FFF758F9CDE91001DDE90C2300204FF089
:1055C0008041FFF715F902460B46DDE91001FFF7B0
:1055D000FBF802460B46DDE91201FFF743F9002212
:1055E0006A4BFFF7F1F807F2FF3C00224FEA0C5339
:1055F000FFF712F902460B46DDE90801CDE90C235D
:10560000FFF7E6F950B1DDE90C010E9B0022013BEA
:105610000E935C4BFFF726F9CDE90C01DDE90C0197
:105620000E9B02466333C62B08F002031093149BB3
:105630002DD8002B5FD0042312930A433FF417AFF9
:10564000DDE9080148A3D3E90023FFF7E9F948B1F0
:10565000DDE9080146A3D3E90023FFF7B9F90028E3
:105660007FF405AF0A9B002B51D0159A002A00F059
:10567000AC80013B0A93129B994505D9109B002BE6
:1056800000F0AF80022310930023149344E02BBB5F
:10569000B9F1050F4FD908F00203002B49D10523BA
:1056A0001293A9F1050314933AE00BF10043CDF8EE
:1056B00020A009931EE628F4006343F4806320468B
:1056C000CDE92A792C933346DDE90867344629462B
:1056D00007F10045CDE928450B9ABBE60523129357
:1056E000ABE70222002310920422149312920E932D
:1056F00023E60527C1E6B9F1040F1FD9109B002B43
:1057000077D104231293A9F10403149304E0129BAC
:1057100099455FD80A9B14930E9B002B3FF40DAE66
:10572000DDE90801DDE90C23FFF79CF8CDE908016C
:1057300003E60223109305231293F1E70423129347
:10574000EAE700BFAFF3008061436F63A787D23FF2
:1057500071A379094F930A401655B5BBB16B02404E
:10576000EF39FAFE422EE63F2D431CEBE2361A3F9C
:105770000000000080842E410000F83F0000E03F60
:1057800000002C4000002440000018400000F03FC2
:10579000FB799F501344D33FB3C8608B288AC63F20
:1057A000149BDDE908A703930A9B07F1004B0293C2
:1057B00028F400630B9A0493294633462046CDE92A
:1057C00000ABFFF715FB0246D2E5129B994515D8B1
:1057D0001492A1E7109B23B10A9B14930223109308
:1057E0009AE7129BA9EB0303149395E79B1A5F1E9C
:1057F00043E604231293022310938DE7109B002BA2
:10580000EFD002231492109386E700BF2DE9F04FEA
:1058100091469A4C9A4AB1F1000A9BB018BF834650
:1058200014601878974ADDF8908008BF93460028E6
:1058300000F08A821D460026CDF8209008E032460E
:105840005146089BD84701362878002800F0C780C9
:10585000252805F10105F2D100222B4613F8011B82
:10586000A1F1200010280AD8DFE800F03F09093B29
:105870000909090909090937093309092F00A1F1A3
:105880003000092840F289802A2900F0E9800024AC
:105890002E2900F094800027A1F1680012282CD84E
:1058A000DFE810F04E012B0049012B0040012B00D6
:1058B0002B002B002B002B002B002B0027002B0094
:1058C0002B002B002B002B0027001D4642F001026D
:1058D000C3E71D4642F00202BFE71D4642F0040244
:1058E000BBE71D4642F01002B7E71D4642F0080232
:1058F000B3E7697842F48072013367291D467ED888
:10590000242940F2B880A1F12503422B00F2B38094
:10591000DFE813F05101B100B100B100B100B100F6
:10592000B100B100B100B100B100B100B100B100EF
:10593000B100B100B100B100B100B100B100B100DF
:10594000B100B100B100B100B100B100B100B100CF
:10595000B100B1001E013A011E01B100B100B10059
:10596000B100B100B100B100B100B100B100B100AF
:10597000B100B100B100B100B100B401B100B1009B
:10598000B100B100B100B100B100B100B100B4018B
:105990005801B4011E013A011E01002404EB8404E5
:1059A00001EB440419781D46A1F130000928A4F147
:1059B000300403F10103F1D92E297FF46CAF69782B
:1059C0001846A1F13007092F42F4806240F2258188
:1059D0002A2900F032811D46002701335CE7344656
:1059E000DDF82090B14501D809F1FF364B4632462B
:1059F00051460020D84720461BB0BDE8F08FA1F1EA
:105A00006903DBB20F2B36D8012049F2410C9840D4
:105A100010EA0C0040F0F4800A2B35D0072B2AD175
:105A200058F8041B002940F0108122F0100412F4F1
:105A3000806144F0210400F00A8112AA0823059332
:105A40001023CDE9002032460694049703930023E7
:105A5000029351465846089BFFF7D0F80646F3E6F6
:105A600058F8044B6978002C1D46BCBF42F0020276
:105A7000644201330CE70846E1E600BF0D58001010
:105A800000260120514B001058F8049B002F99F874
:105A9000000014BF3B464FF0FF33002800F0828324
:105AA000494603EB090C04E011F8013F002B00F01C
:105AB00043818C45F8D1ACEB0901530540F12081BD
:105AC000B94228BF394612F0020300F08382022354
:105AD000CDE9094832468846089C37440B9307E0D5
