:020000041000EA
:10000000002008205D0100101B0100101D010010E0
:100010001101001011010010110100101101001058
:100020001901001019010010190100101F01001022
:10003000110100101901001021010010230100100E
:100040001101001011010010110100101101001028
:100050001101001011010010110100101101001018
:100060001101001011010010110100101101001008
:1000700011010010110100101101001011010010F8
:1000800011010010110100101101001011010010E8
:1000900011010010110100101101001011010010D8
:1000A00011010010110100101101001011010010C8
:1000B00011010010110100101101001011010010B8
:1000C00011010010110100101101001011010010A8
:1000D0001101001011010010110100101101001098
:1000E0001101001011010010110100101101001088
:1000F0001101001011010010110100101101001078
:100100001101001011010010110100101101001067
:10011000EFF30580103800BE00BE00BE00BE00BE7A
:1001200000BE00BEF2EB88719C7E0610C07E0610F9
:10013000A001001090A31AE7D3DEFFFF42012110B7
:10014000FF0100009CAC0600793512AB4FF00000B7
:100150001E49086006C881F3088810474FF05040D8
:10016000006810B14FF00000F2E70DA40ECC00299A
:1001700002D000F012F8F9E71549164A002000E015
:1001800001C19142FCD11449884714498847144958
:10019000884700BEFDE701C901C29A42FBD3704700
:1001A000C07E06102001002034300020D4AD06109F
:1001B0000000082000000820D4AD06100010082020
:1001C00000100820000000007047000008ED00E06B
:1001D0003430002020CB0220B95100109D020010C5
:1001E000B1510010F8B500BF064B0749C91A891074
:1001F00048BF0131491003D0044B0BB101481847E7
:10020000704700BF34300020343000200000000070
:1002100008B5054B1BB105490548AFF30080BDE8A3
:100220000840FFF7E1BF00BF00000000DC390120FB
:1002300080C2021084464FF4007300B50348DFF813
:1002400010E0CCF800E00860136000BDCCEC0020AA
:10025000CCF4002010B58C244FF4007EDFF818C0D9
:1002600004FB03C40460034800EBC3200860C2F829
:1002700000E010BD70060120E405012084464FF423
:10028000806300B50348DFF810E0CCF800E00860B8
:10029000136000BD58F500205805012010B582B04C
:1002A00005F002F940F6B83002F03EFD254805F0B1
:1002B00085F90A242E2005F03FF94FF4FA7002F078
:1002C00033FD013CF6D10A2005F036F91E4812F044
:1002D000A5FF8646DFF898C04FF480711B4B1C4A7F
:1002E00000942020CCF800E013F0EAF98646DFF80D
:1002F00084C04221174A184B00940820CCF800E033
:1003000013F0DEF9154B1860154805F057F900F0A9
:10031000A3F800F013FC00F051FF01F037F811488A
:1003200005F04CF901F09EF90F4801F081F9012028
:1003300015F040FF15F0E2FF0C4801F079F915F0D7
:1003400057F8FEE780C202107CC50020D4C400200C
:100350009CC500209CE5002028C5002064200120C9
:10036000A0C20210B8C20210D4C20210F4C202101D
:10037000602001205C20012070B52B4801F058F965
:100380000DF04AFE38B1294801F052F9BDE870403D
:10039000002015F0AFB8264801F04AF9254D0DF0C0
:1003A000E7FD254E08E001460522244801F040F90A
:1003B00041F2883015F034FA2149224801F038F929
:1003C00047F230532049214A1D480DF0DDFD002839
:1003D000E9D111F0A3FF286804300DF07DFA04463E
:1003E00011F0A4FF21461A4801F022F901213068DA
:1003F00012F08EFF40F6B83015F012FA11F08EFFB1
:100400002B6893F8334011F091FF6307F2D4114841
:1004100001F00EF90121306812F068FF4FF47A7094
:1004200015F0FEF9C8E700BF0CC3021024C3021088
:1004300050C30210CC390120602001208CC302106F
:1004400068C3021070C30210B8DD0210040040003F
:10045000BCC30210DCC3021010B503240B480C49C6
:1004600084B0CDE9011000234FF4006209490A4825
:10047000009414F067FE08B104B010BD23464FF499
:1004800000620449054801F015FB00BF303300202D
:10049000D4640020F0C3021079030010F8C30210E6
:1004A000704700BF003A18BF012242EC401070476D
:1004B0004FF05042012352688B40134214BF012079
:1004C0000020704700207047704700BF704700BF92
:1004D000704700BF704700BF704700BF4FF05042E9
:1004E0000123D0F8FC1152688B40134214BF012045
:1004F00000207047704700BF00B5084683B00192E6
:10050000009101F0B1FA019A0099A2F10102B2FA48
:1005100082F2520942EC441003B000BD844610B58B
:100520000C4B84B00FCB8DE80F00BCF81000DCF84A
:100530000820DCF80430DCF80C40ADF80C0069460B
:100540000CF1840002940192009319F007FF04B0AB
:1005500010BD00BF54EA021070B50D464FF486720C
:1005600082B000F18404002128462AF03BFC0121DE
:1005700020461CF017FAFF220646294620461DF0A9
:100580009BF8034610B1184602B070BD019085F883
:10059000006120461AF038FB02462046C5F80421C7
:1005A0001CF02CFA019BC5F80801184602B070BD7A
:1005B00084301BF015BF00BF00B5282183B0019027
:1005C00003F008FA019803B000BD00BF00B54FF476
:1005D000007183B0019003F0FDF9019803B000BDF4
:1005E00038B504461549006A07F082FC226A0225E4
:1005F000134653F8040F02F5805C03F5405ECEF815
:100600000050126803F5005382F00702284002F000
:10061000CF02CCF80020186094F82400012101F0EA
:1006200035F994F82500012101F030F994F82600FD
:100630000121BDE8384001F029B900BF40420F0058
:100640009446006A1A4663462BF0B2BD08B502F024
:100650008FFC08BD08B502F08BFC29B14FF47A720B
:1006600000232BF091FD08BD024BA3FB0030800955
:1006700008BD00BFD34D62100846002102F0EEBA5B
:10068000084602F051BB00BF084600220C2101F0D1
:100690003DB900BF084619461346012201F05AB978
:1006A0002DE9F04F2DED0C8B0A20EDB001F0DCF9B7
:1006B0000A234FF0010242EC443042EC4030404DFE
:1006C0004FF4FA7015F0ACF82846FFF727FF40B159
:1006D00001463C4800F0ACFF4FF0FF3015F0A0F8A9
:1006E000FAE7072134A3D3E900230026364F374821
:1006F0000091CDE9026700F09BFF05F184001BF03B
:100700006FFE9FED33BADFED33AADFED338A41F29E
:10071000210A0DF18D0B4FF050420121D5F8FC312B
:10072000526801FA03F3134203D1052015F078F85B
:10073000F1E74FF48672002129A82AF053FB01212A
:1007400026481CF02FF9FF22044629A923481CF053
:10075000B3FF30B1224800F06BFF20481BF040FE91
:10076000D9E71E488DF8A4411AF04EFA6A901B484A
:100770001CF044F99DF8A44107462D2C6B9005D937
:10078000299B184A23F07F4393422FD06A982BF07D
:10079000EBFC02460B463846CDE908232BF0E4FC7F
:1007A000DDE90823CDE9000121460F4800F040FFB4
:1007B0000A481BF015FEAEE70000000000988C40D0
:1007C000ACE7002030C4021000405F405CC402105F
:1007D000CDCCCC3D0000C84200FEFF4630E80020F2
:1007E00094C40210AA550100FCC40210BDF8A83040
:1007F000242BCBD14FF6FF7341F221010DF1A5005F
:1008000010F8012F83EA02235A001E0448BF4A4011
:100810005300120448BF4B405A001E0448BF4A40D0
:100820005300120448BF4B405A001E0448BF4A40C0
:100830005300120448BF4B405A001B0448BF4A40B3
:10084000530016049BB248BF4B400DF1CD0248BF88
:100850009BB28242D4D1BDF8CE209A4296D146F2C4
:10086000BB63BDF8D0209A4290D16A9C0DF1AA06D4
:100870000DF1600CE646F36830687168B2681036B6
:10088000AEE80F000DF1CA039E420CF1100CF1D13D
:10089000DDF8CA00CCF80000DDE918300D9302F055
:1008A00085FF9FA3D3E9002302F024FFCDE90801CF
:1008B0001A9802F07BFF9AA3D3E9002302F01AFFF3
:1008C0009DED1C7ABDF97420F8EEC75A06EE102A89
:1008D000BDF97620DDED1B7A06EE902ABDF9782071
:1008E000F8EEE77A07EE102AB8EEC77ABDF97A205B
:1008F000C7EE28BA07EE102ABDF87C2027EE8B8AB7
:1009000007EE902AB8EEC66AF8EEE66AB8EEC77A45
:10091000F8EE677ACDE90A01384685EEAA9AC6EE66
:1009200028CA86EEA8CA87EE28AAC7EEAA9A2BF094
:100930001BFCCDE9060120462BF016FCCDE9040195
:1009400019EE100A2BF010FCDDE908239DED0A7B5F
:10095000CDE902018DED007B7348BDF87E709DF8F6
:10096000806000F065FEDDE90801DDED6A7AFDEEEC
:10097000E77A0D9B17EE904A0E9369A3D3E9002303
:1009800002F092FE02F036FF65A3D3E900230F9038
:10099000DDE90A0102F088FE02F02CFF2CEEA85AD5
:1009A00000236CEE285ABDEEC55A2BEEA86AFDEE68
:1009B000E55AADF85A308DF85930ADF85E3015EE85
:1009C000103A6AEE286ABDEEC66AADF84C3015EEF4
:1009D000903A29EEAA7AFDEEE66AADF84E3016EEB0
:1009E000103ABCEEC77AADF8503016EE903A9DED55
:1009F0006BDAADF8523017EE103AF2EE047AF0EE00
:100A00004D4AADF8543045F2AA5368EE277A29EEE4
:100A10002A9AFEEECF4AADF860300323FDEEE77A66
:100A2000BDEEC99A14EE902A8DF862302823CDEDE0
:100A3000117A8DED129A8DF85D203C4AADF8643044
:100A40001378ADF856708DF8633001338DF8586027
:100A500010908DF85C400EAF0DF1660613703C46A9
:100A600010360FCC46F8043C16AB9C4207F1100739
:100A700046F8100C46F80C1C46F8082CEFD103CFB2
:100A80004FF6FF730DF161043060716014F8012FAF
:100A900083EA02235A00190448BF82EA0A0253007B
:100AA000120448BF83EA0A035A001B0448BF82EAC3
:100AB0000A025300170448BF83EA0A035A001E04BF
:100AC00048BF82EA0A025300100448BF83EA0A03BF
:100AD0005A00190448BF82EA0A025300120448BFB0
:100AE00083EA0A03A345D1D146F2BB62ADF88E304A
:100AF000ADF89020002332220D48ADF8A020006808
:100B00001A4618A912F02AFE012802D0094800F05E
:100B10008FFD09481BF064FCFDE500BFAFF30080CA
:100B200000000000D0126341B0C402100DCB0220BF
:100B30006420012038C5021030E8002010B50424DC
:100B40000B480C4984B0CDE9011000234FF400623A
:100B500009490A48009414F0F5FA08B104B010BD30
:100B600023464FF400620449054800F0A3FF00BF8C
:100B7000BC330020D484002064C50210A1060010FC
:100B8000F8C3021030B51C4C0421A4464FF0010EEE
:100B900008251A4A85B01A4B02914CF8042B0FCB4A
:100BA000CDF800E001958CE80F000023724619464D
:100BB00004F1140015F018FC4FF0FF31CDE900519D
:100BC000142541F212330F4A611962610E4A2387DC
:100BD00062630923152201F1280084F83A5015F0C8
:100BE00029FC04F13C0104F1840019F003FF0923FE
:100BF000C4F8FC3105B030BDACE700202CEA02108F
:100C000044EA0210C4E90210000008404FF05042CC
:100C10000123D0F8F81152688B40134214BF012011
:100C200000207047704700BFF0B590F91450427D26
:100C30000D2D2B46A8BF0D23044690ED016AD0ED83
:100C4000026A90ED037AD0ED047A002A18BF1D469F
:100C500087B0DFF878E00DF1040C877DBEE80F0067
:100C6000ACE80F00DEF8003004F1880001A9CCF8F0
:100C700000308DED016AADF81670CDED026A8DED94
:100C8000037ACDED047A8DF8145019F047F8074631
:100C900008B9627D12B9384607B0F0BD012294F957
:100CA000141004F1880018F0B5FB50B994F9141031
:100CB000A942F0D0012204F1880018F0ABFB0746EE
:100CC000E9E70746384607B0F0BD00BF98EA0210D2
:100CD00030B50D4683B04FF4867200F188040021D0
:100CE00028462AF07FF80121204616F065FE4028AC
:100CF000024628BF402229462046019217F006FDF1
:100D0000019A034610B1184603B030BD019085F832
:100D10000021204616F03AFE019B0022C5F804018E
:100D20001846C5F8082103B030BD00BF883016F062
:100D3000FDBF00BF00B54FF4FE7183B0019002F01B
:100D400049FE019803B000BD2DE9F04F2DED0C8B4D
:100D50001C20E9B000F088FE1C234FF0010242EC99
:100D6000443042EC40303E4C4FF4FA7014F058FDE1
:100D70002046FFF759FF40B101463A4800F058FCC1
:100D80004FF0FF3014F04CFDFAE7374830A3D3E9B9
:100D9000002331A7D7E90067CDE9006700F048FCE0
:100DA00004F1880016F0C2FFDFED30BA9FED30BAD3
:100DB000DFED308ADFED30AA0DF17D0B4FF05042B0
:100DC0000121D4F8F831526801FA03F3134203D138
:100DD000052014F025FDF1E74FF48672002125A8C7
:100DE0002AF000F80121254816F0E6FD402828BF2A
:100DF0004020054625A92A46204817F087FC30B137
:100E00001F4800F015FC1D4816F090FFD6E71B4860
:100E10008DF8945116F0BAFD9DF8946105462D2E7B
:100E2000CDED67AA669005D9259B164A23F07F432E
:100E300093422BD028462BF097F902460B461248D6
:100E4000314600F0F5FB0D4816F070FFB6E700BF25
:100E50000000000000107B400000004033331340CE
:100E6000ACE900206CC5021098C50210CDCCCC3D79
:100E70000000C84200FEFF460000000034EA0020E7
:100E8000C8C50210AA55010020C60210BDF898304E
:100E9000242BCFD14FF6FF7341F221010DF19500C4
:100EA00010F8012F83EA02235A001F0448BF4A406A
:100EB0005300120448BF4B405A001F0448BF4A4029
:100EC0005300120448BF4B405A001F0448BF4A4019
:100ED0005300120448BF4B405A001F0448BF4A4009
:100EE00053009BB2120448BF4B400DF1BD0248BFF6
:100EF0009BB28242D4D1BDF8BE209A429AD146F22A
:100F0000BB63BDF8C0209A4294D10DF19A060DF151
:100F1000500C6746F36830687168B26810360FC7C6
:100F20000DF1BA039E420CF1100CF2D1DDF8BA00BB
:100F3000CCF80000DDE9146002F038FC98A3D3E996
:100F4000002302F0D7FBCDE90601169802F02EFC33
:100F500093A3D3E9002302F0CDFB9DED187ABDF9F0
:100F60006430F8EEC75A06EE103ABDF96630DDED92
:100F7000177A06EE903ABDF96830F8EEE77A07EE98
:100F8000103AB8EEC77ABDF96A3087EE28CA07EE84
:100F9000103ABDF86C3027EEAB8A07EE903AB8EE07
:100FA000C66AF8EEE66AB8EEC77AF8EE677ACDE977
:100FB0000801284685EE8B9A86EE28DAC6EEA8CA86
:100FC00087EE28AAC7EE8B9A2BF0CEF8CDE9040164
:100FD00019EE100A2BF0C8F8DDE906239DED087B19
:100FE000CDE902018DED007B6F48BDF86E709DF874
:100FF000705000F01DFB6AA3D3E90023DDE9060170
:10100000DDED667AFDEEE77A0A9617EE906A02F059
:101010004BFB02F0EFFB62A3D3E900230B90DDE969
:10102000080102F041FB02F0E5FB2DEE285A0023F7
:101030006CEEA85ABDEEC55A2CEE286AFDEEE55AB4
:10104000ADF84A308DF84930ADF84E3015EE103A13
:101050006AEE286ABDEEC66AADF83C3015EE903AED
:1010600029EE8B7AFDEEE66AADF83E3016EE103AC8
:10107000BCEEC77AADF8403016EE903ADDED67DA97
:10108000ADF8423017EE103AF2EE047AF0EE6D4A07
:10109000ADF8443045F2AA5368EE277A29EE0B9A50
:1010A000FEEECF4AADF850300323FDEEE77ABDEEF9
:1010B000C99A14EE902A8DF852302823CDED0D7A7E
:1010C0008DED0E9A8DF84D20384AADF854301378D6
:1010D000ADF846708DF8533001338DF84C600C90AC
:1010E0008DF848500AAE0DF156071370354610378B
:1010F0000FCD47F8043C12AB9D4206F1100647F8AD
:10110000100C47F80C1C47F8082CEFD132464FF66C
:10111000FF7303CA41F221050DF151063860796071
:1011200016F8012F83EA02235A001F0448BF6A40C1
:101130005300100448BF6B405A00190448BF6A406E
:101140005300120448BF6B405A001F0448BF6A4056
:101150005300100448BF6B405A00190448BF6A404E
:101160005300120448BF6B40B345D9D146F2BB626D
:10117000ADF87E30ADF88020002332220C48ADF867
:10118000902000681A4614A912F0E8FA012802D04B
:10119000084800F04DFA084816F0C8FD0EE600BFFA
:1011A00000000000D0126341E4C502100DCB022004
:1011B0006420012050C6021034EA002010B5042437
:1011C0000B480C4984B0CDE9011000234FF40062B4
:1011D00009490A48009413F0B5FF08B104B010BDE6
:1011E00023464FF400620449054800F063FC00BF49
:1011F00048340020D4A400207CC60210490D001001
:10120000F8C3021030B51F4C0422A4461E4B85B013
:10121000029201254CF8043B0823DFF878E00095A2
:101220000193BEE80F00ACE80F00DEF800302A465C
:10123000CCF80030002304F11800194615F0D4F85A
:101240004FF0FF3140F60E720B230C250F48A061C2
:101250000191A2870E4A04F11801009301F12800C0
:101260001623A26384F83E500D2215F0E3F804F132
:10127000400104F1880017F0FDFA1623C4F8F83194
:1012800005B030BDACE900206CEA0210C4E90210E0
:101290000080084084EA0210F0B5334895B000F0B1
:1012A000C7F94FF0FF310123304800220068009158
:1012B000194611F0C5FF2E4802A90CF04DFA40B9AD
:1012C0002B492C4800F0B4F94FF0FF3014F0A8FA85
:1012D000FAE711F023F808F073FE074611F026F83C
:1012E0008FB341F28D322249234800F0A1F9234CFB
:1012F0006422206803A912F007FB0128F8D1BDF889
:101300004C30002BF4D011F009F84FF42072362045
:10131000BDF84C1007F03EFE0546E0B1BDF84C208C
:1013200003A9406829F098FF41F28D3329463846D9
:1013300002AA08F0E7FC0646284607F0B7FF76B990
:1013400010F0F4FFD4E70E4800F072F94FF0FF30D0
:1013500014F066FAFAE70B4800F06AF9F0E7314654
:10136000094800F065F9EBE784C60210602001200F
:10137000B0C60210C0C6021024C7021064200120AB
:10138000F8C6021060C7021048C7021010B5022448
:101390000B480C4984B0CDE9011000234FF4806262
:1013A00009490A48009413F0CDFE08B104B010BDFD
:1013B00023464FF480620449054800F07BFB00BFE0
:1013C000A8EB0020D43400207CC702109912001032
:1013D000F8C302102DE9F04F0025E3B002AC8022E3
:1013E0000021204629F0FEFC2E46794FDFF834829A
:1013F000DFF834A2DFF834920A22386822A912F00A
:1014000083FA012800F0C280002004F04FF8831C0A
:10141000F2D0FF28F0DC0D2810D00A280ED00828C2
:101420004FD07F2857D01F28EEDD7E2DECD8605599
:1014300004F082F8013504F025F8E5E7654804F08A
:10144000BDF86655002D34D004222046624929F0AB
:1014500075FD00284DD006222046604929F06EFD1A
:101460000546002849D0052220465D4929F066FD41
:1014700000287CD023786C2B36D163786F2B33D146
:10148000A378672B30D1E378202B0DF10B0303D128
:1014900013F8012F202AFBD01A786F2A5CD15A78D2
:1014A0006E2A59D101234F494F4888F8003004F083
:1014B00003F94E48267004F0FFF803F0E3FF00251F
:1014C000A2E7002DFBD0013D4948665504F0F4F831
:1014D00003F0D8FF98E7002DF5D1605504F02CF803
:1014E000013503F0CFFF8FE72146424804F0E4F8CE
:1014F000DFE7414804F062F8DBE714F05FFF834662
:1015000014F062FF594602463C4804F0D5F82946DB
:10151000DAF8000011F0EAFEC2074CBF3849394939
:10152000394804F0C9F8386812F06CFA20220146F4
:10153000364804F0C1F8D9F8000012F063FA082226
:101540000146334804F0B8F898F80030ABB12549AB
:10155000304804F0B1F8ACE71A786F2A0FD15A7806
:10156000662A0CD19B78663B09D12B499CE72B4816
:1015700004F0A2F803F086FF9BE72749E8E798F814
:101580000030002B8ED0002323498DE798F800B05F
:10159000BBF1000F03D016E098F800305BB90022D1
:1015A000386822A912F0B0F90128F5D0BBF1000F7C
:1015B0003FF42AAF8CE71A4822A9019304F07CF883
:1015C000DDF804B0EBE722A9154804F075F8E6E76A
:1015D0005C2001209CC70210A0C7021058C802104E
:1015E000D8C80210D8DF0210E8C8021020C90210C3
:1015F00024C90210F8C80210A8C7021060C802105F
:1016000088C702108CC7021080C8021094C802104C
:10161000ACC80210C4C8021094C70210E0C802107F
:1016200098C7021098280020602001206420012023
:101630000FB400B5C3B044AB53F8042B4FF4807122
:1016400002A8019303F02EFD0023054A02A91068A9
:101650001A4612F083F843B05DF804EB04B070470B
:101660005C20012010B501240D480E4984B0CDE95D
:10167000011000234FF400620B490C48009413F052
:1016800061FD28B1214604B0BDE8104012F0B4BE9F
:1016900023464FF400620449054800F00BFA00BFEE
:1016A00034EC0020D444002028C90210D5130010C7
:1016B000F8C302104FF050422DE9F84F6E4BD2F8AC
:1016C00000A053F82A70BAF1000F2BD0DFF8B481D4
:1016D00067B30026DFF8A4B1DFF8A491F3080C3358
:1016E00058F8235034460836C5B105F00F012D09CE
:1016F00089B15BF82A2004F00703E240E0089B0070
:10170000D20701FA03F300F18C0C03D4204649F808
:101710002C30B84715B10134B442E6D3202EDDD1C8
:10172000BDE8F88FDFF86081002FD2D1534DFC085F
:1017300004F10C0358F8233007F10800002B7CD08B
:1017400013F00F064FEA13120AD055F82A10F94089
:10175000C90703D44A498C3441F82460002A6CD06C
:1017600012F00F024FEA13210DD055F82A407E1CCB
:10177000F440E40705D4F408414E12018C3446F8D5
:101780002420002959D011F00F014FEA133407D05B
:1017900055F82A20BE1CF240D20758D5002C4CD058
:1017A00014F00F044FEA134107D055F82A20FE1C0D
:1017B000F240D20752D500293FD011F00F014FEA75
:1017C000135207D02D4C54F82A603C1DE640F60712
:1017D0004BD592B312F00F024FEA13610DD0274C94
:1017E00054F82A607C1DE640F60705D4244EE40830
:1017F00012058C3446F82420F9B111F00F014FEA9C
:1018000013731FD01D4CBE1D54F82A20F240D2077E
:1018100005D4F2081A4E09068C3246F82210073712
:101820005BB154F82A20FA40D10706D41449FF08C6
:101830001B0707F18C0241F8223020283FF470AFDB
:10184000074674E7002BF8D00C4C0737E9E7F2089D
:101850000B4E09028C3246F822109FE7F208084E20
:1018600024038C3246F82240A5E7054EE40809041B
:101870008C3446F82410ACE7041601208C48012073
:101880000080024090820240488202404FF4807CF7
:101890000C4B00B553F8202003EB8003C00082F00E
:1018A000400200F1804003F5805E02F0C00200F5C6
:1018B000203003F54053CEF800204160C3F800C04B
:1018C00000BD00BF04800340DFF81CC0C90041EA2E
:1018D00082015CF820200CEB8003514003F580531B
:1018E00001F00C011960704704800340064B02228E
:1018F00003EB800319B103F500531A60704703F539
:1019000040531A60704700BF048003404FF05043BB
:101910001B6893B10C4B4FEAD00C00F0070080001D
:1019200081400A4803EB8C030CF18C0C40F82C101E
:101930002AB103F5005319607047054BEBE703F537
:1019400040531960704700BF9082024000800240FF
:10195000488202402DE9F0414FF0504690461D4626
:101960003268214B0F4653F82210044682B031B33F
:101970008DB3114643F82250C9B11C4BE10804F065
:1019800007041B48A40007FA04F403EB81038C311D
:1019900040F82140B8F1000F0BD00121152003F5CC
:1019A00000531C6002B0BDE8F04100F0A9B9114B32
:1019B000E4E703F540531C6002B0BDE8F08145B197
:1019C00043F8225015200A460B4900F013FA3168FB
:1019D000D2E71146D0E708491520019200F004FB38
:1019E0003168019A004BC5E704160120908202403D
:1019F0000080024048820240B516001030B54FF01A
:101A000050450F4C2B6885B054F823C01CEA000FDA
:101A100009D140EA0C0044F82300152005B0BDE8C8
:101A2000304000F0E7B9CDE90212019001F094FCDA
:101A3000DDE902122B68019854F823C0E9E700BFE2
:101A40008C48012010B50446152000F0CDFA4FF067
:101A50005043044A196852F8213023EA040342F83B
:101A6000213010BD8C4801204FF0000300B543EC3D
:101A7000440043EC40004FF0050E4FF4807C0C4BCB
:101A8000C20053F8201003EB800081F0400102F106
:101A9000804303F5203301F0C00200F5805100F5CA
:101AA00040500A60C3F804E0C0F800C000BD00BFA9
:101AB000048003400FB400B5084883B003F07EFDF6
:101AC000049B3BB105A91846019103F00BFB0448A8
:101AD00003F074FD012003F01DFB00BF2CC90210B0
:101AE0003CC90210EFF3108072B6064BD3E8CF1F4B
:101AF00001220029FAD1C3E8412F0029F6D1BFF312
:101B00005F8F7047D31001200023034AC2E88F3F44
:101B100080F31088704700BFD310012070B51646BF
:101B2000EFF3108472B6DFF848E0DEE8CF2F012330
:101B3000002AFAD1CEE8423F002AF6D1BFF35F8FE8
:101B4000012301F0070CCA0803FA0CF310F802C0D5
:101B50001CEA030508D14CEA030C00F802C0CEE8E9
:101B60008F5F84F3108870BD3046FFF7A3FF00BF7E
:101B7000D3100120F8B50F461946EFF3108672B660
:101B80001C4DD5E8CF4F0123002CFAD1C5E8443FC6
:101B9000002CF6D1BFF35F8F8A421BD8012402E0EC
:101BA0000132914222D3D30810F803E002F0070C6F
:101BB00004FA0CFC1EEA0C0FF2D14EEA0C0E00F8EF
:101BC00003E010460023C5E88F3F86F31088984253
:101BD00007DBF8BD0023C5E88F3F86F310884FF080
:101BE000FF30002FF5D00698FFF764FF4FF0FF306D
:101BF000E8E700BFD310012000B5EFF3108E72B6F6
:101C0000104BD3E8CFCF0122BCF1000FF9D1C3E8CC
:101C10004C2FBCF1000FF4D1BFF35F8F01224FEACC
:101C2000D10C01F0070102FA01F110F80C2022EAB0
:101C3000010200F80C200022C3E88F2F8EF31088D9
:101C400000BD00BFD3100120044A1078431CDBB252
:101C5000182B28BF10231370704700BF992800204D
:101C60000146024A0248FFF759BF00BF40C90210AF
:101C70001416012000B5DFF81CC083B001461F23F5
:101C80001822CDF800C00248FFF774FF03B000BD72
:101C90001416012060C902104FF0E022936843F04F
:101CA00000539360704700BF0021044B03F12002F2
:101CB000C3E88F1F01339342FAD17047C810012047
:101CC0004FF0E0234FF08032C3F80024C3F804241F
:101CD000C3F80824C3F80C24C3F81024C3F8142450
:101CE000C3F81824C3F81C24C3F82024C3F8242400
:101CF000C3F82824C3F82C24C3F8302462B67047F4
:101D0000012300F01F029340400941B1800000F11F
:101D1000604000F56140C0F8803103607047024ABE
:101D2000203042F82030704700E100E00123064AED
:101D3000410952F8212000F01F008340134214BFD4
:101D400001200020704700BF00E100E001224309AC
:101D5000034900F01F008240403341F823207047C0
:101D600000E100E0054A10309268054B52F820006F
:101D7000C01A2F288CBF00200120704700ED00E022
:101D80009C28002010B582B0EFF3108472B6164B79
:101D9000D3E8CFCF0122BCF1000FF9D1C3E84C2F1B
:101DA000BCF1000FF4D1BFF35F8F104A103092687E
:101DB000DFF83CC052F82020624508D0914206D09E
:101DC000CDE9000101F0C8FA0199074B0098074AD4
:101DD000926842F82010BFF35F8F0022C3E88F2F74
:101DE00084F3108802B010BDD110012000ED00E096
:101DF000110100102DE9F04F06468A46154683B0C2
:101E0000EFF3108872B6714FD7E8CF2F0123002A65
:101E1000FAD1C7E8423F002AF6D1BFF35F8F6C4981
:101E200091F90020002A7BDB6A4802EB420400EBB8
:101E3000840393F806C0103681F800C06649A400F8
:101E400089684FEA420B51F826E0AEEB00012F29DA
:101E50002ED962498E4540F0848043F0010E604BDC
:101E600002340444043B1B1BC3F34A036FEAC3431D
:101E70004FF421416FEAD3435A4420F8221000EB7B
:101E8000820253804BF601539380FF23D571C2F831
:101E900008A09371504B9B6843F826E0BFF35F8F17
:101EA0000023C7E88F3F88F3108803B0BDE8F08FA8
:101EB0002EF0010C9CF80710A9425AD9B1460194A2
:101EC0001E4603E0CB79AB4230D98C469CF90640E4
:101ED00004EB4401002C00EB8101F3DA00944BF693
:101EE000015433464E460CF10409043BA3EB0903AD
:101EF000C3F34A036FEAC3436FEAD343ACF8043039
:101F0000384B0BEB02018CF8062040F82130009B87
:101F100000EB810294809371D571C2F808A0B9E7F3
:101F200001F01AFA2A4991F900207DE76FF00701C4
:101F30000094019C33460C1B6146241A019431F82D
:101F4000044F4E4644F30A04023401EB440489462C
:101F500001990C44C4F34A046FEAC4446FEAD444C0
:101F6000C3E7CDE9002301F0F7F9DDE900231948C3
:101F700073E71B4AA11CDD710144043A251D521A66
:101F80000544ACF10401491BC1F34A016FEAC141A8
:101F9000C2F34A026FEAC2426FEAD1414FF4214EC6
:101FA0006FEAD24299800F4920F804E05A804AF63D
:101FB000AA256246121A524155432D0DC3F808A0B6
:101FC0009D7143F0010ECCF8001063E7D1100120A1
:101FD00015CB02209C28002000ED00E0110100102C
:101FE000CC280020014880472DE9F04F034685B0FA
:101FF000EFF3108772B6764CD4E8CF0F0122002899
:10200000FAD1C4E8402F0028F6D1BFF35F8F714AA0
:1020100003F110069268DFF8D48152F8260040459B
:102020004BD0884257D06C4DA0EB050CBCF12F0F64
:1020300043D84FF0010E4FEA531C4FEA8C0C0CF1C1
:10204000604202F56142D2F800C003F01F030EFAAD
:1020500003F300920193C2F8803003EA0C09BFF346
:102060005F8FEFF30583DBB29A46002B35D09E429B
:1020700005D0CDE9020101F06FF9DDE9020120F0A0
:10208000010EDEF808C0614505D18CE0D3F808C028
:10209000614532D09E469EF9062002EB4203002A9B
:1020A00005EB8303F2DA614560D0DDE90032B9F176
:1020B000000F1FD0C3F880211A60464B9B6843F87D
:1020C0002600BFF35F8F0023C4E88F3F87F310889B
:1020D00005B0BDE8F08F4046EFE720F0010EDEF8D6
:1020E00008C06145D7D19EF906B09B45734609DA11
:1020F000404646E0C3F88020DFE793F906B0BBF125
:10210000000F34DB0BEB4B0C05EB8C0292F807E075
:102110004FEA8C010291916883F807E092F906C0BA
:102120009960BCF1000F83F806C04FEA4B0E38DB14
:102130006FF0070C9288029942F30A0201EB420207
:1021400008322A44ACEB030C6244C2F34A026FEA41
:10215000C2426FEAD2429A80204BDE441A7805EBE5
:102160008E0E83F800B08EF806209EE77346BAF113
:10217000000F1ED1FF228EF806204BF60152AEF85A
:102180000420DFF858C04AF6AA229CF800E019465D
:10219000491B49414A43120D83F806E08CF80020A0
:1021A00083E70F4AD7E79EF906B07346BBF1000FED
:1021B000A8DA0C4A0C4DD21A083AC2F30A316FEA77
:1021C00001516FEA115145EA5202DA8099806CE7B9
:1021D000D110012000ED00E09C28002015CB02204A
:1021E00001BDFFFFD628002000F8FFFF11010010FD
:1021F0004FF0FF0C20F0030303F1604303F5644349
:1022000000F003001A68C0000CFA00FC22EA0C027D
:1022100081400A431A6070472DE9F041EFF30583CE
:10222000DBB29E46EFF3108572B62949D1E8CF2F75
:102230000123002AFAD1C1E8423F002AF6D1BFF3B8
:102240005F8FDFF89C8040F00106D8F808704AF6EE
:10225000AA2357F82E7004461E4AA41A6441634309
:102260001B0DB7425BB21ED092F906409C4220D0B3
:1022700092F912409C4227D092F91E409C4225D0F0
:1022800092F92A409C4208BF032413D0124A00242A
:1022900092F800C0137080F806C0C1E88F4F85F334
:1022A0001088BDE8F081D8F808200C4C42F82E4088
:1022B000ECE7002404EB440402EB8402FF24947155
:1022C0004BF601549480E1E70124F3E70224F1E79F
:1022D000D11001209C28002015CB022011010010F4
:1022E00000ED00E0C0F133010148FFF785BC00BFFD
:1022F0001CCB022000B5DFF824C083B001460523C3
:102300000022CDF800C00448FFF734FC0028A8BF25
:10231000C0F1330003B000BD1CCB02207CC9021009
:1023200030B583B004460D460192FFF78DFC01469F
:10233000204600F007F8019AA580E280BFF35F8F86
:1023400003B030BD014B0B4403607047C81001203F
:10235000F8B5124C124DAC4211D24FF0FF360027A7
:1023600023686BB1FFF770FC01462046FFF7EAFFD8
:1023700066602772BFF35F8F0C34AC42F0D3F8BDB8
:10238000FFF762FC01462046FFF7DCFF6660BFF303
:102390005F8F0834AC42E3D3F8BD00BF2430002087
:1023A0003430002010B50446FFF74EFC01462046AD
:1023B000FFF7C8FF4FF0FF336360BFF35F8F10BDBF
:1023C00010B50446FFF740FC01462046FFF7BAFF70
:1023D0004FF0FF32002362602372BFF35F8F10BDA6
:1023E00010B504460120FFF745FC034B034423606E
:1023F000BFF35F8F10BD00BFC8100120024B0B441C
:102400000360BFF35F8F7047C81001200000000019
:102410002DE9F04F2DED028B85B0EFF30583DBB294
:10242000103B9A0818BF01224FF0010103F0030B83
:1024300018BFA94CA94B08BFA94C0BEB820253F85B
:10244000225001FA0BF204F541539FEDA18B029249
:102450005A602FE0AB88190440F19480AB79002BCF
:1024600040F0DE80B5F90860002EC0F21C816B6977
:1024700006EB460603EBC603D3E90267B7F1FF3F5D
:1024800008BFB6F1FF3F0ED004EB8B01A36A0A69C7
:10249000D21AF31A934205D30123226A03FA0BF3EB
:1024A000134200D10E61204600F05AFDB042B941FE
:1024B000C0F2F980B5F90860029B002EE363C9DB26
:1024C000D5F8149006EB460A09EBCA07BB6820460C
:1024D000D7F80C80019300F043FD019B984271EB0B
:1024E0000801B7DBB8F1000FC0F2C080D7E90431B2
:1024F0007C4A934200F0F8807A88B5F9080092B2DD
:1025000042EA0040984702460B4652EA030100F0B7
:10251000AD80002B80F2CD800199B1EB020E68EB0B
:10252000030839F93A30C7E902E8002B92DB686901
:1025300003EB430200EBC202D2E90271BE4578EB25
:10254000010C4FEA430285DBAC462CF8083F06E05D
:1025500003EB430100EBC1015A00D1E90271BE4512
:1025600078EB01011A4405DB30F9323000EBC20C84
:10257000002BEDDA29F83A30ACF80060AB8819048A
:102580003FF56CAF2B69EFF3108272B6D3E8CF0F33
:1025900001210028FAD1C3E8401F0028F6D1BFF37B
:1025A0005F8F4FF6FF76A8880023296900B2AE80BE
:1025B000C1E88F3F82F310889842FFF64FAF07467D
:1025C000A1466E6905F10808B5F9083007EB470E1A
:1025D000002BC44606EBCE0215DBD2E90240AA4628
:1025E000019704E036F935309446002B09DB03EB04
:1025F000430506EBC502D2E90271BC4270EB010152
:10260000F0DA5546019FACF8007036F93E7026F8B6
:102610003E30002FD8DAAB794C46002B3FF422AF86
:102620000023AB71B5F90860721C33463BD0686972
:1026300005F1080E03E08E465A1C3FF415AF03EB7C
:10264000430200EBC2014F889C463F0430F9323010
:10265000F1D5664581ED028BEED0AEF800302989C8
:10266000664620F83210A5F808C0E5E739F83A3098
:102670002B812B69EFF3108272B6D3E8CF0F0121C3
:102680000028FAD1C3E8401F0028F6D1BFF35F8FBE
:102690006B88296929F83A3000236E80C1E88F3FA2
:1026A00082F31088D6E640BF05B0BDEC028BBDE8D2
:1026B000F08F20460393019200F052FC019A039B95
:1026C00010EB020E43EB01082BE700BFAFF30080D5
:1026D000FFFFFFFFFFFFFFFF00800B40FC390120E1
:1026E00000000B401124001008460B690391984725
:1026F0000028BBD00399D1E9002306E70B4808B5B1
:102700000368EFF3108172B6D3E8CFCF0122BCF19A
:10271000000FF9D1C3E84C2FBCF1000FF4D1BFF387
:102720005F8F10F0D5FB0020002108BDA0480120DC
:1027300038B5384B1C692CB1BDE838400A21364801
:10274000FFF700BE0321354800F0D6FB334D314B77
:10275000DD60FFF779FA324A4FF0504E0244032011
:102760002C4B4FF00F0C18701A61DEF800204FF65A
:10277000FF715A705A69A3F802C014834FF0020423
:10278000A2F848404FF00404A2F878404FF0050446
:10279000A2F890404FF00604A2F8A8404FF00704BA
:1027A000A2F8C0404FF00904A2F8F0404FF00A042C
:1027B000A2F808414FF00B04A2F820414FF00C049E
:1027C000A2F838414FF0010414864FF00804A2F833
:1027D000D840144C4FF00D0E4FF00E0C9C600824A6
:1027E0009980A2F850E1A2F868C1A2F860001180B7
:1027F0000D4A2C620D49D360FFF7C4FA0121032072
:10280000FFF77EFA0A4B0A211C640348BDE83840F2
:10281000FFF798BDE4280020A048012000000B40ED
:10282000C8100120FFFF1000FC3901201124001006
:1028300000200B4000487047E42800202DE9F041BB
:10284000064618200C4601F057F80546002842D0ED
:102850001821204601F06CF801216861304600F033
:1028600069FBEE600746FFF7EFF94FF050414FF676
:10287000FF721A4B2F7003442B610B686C816B70D5
:10288000631E2A81AA806B805CB1002304EB4404A0
:102890006869A10020F813200C33994202F101026B
:1028A000F8D10F4C4FF00108341BB4FA84F46409DA
:1028B00007EB84040B4B08FA07F720460A493762F6
:1028C00043F8245006F50156FFF75CFA41462046CE
:1028D000FFF716FA37602846BDE8F081C8100120DE
:1028E00000800B40FC390120112400101D4B984240
:1028F00037D030B5C3681C4D0446581B0121B0FACF
:1029000080F0227803F5415E01FA02FC400985B0AF
:1029100002EB8000C3F820C0CEF800C003920293FF
:102920000190FFF7EDF901981049FFF75DFBDDE934
:10293000020100F0F3FAE3684FF0000C5A1BB2FA00
:1029400082F223780A495209606903EB820341F855
:1029500023C001F02BF8204605B0BDE8304001F05F
:1029600025B87047E428002000800B401124001097
:10297000FC390120F0B583B09DF828401D46034680
:1029800054B9CDE9000200F0F3FA019A009B8242AB
:1029900065EB0101A1425BDB1969EFF3108072B6B0
:1029A000D1E8CF6F0124002EFAD1C1E8464F002EA6
:1029B000F6D1BFF35F8FB3F902401F69002C3EDBF5
:1029C000D3F814C004EB440E3CF83E1000265980A6
:1029D0000CEBCE01C7E88F6F80F310884888C1E9FF
:1029E00002250130C0F30E00012838BF0120089AEB
:1029F00048800A61099A40EA04404A611A69EFF383
:102A0000108172B6D2E8CF7F0125002FFAD1C2E83B
:102A1000475F002FF6D1BFF35F8F9A882CF83E20D6
:102A20001A699C80C2E88F6F81F3108801211C789D
:102A3000DA68A14002F50153596003B0F0BD0023EC
:102A4000C7E88F3F80F310884FF0FF3003B0F0BD30
:102A5000204603B0F0BD00BFF0B516461F46026920
:102A60000346EFF3108072B6D2E8CF4F0121002C5D
:102A7000FAD1C2E8441F002CF6D1BFF35F8FB3F93F
:102A800002101D69002945DBD3F814E001EB410277
:102A90003EF832400EEBC20C5C800024C5E88F4F3C
:102AA00080F3108805983546CCF8100006983E460D
:102AB000CCF81400BCF80200CCE902560130C0F397
:102AC0000E00012838BF0120ACF8020040EA0140A6
:102AD000D3F810C0EFF3108572B6DCE8CF7F012683
:102AE000002FFAD1CCE8476F002FF6D1BFF35F8FEC
:102AF000B3F804C02EF832C099801A69C2E88F4F2B
:102B000085F3108801211C78DA68A14002F5015391
:102B10005960F0BD0023C5E88F3F80F310884FF067
:102B2000FF30F0BD03464089B0EB214F3ADD5869D4
:102B30000A1402EB420210B5D3F810C000EBC20039
:102B4000EFF3108E72B6DCE8CF4F0122002CFAD1E1
:102B5000CCE8442F002CF6D1BFF35F8F428889B2B6
:102B600092B28A4207D000221B69C3E88F2F8EF3EE
:102B70001088002010BD6FEA42426FEA5242428044
:102B80000121002218699971C0E88F2F8EF31088F7
:102B900093F800C0DA68084602F5015301FA0CF117
:102BA000596010BD0020704740787047F0B5B0F113
:102BB000960461F10006A04271EB060338BF0024C1
:102BC00083B038BF264605460F4600F0D1F9201ADB
:102BD00066EB0101012871F1000106DA2846394649
:102BE00003B0BDE8F04000F0FDB900F0C1F9844247
:102BF00066EB010100290ADB0021144B22460093F9
:102C0000134833460191FFF727FF0130E6D0114A00
:102C1000536A9E4204D8916AA142DFD29E42DDD11E
:102C20000D4B1B68EFF3108172B6D3E8CFCF0120B4
:102C3000BCF1000FF9D1C3E84C0FBCF1000FF4D187
:102C4000BFF35F8F044810F00FF9E0E7FD26001096
:102C5000E428002000000B40A0480120F0B583B01C
:102C600004460D4600F084F94FF0FF326FF0004348
:102C7000241845EB0105A24273EB05013CBF144645
:102C80001D46B4F1960645F1FF37B44275EB0703D4
:102C90003CBF0026374600F06BF9301A67EB0101A4
:102CA000012871F1000106DA2046294603B0BDE88B
:102CB000F04000F097B900F05BF9864267EB010144
:102CC00000290ADB0021144B3246009313483B468F
:102CD0000191FFF7C1FE0130E6D0114A536A9F42CD
:102CE00004D8916AB142DFD29F42DDD10D4B1B68FF
:102CF000EFF3108172B6D3E8CFCF0120BCF1000F03
:102D0000F9D1C3E84C0FBCF1000FF4D1BFF35F8FD2
:102D1000044810F0A9F8E0E7FD260010E4280020A0
:102D200000000B40A0480120F0B583B0064600F03B
:102D30001FF94FF47A7304464FF0FF306FF00042F2
:102D4000E6FB0341A04272EB01033ABF044615467D
:102D50000D46B4F1960645F1FF37B44275EB070313
:102D60003CBF0026374600F003F9301A67EB01013B
:102D7000012871F1000106DA2046294603B0BDE8BA
:102D8000F04000F02FB900F0F3F8864267EB010144
:102D900000290ADB0021144B3246009313483B46BE
:102DA0000191FFF759FE0130E6D0114A536A9F4264
:102DB00004D8916AB142DFD29F42DDD10D4B1B682E
:102DC000EFF3108172B6D3E8CFCF0120BCF1000F32
:102DD000F9D1C3E84C0FBCF1000FF4D1BFF35F8F02
:102DE000044810F041F8E0E7FD260010E428002038
:102DF00000000B40A0480120EFF30582D2B282B15F
:102E0000384B5A6A8A4202D200221046704714BFD9
:102E1000012200229B6A834228BF42F00102104631
:102E2000704770B584B003922F4A0646D368157870
:102E300018460C46029300F093F8029B05F1040C2F
:102E400053F82CC0039AACEB000C301A64EB010170
:102E5000604571F100010FDB20BF224B596AA1428E
:102E600007D314BF012200229B6AB34228BF42F05D
:102E70000102104604B070BD029200F079F886425B
:102E800064EB01010029029A1BDB18492346CDE9B6
:102E9000001215483246FFF7DFFD011E11DD114B10
:102EA0005A6AA2421CD39B6AB34217D30E48FFF75B
:102EB00039FE0C4B5A6AA242D3D20022104604B00B
:102EC00070BD084B5A6AA242F7D3121B18BF0122E9
:102ED0009B6AB34228BF42F00102CAE7A242E5D191
:102EE00020BFE3E700000B40E4280020FD2600108F
:102EF0000048704700000B4010B4054B054C064AD3
:102F0000A04214BF1846581C10BCFEF707BE00BFF5
:102F10001816012000800B4098C90210034B044A88
:102F2000904214BF1846581CFEF766BE18160120C2
:102F300000800B4010B5074A074B084C82B0A042F6
:102F400014BF1046501C009300220323FEF712FE0C
:102F500002B010BD18160120BCC9021000800B4041
:102F60000346416A0A46986A596A8A42FAD170470A
:102F7000034B596A0A46986A596A9142FAD17047D6
:102F800000000B4000B58E46154A536A9C46916A74
:102F9000536A6345FAD1401853EB0E034FF0000219
:102FA00028BF0122BAB10E4B5A6A531C08BF104603
:102FB00008D04FF0FF33184609494A6A9A42FCD3B9
:102FC0009A4207D1064B02E0596A914202D1996AAE
:102FD0008142F9D300BD024A526A9342ECD8EFE72E
:102FE00000000B40074A536A9942FCD8994207D126
:102FF000044B02E05A6A914202D19A6A9042F9D88F
:10300000704700BF00000B4000EB400C4FEA8C0CF7
:103010000CF1804C0CF5803C70B51E46DCF8043099
:10302000041FB3F5803F38BF4FF48033E4B238BF9C
:10303000CCF80430012C2ED94FF40065284B0CF548
:10304000405ECEF8005053F820E0BEF1000F17D1DB
:10305000DCF800E0012C8EEA421202F0E0020CF5EE
:10306000805ECEF800202BD94FF4006143F8206039
:103070004FF480330CF500521160CCF8043070BD71
:103080005D69B5FBFEFE0EF1010E0EEB4E0EBEF1BC
:10309000030EFCD2DCE70129CED103240CF540530A
:1030A0001C60DCF80830DB07FBD5DCF800300CF5E1
:1030B000805E83EA421303F0E003CEF80030084B51
:1030C0000122DCF800404C4004F00304CEF800403C
:1030D00002FA01F1DCF808200A42FBD0C4E700BF85
:1030E00020160120014B53F82000704720160120C4
:1030F00010B5029C8E464FEA043C4CEA034C1C4B34
:10310000B3FBF1F30168B2FBF3F4002920DB194AA9
:10311000194B904214BF4FF480424FF400421749BC
:103120001A6003F580531A608B6832EA0303FBD1FF
:10313000212200F540530433C0F800E084601A6097
:103140000268002AFCDA0822C0F80CC01A6010BD20
:10315000036803F03F037345D9D18368C3F30B03BE
:10316000A342D4D1C36803F4EE236345CFD110BD8D
:10317000001BB70000800540002002400000024014
:103180004FF0804C214B00B5C3F800C0002839D067
:10319000DFF888C0A3F54053C3F81CC0DFF880C037
:1031A00040F0010080EA0C0CC3F820C0596298621C
:1031B0004FF0804E4FF0E061144B1548DFF864C0CB
:1031C000C3F800E0C0F808C019602AB94FF0004207
:1031D000A3F580531A6000BD4FF47A7303FB02F22B
:1031E000B2F1807F2ABF6FF07F4313461A464FF03B
:1031F0008041DFF834C00748CCF80030064B42600D
:10320000196000BD034BD861D2E700BF00B00D408C
:1032100000A0014000800D4000A00D40D3C007B0C9
:103220002D3FF84FF3FFFF0190240120012300EB15
:103230004000800000F1804000F584104160036090
:10324000704700BF10B5002482B00B46E48A00210D
:1032500041E800F1CDE900034B0254BF10210421E5
:1032600044F25220A047DDE9002386460A214FF4AC
:103270008170F44602B0BDE8104060470023DB8A4D
:10328000002242E800F2520201D410211847042122
:10329000184700BF08B503460846191E02DB1AB1DD
:1032A00040F03000FFF7CEFF40F02000FAE700BF0B
:1032B000002310B5DA8A044686B0002343E800F301
:1032C0005B0254BF1021042145F247309047102281
:1032D0000346052101A89847052802D0002006B022
:1032E00010BD0DF1080CBCE80F00206001206160EA
:1032F000A260E36006B010BD034AD2F82838002B64
:10330000FBD0BFF35F8F704700000E400021044BDD
:10331000044ABFF35F8F43F8041B9342F9D170470F
:103320000C080E402C080E404FF42A6C4FF48D70A0
:10333000054A064B0649C2F800C0D06019605368C0
:10334000002BFCDA704700BF0080044000A004405E
:1033500000B0FA00704700BF08B50148FEF7AAFBAD
:10336000D0C9021038B5054C054DAC4204D254F812
:10337000043B9847AC42FAD338BD00BF28C20210C4
:1033800068C2021038B5054C054DAC4204D254F861
:10339000043B9847AC42FAD338BD00BF54C2021078
:1033A00068C202100648DFF828C0064B064A0749E3
:1033B000C0F800C01A608B6832EA0303FBD1704783
:1033C0000020024000300240F6FFF30300000240FC
:1033D0007F3BEFEF044BDB6CB3F5004F03D14FF4B1
:1033E0008022024BDA647047000011500020115017
:1033F0004FF0E022044BD2F8881D0B43C2F8883D01
:1034000010EE3004704700BF030330006FF06041DE
:10341000044B054A19609368DB4333F06043FAD1EB
:10342000704700BF003002400000024010B545F276
:103430005320FFF723FFBDE8104003460420184740
:1034400010B545F25320FFF719FFBDE810400346C1
:1034500001201847FEF728BC1449154B70B55C1ABB
:10346000A610442E324628BF4422124D9200284610
:1034700027F0F2FEB4F5867F13D80F4A14D0C6F1B8
:1034800044002B19410803EBC101C3E900220833B2
:103490009942FAD1C30704D520F00100304445F821
:1034A0002020064B9D6070BD4320F8E7000000100F
:1034B00010010010000000201101001000ED00E0DC
:1034C000002370B52B4C82B0C4F88430FFF72CFF7A
:1034D0000122294BDA63636C012BFCD10321264ABC
:1034E000244B11639C6B012CFCD10226052521463F
:1034F0000523224A22480096FFF7FAFD21462B4673
:10350000204A21480095FFF7F3FD002204203146B0
:103510001E4BFFF779FD2146284600221C4BFFF782
:1035200073FD0022082011461A4BFFF76DFD0022A3
:1035300009201146174BFFF767FD002206201146B0
:10354000134BFFF761FD0022114B07201146FFF7D7
:103550005BFD0420FFF7C6FD00240F4BA3FB0035E5
:10356000AD0CE0B229460134FFF760FE062CF8D11D
:1035700002B070BD0000014000300140002F6859CA
:1035800000000540008C864700800540001BB70006
:1035900080D1F008006CDC0283DE1B43C1F30A53C8
:1035A0000A4673B3A3F2FF33002B23DB332B2CDC4F
:1035B0000121844600B5C3F11400C3F1340E143B5D
:1035C00001FA00F021FA03F3002A40EA030001FAAD
:1035D0000EF107DB1CF1FF3C42F1FF321CEB010C4A
:1035E00040EB02024B4260EB400E0EEA020103EA9E
:1035F0000C0000BD00294FF0000007DA4FF0004139
:103600007047184601F00041704770470049704705
:103610000000F03F86B003B451FC0804CDE902017C
:1036200051FC0904CDE9040151EC0A04CDE906017D
:1036300003BCF047BDE800504EEC00C4BDE80050AC
:103640004EEC01C4BDE800504EEC02C400BD0000C9
:1036500000B5FFF7DFFF02E010FE30F4F8D441ECD4
:10366000100443EC112400EE010410EE010480EE7E
:10367000200451EC1004704700B5FFF7CBFF02E0C7
:1036800010FE30F4F8D441EC100443EC112400EEA9
:10369000010410EE210480EE200451EC3004704748
:1036A00000B5FFF7B7FF02E010FE30F4F8D410B514
:1036B00041EC100443EC112451EC040453EC0524B8
:1036C000A0FB024C5FF0000EE0FB03CEE1FB02CE5C
:1036D0004CEC20440024E1FB03E444EC30E480EEB5
:1036E000200451EC5004BDE81040704700B5FFF7CE
:1036F00091FF02E010FE30F4F8D441EC100443ECEA
:10370000112451EC2104A0FB01126FEA820252FB4A
:10371000100052FB12F252FB1000A0EBD07C53ECD5
:1037200004245CFB13F153EC1524A1FB022001FBE4
:10373000030053EC4424A2EB000050FB1CF24FEAC0
:10374000111312EB017043EBE27140EA515020EA91
:10375000915020F0070053EC7524A0FB023C53EC81
:10376000752400FB03CC01FB02CC53EC0424ACEB2E
:10377000824C40EA5C70A0F1010041EC400480EE14
:10378000200451EC7004704700B5FFF743FF02E0DE
:1037900010FE30F4F8D441EC100480EE220410EE58
:1037A000B204704700B5FFF735FF02E010FE30F4B9
:1037B000F8D440EC700400EE010410EE210480EE19
:1037C000200451EC3004704700B5FFF723FF02E0FE
:1037D00010FE30F4F8D440EC600400EE010410EE6A
:1037E000210480EE200451EC3004704700B5FFF74F
:1037F00011FF02E010FE30F4F8D441EC800400EE3A
:10380000010410EE010480EE400410EE1304704732
:1038100000B5FFF7FFFE02E010FE30F4F8D441ECF3
:10382000800400EE010410EE010480EE400410EE6E
:103830003304704700B5FFF7EDFE02E010FE30F4F0
:10384000F8D441EC100443EC112400EE010410EE16
:103850003004C0F30070704700B5FFF7DBFE02E0F4
:1038600010FE30F4F8D443EC102441EC110400EEC7
:10387000010410EE30F48CBF01200020704700BF1F
:1038800000B5FFF7C7FE02E010FE30F4F8D443ECB9
:10389000102441EC110400EE010410EE30F42CBFB2
:1038A00001200020704700BF00B5FFF7B3FE02E023
:1038B00010FE30F4F8D441EC100443EC112400EE77
:1038C000010410EE30F42CBF01200020704700BF2F
:1038D00000B5FFF79FFE02E010FE30F4F8D441EC93
:1038E000100443EC112400EE010410EE30F48CBF00
:1038F00001200020704700BF38B50446094828F071
:103900005FFC204626F06AFA0546064828F040FC8F
:103910002DB1054B2C449C4201D8284638BD0348A4
:10392000FEF7C8F82430002000000820DCC902108F
:1039300070B504460E460B4828F042FC314620463E
:1039400026F0B8F90546074828F022FC35B106FBF9
:103950000454054B9C4201D8284670BD0348FEF72D
:10396000A9F800BF2430002000000820DCC90210A4
:1039700038B505460C460A4828F022FC2846214660
:1039800026F0A4FD0546064828F002FC2DB1054BA3
:103990002C449C4201D8284638BD0348FEF78AF8DB
:1039A0002430002000000820DCC9021010B50446B5
:1039B000054828F005FC204626F018FABDE810401E
:1039C000014828F0E5BB00BF24300020FFF794BF7A
:1039D000FFF7ECBFFFF7EABF9A4238BF8854704741
:1039E000704700BF2DE9F04F83B00F461146DDE967
:1039F0000EB292079846DDE90C93064629D00D4693
:103A00009BB109EB030405EB040A01950D460D93E8
:103A1000AAEB040214F8010D43463946B047A1450C
:103A2000F6D129460D9B019D1D440F9B9B070CD58C
:103A30006C1AA34509D92A46434639462020013449
:103A4000B0475C4505F10105F5D3284603B0BDE854
:103A5000F08F5B4515D28A461C468946ABEB0305C1
:103A60000D4452464346394620200AF1010AB04728
:103A7000AA45F6D149462346DDF83090002CC0D146
:103A8000E3E70D46002BBCD1DFE700BF2DE9F04F87
:103A90000F460F9906469DF82C008D079046DDE9EC
:103AA0000CA299468346099CDDF828C00E9B49D498
:103AB000002B42D1944545D201F0010504F1FF3EAF
:103AC0003020E64405E00CF1010C62450EF8010FD0
:103AD00002D9BCF1200FF6D1002D00F0878063459C
:103AE00030D9601E4FF0300E604405E00CF1010C3F
:103AF0009C4500F801EF25D0BCF1200FF6D1CD0692
:103B00000ED5480551D4624564D0634562D0BAF100
:103B1000100F4DD0BAF1020F55D0BCF1200F2DD1AE
:103B20002022CDE90B310A924B46424639463046B7
:103B30000994BDE8F04FFFF755BF11F001052ED1F4
:103B40009445BBD3CD061ED54805E0D4BCF1000F8B
:103B5000D9D1BAF1100F5FD0BAF1020F74D0302270
:103B60004FF0010C2270BBF1000F12D1480742D573
:103B70002B2204F80C200CF10102D2E762460CF172
:103B8000010C3020A054BCF1200FC9D0BBF1000FB4
:103B9000ECD02D2204F80C200CF10102C1E798B3FF
:103BA000944503F1FF3389D399E7BAF1100FB7D1E8
:103BB0008D063DD5BCF1200FB2D0582204F80C2060
:103BC0000CF1010CA9E7BCF1200FA9D062460CF161
:103BD000010C08E0BCF10102BBD0BAF1100F35D0E6
:103BE000BAF1020FCDD16220A05496E7CD06CAD516
:103BF000480588D58BE70A0749BF2022624604F8AA
:103C00000C200CF101028CE711F00C0F00D0013BED
:103C10009445FFF453AF62E78A0613D478222270EA
:103C200030224FF0020C6270BBF1000F9ED0B0E763
:103C3000BCF1200F3FF474AF782204F80C200CF193
:103C4000010C6AE75822EAE76222E8E78D06ACF148
:103C5000020004D54FF0580E04F800E091E74FF051
:103C6000780E04F800E08CE700B9704701F064BCFE
:103C700010B1D1E900311847704700BF00000000C3
:103C80002DE9F04F97B09DED207BDDE9225B80466A
:103C9000894651EC170B9A46249B0C9207930246D7
:103CA0000B468DED047BFFF7C9FD002840F0E38152
:103CB000DDE904014FF0FF326FF48013FFF7D0FD10
:103CC000002840F0CB80DDE904014FF0FF32B24B19
:103CD000FFF702FE002840F09F80DDE90467AAA3F9
:103CE000D3E9002330463946FFF7F6FD002840F0BF
:103CF0008280A7A3D3E9002330463946FFF7B0FD01
:103D0000002878D13046394600220023FFF7A8FD6D
:103D1000002840F098800D90079B302113F4806FAD
:103D200008BF06250EAA2B46A5F1200605E0013B9B
:103D3000B34202F8011B00F06581092BF7D81E463B
:103D4000ED1ADDE90401FFF755FD944B044603EB42
:103D5000C60393ED007B8DED087BFFF727FD024640
:103D60000B46DDE90401FFF78BFCDDE90823FFF7D3
:103D70009BFCCDE90A01FFF74FFD0746FFF728FD41
:103D800002460B46DDE90A01FFF77AFC0022844B6C
:103D9000CDE90A01FFF7A0FD002800F08880013777
:103DA0003846FFF715FD02460B46DDE90801FFF72F
:103DB0006BFD08B100270134002E00F088800DF162
:103DC0003703DFF8F0C158190DE0ACFB0721C90833
:103DD00001EB8102A7EB42023032092F00F8012FDC
:103DE00040F2FB800F46202D06F1FF3605F101055C
:103DF000EBD1202586E0079B9DED047BCDE923B325
:103E00004946534640460C9A8DED207B229517B0CB
:103E1000BDE8F04F00F080B9079B494658074CBFFA
:103E200004230323404621935346079A48BF5D4C21
:103E3000CDE922B258BF5C4C0C9A209417B0BDE873
:103E4000F04FFFF7CFBD3B46324600200021FFF781
:103E500017FC0123CDE904010D935DE7079B03F0F7
:103E600002029C07049200F0F4800C9F3D464F4EE6
:103E7000341D14F8010D2A4653464946C047A64250
:103E800005F10105F5D1049B3C1D63B10C9D631B3D
:103E90009B4508D922465346494620200134C04755
:103EA000631B9B45F6D8204617B0BDE8F08F002273
:103EB000DDE90A013A4BFFF7D3FC00287FF47CAF21
:103EC000002F40F0C2800137002E7FF478AF2046EB
:103ED000FFF76CFC02460B46DDE90401FFF7D0FB5F
:103EE00000222F4B06460F46FFF7BAFC40B930467A
:103EF000394600222A4BFFF7EFFC002800F0A18092
:103F00000DF137032A4859190EE080FB0476C2EB05
:103F1000A60202EB8206A4EB4606303614460135B3
:103F200001F8016F002A47D0202D4FEAE472ECD14E
:103F3000079A02F00302012A14D1BBF1000F11D03D
:103F40000D9A002A60D00BF1FF3BBBF1200F09D97D
:103F500030222B4404E001355D4503F8012F31D2B6
:103F6000202DF8D1079B0EACCDE902B30094534647
:103F7000494640460C9A0195FFF734FD0446204619
:103F800017B0BDE8F08F00BF0000000065CDCD4147
:103F90000000000065CDCDC1FFFFEF7F18EB0210E0
:103FA0000000E03F38CA021040CA021048CA02109E
:103FB00067666666CDCCCCCC079A02F00302012A74
:103FC00000F09680202DCDD00D9B3BB32D220DEB24
:103FD000050383F838200135C4E7202D3FF409AFED
:103FE00030212E445A1905E00135202D02F8011F19
:103FF0003FF4FFAEAE42F7D12E226E44013586F873
:1040000038207FE720259CE6079A12F00C0F5AD043
:104010000BF1FF3BAB459BD8202DA3D0079B5A0744
:1040200006D52B220DEB050383F83820013599E7DF
:104030001B0797D520220DEB050383F838200135A7
:1040400090E7013424F001045AE7F9077FF5B4AE94
:1040500039E7BBF1040F7FF608AF0C9B1D46043B0C
:1040600003EB0B072A465346494620200135C0473B
:10407000AF42F7D1FAE6079B03F002029D070492D4
:1040800025D00C9F3D46224EF41C14F8010D2A4603
:1040900053464946C047A64205F10105F5D1049BA8
:1040A000FC1C002B3FF4FFAE0C9D631B9B457FF671
:1040B000FAAE22465346494620200134C047631BCE
:1040C0009B45F6D8EFE6AB453FF642AF4AE7BBF17A
:1040D000030FD6D90C9B1D46033B03EB0B072A4667
:1040E0005346494620200135C047BD42F7D1C9E7B4
:1040F000BBF1000F3FF466AF0D9A002A84D00BF19C
:10410000FF3B5D45FFF424AF202D7FF45FAF29E72F
:1041100044CA0210000000002DE9F04F9FB01E4677
:10412000DDE928ABDDE92B982A9B04460D460B926E
:104130000A9352465B4650465946FFF77FFB0028DC
:1041400040F0C680504659464FF0FF327B4BFFF798
:10415000C3FB002840F0BC80504659464FF0FF3268
:104160006FF48013FFF77CFB002840F0B1805046CD
:10417000594600220023FFF773FB002840F0DD8141
:10418000CDE908ABDDE9081218F480600B460F4654
:1041900008F400610C921491159040F0A88013432C
:1041A00040F0D080002940F0EC8106230A9318F0FB
:1041B0000202109240F0DD814B46042B38BF0423ED
:1041C0000E920422043B1292149350465946002248
:1041D0000023FFF745FB002840F02A829DED087B75
:1041E000149B0B9A03930A9B8DED007B029328F49A
:1041F00000630493294633462046FFF741FD0246FB
:1042000018F0200F334629460CBF6520452002F1E7
:104210000108A047129B0DF1580A03F1FF3B0E9BCA
:10422000002283EAE37C5046DFF814E10B9FACEBFD
:10423000E37CD90FCDF8208002E0202AC44610D0BC
:10424000AEFB0C384FEAD80808EB8803ACEB43030D
:1042500001303033BCF1090F02F1010200F8013CDA
:10426000EBD805234FF0000C06930A23DDF82080DD
:10427000CDE90121CDE9033CCDF800A0334642460B
:1042800029462046CDF814B0FFF700FC109B82466B
:10429000D3B1A0EB0708C14516D907EB0802334696
:1042A0002946202008F10108A047C145F5D87B1E0A
:1042B0004B44C7F10102A3EB0A035244914538BFB6
:1042C00000230AF1010A9A4450461FB0BDE8F08F5E
:1042D000334629462046CDE928AB0A9CCDE92B98E8
:1042E0000B9A2A941FB0BDE8F04FFFF7C9BC57EAFC
:1042F000020329D100293FF45AAF00230E930A9BF1
:104300000E9A934200F3BA81002750465946002284
:104310000023FFF7A5FA002840F015819DED087BEA
:1043200028F4006343F480632C938DED287B33469F
:1043300029462046CDE92A790B9AD3E7FFFFEF7F84
:10434000CDCCCCCC06230A930C9BC3F30A50A0F22D
:10435000FF30FFF72BFAB2A3D3E90023FFF7A4F94C
:10436000B1A3D3E90023FFF777F90C9BCDE90E0148
:10437000C3F3130343F07F5138460022A24B41F4AC
:104380004011FFF77DF994A3D3E90023FFF78CF9DF
:1043900002460B46DDE90E01FFF75EF9FFF72AFA48
:1043A0000E90FFF703FA8EA3D3E90023CDE90C01A9
:1043B000FFF77AF90022954BFFF74EF9FFF71AFA4B
:1043C00089A3D3E900230746DDE90C01FFF76CF967
:1043D000CDE90C013846FFF7E9F985A3D3E90023BD
:1043E000FFF762F902460B46DDE90C01FFF748F9D9
:1043F00002460B46CDE90C23FFF756F9CDE9100133
:10440000DDE90C0102460B46FFF726F90022CDE953
:104410001201DDE910017E4BFFF76CF900227D4BA4
:10442000FFF71AF902460B46DDE91001FFF762F9C2
:104430000022794BFFF710F902460B46DDE9100127
:10444000FFF758F9CDE91001DDE90C2300204FF00A
:104450008041FFF715F902460B46DDE91001FFF731
:10446000FBF802460B46DDE91201FFF743F9002293
:104470006A4BFFF7F1F807F2FF3C00224FEA0C53BA
:10448000FFF712F902460B46DDE90801CDE90C23DE
:10449000FFF7E6F950B1DDE90C010E9B0022013B6C
:1044A0000E935C4BFFF726F9CDE90C01DDE90C0119
:1044B0000E9B02466333C62B08F002031093149B35
:1044C0002DD8002B5FD0042312930A433FF417AF7B
:1044D000DDE9080148A3D3E90023FFF7E9F948B172
:1044E000DDE9080146A3D3E90023FFF7B9F9002865
:1044F0007FF405AF0A9B002B51D0159A002A00F0DB
:10450000AC80013B0A93129B994505D9109B002B67
:1045100000F0AF80022310930023149344E02BBBE0
:10452000B9F1050F4FD908F00203002B49D105233B
:104530001293A9F1050314933AE00BF10043CDF86F
:1045400020A009931EE628F4006343F4806320460C
:10455000CDE92A792C933346DDE9086734462946AC
:1045600007F10045CDE928450B9ABBE605231293D8
:10457000ABE70222002310920422149312920E93AE
:1045800023E60527C1E6B9F1040F1FD9109B002BC4
:1045900077D104231293A9F10403149304E0129B2E
:1045A00099455FD80A9B14930E9B002B3FF40DAEE8
:1045B000DDE90801DDE90C23FFF79CF8CDE90801EE
:1045C00003E60223109305231293F1E704231293C9
:1045D000EAE700BFAFF3008061436F63A787D23F74
:1045E00071A379094F930A401655B5BBB16B0240D0
:1045F000EF39FAFE422EE63F2D431CEBE2361A3F1E
:104600000000000080842E410000F83F0000E03FE1
:1046100000002C4000002440000018400000F03F43
:10462000FB799F501344D33FB3C8608B288AC63FA1
:10463000149BDDE908A703930A9B07F1004B029343
:1046400028F400630B9A0493294633462046CDE9AB
:1046500000ABFFF715FB0246D2E5129B994515D832
:104660001492A1E7109B23B10A9B14930223109389
:104670009AE7129BA9EB0303149395E79B1A5F1E1D
:1046800043E604231293022310938DE7109B002B23
:10469000EFD002231492109386E700BF2DE9F04F6C
:1046A00091469A4C9A4AB1F1000A9BB018BF8346D2
:1046B00014601878974ADDF8908008BF9346002868
:1046C00000F08A821D460026CDF8209008E0324690
:1046D0005146089BD84701362878002800F0C7804B
:1046E000252805F10105F2D100222B4613F8011B04
:1046F000A1F1200010280AD8DFE800F03F09093BAB
:104700000909090909090937093309092F00A1F124
:104710003000092840F289802A2900F0E98000242D
:104720002E2900F094800027A1F1680012282CD8CF
:10473000DFE810F04E012B0049012B0040012B0057
:104740002B002B002B002B002B002B0027002B0015
:104750002B002B002B002B0027001D4642F00102EE
:10476000C3E71D4642F00202BFE71D4642F00402C5
:10477000BBE71D4642F01002B7E71D4642F00802B3
:10478000B3E7697842F48072013367291D467ED809
:10479000242940F2B880A1F12503422B00F2B38016
:1047A000DFE813F05101B100B100B100B100B10078
:1047B000B100B100B100B100B100B100B100B10071
:1047C000B100B100B100B100B100B100B100B10061
:1047D000B100B100B100B100B100B100B100B10051
:1047E000B100B1001E013A011E01B100B100B100DB
:1047F000B100B100B100B100B100B100B100B10031
:10480000B100B100B100B100B100B401B100B1001C
:10481000B100B100B100B100B100B100B100B4010C
:104820005801B4011E013A011E01002404EB840466
:1048300001EB440419781D46A1F130000928A4F1C8
:10484000300403F10103F1D92E297FF46CAF6978AC
:104850001846A1F13007092F42F4806240F2258109
:104860002A2900F032811D46002701335CE73446D7
:10487000DDF82090B14501D809F1FF364B463246AC
:1048800051460020D84720461BB0BDE8F08FA1F16B
:104890006903DBB20F2B36D8012049F2410C984056
:1048A00010EA0C0040F0F4800A2B35D0072B2AD1F7
:1048B00058F8041B002940F0108122F0100412F473
:1048C000806144F0210400F00A8112AA08230593B4
:1048D0001023CDE900203246069404970393002369
:1048E000029351465846089BFFF7D0F80646F3E678
:1048F00058F8044B6978002C1D46BCBF42F00202F8
:10490000644201330CE70846E1E600BF9D46001013
:1049100088240120E139001058F8049B002F99F8F1
:10492000000014BF3B464FF0FF33002800F08283A5
:10493000494603EB090C04E011F8013F002B00F09D
:1049400043818C45F8D1ACEB0901530540F120813E
:10495000B94228BF394612F0020300F083820223D5
:10496000CDE9094832468846089C37440B9307E056
:1049700023465146D84719F8010F013610B1324687
:10498000B742F5D10B9B4146099CDDF82880002BEE
:104990003FF4A2AE37468C427FF69EAE2644089C7A
:1049A000761A3A462346514620200137D847B74267
:1049B000F7D191E669786C297FF4E4AEA97842F4E6
:1049C0004072EB1CE1E6697842F400720133DCE6E8
:1049D0006978682900F0FB8042F080020133D4E658
:1049E000672900F0C980472900F0CD80452900F0F3
:1049F000CC80CDE9034208F10708029728F00708A8
:104A00003246F8E802675146CDE900675846089BF0
:104A1000FFF782FB06465FE6462908BF42F0200208
:104A2000CDE9034208F10708029728F0070832464B
:104A3000F8E802675146CDE900675846089BFFF742
:104A40001FF9064648E6324651462520089BD847BE
:104A5000013641E608F104039207099306F10107C4
:104A600040F1C3803246514698F80000089BD84771
:104A7000012C40F2B4812644089C3A462346514614
:104A800020200137D847B742F7D1DDF8248023E64C
:104A90006F2974D040F24182782900F086814FF06E
:104AA0000A0922F010024B4638E0002707EB87077F
:104AB00001EB4701A1F1300710F8011FA1F130030C
:104AC000092BF3D90546431C2EE658F8047BA97838
:104AD00002356B1C27EAE77726E642F0210412AA8A
:104AE000944602E020283FF4F1AE01F00F03092BB9
:104AF00094BF303337330F298CF8003000F10100B8
:104B00000CF1010C4FEA1111ECD8DFE6582966D000
:104B1000622940F089804FF002094B4612F4806C04
:104B200000F0D48022F00D02099212F4007140F0DE
:104B30007B8112F4807008F1040940F0388251063C
:104B400040F13A8198F80010002940F04A81099A12
:104B500022F010020992BCF1000F00F042810846D9
:104B600012AA0999CDE90337CDE905410190002347
:104B7000009202933246A1E042F4006239E74FF01E
:104B800008094B46CAE742F4006242F0200230E7CF
:104B900012F0020300F08C810223CDE909481F4680
:104BA0008846089C324623465146D84719F8010FDB
:104BB00001360028F6D13B464146099CDDF82880A5
:104BC000002B3FF489ADE5E6A1EB0901BDE6A9782C
:104BD00042F0C002EB1CD8E5044606464AE64FF018
:104BE000100942F020024B4698E7012C40F2F18078
:104BF000374606F1FF39CDF82880DDF82080A14442
:104C00003A464346514620200137D8474F45F7D111
:104C1000DDF828803A4698F800005146089BD847AE
:104C20002644DDF8248057E512F4806300F0C1804B
:104C30004FF4806322F0110010F4007E4AD110F48A
:104C4000807C08F1040940F03781410600F1A98019
:104C5000020640F1E381B8F9002082EAE271A1EB9B
:104C6000E2711FFA81FED10F0991002A00F05F81E5
:104C7000734612AA9646DFF8A0830A9403E0BCF1BB
:104C8000200F23460FD0A8FB0314E40804EB840193
:104C9000A3EB41010EF1010E3031092B0CF1010C97
:104CA0000EF8011CEBD80A9C099B0092CDE901C3C8
:104CB0000A233246CDE905400497039351465846EE
:104CC000089BFEF7E3FEC846064605E522F00C0207
:104CD00009922AE708F1070828F00708D8F8042005
:104CE00058F808CBD10F5CEA020E6CD0002A63465C
:104CF00002DA5B4262EB42029146099312AA9446A1
:104D00004FF0000ECDE90A18CDE90C470E960F9230
:104D100003E0BEF1200F3B4630D04FF0CC3213EB16
:104D20000901BD4F41F10001A7FB014626F0030434
:104D300004EB9604091B5C1A02FB04F63A4669F17F
:104D4000000802FB08660522A4FB077407F00108AF
:104D50002644A8FB024864180A2B0CF1010C4FEA08
:104D6000570704F1300479F100090EF1010E0CF837
:104D7000014C47EAC6774FEA5609CAD27346DDE9C5
:104D80000A18DDE90C470E9E0F9ACDF824E0CDE914
:104D900001310A230092CDE905403246049703937E
:104DA0009FE598F8002096465DE74FF010094B46C6
:104DB000B4E622F010003FE711064CBFB8F800102F
:104DC000D8F80010C0E6002B40F0428199460993C4
:104DD00094E73246514698F80000089BD8473E4673
:104DE00053E6099A0A9412F0200F14BF4FF04108BD
:104DF0004FF0610812AA9446A8F10A0802E02028A0
:104E000071460FD0B1FBF3FE03FB1E14092C94BFB7
:104E10003034444499428CF8004000F101000CF118
:104E2000010CECD20A9C9CE608F1070828F0070860
:104E3000D8F8042058F8081B0A920A438E467BD102
:104E4000099A22F010020992BCF1000F74D00020E0
:104E500012AA0999CDE90020CDE905413246CDE9F4
:104E600003373CE58C4298BF01317FF679AD4FF4B2
:104E70008063CDE909949946A2190B97089F541AAB
:104E800032463B46514620200136D847A642F7D14C
:104E9000DDE90A474B46DDF8249099F80000002828
:104EA0003FF41AAC611C002B3FF477AE002357E5AA
:104EB0008C42DED8013170E6D8F80020D10F002AEC
:104EC00000F0B38082EAE273A3EBE27312AA944685
:104ED000CDE90914DFF8408103E0BEF1200F23463D
:104EE0000FD0A8FB0314E40804EB8401A3EB4101F9
:104EF0000CF1010C3031092B0EF1010E0CF8011CE4
:104F0000EBD8DDE909140A230092CDE905403246C9
:104F1000CDE901E104970393D0E6692922F010005E
:104F200040F0918012F480633FF486AE80E6002B5F
:104F30003FF49FAE12AAB7E6099ACDE90B8412F0AE
:104F4000200F14BF41216121CDE90D76CDE90F3B42
:104F5000CDF844A00027F0460A9C12AE0DF1480B94
:104F6000A1F10A0A03E0202F80460C4613D0214607
:104F70004A460023404627F007F9D2B2092A94BFD7
:104F800030325244C84574F10004327007F1010711
:104F900006F10106E7D23846DDE90B845A460E9E3B
:104FA0000D9F0F9BDDF844A0DDF840B051E7D8F825
:104FB00000E0BEF1000F0DD122F010020992BCF109
:104FC000000F07D012AA0998CDE90337CDE90540B3
:104FD0000191CCE5099A12F0200F14BF4120612005
:104FE00012AA94460A92A0F10A0202E02029C646BB
:104FF0000FD0BEFBF3F803FB18E0092894BF303054
:1050000080189E458CF8000001F101010CF1010CA3
:10501000ECD20A9AD7E700BFCDCCCCCCD8F8002090
:1050200082EAE27EAEEBE27E1DE6002B3FF44EAF5D
:1050300012AA68E712F480610ED012F0020114D0B7
:1050400001463746A7E44FF00A0902464B4665E59C
:10505000002312AA09939AE612F002037FF49AAC95
:10506000002C7FF406AFFFF737BB002C7FF4FFAEB8
:10507000FFF732BB0EB400B584B00DF1140C5CF830
:10508000043B01464FF0FF32CDF800C00448CDF894
:105090000CC0FFF703FB04B05DF804EB03B07047EE
:1050A000D939001030B583B0009313460A46014643
:1050B0000248FFF7F3FA03B030BD00BFD939001042
:1050C0008C4610B584B000930290134602A94FF0AD
:1050D000FF320348CDF80CC0FFF7E0FA04B010BD72
:1050E000713C001010B5094A84B014684CB10346F5
:1050F00000914FF0FF3203A90548A047012004B0FA
:1051000010BD00F05BFA204604B010BD88240120D9
:10511000693C001000BEFDE7074A0346106838B13D
:10512000064903448B428CBF4FF0FF301360704739
:10513000034908461160F3E76820012000000820B9
:1051400020CB0220002070474FF0FF30704700BF97
:1051500038B9DFF814C008461146DCE9002300F036
:1051600045B94FF0FF307047B0EA0210431E012BE3
:1051700009D810B51446084601230022214600F044
:10518000BFF8204610BD4FF0FF3070474FF0FF30A2
:10519000704700BF4FF0FF30704700BF4FF0FF3047
:1051A000704700BF02288CBF00200120704700BF5D
:1051B00008B5FFF7AFFF00BF38B5064C064DFEF748
:1051C000D1F8AC4204D254F8043B9847AC42FAD32D
:1051D00038BD00BF68C2021080C2021003680846D2
:1051E0001146184770B505460846697D82B000290A
:1051F0004FD0002A25DD037814460A2B064622D01C
:10520000012C4FF0000E0DD03246012312F801CFD1
:105210001946BCF10A0F03F1010320D09C42F5D1DD
:10522000744505DD2B68A4EB0E0106EB0E009847D4
:10523000311911F8013CA3F10D03B3FA83F35B09B3
:105240002B7502B070BD2B7D002BD9D102212B68AC
:1052500013489847012CEBD04FF0010ED4E712F819
:10526000010C0D28DAD08E4506EB0E00A1EB0E01E5
:1052700005DACDE900322B689847DDE90032CDE947
:10528000003202212B6806489847009B019A9E46EF
:10529000C4E711462B6802B0BDE87040184700BF54
:1052A00068EB021070B50B680C46802B054682B087
:1052B00005D05A1C234422601D7102B070BD0E4BF4
:1052C000186878B900230122234422601D7102B0BE
:1052D00070BD2268211D0190FFF784FF01980069CD
:1052E0000028EFD00368002BF9D0044B1B68002B7B
:1052F000EFD08342F3D1ECE74C200120582001206D
:105300002DE9F04782B090461C460D460746FDF752
:105310002FFE4FF0FF3C6FF000462E4A821841F1FD
:105320000003944576EB03013CBF624633462A48AE
:1053300026F04EFF6B1C824640D00CB3274E284B04
:105340001C68B4B1B8F1000F1CD1DFF89C8001E0FB
:10535000246974B12368002BFAD0D8F800300BB15F
:105360009C42F5D120462A463946B0472469002C94
:10537000F0D1BAF1000F26D1284602B0BDE8F0877F
:10538000184EDCE74FF00A09DFF85C8002E0246980
:10539000002CEED02368002BF9D0D8F800300BB1E8
:1053A000A342F4D12A4639462046B047012220467E
:1053B0000DF107018DF80790B047E8E7384625F072
:1053C000C1FF0546B9E7044826F0E2FE284602B0D0
:1053D000BDE8F08740420F002C300020E55100105E
:1053E0004C200120DD510010582001202DE9F84FFC
:1053F00006460D4693469946DFF85880DFF858A0D8
:10540000134FD8F8004014B910E0246974B1DAF8E9
:1054100000300BB1A342F8D1A368002BF5D0294688
:10542000304698470028F0DDBDE8F88F7B6A994543
:1054300008D8BA6A5A4503D36FF00100BDE8F88F67
:105440009945F9D101200021FDF79CFDD9E700BF66
:1054500000000B404C20012058200120084A13680E
:1054600023B90AE003F110021B6933B18342F9D179
:1054700029B9186910601961704701B1106070474F
:105480004C200120074B10B51C682CB1636823B178
:1054900098472469002CF9D110BD2469002CF5D15E
:1054A00010BD00BF4C20012000F028BB2DE9F041C9
:1054B00082B00646FDF75CFD4FF0FF326FF000430F
:1054C000361841F10007B24273EB07013CBF1646A4
:1054D0001F46DFF86080154DD8F8004014B912E07F
:1054E000246984B12B680BB19C42F9D1A368002BCD
:1054F000F6D0012101A898470028F1DD9DF80400AD
:1055000002B0BDE8F0810A4B5A6A974209D89B6AFB
:10551000B34204D36FF0010002B0BDE8F0819742BE
:10552000F8D101200021FDF72DFDD5E758200120FD
:1055300000000B404C200120F0B583B006468DF8EA
:105540000700FDF715FD4FF0FF356FF00044174AD7
:10555000821841F10003954274EB03013CBF2346DE
:105560002A46134826F034FE124B07461C689CB1AD
:10557000114D01E024697CB12368002BFAD02B681F
:105580000BB19C42F6D1204601220DF10701FFF735
:1055900029FE2469002CEFD117B9304603B0F0BDC5
:1055A000034826F0F5FD304603B0F0BD40420F0041
:1055B0002C3000204C2001205820012038B5044612
:1055C00025F0C0FE012305461A4620462946FFF76E
:1055D00097FE084B1C682CB163682BB1984724696F
:1055E000002CF9D1284638BD2469002CF4D1284676
:1055F00038BD00BF4C2001202DE9F041A2B00E467D
:105600000546FDF7B5FC4FF0FF3C6FF00044254A1E
:10561000821841F10003944574EB03013CBF23461B
:105620006246214826F0D4FD0024334607462A4628
:105630001E4801A90194FFF743FD1D4E019B8046C2
:105640003468BBB1002C2AD01A4D01E0246974B132
:105650002368002BFAD02B680BB1A342F6D1204669
:10566000019A02A9FFF7BEFD2469002CF0D1234660
:10567000346801932CB1636843B198472469002CC6
:10568000F9D12FB9404622B0BDE8F0812469F1E795
:10569000054826F07DFD404622B0BDE8F08101942A
:1056A000EFE700BF40420F002C300020A552001051
:1056B0004C200120582001200FB400B583B004A96C
:1056C00051F8040B0191FFF797FF03B05DF804EB6D
:1056D00004B07047704700BF0022014B1A7070473A
:1056E00016CB02204B79FF2B0BD1887948B9CB79A7
:1056F000012B07D1082A05D9034B8A7809201A7093
:1057000070470020704700BF16CB02200120704771
:10571000012901D00120704708B5104B91881B78F2
:10572000994201D0002008BD5378012B08D0022BEC
:10573000F8D1002164220846FDF722FD012008BDB2
:105740005188CB0548BF480AC1F3402258BF4FF0EB
:10575000FF3001F07F01FDF79DFD00BF16CB022059
:105760000048704734EC0210012907D15378012B0F
:1057700002D19388072B03D0002070470120704787
:105780001146A623014A01F095BA00BF8CEB021026
:105790000346012201481A70704700BF6CEB0210EB
:1057A00008B50B68B3F5966F00D008BD00224FF026
:1057B000FF301146FDF76EFD024A034B1060196081
:1057C000704700BF0C16012010160120184B70B551
:1057D0001A68002A28D0EFF3108172B6D2E8CF4FB2
:1057E0000120002CFAD1C2E8440F002CF6D1BFF3FF
:1057F0005F8F00220F4C186859602270C0E88F2F0D
:1058000081F31088002400250B4E3078FCF78EFAC7
:1058100020B9002400252046294670BD3078FCF7C9
:1058200095FA2046294670BD4FF47A740025EBE7BF
:10583000F439012019CB022017CB0220014B187834
:10584000FCF784BA17CB022038B5044600200D4679
:1058500001F06AFBA8B3002001F07CFB88B3FDF7E0
:1058600087FB4FF0FF3E6FF0004C174A821841F162
:10587000000396457CEB03013CBF72466346134828
:1058800026F0A6FCE8B1002001F04EFB58B9014615
:105890004FF0FF3000F032FD6FF002040B4826F0AD
:1058A00077FC204638BD002001F054FB0028EED0E4
:1058B00021462A46002001F057FB04460028EDD17E
:1058C000EAE76FF00204ECE740420F00A448012031
:1058D00008B5FDF74DFB4FF0FF3E6FF0004C0F4A4F
:1058E000821841F1000396457CEB03013CBF7246F0
:1058F00063460B4826F06CFC70B14FF0FF3000217E
:1059000000F0FCFC002001F075FB0028F5D1BDE89B
:105910000840034826F03CBC08BD00BF40420F00D1
:10592000A44801202DE9F04107460E46FDF720FB73
:105930004FF0FF356FF00044324A821841F1000306
:10594000954274EB03013CBF2A4623462E4826F0BD
:105950003FFC08B9BDE8F081002001F0E5FA00281D
:1059600045D0002E3EDD0025DFF8A48012E022465F
:10597000002001F089FB002105444FF0FF3000F0CA
:10598000BDFC002001F036FBFDF7F2FAC8E900018A
:10599000AE4227DD002001F095FB741B8442A8BFB6
:1059A00004467919002CE2D121464FF0FF3000F077
:1059B000A5FC204601F01EFB204601F0B5FA88B197
:1059C000204601F07FFB0028E2D1FDF7D1FA0F4A13
:1059D000D8F800309B18D8F8042042F10002834226
:1059E0008A41D5D20848BDE8F04126F0D1BB00205D
:1059F000BDE8F0410021064BC3E90001024826F052
:105A0000C7BB00BF40420F00A448012020A10700EF
:105A1000E032002010B5002184B0324826F0F4FBBB
:105A200028BB314B1A6802B3EFF3108172B6D2E88B
:105A3000CFEF5FF0010CBEF1000FF8D1C2E84ECFFE
:105A4000BEF1000FF3D1BFF35F8FDFF8A8C0D3F82A
:105A500000E09CF800205960D3B201228CF80020AD
:105A6000CEE88F0F81F31088CBB104B010BD0021B8
:105A70004FF0FF3000F042FC002001F06BFA0446CA
:105A8000184826F085FB002CEFD0184B1B68002B24
:105A9000EBD0174A106804B0BDE810401847FCF777
:105AA000C9FE0446FDF764FA4FF0FF3E6FF0004C6C
:105AB00010F57A7241F1000396457CEB030138BF83
:105AC00063464FF000014FF0010C38BF7246DFF81B
:105AD00028E02046CDE9011CCDF800E0FCF74AFFA4
