:020000041000EA
:10000000002008205D0100101B0100101D010010E0
:100010001101001011010010110100101101001058
:100020001901001019010010190100101F01001022
:10003000110100101901001021010010230100100E
:100040001101001011010010110100101101001028
:100050001101001011010010110100101101001018
:100060001101001011010010110100101101001008
:1000700011010010110100101101001011010010F8
:1000800011010010110100101101001011010010E8
:1000900011010010110100101101001011010010D8
:1000A00011010010110100101101001011010010C8
:1000B00011010010110100101101001011010010B8
:1000C00011010010110100101101001011010010A8
:1000D0001101001011010010110100101101001098
:1000E0001101001011010010110100101101001088
:1000F0001101001011010010110100101101001078
:100100001101001011010010110100101101001067
:10011000EFF30580103800BE00BE00BE00BE00BE7A
:1001200000BE00BEF2EB88719C470210C04702106F
:10013000A001001090A31AE7D3DEFFFF42012110B7
:10014000FF010000AC730200793512AB4FF00000E4
:100150001E49086006C881F3088810474FF05040D8
:10016000006810B14FF00000F2E70DA40ECC00299A
:1001700002D000F012F8F9E71549164A002000E015
:1001800001C19142FCD11449884714498847144958
:10019000884700BEFDE701C901C29A42FBD3704700
:1001A000C047021010010020342E0020E474021019
:1001B0000000082000000820E4740210001008204D
:1001C00000100820000000007047000008ED00E06B
:1001D000342E0020BC4B0220295100109D0200103B
:1001E00021510010F8B500BF064B0749C91A891004
:1001F00048BF0131491003D0044B0BB101481847E7
:10020000704700BF342E0020342E00200000000074
:1002100008B5054B1BB105490548AFF30080BDE8A3
:100220000840FFF7E1BF00BF0000000090C60020BB
:10023000F014021084464FF4007300B50348DFF851
:1002400010E0CCF800E00860136000BDE4990020E5
:10025000E4A1002010B58C244FF4007EDFF818C014
:1002600004FB03C40460034800EBC3200860C2F829
:1002700000E010BD88B30020FCB2002084464FF49B
:10028000806300B50348DFF810E0CCF800E00860B8
:10029000136000BD70A2002070B2002010B582B0C3
:1002A00005F0BAF840F6B83002F062FD224805F0D9
:1002B0003DF90A242E2005F0F7F84FF4FA7002F009
:1002C00057FD013CF6D10A2005F0EEF81B4808F076
:1002D000C5F98646DFF88CC04FF48071184B194A77
:1002E00000942020CCF800E008F00AFC8646DFF8F5
:1002F00078C06221144A154B00940820CCF800E025
:1003000008F0FEFB124B1860124805F00FF901F0DF
:10031000B1F9114805F00AF901F066FB0F4801F048
:1003200049FB01200BF0AAF80BF04CF90C4801F046
:1003300041FB0AF07DFAFEE7F0140210147200206F
:100340006C7100203472002034920020C0710020B3
:1003500078C2002010150210281502104415021052
:100360006415021074C2002070C20020704700BFE4
:10037000003A18BF012242EC401070474FF0504243
:10038000012352688B40134214BF012000207047A4
:1003900000207047704700BF704700BF704700BF24
:1003A000704700BF704700BF4FF050420123D0F8A4
:1003B000FC1152688B40134214BF0120002070478B
:1003C000704700BF00B5084683B00192009101F06C
:1003D000B5FC019A0099A2F10102B2FA82F2520927
:1003E00042EC441003B000BD844610B50C4B84B001
:1003F0000FCB8DE80F00BCF81000DCF80820DCF80B
:100400000430DCF80C40ADF80C0069460CF18400B7
:100410000294019200930FF033F904B010BD00BFB5
:10042000EC26021070B50D464FF4867282B000F1D2
:100430008404002128461FF021FE0121204611F0EE
:1004400043FCFF2206462946204612F0C7FA03461F
:1004500010B1184602B070BD019085F800612046C9
:100460000FF064FD02462046C5F8042111F058FC47
:10047000019BC5F80801184602B070BD843011F028
:1004800041B900BF00B5282183B0019003F05CFAA8
:10049000019803B000BD00BF00B54FF4007183B0F8
:1004A000019003F051FA019803B000BD38B504463D
:1004B0001549006A07F0CCFC226A0225134653F85E
:1004C000040F02F5805C03F5405ECEF80050126820
:1004D00003F5005382F00702284002F0CF02CCF867
:1004E0000020186094F82400012101F091FB94F899
:1004F0002500012101F08CFB94F826000121BDE8C4
:10050000384001F085BB00BF40420F009446006AAE
:100510001A46634620F08CBF08B502F027FD08BDDF
:1005200008B502F023FD29B14FF47A72002320F0C0
:100530006FFF08BD024BA3FB0030800908BD00BF60
:10054000D34D62100846002102F0ACBB084602F011
:100550000FBC00BF084600220C2101F077BB00BF92
:10056000084619461346012201F094BB10B51E4CF3
:100570000421A4461D4A84B04FF0010E02914CF8AC
:10058000042B08221A4BCDF800E001920FCB8CE827
:100590000F0000237246194604F114000BF088F88E
:1005A0004FF0FF3141F212324FF0140C1623114874
:1005B000606101912287104A04EB0C01009301F164
:1005C00028001123626384F83AC015220BF096F8D4
:1005D00004F13C0104F184000FF09EFB1123C4F8E8
:1005E000FC3104B010BD00BF44950020C4260210A9
:1005F000DC2602105C260210000008404FF050423A
:100600000123D0F8001252688B40134214BF01201E
:1006100000207047704700BF70B50C4605464FF488
:1006200086720021204682B01FF028FDAA7E9035F8
:10063000FAB1402A28BF40222146284601920DF0F7
:10064000C5F9064690B9019AA3182AB113F8011DFD
:1006500011B9013A002AF9D1284684F800210CF09A
:10066000F9FA0023C4F80401C4F80831304602B096
:1006700070BD012128460CF003FB0246D9E700BFFC
:1006800090300CF0B3BC00BF00B54FF4027183B0E2
:10069000019003F059F9019803B000BDF0B5434B48
:1006A00090F914E08BB0C0F8043273460D2BA8BF4C
:1006B0000D23427D0446002A18BF9E4690ED016A34
:1006C000D0ED026A90ED037AD0ED047ADFF8F8C03D
:1006D00005AD877DBCE80F000FC5DCF8003004F1E4
:1006E000900005A92B608DED056ACDED066A8DEDB4
:1006F000077ACDED087AADF826708DF824E00EF07B
:1007000073FC054610B128460BB0F0BD28490346DE
:10071000C4F80412627E04F1900004F117010EF097
:1007200041F805460028EED1224BA17E04F190004D
:10073000C4F804320EF06AF905460028E3D11E4BD6
:10074000E17E04F19000C4F804320CF009FF054684
:100750000028D8D1637DDBB9237F1BB9174BC4F8C0
:100760000432D0E702264FF0000CFF27144B0C2276
:10077000C4F804321E210323CDE9027C04F14800B1
:10078000019600960CF04EF80028E7D00546BAE72F
:100790000C4B012294F9141004F19000C4F80432B7
:1007A0000DF098FF0028D7D00546ACE77C15021065
:1007B0008415021090150210A8150210CC15021015
:1007C000D4150210B81502104029021000000000D4
:1007D0002DE9F04F2DED0E8B1C20ADF52D7D01F098
:1007E000ADFA1C234FF0010242EC443042EC4030A1
:1007F000814F4FF4FA700AF077F93846FFF74EFF51
:1008000050B10146D7F804227C4801F0D3F84FF0EC
:10081000FF300AF069F9FAE7794871A3D3E90023B8
:1008200071A5D5E90045CDE9004501F0C3F807F110
:1008300090000CF0DBFB9FED73CADFED73BA9FED08
:100840006CAB9FED729A0DF5D27A0DF2791B4FF0D9
:1008500050420121D7F80032526801FA03F31342E3
:1008600003D105200AF040F9F1E74FF48672002128
:1008700050461FF003FCBC7E002C44D0402C28BF07
:1008800040245146224662480DF0A0F830B161483C
:1008900001F090F85E480CF0A9FBD8E755460AEB4A
:1008A00004032CB113F8012D12B9013C002CF9D12D
:1008B00057488AF800410CF0CDF99AF800410646F5
:1008C000122C8AED429ACAF804010FD945F2AA53B4
:1008D000BAF800209A421CD02D2C07D9DAF8003043
:1008E0004D4A23F07F43934200F09E80304620F033
:1008F0007FFD02460B464948214601F05BF844481B
:100900000CF074FBA3E7012141480CF0B9F904464F
:10091000B4E7BAF80D30EC2BDED803F113029442A1
:10092000DAD103F10F020AEB02018878BB28D3D198
:10093000C9786629D0D13AF8021000204FF6FF722C
:1009400003F10D0E0AF1010C109412931CF8014FE3
:10095000334B84EA122433F81440013084EA022431
:100960008645A2B2F2D88A42109C129BB4D1DAF822
:1009700007109AF802201091A2F10A01152900F23D
:10098000FF8101A050F821F0CD120010810D001060
:1009900027120010810D0010810D0010C50D0010F0
:1009A000810D0010810D0010810D0010810D0010CF
:1009B000810D0010810D0010810D0010810D0010BF
:1009C000810D0010810D0010810D0010810D0010AF
:1009D000810D0010810D0010810D0010FF08001026
:1009E0000000000000887A400000004033331340CC
:1009F000000000000000000044970020F0150210E5
:100A000020160210CDCCCC3D0000C84200000000F2
:100A1000D497002050160210AA5501000C1802109D
:100A20004027021000FEFF46BAF80430242B7FF462
:100A30005DAF4FF6FF7341F221010AF101000AF1A7
:100A4000290510F8012F83EA02235A001B0448BF2E
:100A50004A405300120448BF4B405A001B0448BF91
:100A60004A405300120448BF4B405A001B0448BF81
:100A70004A405300120448BF4B405A001B0448BF71
:100A80004A4053009BB2120444BF4B409BB2A84261
:100A9000D7D1BAF82A209A427FF428AF46F2BB6336
:100AA000BAF82C209A427FF421AF0DF5D5740DF5DC
:100AB0009C7C6546E36820686168A26810340FC5B5
:100AC0000DF5E5739C420CF1100CF2D1DDF8CA0172
:100AD0005FED2C8ACCF80000DDE94E4002F040FECC
:100AE000AFA3D3E9002302F0DFFDCDE91601509852
:100AF00002F036FEAAA3D3E9002302F0D5FDDDED16
:100B0000517AB8EEE78ADDED527ABDF94C31B8EE94
:100B1000E76A06EE903ABDF94E3128EE0C8A07EEF0
:100B2000103ABDF95031B8EEC77A07EE903AF8EEB8
:100B3000E77ABDF95231C7EE28DA07EE103ABDF870
:100B4000543187EEA8DA07EE903AF8EEE66AB8EE8E
:100B5000C77AF8EE677A9DF857319DF85821CDE9AC
:100B6000180118EE100AC6EE2B9A86EEA8EAC7EE18
:100B700028CA87EEABBA1293149220F039FCCDE963
:100B8000100130468DED04AB20F032FCDDE910237E
:100B9000CDE90201009484489DF8565100F00AFF07
:100BA000DAF8040120F024FCCDE9020119EE900AE4
:100BB00020F01EFCDDE91023CDE900017B4800F0A8
:100BC000F9FE77A3D3E90023DDE91601DAED417AD6
:100BD000FDEEE77A359417EE904A02F03FFD02F001
:100BE000E3FD6FA3D3E900233690DDE9180102F09D
:100BF00035FD02F0D9FD2EEE285A129B6DEEA85A53
:100C00008DF80631BDEEC55A00232DEE286ACDE9D8
:100C10003E33CDF8F230ADF8F63040938DF8043124
:100C20008DF80C31ADF80A31FDEEE55A15EE103AAB
:100C30006CEEA86AADF8E830BDEEC66A15EE903AE3
:100C40002BEE2B7AADF8EA30FDEEE66A16EE103A9E
:100C5000DAED42EAADF8EC30BCEEC77A16EE903A27
:100C6000F2EE047AADF8EE30F0EE6E4A17EE103A7E
:100C700028EE278AADF8F03069EEAB7A45F2AA5338
:100C8000FEEECF4A149AADF838318DF807210323D0
:100C900014EE902ABDEEC88AFDEEE77A8DF80921A0
:100CA0008DED388ACDED397A8DF8055137908DF874
:100CB00008418DF83A313C233D4AADF83C31137878
:100CC0000DF1D40C8DF83B3101330DF59F76137087
:100CD000644610360FCC46F8043C41AB9C420CF104
:100CE000100C46F8100C46F80C1C46F8082CEFD1F6
:100CF000BCE807004FF6FF7341F221040DF23915ED
:100D000030607160B26015F8012F83EA02235A0047
:100D10001E0448BF62405300100448BF63405A009D
:100D2000190448BF62405300120448BF63405A0090
:100D30001E0448BF62405300100448BF63405A007D
:100D4000190448BF62405300120448BF63405D4528
:100D5000D9D146F2BB62ADF87A31ADF87C210023DF
:100D600046221448ADF8982100681A464EA907F0AB
:100D700015FF01283FF4C3AD0F4800F01BFEBEE590
:100D8000304610928DED02AB20F032FB2346CDE9C8
:100D90000001109A09490A4800F00CFEAFE500BFB7
:100DA00000000000D01263416C160210D817021028
:100DB000B14B022078C200203C18021084160210A9
:100DC00098170210282200211CA812931FF056F930
:100DD000129B242B7FF480AD9AF80F201A231292D5
:100DE000DAF81920DAF811000BEE102ABAF91D20F2
:100DF000DAF8154009EE902ABAF91F2008EE902A79
:100E0000BAF9212008EE102ABAF923200EEE102A92
:100E1000BAF925200DEE102ABAF927200CEE902AF7
:100E200095F82A1095F82920023342EA0122222B54
:100E30001CA9CA5205F10205F2D19AF83230F8EE37
:100E4000E88A189302F08CFCEEA3D3E9002302F0A9
:100E500005FCCDE91401204602F082FCE9A3D3E9A8
:100E6000002302F0FBFBDFEDDA7AF8EEE99AB8EE48
:100E7000C88AB8EECBBA68EEA78A2BEE27BA69EE1D
:100E8000A79A28EE278A68EEA87AE9EEA97AE8EE12
:100E9000087ACDE9160117EE900A9AF8315020F041
:100EA000E7FABDF98C30DFEDCB5A06EE103ABDF90A
:100EB0008E30B8EEC66A06EE903ABDF99030F8EE84
:100EC000E66A07EE103ABDF99230B8EEC77A07EE3F
:100ED000903AF8EEE77A67EEA57ACDED597A07EE0B
:100EE000906A9FEDBD5A66EEA56A27EE257AFDEE63
:100EF000E77A26EE256AB8EECEEAB8EECDDAF8EE5D
:100F0000ECCA062D98BFB54B0DEE900ADDE9140131
:100F100098BF5D5D109BCDED576A2693AAA3D3E9D8
:100F200000238DED587A17EE906A2EEE05EA2DEE2D
:100F300005DA6CEE85CA8DED566A88BFFF2502F092
:100F40008DFB02F031FCA0A3D3E900232790DDE95B
:100F5000160102F083FB02F027FCB2EE047ADFED0B
:100F6000A07A2BEE077A6BEE277ABDEEC77AFDEEFC
:100F7000E77ADFED9C6A04248DED297ACDED2A7A9B
:100F8000289056AA0DF1AA03F2EC017A67EEA67A30
:100F9000FDEEE77A17EE901A013C23F8021FF3D119
:100FA000DFED8F7A129B6DEEA7DA8DF8C830189BB3
:100FB000DFED8D5A8DF8CB3045F2AA5329EEA75AB2
:100FC000FCEEEDDAADF8D43003238EEE256ACDEEDB
:100FD000256A8CEEA57ABDEEC55A68EEA75A8DF843
:100FE000D6301DEE903ADFED814A68EE277AFDEEAD
:100FF000E55AADF8B43015EE103A26EE246AFDEE4F
:10100000E77AADF8B63015EE903A66EEA46ABDEE1A
:10101000C66AADF8B83017EE903A27EE247AFDEEA6
:10102000E66AADF8BA3016EE103ABDEEC77AADF802
:10103000C23016EE903AADF8C43017EE103AADF863
:10104000C6303C236A4AADF8D83013788DF8C950C1
:101050008DF8D73001338DF8CC602F94ADF8C040B7
:101060008DF8CA408DF8CD408DF8D040ADF8CE4017
:101070000DF1980C13700DF1DA0E65460EF1100E9D
:101080000FCD4EF8043C32AB9D420CF1100C4EF8E3
:10109000100C4EF80C1C4EF8082CEED1BCE80700E2
:1010A0004FF6FF7341F221050DF1D506CEF8000091
:1010B000CEF80410CEF8082016F8012F013483EA88
:1010C00002235A001B0448BF6A405300100448BF63
:1010D0006B405A00190448BF6A405300120448BFCD
:1010E0006B405A001B0448BF6A405300100448BFBD
:1010F0006B405A00190448BF6A405300120448BFAD
:101100006B40402CD8D146F2BB62ADF81631ADF839
:101110001821002346223748ADF8342135A91A4654
:10112000006807F03BFD06461BEE100A20F060F950
:101130000446DAF808010D4620F05AF9CDE9040119
:10114000DAF8040120F054F9109B2246CDE902019F
:10115000009329482B4600F02DFC19EE900A20F050
:1011600047F9CDE9100118EE900A20F041F9CDE9D8
:10117000120118EE100A20F03BF9CDE91801DAF857
:10118000040120F035F9CDE91A01DAF8080120F060
:101190002FF9DDE914239DED1A7B8DED0A7B9DED82
:1011A000187B8DED087B9DED127B8DED067B9DED13
:1011B000107BCDE90C01114811498DED047B012E06
:1011C00008BF014622E000BF00000000D0126341CA
:1011D0000AD7233C0000003812AC203CFC26021049
:1011E0000000C84200FEFF460AE81C4100007A44A5
:1011F000B14B022078C200206C160210D8150210E4
:10120000E015021048AFBC9AF2D77A3E9DED167BEE
:101210000E918DED007BCDE902452749274800F06E
:10122000C9FBFFF76CBB0B2B7FF456ABDAF80F3022
:101230009FED257A07EE903AF8EEE77A67EE877A27
:1012400017EE900A20F0D4F8CDE912013046DAF812
:101250001340BAF917508DED04AB20F0C9F8109B7C
:10126000CDE9020100931648DDE9122300F0A2FB4C
:10127000DAF8080120F0BCF8CDE90601DAF804013B
:1012800020F0B6F8CDE90401284602F069FA08A377
:10129000D3E9002302F0E2F9DDE91223CDE90201EE
:1012A00000940549074800F085FBFFF728BB00BF05
:1012B0007B14AE47E17A843F84160210F4160210C4
:1012C0006C160210501702100AD7233C1F2B7FF414
:1012D00003ABDAF81BC0DAF817300CEE90CABAF993
:1012E0001FC0BAF82C4009EE90CABAF921C0642296
:1012F00008EE90CABAF923C0002108EE10CABAF865
:1013000025C014930DEE90CABAF827C0E3B20DEED3
:1013100010CABAF829C04FA80EEE10CADAF8135056
:1013200018931EF0ABFE4FF07E531FED19BAF8EE86
:10133000E88A2846569302F013FACAA3D3E9002399
:1013400002F08CF968EE8B8AF8EEE99ACDE9120189
:10135000149802F005FAC3A3D3E9002302F07EF942
:1013600069EE8B9AB8EEC88A68EEA87A28EE0B8AE6
:10137000E9EEA97AE8EE087ACDE9140117EE900AB1
:1013800020F076F807EE106AF8EE4E7ABDEEC77AD6
:10139000F8EEECCAF8EE6DDAB8EE4DDA109B169066
:1013A0002693DDE91201B1A3D3E9002317EE106AF9
:1013B0006CEE8BCA6DEE8BDA2DEE0BDA27EE8BBA64
:1013C00002F04CF902F0F0F9A8A3D3E9002327902A
:1013D000DDE9140102F042F902F0E6F9B2EE047A16
:1013E000DFED977A2CEE877A6CEEA77ABDEEC77A9E
:1013F000FDEEE77ADFED936A00238DED297ACDEDDE
:101400002A7A289056A90DF1AA02F1EC017A67EE2A
:10141000A67AFDEEE77A17EE900A0133042B22F844
:10142000020FF2D1DFED867A9DED167A002367EE8A
:10143000276A69EEA79AFCEEE66ACDF8C230ADF8ED
:10144000C630ADF8C8308DF8CD308DF8D030ADF85D
:10145000CE30032368EEA78AFDEEE99A8DF8D630E8
:1014600016EE903A28EE278AFDEEE88AADF8B43001
:1014700019EE903A2DEEA77ABDEEC88AADF8B630D7
:1014800018EE903A2DEE27DABCEEC77AADF8B830F8
:1014900018EE103A2BEE27BABCEECDDAADF8BA3022
:1014A00017EE103ABCEECBBAADF8BC301DEE103AD8
:1014B000ADF8BE301BEE103A45F2AA52ADF8C0307E
:1014C0003C23ADF8D420604AADF8D8301378ADF89D
:1014D000CA408DF8D73001338DF8CC600DF1980CEF
:1014E00013700DF1DA0E64460EF1100E0FCC4EF8AB
:1014F000043C32AB9C420CF1100C4EF8100C4EF830
:101500000C1C4EF8082CEED1BCE807004FF6FF7318
:10151000002441F221050DF1D506CEF80000CEF8E9
:101520000410CEF8082016F8012F013483EA0223B4
:101530005A001B0448BF6A405300100448BF6B4068
:101540005A00190448BF6A405300120448BF6B4058
:101550005A001B0448BF6A405300100448BF6B4048
:101560005A00190448BF6A405300120448BF6B4038
:10157000402CD8D146F2BB62ADF81631ADF8182137
:10158000002346223148ADF8342135A91A460068B7
:1015900007F004FB06461CEE900A1FF029FF0446E4
:1015A000DAF808010D461FF023FFCDE90401DAF84F
:1015B00004011FF01DFF109B2246CDE9020100939C
:1015C00023482B4600F0F6F916981FF011FFCDE9DD
:1015D00010011DEE900A1FF00BFFCDE91601DAF89D
:1015E00004011FF005FFCDE91A01DAF808011FF028
:1015F000FFFE9DED1A7B8DED0A7B9DED167B8DED3B
:10160000087B9DED107BCDE90C01124812498DED50
:10161000067B012E08BF01469DED147B189B0E91A1
:1016200004938DED007BDDE91223CDE902450B49E2
:101630000B4800F0BFF9FFF762B900BFAFF30080BD
:101640000000C84200FEFF46B14B022078C20020D5
:101650006C160210D8150210E01502108416021044
:101660008C16021048AFBC9AF2D77A3E00000000F8
:10167000D012634110B504240B480C4984B0CDE965
:10168000011000234FF4006209490A48009408F051
:1016900079FF08B104B010BD23464FF4006204493D
:1016A000054800F071FB00BFE03000206C510020C5
:1016B00084160210D10700106818021070B5204C73
:1016C0000422A446012608251E4B84B0DFF884E0DE
:1016D00002924CF8043BBEE80F0000960195ACE87E
:1016E0000F009EE8070000238CE8070032461946E9
:1016F00004F1200009F0DCFF4FF0FF301A2340F620
:101700000A32114984F8465001901048216204F1D0
:10171000200100931B232064A4F8442001F1280039
:10172000092209F0EBFF04F1480104F190000CF0EC
:1017300001FA1B23064AC4E9803204B070BD00BF21
:10174000449700200C2702105C26021000800840FD
:10175000A0180210242702102DE9F04F0025E3B055
:1017600002AC8022002120461EF088FC2E46794FD4
:10177000DFF83482DFF834A2DFF834920A223868C6
:1017800022A907F0E1FA012800F0C280002003F04E
:1017900045FE831CF2D0FF28F0DC0D2810D00A286B
:1017A0000ED008284FD07F2857D01F28EEDD7E2D81
:1017B000ECD8605503F078FE013503F01BFEE5E739
:1017C000654803F0B3FE6655002D34D00422204650
:1017D00062491EF0FFFC00284DD0062220466049D9
:1017E0001EF0F8FC0546002849D0052220465D4938
:1017F0001EF0F0FC00287CD023786C2B36D1637867
:101800006F2B33D1A378672B30D1E378202B0DF1E8
:101810000B0303D113F8012F202AFBD01A786F2A6B
:101820005CD15A786E2A59D101234F494F4888F824
:10183000003003F0F9FE4E48267003F0F5FE03F089
:10184000D9FD0025A2E7002DFBD0013D4948665592
:1018500003F0EAFE03F0CEFD98E7002DF5D16055C8
:1018600003F022FE013503F0C5FD8FE72146424813
:1018700003F0DAFEDFE7414803F058FEDBE709F04A
:1018800001FF834609F004FF594602463C4803F035
:10189000CBFE2946DAF8000006F048FFC2074CBF2D
:1018A00038493949394803F0BFFE386807F0CAFAA9
:1018B00020220146364803F0B7FED9F8000007F0B1
:1018C000C1FA08220146334803F0AEFE98F8003012
:1018D000ABB12549304803F0A7FEACE71A786F2A70
:1018E0000FD15A78662A0CD19B78663B09D12B49D7
:1018F0009CE72B4803F098FE03F07CFD9BE727490B
:10190000E8E798F80030002B8ED0002323498DE7BC
:1019100098F800B0BBF1000F03D016E098F8003043
:101920005BB90022386822A907F00EFA0128F5D029
:10193000BBF1000F3FF42AAF8CE71A4822A90193AC
:1019400003F072FEDDF804B0EBE722A9154803F0BE
:101950006BFEE6E770C20020C0180210C418021027
:101960007C190210FC190210701C02100C1A0210D3
:10197000441A0210481A02101C1A0210CC18021045
:1019800084190210AC180210B0180210A419021029
:10199000B8190210D0190210E8190210B818021074
:1019A000041A0210BC180210F826002074C200208D
:1019B00078C200200FB400B5C3B044AB53F8042B79
:1019C0004FF4807102A8019303F024FB0023054A21
:1019D00002A910681A4607F0E1F843B05DF804EB7D
:1019E00004B0704770C2002010B501240D480E49A4
:1019F00084B0CDE9011000234FF400620B490C487C
:101A0000009408F0BFFD28B1214604B0BDE81040A5
:101A100007F012BF23464FF400620449054800F066
:101A2000B3F900BF4C9900206C3100204C1A021011
:101A300059170010681802104FF050422DE9F84F66
:101A40006E4BD2F800A053F82A70BAF1000F2BD0D9
:101A5000DFF8B48167B30026DFF8A4B1DFF8A49102
:101A6000F3080C3358F8235034460836C5B105F056
:101A70000F012D0989B15BF82A2004F00703E24029
:101A8000E0089B00D20701FA03F300F18C0C03D4A9
:101A9000204649F82C30B84715B10134B442E6D39A
:101AA000202EDDD1BDE8F88FDFF86081002FD2D184
:101AB000534DFC0804F10C0358F8233007F10800DB
:101AC000002B7CD013F00F064FEA13120AD055F802
:101AD0002A10F940C90703D44A498C3441F82460DC
:101AE000002A6CD012F00F024FEA13210DD055F8E6
:101AF0002A407E1CF440E40705D4F408414E12014C
:101B00008C3446F82420002959D011F00F014FEAF7
:101B1000133407D055F82A20BE1CF240D20758D5FE
:101B2000002C4CD014F00F044FEA134107D055F8A5
:101B30002A20FE1CF240D20752D500293FD011F0D6
:101B40000F014FEA135207D02D4C54F82A603C1D68
:101B5000E640F6074BD592B312F00F024FEA13613D
:101B60000DD0274C54F82A607C1DE640F60705D4BA
:101B7000244EE40812058C3446F82420F9B111F003
:101B80000F014FEA13731FD01D4CBE1D54F82A20BD
:101B9000F240D20705D4F2081A4E09068C3246F8F4
:101BA000221007375BB154F82A20FA40D10706D437
:101BB0001449FF081B0707F18C0241F82230202846
:101BC0003FF470AF074674E7002BF8D00C4C073792
:101BD000E9E7F2080B4E09028C3246F822109FE723
:101BE000F208084E24038C3246F82240A5E7054E41
:101BF000E40809048C3446F82410ACE7F4C1002052
:101C00006CC900200080024090820240488202405D
:101C10004FF4807C0C4B00B553F8202003EB80037D
:101C2000C00082F0400200F1804003F5805E02F0C7
:101C3000C00200F5203003F54053CEF8002041608B
:101C4000C3F800C000BD00BF048003404FF0504304
:101C50001B6893B10C4B4FEAD00C00F007008000DA
:101C600081400A4803EB8C030CF18C0C40F82C10DB
:101C70002AB103F5005319607047054BEBE703F5F4
:101C800040531960704700BF9082024000800240BC
:101C9000488202402DE9F0414FF0504690461D46E3
:101CA0003268214B0F4653F82210044682B031B3FC
:101CB0008DB3114643F82250C9B11C4BE10804F022
:101CC00007041B48A40007FA04F403EB81038C31DA
:101CD00040F82140B8F1000F0BD00121152003F589
:101CE00000531C6002B0BDE8F04100F04BB9114B4D
:101CF000E4E703F540531C6002B0BDE8F08145B154
:101D000043F8225015200A460B4900F0B5F9316816
:101D1000D2E71146D0E708491520019200F0A6FA53
:101D20003168019A004BC5E7F4C10020908202405F
:101D30000080024048820240391A00104FF0000330
:101D400000B543EC440043EC40004FF0050E4FF467
:101D5000807C0C4BC20053F8201003EB800081F014
:101D6000400102F1804303F5203301F0C00200F589
:101D7000805100F540500A60C3F804E0C0F800C08C
:101D800000BD00BF048003400FB400B5084883B015
:101D900003F0CCFB049B3BB105A91846019103F06D
:101DA00059F9044803F0C2FB012003F06BF900BFAE
:101DB000501A0210601A0210EFF3108072B6064B30
:101DC000D3E8CF1F01220029FAD1C3E8412F00290F
:101DD000F6D1BFF35F8F7047EBBD00200023034AAD
:101DE000C2E88F3F80F31088704700BFEBBD002032
:101DF00070B51646EFF3108472B6DFF848E0DEE8FF
:101E0000CF2F0123002AFAD1CEE8423F002AF6D193
:101E1000BFF35F8F012301F0070CCA0803FA0CF32C
:101E200010F802C01CEA030508D14CEA030C00F8C4
:101E300002C0CEE88F5F84F3108870BD3046FFF794
:101E4000A3FF00BFEBBD0020F8B50F461946EFF326
:101E5000108672B61C4DD5E8CF4F0123002CFAD165
:101E6000C5E8443F002CF6D1BFF35F8F8A421BD8F0
:101E7000012402E00132914222D3D30810F803E09A
:101E800002F0070C04FA0CFC1EEA0C0FF2D14EEA29
:101E90000C0E00F803E010460023C5E88F3F86F3E0
:101EA0001088984207DBF8BD0023C5E88F3F86F312
:101EB00010884FF0FF30002FF5D00698FFF764FF31
:101EC0004FF0FF30E8E700BFEBBD0020044A107878
:101ED000431CDBB2182B28BF10231370704700BFC0
:101EE000F92600200146024A0248FFF781BF00BFE1
:101EF000641A021004C2002000B5DFF81CC083B0D1
:101F000001461F231822CDF800C00248FFF79CFFAE
:101F100003B000BD04C20020841A02104FF0E0227A
:101F2000936843F000539360704700BF0021044B57
:101F300003F12002C3E88F1F01339342FAD17047A7
:101F4000E0BD00204FF0E0234FF08032C3F80024C2
:101F5000C3F80424C3F80824C3F80C24C3F81024DD
:101F6000C3F81424C3F81824C3F81C24C3F820248D
:101F7000C3F82424C3F82824C3F82C24C3F830243D
:101F800062B67047012300F01F029340400941B13F
:101F9000800000F1604000F56140C0F880310360CE
:101FA0007047024A203042F82030704700E100E0DC
:101FB0000123064A410952F8212000F01F00834006
:101FC000134214BF01200020704700BF00E100E071
:101FD00001224309034900F01F008240403341F8C9
:101FE0002320704700E100E0054A10309268054B5D
:101FF00052F82000C01A2F288CBF00200120704703
:1020000000ED00E0FC26002010B582B0EFF3108454
:1020100072B6164BD3E8CFCF0122BCF1000FF9D135
:10202000C3E84C2FBCF1000FF4D1BFF35F8F104A0F
:1020300010309268DFF83CC052F82020624508D08A
:10204000914206D0CDE9000101F060F90199074BFA
:102050000098074A926842F82010BFF35F8F002271
:10206000C3E88F2F84F3108802B010BDE9BD0020B3
:1020700000ED00E0110100102DE9F04F06468A4600
:10208000154683B0EFF3108872B6714FD7E8CF2FA3
:102090000123002AFAD1C7E8423F002AF6D1BFF354
:1020A0005F8F6C4991F90020002A7BDB6A4802EBC4
:1020B000420400EB840393F806C0103681F800C098
:1020C0006649A40089684FEA420B51F826E0AEEB5E
:1020D00000012F292ED962498E4540F0848043F0BB
:1020E000010E604B02340444043B1B1BC3F34A0340
:1020F0006FEAC3434FF421416FEAD3435A4420F8B7
:10210000221000EB820253804BF601539380FF2391
:10211000D571C2F808A09371504B9B6843F826E034
:10212000BFF35F8F0023C7E88F3F88F3108803B0A9
:10213000BDE8F08F2EF0010C9CF80710A9425AD987
:10214000B14601941E4603E0CB79AB4230D98C46B0
:102150009CF9064004EB4401002C00EB8101F3DA0A
:1021600000944BF6015433464E460CF10409043BEF
:10217000A3EB0903C3F34A036FEAC3436FEAD343F4
:10218000ACF80430384B0BEB02018CF8062040F819
:102190002130009B00EB810294809371D571C2F8CD
:1021A00008A0B9E701F0B2F82A4991F900207DE7CB
:1021B0006FF007010094019C33460C1B6146241A02
:1021C000019431F8044F4E4644F30A04023401EB03
:1021D0004404894601990C44C4F34A046FEAC44498
:1021E0006FEAD444C3E7CDE9002301F08FF8DDE9BD
:1021F0000023194873E71B4AA11CDD710144043A0E
:10220000251D521A0544ACF10401491BC1F34A01D2
:102210006FEAC141C2F34A026FEAC2426FEAD1419A
:102220004FF4214E6FEAD24299800F4920F804E022
:102230005A804AF6AA256246121A524155432D0D7C
:10224000C3F808A09D7143F0010ECCF8001063E7BD
:10225000E9BD0020B54B0220FC26002000ED00E087
:10226000110100102C270020014880472DE9F04F74
:10227000034685B0EFF3108772B6764CD4E8CF0FE3
:1022800001220028FAD1C4E8402F0028F6D1BFF37C
:102290005F8F714A03F110069268DFF8D48152F81B
:1022A000260040454BD0884257D06C4DA0EB050C22
:1022B000BCF12F0F43D84FF0010E4FEA531C4FEAE9
:1022C0008C0C0CF1604202F56142D2F800C003F0C0
:1022D0001F030EFA03F300920193C2F8803003EA61
:1022E0000C09BFF35F8FEFF30583DBB29A46002B37
:1022F00035D09E4205D0CDE9020101F007F8DDE9B5
:10230000020120F0010EDEF808C0614505D18CE025
:10231000D3F808C0614532D09E469EF9062002EBF4
:102320004203002A05EB8303F2DA614560D0DDE960
:102330000032B9F1000F1FD0C3F880211A60464B5C
:102340009B6843F82600BFF35F8F0023C4E88F3FEC
:1023500087F3108805B0BDE8F08F4046EFE720F026
:10236000010EDEF808C06145D7D19EF906B09B4545
:10237000734609DA404646E0C3F88020DFE793F968
:1023800006B0BBF1000F34DB0BEB4B0C05EB8C0202
:1023900092F807E04FEA8C010291916883F807E018
:1023A00092F906C09960BCF1000F83F806C04FEAAD
:1023B0004B0E38DB6FF0070C9288029942F30A0249
:1023C00001EB420208322A44ACEB030C6244C2F334
:1023D0004A026FEAC2426FEAD2429A80204BDE4440
:1023E0001A7805EB8E0E83F800B08EF806209EE773
:1023F0007346BAF1000F1ED1FF228EF806204BF66D
:102400000152AEF80420DFF858C04AF6AA229CF820
:1024100000E01946491B49414A43120D83F806E082
:102420008CF8002083E70F4AD7E79EF906B0734681
:10243000BBF1000FA8DA0C4A0C4DD21A083AC2F3CD
:102440000A316FEA01516FEA115145EA5202DA800E
:1024500099806CE7E9BD002000ED00E0FC2600203B
:10246000B54B022001BDFFFF3627002000F8FFFF1B
:10247000110100104FF0FF0C20F0030303F1604343
:1024800003F5644300F003001A68C0000CFA00FC76
:1024900022EA0C0281400A431A6070472DE9F0419C
:1024A000EFF30583DBB29E46EFF3108572B6294940
:1024B000D1E8CF2F0123002AFAD1C1E8423F002AF8
:1024C000F6D1BFF35F8FDFF89C8040F00106D8F8AB
:1024D00008704AF6AA2357F82E7004461E4AA41A1A
:1024E000644163431B0DB7425BB21ED092F90640B4
:1024F0009C4220D092F912409C4227D092F91E4073
:102500009C4225D092F92A409C4208BF032413D054
:10251000124A002492F800C0137080F806C0C1E887
:102520008F4F85F31088BDE8F081D8F808200C4C57
:1025300042F82E40ECE7002404EB440402EB840252
:10254000FF2494714BF601549480E1E70124F3E7F2
:102550000224F1E7E9BD0020FC260020B54B022053
:102560001101001000ED00E000B5DFF824C083B0D9
:10257000014605230022CDF800C00448FFF764FCA3
:102580000028A8BFC0F1330003B000BDB94B022042
:10259000A01A0210014B0B4403607047E0BD0020FD
:1025A000F8B5124C124DAC4211D24FF0FF36002755
:1025B00023686BB1FFF78AFC01462046FFF7EAFF6C
:1025C00066602772BFF35F8F0C34AC42F0D3F8BD66
:1025D000FFF77CFC01462046FFF7DCFF6660BFF397
:1025E0005F8F0834AC42E3D3F8BD00BF242E002037
:1025F000342E002010B50446FFF768FC0146204643
:10260000FFF7C8FF4FF0FF336360BFF35F8F10BD6C
:1026100010B504460120FFF76FFC034B0344236011
:10262000BFF35F8F10BD00BFE0BD0020024B0B4425
:102630000360BFF35F8F7047E0BD00200000000023
:102640002DE9F04F2DED028B85B0EFF30583DBB262
:10265000103B9A0818BF01224FF0010103F0030B51
:1026600018BFA94CA94B08BFA94C0BEB820253F829
:10267000225001FA0BF204F541539FEDA18B029217
:102680005A602FE0AB88190440F19480AB79002B9D
:1026900040F0DE80B5F90860002EC0F21C816B6945
:1026A00006EB460603EBC603D3E90267B7F1FF3F2B
:1026B00008BFB6F1FF3F0ED004EB8B01A36A0A6995
:1026C000D21AF31A934205D30123226A03FA0BF3B9
:1026D000134200D10E61204600F040FCB042B941E7
:1026E000C0F2F980B5F90860029B002EE363C9DBF4
:1026F000D5F8149006EB460A09EBCA07BB682046DA
:10270000D7F80C80019300F029FC019B984271EBF3
:102710000801B7DBB8F1000FC0F2C080D7E904317F
:102720007C4A934200F0F8807A88B5F9080092B2AA
:1027300042EA0040984702460B4652EA030100F085
:10274000AD80002B80F2CD800199B1EB020E68EBD9
:10275000030839F93A30C7E902E8002B92DB6869CF
:1027600003EB430200EBC202D2E90271BE4578EBF3
:10277000010C4FEA430285DBAC462CF8083F06E02B
:1027800003EB430100EBC1015A00D1E90271BE45E0
:1027900078EB01011A4405DB30F9323000EBC20C52
:1027A000002BEDDA29F83A30ACF80060AB88190458
:1027B0003FF56CAF2B69EFF3108272B6D3E8CF0F01
:1027C00001210028FAD1C3E8401F0028F6D1BFF349
:1027D0005F8F4FF6FF76A8880023296900B2AE808C
:1027E000C1E88F3F82F310889842FFF64FAF07464B
:1027F000A1466E6905F10808B5F9083007EB470EE8
:10280000002BC44606EBCE0215DBD2E90240AA46F5
:10281000019704E036F935309446002B09DB03EBD1
:10282000430506EBC502D2E90271BC4270EB01011F
:10283000F0DA5546019FACF8007036F93E7026F884
:102840003E30002FD8DAAB794C46002B3FF422AF54
:102850000023AB71B5F90860721C33463BD0686940
:1028600005F1080E03E08E465A1C3FF415AF03EB4A
:10287000430200EBC2014F889C463F0430F93230DE
:10288000F1D5664581ED028BEED0AEF80030298996
:10289000664620F83210A5F808C0E5E739F83A3066
:1028A0002B812B69EFF3108272B6D3E8CF0F012191
:1028B0000028FAD1C3E8401F0028F6D1BFF35F8F8C
:1028C0006B88296929F83A3000236E80C1E88F3F70
:1028D00082F31088D6E640BF05B0BDEC028BBDE8A0
:1028E000F08F20460393019200F038FB019A039B7E
:1028F00010EB020E43EB01082BE700BFAFF30080A3
:10290000FFFFFFFFFFFFFFFF00800B40B0C600206E
:1029100000000B404126001008460B6903919847C0
:102920000028BBD00399D1E9002306E70B4808B57E
:102930000368EFF3108172B6D3E8CFCF0122BCF168
:10294000000FF9D1C3E84C2FBCF1000FF4D1BFF355
:102950005F8F05F0E1FC0020002108BD7CC900204C
:1029600038B5384B1C692CB1BDE838400A213648CF
:10297000FFF710BE0321354800F0DEFA334D314B2E
:10298000DD60FFF7A3FA324A4FF0504E02440320B5
:102990002C4B4FF00F0C18701A61DEF800204FF628
:1029A000FF715A705A69A3F802C014834FF00204F1
:1029B000A2F848404FF00404A2F878404FF0050414
:1029C000A2F890404FF00604A2F8A8404FF0070488
:1029D000A2F8C0404FF00904A2F8F0404FF00A04FA
:1029E000A2F808414FF00B04A2F820414FF00C046C
:1029F000A2F838414FF0010414864FF00804A2F801
:102A0000D840144C4FF00D0E4FF00E0C9C60082473
:102A10009980A2F850E1A2F868C1A2F86000118084
:102A20000D4A2C620D49D360FFF7EEFA0121032015
:102A3000FFF7A8FA0A4B0A211C640348BDE8384096
:102A4000FFF7A8BD442700207CC9002000000B40F0
:102A5000E0BD0020FFFF1000B0C60020412600109E
:102A600000200B400048704744270020F0B583B099
:102A70009DF828401D46034654B9CDE9000200F0F8
:102A800075FA019A009B824265EB0101A1425BDB72
:102A90001969EFF3108072B6D1E8CF6F0124002ED0
:102AA000FAD1C1E8464F002EF6D1BFF35F8FB3F9DC
:102AB00002401F69002C3EDBD3F814C004EB440E27
:102AC0003CF83E10002659800CEBCE01C7E88F6F12
:102AD00080F310884888C1E902250130C0F30E0058
:102AE000012838BF0120089A48800A61099A40EA03
:102AF00004404A611A69EFF3108172B6D2E8CF7FC1
:102B00000125002FFAD1C2E8475F002FF6D1BFF3AD
:102B10005F8F9A882CF83E201A699C80C2E88F6FDC
:102B200081F3108801211C78DA68A14002F5015375
:102B3000596003B0F0BD0023C7E88F3F80F31088D1
:102B40004FF0FF3003B0F0BD204603B0F0BD00BF32
:102B5000F0B516461F4602690346EFF3108072B6C1
:102B6000D2E8CF4F0121002CFAD1C2E8441F002C3B
:102B7000F6D1BFF35F8FB3F902101D69002945DB61
:102B8000D3F814E001EB41023EF832400EEBC20CE8
:102B90005C800024C5E88F4F80F310880598354687
:102BA000CCF8100006983E46CCF81400BCF80200A1
:102BB000CCE902560130C0F30E00012838BF0120D5
:102BC000ACF8020040EA0140D3F810C0EFF31085E2
:102BD00072B6DCE8CF7F0126002FFAD1CCE8476F30
:102BE000002FF6D1BFF35F8FB3F804C02EF832C0C8
:102BF00099801A69C2E88F4F85F3108801211C78EB
:102C0000DA68A14002F501535960F0BD0023C5E820
:102C10008F3F80F310884FF0FF30F0BD03464089AE
:102C2000B0EB214F3ADD58690A1402EB420210B5AD
:102C3000D3F810C000EBC200EFF3108E72B6DCE8E0
:102C4000CF4F0122002CFAD1CCE8442F002CF6D132
:102C5000BFF35F8F428889B292B28A4207D00022C6
:102C60001B69C3E88F2F8EF31088002010BD6FEA18
:102C700042426FEA52424280012100221869997152
:102C8000C0E88F2F8EF3108893F800C0DA680846EA
:102C900002F5015301FA0CF1596010BD0020704794
:102CA00040787047F0B583B004460D4600F05EF9F9
:102CB0004FF0FF326FF00043241845EB0105A242AC
:102CC00073EB05013CBF14461D46B4F1960645F171
:102CD000FF37B44275EB07033CBF0026374600F0D0
:102CE00045F9301A67EB0101012871F1000106DA9C
:102CF0002046294603B0BDE8F04000F071B900F06D
:102D000035F9864267EB010100290ADB0021144BEB
:102D10003246009313483B460191FFF719FF0130FB
:102D2000E6D0114A536A9F4204D8916AB142DFD279
:102D30009F42DDD10D4B1B68EFF3108172B6D3E8D3
:102D4000CFCF0120BCF1000FF9D1C3E84C0FBCF18B
:102D5000000FF4D1BFF35F8F044805F0A9FAE0E754
:102D60002D2900104427002000000B407CC90020C2
:102D7000F0B583B0064600F0F9F84FF47A730446D4
:102D80004FF0FF306FF00042E6FB0341A04272EBD0
:102D900001033ABF044615460D46B4F1960645F1C7
:102DA000FF37B44275EB07033CBF0026374600F0FF
:102DB000DDF8301A67EB0101012871F1000106DA34
:102DC0002046294603B0BDE8F04000F009B900F004
:102DD000CDF8864267EB010100290ADB0021144B84
:102DE0003246009313483B460191FFF7B1FE013094
:102DF000E6D0114A536A9F4204D8916AB142DFD2A9
:102E00009F42DDD10D4B1B68EFF3108172B6D3E802
:102E1000CFCF0120BCF1000FF9D1C3E84C0FBCF1BA
:102E2000000FF4D1BFF35F8F044805F041FAE0E7EB
:102E30002D2900104427002000000B407CC90020F1
:102E4000EFF30582D2B282B1384B5A6A8A4202D27B
:102E500000221046704714BF012200229B6A834261
:102E600028BF42F001021046704770B584B003924B
:102E70002F4A0646D368157818460C46029300F090
:102E80006DF8029B05F1040C53F82CC0039AACEBCF
:102E9000000C301A64EB0101604571F100010FDB99
:102EA00020BF224B596AA14207D314BF012200223E
:102EB0009B6AB34228BF42F00102104604B070BDC5
:102EC000029200F053F8864264EB01010029029A55
:102ED0001BDB18492346CDE9001215483246FFF79F
:102EE00037FE011E11DD114B5A6AA2421CD39B6AA8
:102EF000B34217D30E48FFF791FE0C4B5A6AA24219
:102F0000D3D20022104604B070BD084B5A6AA242C8
:102F1000F7D3121B18BF01229B6AB34228BF42F0AD
:102F20000102CAE7A242E5D120BFE3E700000B405F
:102F3000442700202D29001010B4054B054C064AEB
:102F4000A04214BF1846581C10BCFEF751BF00BF6A
:102F500008C2002000800B40BC1A02100346416AE0
:102F60000A46986A596A8A42FAD17047034B596AED
:102F70000A46986A596A9142FAD1704700000B409C
:102F800000B58E46154A536A9C46916A536A63455A
:102F9000FAD1401853EB0E034FF0000228BF012274
:102FA000BAB10E4B5A6A531C08BF104608D04FF0F6
:102FB000FF33184609494A6A9A42FCD39A4207D11C
:102FC000064B02E0596A914202D1996A8142F9D3D3
:102FD00000BD024A526A9342ECD8EFE700000B4072
:102FE000074A536A9942FCD8994207D1044B02E040
:102FF0005A6A914202D19A6A9042F9D8704700BF4A
:1030000000000B4000EB400C4FEA8C0C0CF1804CA4
:103010000CF5803C70B51E46DCF80430041FB3F597
:10302000803F38BF4FF48033E4B238BFCCF804306F
:10303000012C2ED94FF40065284B0CF5405ECEF8DC
:10304000005053F820E0BEF1000F17D1DCF800E08B
:10305000012C8EEA421202F0E0020CF5805ECEF8FE
:1030600000202BD94FF4006143F820604FF48033E7
:103070000CF500521160CCF8043070BD5D69B5FBF1
:10308000FEFE0EF1010E0EEB4E0EBEF1030EFCD253
:10309000DCE70129CED103240CF540531C60DCF899
:1030A0000830DB07FBD5DCF800300CF5805E83EAE6
:1030B000421303F0E003CEF80030084B0122DCF8A5
:1030C00000404C4004F00304CEF8004002FA01F145
:1030D000DCF808200A42FBD0C4E700BF0CC2002085
:1030E000014B53F8200070470CC2002010B5029C21
:1030F0008E464FEA043C4CEA034C1C4BB3FBF1F305
:103100000168B2FBF3F4002920DB194A194B904205
:1031100014BF4FF480424FF4004217491A6003F580
:1031200080531A608B6832EA0303FBD1212200F539
:1031300040530433C0F800E084601A600268002A3B
:10314000FCDA0822C0F80CC01A6010BD036803F056
:103150003F037345D9D18368C3F30B03A342D4D192
:10316000C36803F4EE236345CFD110BD001BB70045
:103170000080054000200240000002404FF0804CDB
:10318000214B00B5C3F800C0002839D0DFF888C053
:10319000A3F54053C3F81CC0DFF880C040F0010025
:1031A00080EA0C0CC3F820C0596298624FF0804E40
:1031B0004FF0E061144B1548DFF864C0C3F800E03D
:1031C000C0F808C019602AB94FF00042A3F5805337
:1031D0001A6000BD4FF47A7303FB02F2B2F1807FF4
:1031E0002ABF6FF07F4313461A464FF08041DFF845
:1031F00034C00748CCF80030064B4260196000BD6F
:10320000034BD861D2E700BF00B00D4000A00140E1
:1032100000800D4000A00D40D3C007B02D3FF84FF7
:10322000F3FFFF0188C60020012300EB400080006F
:1032300000F1804000F5841041600360704700BFDA
:1032400010B5002482B00B46E48A002141E800F169
:10325000CDE900034B0254BF1021042144F2522057
:10326000A047DDE9002386460A214FF48170F44629
:1032700002B0BDE8104060470023DB8A002242E82C
:1032800000F2520201D4102118470421184700BF50
:1032900008B503460846191E02DB1AB140F030009B
:1032A000FFF7CEFF40F02000FAE700BF034AD2F854
:1032B0002838002BFBD0BFF35F8F704700000E4013
:1032C0000021044B044ABFF35F8F43F8041B934271
:1032D000F9D170470C080E402C080E404FF42A6CB0
:1032E0004FF48D70054A064B0649C2F800C0D06005
:1032F00019605368002BFCDA704700BF008004405F
:1033000000A0044000B0FA00704700BF08B50148B3
:10331000FEF73AFDE01A021038B5054C054DAC42F7
:1033200004D254F8043B9847AC42FAD338BD00BFEE
:1033300098140210D814021038B5054C054DAC4253
:1033400004D254F8043B9847AC42FAD338BD00BFCE
:10335000C4140210D81402100648DFF828C0064B27
:10336000064A0749C0F800C01A608B6832EA0303B6
:10337000FBD170470020024000300240F6FFF3030B
:10338000000002407F3BEFEF044BDB6CB3F5004FD6
:1033900003D14FF48022024BDA64704700001150D1
:1033A000002011504FF0E022044BD2F8881D0B434F
:1033B000C2F8883D10EE3004704700BF03033000B0
:1033C0006FF06041044B054A19609368DB4333F0AA
:1033D0006043FAD1704700BF003002400000024055
:1033E00010B545F25320FFF747FFBDE810400346F4
:1033F0000420184710B545F25320FFF73DFFBDE804
:103400001040034601201847FEF790BD1449154BA4
:1034100070B55C1AA610442E324628BF4422124DC5
:10342000920028461DF064F8B4F5867F13D80F4A41
:1034300014D0C6F144002B19410803EBC101C3E9C4
:10344000002208339942FAD1C30704D520F00100C5
:10345000304445F82020064B9D6070BD4320F8E7BE
:1034600000000010100100100000002011010010E9
:1034700000ED00E0002370B52B4C82B0C4F884301E
:10348000FFF72CFF0122294BDA63636C012BFCD17F
:103490000321264A244B11639C6B012CFCD102268C
:1034A000052521460523224A22480096FFF71EFEE5
:1034B00021462B46204A21480095FFF717FE00229F
:1034C000042031461E4BFFF79DFD21462846002271
:1034D0001C4BFFF797FD0022082011461A4BFFF7FF
:1034E00091FD002209201146174BFFF78BFD0022AA
:1034F00006201146134BFFF785FD0022114B0720D4
:103500001146FFF77FFD0420FFF7EAFD00240F4B73
:10351000A3FB0035AD0CE0B229460134FFF784FE71
:10352000062CF8D102B070BD00000140003001400F
:10353000002F685900000540008C86470080054038
:10354000001BB70080D1F008006CDC0283DE1B4357
:10355000C1F30A530A4673B3A3F2FF33002B23DBF4
:10356000332B2CDC0121844600B5C3F11400C3F1D8
:10357000340E143B01FA00F021FA03F3002A40EA6A
:10358000030001FA0EF107DB1CF1FF3C42F1FF32B0
:103590001CEB010C40EB02024B4260EB400E0EEACA
:1035A000020103EA0C0000BD00294FF0000007DA19
:1035B0004FF000417047184601F0004170477047D6
:1035C000004970470000F03F86B003B451FC080486
:1035D000CDE9020151FC0904CDE9040151EC0A04D2
:1035E000CDE9060103BCF047BDE800504EEC00C435
:1035F000BDE800504EEC01C4BDE800504EEC02C4E2
:1036000000BD000000B5FFF7DFFF02E010FE30F460
:10361000F8D441EC100443EC112400EE010410EE48
:10362000010480EE200451EC1004704700B5FFF750
:10363000CBFF02E010FE30F4F8D441EC100443EC70
:10364000112400EE010410EE210480EE200451EC60
:103650003004704700B5FFF7B7FF02E010FE30F40A
:10366000F8D410B541EC100443EC112451EC0404DF
:1036700053EC0524A0FB024C5FF0000EE0FB03CEF0
:10368000E1FB02CE4CEC20440024E1FB03E444ECDB
:1036900030E480EE200451EC5004BDE81040704747
:1036A00000B5FFF791FF02E010FE30F4F8D441ECD2
:1036B000100443EC112451EC2104A0FB01126FEA29
:1036C000820252FB100052FB12F252FB1000A0EBE0
:1036D000D07C53EC04245CFB13F153EC1524A1FBC8
:1036E000022001FB030053EC4424A2EB000050FB3A
:1036F0001CF24FEA111312EB017043EBE27140EA46
:10370000515020EA915020F0070053EC7524A0FBA3
:10371000023C53EC752400FB03CC01FB02CC53ECC0
:103720000424ACEB824C40EA5C70A0F1010041EC57
:10373000400480EE200451EC7004704700B5FFF7A0
:1037400043FF02E010FE30F4F8D441EC100480EEA8
:10375000220410EEB204704700B5FFF735FF02E017
:1037600010FE30F4F8D440EC700400EE010410EECA
:10377000210480EE200451EC3004704700B5FFF7BF
:1037800023FF02E010FE30F4F8D440EC600400EEB9
:10379000010410EE210480EE200451EC3004704747
:1037A00000B5FFF711FF02E010FE30F4F8D441EC51
:1037B000800400EE010410EE010480EE400410EEDF
:1037C0001304704700B5FFF7FFFE02E010FE30F46F
:1037D000F8D441EC800400EE010410EE010480EE08
:1037E000400410EE3304704700B5FFF7EDFE02E031
:1037F00010FE30F4F8D441EC100443EC112400EE38
:10380000010410EE3004C0F30070704700B5FFF7FC
:10381000DBFE02E010FE30F4F8D443EC102441EC5F
:10382000110400EE010410EE30F48CBF01200020E2
:10383000704700BF00B5FFF7C7FE02E010FE30F48E
:10384000F8D443EC102441EC110400EE010410EE16
:1038500030F42CBF01200020704700BF00B5FFF7F7
:10386000B3FE02E010FE30F4F8D441EC100443EC57
:10387000112400EE010410EE30F42CBF01200020D2
:10388000704700BF00B5FFF79FFE02E010FE30F466
:10389000F8D441EC100443EC112400EE010410EEC6
:1038A00030F48CBF01200020704700BF38B50446BB
:1038B00009481DF0C5FD20461BF0DCFB0546064807
:1038C0001DF0AAFD2DB1054B2C449C4201D8284681
:1038D00038BD0348FEF758FA242E002000000820C7
:1038E000EC1A021038B505460C460A481DF0A8FD32
:1038F000284621461BF036FF054606481DF08CFD84
:103900002DB1054B2C449C4201D8284638BD0348B4
:10391000FEF73AFA242E002000000820EC1A0210CC
:1039200010B5044605481DF08BFD20461BF0AAFB90
:10393000BDE8104001481DF06FBD00BF242E0020DF
:10394000FFF7B4BFFFF7ECBFFFF7EABF9A4238BFFB
:1039500088547047704700BF2DE9F04F83B00F4681
:103960001146DDE90EB292079846DDE90C93064652
:1039700029D00D469BB109EB030405EB040A019520
:103980000D460D93AAEB040214F8010D4346394687
:10399000B047A145F6D129460D9B019D1D440F9BC3
:1039A0009B070CD56C1AA34509D92A4643463946CC
:1039B00020200134B0475C4505F10105F5D32846C8
:1039C00003B0BDE8F08F5B4515D28A461C46894698
:1039D000ABEB03050D4452464346394620200AF11D
:1039E000010AB047AA45F6D149462346DDF8309092
:1039F000002CC0D1E3E70D46002BBCD1DFE700BFB0
:103A00002DE9F04F0F460F9906469DF82C008D07C3
:103A10009046DDE90CA299468346099CDDF828C052
:103A20000E9B49D4002B42D1944545D201F00105AB
:103A300004F1FF3E3020E64405E00CF1010C624544
:103A40000EF8010F02D9BCF1200FF6D1002D00F0C5
:103A50008780634530D9601E4FF0300E604405E02A
:103A60000CF1010C9C4500F801EF25D0BCF1200FB2
:103A7000F6D1CD060ED5480551D4624564D06345D4
:103A800062D0BAF1100F4DD0BAF1020F55D0BCF18F
:103A9000200F2DD12022CDE90B310A924B46424610
:103AA000394630460994BDE8F04FFFF755BF11F095
:103AB00001052ED19445BBD3CD061ED54805E0D4D3
:103AC000BCF1000FD9D1BAF1100F5FD0BAF1020FDB
:103AD00074D030224FF0010C2270BBF1000F12D1D4
:103AE000480742D52B2204F80C200CF10102D2E742
:103AF00062460CF1010C3020A054BCF1200FC9D05B
:103B0000BBF1000FECD02D2204F80C200CF10102C7
:103B1000C1E798B3944503F1FF3389D399E7BAF12C
:103B2000100FB7D18D063DD5BCF1200FB2D0582271
:103B300004F80C200CF1010CA9E7BCF1200FA9D06E
:103B400062460CF1010C08E0BCF10102BBD0BAF1F5
:103B5000100F35D0BAF1020FCDD16220A05496E7F4
:103B6000CD06CAD5480588D58BE70A0749BF20226C
:103B7000624604F80C200CF101028CE711F00C0FE6
:103B800000D0013B9445FFF453AF62E78A0613D49B
:103B90007822227030224FF0020C6270BBF1000FCD
:103BA0009ED0B0E7BCF1200F3FF474AF782204F848
:103BB0000C200CF1010C6AE75822EAE76222E8E7E0
:103BC0008D06ACF1020004D54FF0580E04F800E069
:103BD00091E74FF0780E04F800E08CE700B97047E9
:103BE00001F062BC10B1D1E900311847704700BF45
:103BF0002DE9F04F97B09DED207BDDE9225B8046FB
:103C0000894651EC170B9A46249B0C920793024667
:103C10000B468DED047BFFF7EBFD002840F0E381C0
:103C2000DDE904014FF0FF326FF48013FFF7F2FD7E
:103C3000002840F0CB80DDE904014FF0FF32B24BA9
:103C4000FFF724FE002840F09F80DDE90467AAA367
:103C5000D3E9002330463946FFF718FE002840F02C
:103C60008280A7A3D3E9002330463946FFF7D2FD6F
:103C7000002878D13046394600220023FFF7CAFDDC
:103C8000002840F098800D90079B302113F4806F3E
:103C900008BF06250EAA2B46A5F1200605E0013B2C
:103CA000B34202F8011B00F06581092BF7D81E46CC
:103CB000ED1ADDE90401FFF777FD944B044603EBB1
:103CC000C60393ED007B8DED087BFFF749FD0246AF
:103CD0000B46DDE90401FFF7ADFCDDE90823FFF742
:103CE000BDFCCDE90A01FFF771FD0746FFF74AFD6C
:103CF00002460B46DDE90A01FFF79CFC0022844BDB
:103D0000CDE90A01FFF7C2FD002800F088800137E5
:103D10003846FFF737FD02460B46DDE90801FFF79D
:103D20008DFD08B100270134002E00F088800DF1D0
:103D30003703DFF8F0C158190DE0ACFB0721C908C3
:103D400001EB8102A7EB42023032092F00F8012F6C
:103D500040F2FB800F46202D06F1FF3605F10105EC
:103D6000EBD1202586E0079B9DED047BCDE923B3B5
:103D70004946534640460C9A8DED207B229517B05C
:103D8000BDE8F04F00F080B9079B494658074CBF8B
:103D900004230323404621935346079A48BF5D4CB2
:103DA000CDE922B258BF5C4C0C9A209417B0BDE804
:103DB000F04FFFF7D1BD3B46324600200021FFF710
:103DC00039FC0123CDE904010D935DE7079B03F066
:103DD00002029C07049200F0F4800C9F3D464F4E77
:103DE000341D14F8010D2A4653464946C047A642E1
:103DF00005F10105F5D1049B3C1D63B10C9D631BCE
:103E00009B4508D922465346494620200134C047E5
:103E1000631B9B45F6D8204617B0BDE8F08F002203
:103E2000DDE90A013A4BFFF7F5FC00287FF47CAF8F
:103E3000002F40F0C2800137002E7FF478AF20467B
:103E4000FFF78EFC02460B46DDE90401FFF7F2FBAB
:103E500000222F4B06460F46FFF7DCFC40B93046E8
:103E6000394600222A4BFFF711FD002800F0A180FF
:103E70000DF137032A4859190EE080FB0476C2EB96
:103E8000A60202EB8206A4EB460630361446013544
:103E900001F8016F002A47D0202D4FEAE472ECD1DF
:103EA000079A02F00302012A14D1BBF1000F11D0CE
:103EB0000D9A002A60D00BF1FF3BBBF1200F09D90E
:103EC00030222B4404E001355D4503F8012F31D247
:103ED000202DF8D1079B0EACCDE902B300945346D8
:103EE000494640460C9A0195FFF736FD04462046A8
:103EF00017B0BDE8F08F00BF0000000065CDCD41D8
:103F00000000000065CDCDC1FFFFEF7FC02902108A
:103F10000000E03F4C1B0210541B02105C1B0210FF
:103F200067666666CDCCCCCC079A02F00302012A04
:103F300000F09680202DCDD00D9B3BB32D220DEBB4
:103F4000050383F838200135C4E7202D3FF409AF7D
:103F500030212E445A1905E00135202D02F8011FA9
:103F60003FF4FFAEAE42F7D12E226E44013586F803
:103F700038207FE720259CE6079A12F00C0F5AD0D4
:103F80000BF1FF3BAB459BD8202DA3D0079B5A07D5
:103F900006D52B220DEB050383F83820013599E770
:103FA0001B0797D520220DEB050383F83820013538
:103FB00090E7013424F001045AE7F9077FF5B4AE25
:103FC00039E7BBF1040F7FF608AF0C9B1D46043B9D
:103FD00003EB0B072A465346494620200135C047CC
:103FE000AF42F7D1FAE6079B03F002029D07049265
:103FF00025D00C9F3D46224EF41C14F8010D2A4694
:1040000053464946C047A64205F10105F5D1049B38
:10401000FC1C002B3FF4FFAE0C9D631B9B457FF601
:10402000FAAE22465346494620200134C047631B5E
:104030009B45F6D8EFE6AB453FF642AF4AE7BBF10A
:10404000030FD6D90C9B1D46033B03EB0B072A46F7
:104050005346494620200135C047BD42F7D1C9E744
:10406000BBF1000F3FF466AF0D9A002A84D00BF12C
:10407000FF3B5D45FFF424AF202D7FF45FAF29E7C0
:10408000581B0210000000002DE9F04F9FB01E46A3
:10409000DDE928ABDDE92B982A9B04460D460B92FF
:1040A0000A9352465B4650465946FFF7A1FB00284B
:1040B00040F0C680504659464FF0FF327B4BFFF729
:1040C000E5FB002840F0BC80504659464FF0FF32D7
:1040D0006FF48013FFF79EFB002840F0B18050463C
:1040E000594600220023FFF795FB002840F0DD81B0
:1040F000CDE908ABDDE9081218F480600B460F46E5
:1041000008F400610C921491159040F0A8801343BC
:1041100040F0D080002940F0EC8106230A9318F08B
:104120000202109240F0DD814B46042B38BF04237D
:104130000E920422043B12921493504659460022D8
:104140000023FFF767FB002840F02A829DED087BE3
:10415000149B0B9A03930A9B8DED007B029328F42A
:1041600000630493294633462046FFF741FD02468B
:1041700018F0200F334629460CBF6520452002F178
:104180000108A047129B0DF1580A03F1FF3B0E9B5B
:10419000002283EAE37C5046DFF814E10B9FACEB8E
:1041A000E37CD90FCDF8208002E0202AC44610D04D
:1041B000AEFB0C384FEAD80808EB8803ACEB43039E
:1041C00001303033BCF1090F02F1010200F8013C6B
:1041D000EBD805234FF0000C06930A23DDF820806E
:1041E000CDE90121CDE9033CCDF800A0334642469C
:1041F00029462046CDF814B0FFF702FC109B8246FA
:10420000D3B1A0EB0708C14516D907EB0802334626
:104210002946202008F10108A047C145F5D87B1E9A
:104220004B44C7F10102A3EB0A035244914538BF46
:1042300000230AF1010A9A4450461FB0BDE8F08FEE
:10424000334629462046CDE928AB0A9CCDE92B9878
:104250000B9A2A941FB0BDE8F04FFFF7C9BC57EA8C
:10426000020329D100293FF45AAF00230E930A9B81
:104270000E9A934200F3BA81002750465946002215
:104280000023FFF7C7FA002840F015819DED087B59
:1042900028F4006343F480632C938DED287B334630
:1042A00029462046CDE92A790B9AD3E7FFFFEF7F15
:1042B000CDCCCCCC06230A930C9BC3F30A50A0F2BE
:1042C000FF30FFF74DFAB2A3D3E90023FFF7C6F999
:1042D000B1A3D3E90023FFF799F90C9BCDE90E01B7
:1042E000C3F3130343F07F5138460022A24B41F43D
:1042F0004011FFF79FF994A3D3E90023FFF7AEF92C
:1043000002460B46DDE90E01FFF780F9FFF74CFA94
:104310000E90FFF725FA8EA3D3E90023CDE90C0117
:10432000FFF79CF90022954BFFF770F9FFF73CFA75
:1043300089A3D3E900230746DDE90C01FFF78EF9D5
:10434000CDE90C013846FFF70BFA85A3D3E900232A
:10435000FFF784F902460B46DDE90C01FFF76AF925
:1043600002460B46CDE90C23FFF778F9CDE91001A1
:10437000DDE90C0102460B46FFF748F90022CDE9C2
:104380001201DDE910017E4BFFF78EF900227D4B13
:10439000FFF73CF902460B46DDE91001FFF784F90F
:1043A0000022794BFFF732F902460B46DDE9100196
:1043B000FFF77AF9CDE91001DDE90C2300204FF079
:1043C0008041FFF737F902460B46DDE91001FFF7A0
:1043D0001DF902460B46DDE91201FFF765F90022DF
:1043E0006A4BFFF713F907F2FF3C00224FEA0C5328
:1043F000FFF734F902460B46DDE90801CDE90C234D
:10440000FFF708FA50B1DDE90C010E9B0022013BD9
:104410000E935C4BFFF748F9CDE90C01DDE90C0187
:104420000E9B02466333C62B08F002031093149BC5
:104430002DD8002B5FD0042312930A433FF417AF0B
:10444000DDE9080148A3D3E90023FFF70BFA48B1DF
:10445000DDE9080146A3D3E90023FFF7DBF90028D3
:104460007FF405AF0A9B002B51D0159A002A00F06B
:10447000AC80013B0A93129B994505D9109B002BF8
:1044800000F0AF80022310930023149344E02BBB71
:10449000B9F1050F4FD908F00203002B49D10523CC
:1044A0001293A9F1050314933AE00BF10043CDF800
:1044B00020A009931EE628F4006343F4806320469D
:1044C000CDE92A792C933346DDE90867344629463D
:1044D00007F10045CDE928450B9ABBE60523129369
:1044E000ABE70222002310920422149312920E933F
:1044F00023E60527C1E6B9F1040F1FD9109B002B55
:1045000077D104231293A9F10403149304E0129BBE
:1045100099455FD80A9B14930E9B002B3FF40DAE78
:10452000DDE90801DDE90C23FFF7BEF8CDE908015C
:1045300003E60223109305231293F1E70423129359
:10454000EAE700BFAFF3008061436F63A787D23F04
:1045500071A379094F930A401655B5BBB16B024060
:10456000EF39FAFE422EE63F2D431CEBE2361A3FAE
:104570000000000080842E410000F83F0000E03F72
:1045800000002C4000002440000018400000F03FD4
:10459000FB799F501344D33FB3C8608B288AC63F32
:1045A000149BDDE908A703930A9B07F1004B0293D4
:1045B00028F400630B9A0493294633462046CDE93C
:1045C00000ABFFF715FB0246D2E5129B994515D8C3
:1045D0001492A1E7109B23B10A9B1493022310931A
:1045E0009AE7129BA9EB0303149395E79B1A5F1EAE
:1045F00043E604231293022310938DE7109B002BB4
:10460000EFD002231492109386E700BF2DE9F04FFC
:1046100091469A4C9A4AB1F1000A9BB018BF834662
:1046200014601878974ADDF8908008BF93460028F8
:1046300000F08A821D460026CDF8209008E0324620
:104640005146089BD84701362878002800F0C780DB
:10465000252805F10105F2D100222B4613F8011B94
:10466000A1F1200010280AD8DFE800F03F09093B3B
:104670000909090909090937093309092F00A1F1B5
:104680003000092840F289802A2900F0E9800024BE
:104690002E2900F094800027A1F1680012282CD860
:1046A000DFE810F04E012B0049012B0040012B00E8
:1046B0002B002B002B002B002B002B0027002B00A6
:1046C0002B002B002B002B0027001D4642F001027F
:1046D000C3E71D4642F00202BFE71D4642F0040256
:1046E000BBE71D4642F01002B7E71D4642F0080244
:1046F000B3E7697842F48072013367291D467ED89A
:10470000242940F2B880A1F12503422B00F2B380A6
:10471000DFE813F05101B100B100B100B100B10008
:10472000B100B100B100B100B100B100B100B10001
:10473000B100B100B100B100B100B100B100B100F1
:10474000B100B100B100B100B100B100B100B100E1
:10475000B100B1001E013A011E01B100B100B1006B
:10476000B100B100B100B100B100B100B100B100C1
:10477000B100B100B100B100B100B401B100B100AD
:10478000B100B100B100B100B100B100B100B4019D
:104790005801B4011E013A011E01002404EB8404F7
:1047A00001EB440419781D46A1F130000928A4F159
:1047B000300403F10103F1D92E297FF46CAF69783D
:1047C0001846A1F13007092F42F4806240F225819A
:1047D0002A2900F032811D46002701335CE7344668
:1047E000DDF82090B14501D809F1FF364B4632463D
:1047F00051460020D84720461BB0BDE8F08FA1F1FC
:104800006903DBB20F2B36D8012049F2410C9840E6
:1048100010EA0C0040F0F4800A2B35D0072B2AD187
:1048200058F8041B002940F0108122F0100412F403
:10483000806144F0210400F00A8112AA0823059344
:104840001023CDE9002032460694049703930023F9
:10485000029351465846089BFFF7D2F80646F3E606
:1048600058F8044B6978002C1D46BCBF42F0020288
:10487000644201330CE70846E1E600BF0D46001034
:1048800084C600205539001058F8049B002F99F871
:10489000000014BF3B464FF0FF33002800F0828336
:1048A000494603EB090C04E011F8013F002B00F02E
:1048B00043818C45F8D1ACEB0901530540F12081CF
:1048C000B94228BF394612F0020300F08382022366
:1048D000CDE9094832468846089C37440B9307E0E7
:1048E00023465146D84719F8010F013610B1324618
:1048F000B742F5D10B9B4146099CDDF82880002B7F
:104900003FF4A2AE37468C427FF69EAE2644089C0A
:10491000761A3A462346514620200137D847B742F7
:10492000F7D191E669786C297FF4E4AEA97842F476
:104930004072EB1CE1E6697842F400720133DCE678
:104940006978682900F0FB8042F080020133D4E6E8
:10495000672900F0C980472900F0CD80452900F083
:10496000CC80CDE9034208F10708029728F0070838
:104970003246F8E802675146CDE900675846089B81
:10498000FFF782FB06465FE6462908BF42F0200299
:10499000CDE9034208F10708029728F007083246DC
:1049A000F8E802675146CDE900675846089BFFF7D3
:1049B0001FF9064648E6324651462520089BD8474F
:1049C000013641E608F104039207099306F1010755
:1049D00040F1C3803246514698F80000089BD84702
:1049E000012C40F2B4812644089C3A4623465146A5
:1049F00020200137D847B742F7D1DDF8248023E6DD
:104A00006F2974D040F24182782900F086814FF0FE
:104A10000A0922F010024B4638E0002707EB87070F
:104A200001EB4701A1F1300710F8011FA1F130039C
:104A3000092BF3D90546431C2EE658F8047BA978C8
:104A400002356B1C27EAE77726E642F0210412AA1A
:104A5000944602E020283FF4F1AE01F00F03092B49
:104A600094BF303337330F298CF8003000F1010048
:104A70000CF1010C4FEA1111ECD8DFE6582966D091
:104A8000622940F089804FF002094B4612F4806C95
:104A900000F0D48022F00D02099212F4007140F06F
:104AA0007B8112F4807008F1040940F038825106CD
:104AB00040F13A8198F80010002940F04A81099AA3
:104AC00022F010020992BCF1000F00F0428108466A
:104AD00012AA0999CDE90337CDE9054101900023D8
:104AE000009202933246A1E042F4006239E74FF0AF
:104AF00008094B46CAE742F4006242F0200230E760
:104B000012F0020300F08C810223CDE909481F4610
:104B10008846089C324623465146D84719F8010F6B
:104B200001360028F6D13B464146099CDDF8288035
:104B3000002B3FF489ADE5E6A1EB0901BDE6A978BC
:104B400042F0C002EB1CD8E5044606464AE64FF0A8
:104B5000100942F020024B4698E7012C40F2F18008
:104B6000374606F1FF39CDF82880DDF82080A144D2
:104B70003A464346514620200137D8474F45F7D1A2
:104B8000DDF828803A4698F800005146089BD8473F
:104B90002644DDF8248057E512F4806300F0C180DC
:104BA0004FF4806322F0110010F4007E4AD110F41B
:104BB000807C08F1040940F03781410600F1A980AA
:104BC000020640F1E381B8F9002082EAE271A1EB2C
:104BD000E2711FFA81FED10F0991002A00F05F8176
:104BE000734612AA9646DFF8A0830A9403E0BCF14C
:104BF000200F23460FD0A8FB0314E40804EB840124
:104C0000A3EB41010EF1010E3031092B0CF1010C27
:104C10000EF8011CEBD80A9C099B0092CDE901C358
:104C20000A233246CDE9054004970393514658467E
:104C3000089BFEF7E5FEC846064605E522F00C0295
:104C400009922AE708F1070828F00708D8F8042095
:104C500058F808CBD10F5CEA020E6CD0002A6346EC
:104C600002DA5B4262EB42029146099312AA944631
:104C70004FF0000ECDE90A18CDE90C470E960F92C1
:104C800003E0BEF1200F3B4630D04FF0CC3213EBA7
:104C90000901BD4F41F10001A7FB014626F00304C5
:104CA00004EB9604091B5C1A02FB04F63A4669F110
:104CB000000802FB08660522A4FB077407F0010840
:104CC0002644A8FB024864180A2B0CF1010C4FEA99
:104CD000570704F1300479F100090EF1010E0CF8C8
:104CE000014C47EAC6774FEA5609CAD27346DDE956
:104CF0000A18DDE90C470E9E0F9ACDF824E0CDE9A5
:104D000001310A230092CDE905403246049703930E
:104D10009FE598F8002096465DE74FF010094B4656
:104D2000B4E622F010003FE711064CBFB8F80010BF
:104D3000D8F80010C0E6002B40F042819946099354
:104D400094E73246514698F80000089BD8473E4603
:104D500053E6099A0A9412F0200F14BF4FF041084D
:104D60004FF0610812AA9446A8F10A0802E0202830
:104D700071460FD0B1FBF3FE03FB1E14092C94BF48
:104D80003034444499428CF8004000F101000CF1A9
:104D9000010CECD20A9C9CE608F1070828F00708F1
:104DA000D8F8042058F8081B0A920A438E467BD193
:104DB000099A22F010020992BCF1000F74D0002071
:104DC00012AA0999CDE90020CDE905413246CDE985
:104DD00003373CE58C4298BF01317FF679AD4FF443
:104DE0008063CDE909949946A2190B97089F541A3C
:104DF00032463B46514620200136D847A642F7D1DD
:104E0000DDE90A474B46DDF8249099F800000028B8
:104E10003FF41AAC611C002B3FF477AE002357E53A
:104E20008C42DED8013170E6D8F80020D10F002A7C
:104E300000F0B38082EAE273A3EBE27312AA944615
:104E4000CDE90914DFF8408103E0BEF1200F2346CD
:104E50000FD0A8FB0314E40804EB8401A3EB410189
:104E60000CF1010C3031092B0EF1010E0CF8011C74
:104E7000EBD8DDE909140A230092CDE9054032465A
:104E8000CDE901E104970393D0E6692922F01000EF
:104E900040F0918012F480633FF486AE80E6002BF0
:104EA0003FF49FAE12AAB7E6099ACDE90B8412F03F
:104EB000200F14BF41216121CDE90D76CDE90F3BD3
:104EC000CDF844A00027F0460A9C12AE0DF1480B25
:104ED000A1F10A0A03E0202F80460C4613D0214698
:104EE0004A46002340461CF093FAD2B2092A94BFE6
:104EF00030325244C84574F10004327007F10107A2
:104F000006F10106E7D23846DDE90B845A460E9ECB
:104F10000D9F0F9BDDF844A0DDF840B051E7D8F8B5
:104F200000E0BEF1000F0DD122F010020992BCF199
:104F3000000F07D012AA0998CDE90337CDE9054043
:104F40000191CCE5099A12F0200F14BF4120612095
:104F500012AA94460A92A0F10A0202E02029C6464B
:104F60000FD0BEFBF3F803FB18E0092894BF3030E4
:104F700080189E458CF8000001F101010CF1010C34
:104F8000ECD20A9AD7E700BFCDCCCCCCD8F8002021
:104F900082EAE27EAEEBE27E1DE6002B3FF44EAFEE
:104FA00012AA68E712F480610ED012F0020114D048
:104FB00001463746A7E44FF00A0902464B4665E52D
:104FC000002312AA09939AE612F002037FF49AAC26
:104FD000002C7FF406AFFFF737BB002C7FF4FFAE49
:104FE000FFF732BB0EB400B584B00DF1140C5CF8C1
:104FF000043B01464FF0FF32CDF800C00448CDF825
:105000000CC0FFF703FB04B05DF804EB03B070477E
:105010004D39001030B583B0009313460A4601465F
:105020000248FFF7F3FA03B030BD00BF4D3900105E
:105030008C4610B584B000930290134602A94FF03D
:10504000FF320348CDF80CC0FFF7E0FA04B010BD02
:10505000E53B001010B5094A84B014684CB1034612
:1050600000914FF0FF3203A90548A047012004B08A
:1050700010BD00F05BFA204604B010BD84C60020CD
:10508000DD3B001000BEFDE7074A0346106838B15B
:10509000064903448B428CBF4FF0FF3013607047CA
:1050A000034908461160F3E77CC200200000082095
:1050B000BC4B0220002070474FF0FF30704700BF0C
:1050C00038B9DFF814C008461146DCE9002300F0C7
:1050D00045B94FF0FF30704758290210431E012B8D
:1050E00009D810B51446084601230022214600F0D5
:1050F000BFF8204610BD4FF0FF3070474FF0FF3033
:10510000704700BF4FF0FF30704700BF4FF0FF30D7
:10511000704700BF02288CBF00200120704700BFED
:1051200008B5FFF7AFFF00BF38B5064C064DFEF7D8
:10513000F3F8AC4204D254F8043B9847AC42FAD39B
:1051400038BD00BFD8140210F014021003680846DE
:105150001146184770B505460846697D82B000299A
:105160004FD0002A25DD037814460A2B064622D0AC
:10517000012C4FF0000E0DD03246012312F801CF62
:105180001946BCF10A0F03F1010320D09C42F5D16E
:10519000744505DD2B68A4EB0E0106EB0E00984765
:1051A000311911F8013CA3F10D03B3FA83F35B0944
:1051B0002B7502B070BD2B7D002BD9D102212B683D
:1051C00013489847012CEBD04FF0010ED4E712F8AA
:1051D000010C0D28DAD08E4506EB0E00A1EB0E0176
:1051E00005DACDE900322B689847DDE90032CDE9D8
:1051F000003202212B6806489847009B019A9E4680
:10520000C4E711462B6802B0BDE87040184700BFE4
:10521000102A021070B50B680C46802B054682B030
:1052200005D05A1C234422601D7102B070BD0E4B84
:10523000186878B900230122234422601D7102B04E
:1052400070BD2268211D0190FFF784FF019800695D
:105250000028EFD00368002BF9D0044B1B68002B0B
:10526000EFD08342F3D1ECE760C200206CC2002093
:105270002DE9F04782B090461C460D460746FDF7E3
:1052800075FE4FF0FF3C6FF000462E4A821841F148
:105290000003944576EB03013CBF624633462A483F
:1052A0001CF0DAF86B1C824640D00CB3274E284B1A
:1052B0001C68B4B1B8F1000F1CD1DFF89C8001E08C
:1052C000246974B12368002BFAD0D8F800300BB1F0
:1052D0009C42F5D120462A463946B0472469002C25
:1052E000F0D1BAF1000F26D1284602B0BDE8F08710
:1052F000184EDCE74FF00A09DFF85C8002E0246911
:10530000002CEED02368002BF9D0D8F800300BB178
:10531000A342F4D12A4639462046B047012220460E
:105320000DF107018DF80790B047E8E738461BF00C
:1053300055F90546B9E704481CF06EF8284602B056
:10534000BDE8F08740420F002C2E00205551001080
:1053500060C200204D5100106CC200202DE9F84FB2
:1053600006460D4693469946DFF85880DFF858A068
:10537000134FD8F8004014B910E0246974B1DAF87A
:1053800000300BB1A342F8D1A368002BF5D0294619
:10539000304698470028F0DDBDE8F88F7B6A9945D4
:1053A00008D8BA6A5A4503D36FF00100BDE8F88FF8
:1053B0009945F9D101200021FDF7E2FDD9E700BFB1
:1053C00000000B4060C200206CC20020084A136835
:1053D00023B90AE003F110021B6933B18342F9D10A
:1053E00029B9186910601961704701B110607047E0
:1053F00060C20020074B10B51C682CB1636823B154
:1054000098472469002CF9D110BD2469002CF5D1EE
:1054100010BD00BF60C2002000F028BB2DE9F041A4
:1054200082B00646FDF7A2FD4FF0FF326FF0004359
:10543000361841F10007B24273EB07013CBF164634
:105440001F46DFF86080154DD8F8004014B912E00F
:10545000246984B12B680BB19C42F9D1A368002B5D
:10546000F6D0012101A898470028F1DD9DF804003D
:1054700002B0BDE8F0810A4B5A6A974209D89B6A8C
:10548000B34204D36FF0010002B0BDE8F08197424F
:10549000F8D101200021FDF773FDD5E76CC2002093
:1054A00000000B4060C20020F0B583B006468DF8C6
:1054B0000700FDF75BFD4FF0FF356FF00044174A22
:1054C000821841F10003954274EB03013CBF23466F
:1054D0002A4613481BF0C0FF124B07461C689CB1BC
:1054E000114D01E024697CB12368002BFAD02B68B0
:1054F0000BB19C42F6D1204601220DF10701FFF7C6
:1055000029FE2469002CEFD117B9304603B0F0BD55
:1055100003481BF081FF304603B0F0BD40420F004E
:105520002C2E002060C200206CC2002038B504463A
:105530001BF054F8012305461A4620462946FFF77A
:1055400097FE084B1C682CB163682BB198472469FF
:10555000002CF9D1284638BD2469002CF4D1284606
:1055600038BD00BF60C200202DE9F041A2B00E4658
:105570000546FDF7FBFC4FF0FF3C6FF00044254A69
:10558000821841F10003944574EB03013CBF2346AC
:10559000624621481BF060FF0024334607462A4636
:1055A0001E4801A90194FFF743FD1D4E019B804653
:1055B0003468BBB1002C2AD01A4D01E0246974B1C3
:1055C0002368002BFAD02B680BB1A342F6D12046FA
:1055D000019A02A9FFF7BEFD2469002CF0D12346F1
:1055E000346801932CB1636843B198472469002C57
:1055F000F9D12FB9404622B0BDE8F0812469F1E726
:1056000005481BF009FF404622B0BDE8F081019437
:10561000EFE700BF40420F002C2E00201552001073
:1056200060C200206CC200200FB400B583B004A992
:1056300051F8040B0191FFF797FF03B05DF804EBFD
:1056400004B07047704700BF0022014B1A707047CA
:10565000B64B02204B79FF2B0BD1887948B9CB7917
:10566000012B07D1082A05D9034B8A7809201A7023
:1056700070470020704700BFB64B022001207047E2
:10568000012901D00120704708B5104B91881B7883
:10569000994201D0002008BD5378012B08D0022B7D
:1056A000F8D1002164220846FDF768FD012008BDFD
:1056B0005188CB0548BF480AC1F3402258BF4FF07C
:1056C000FF3001F07F01FDF7E3FD00BFB64B022084
:1056D00000487047DC2A0210012907D15378012BBA
:1056E00002D19388072B03D0002070470120704718
:1056F0001146A623014A01F08DBA00BF342A0210D8
:105700000346012201481A70704700BF142A021094
:1057100008B50B68B3F5966F00D008BD00224FF0B6
:10572000FF301146FDF7B4FD024A034B10601960CB
:10573000704700BFFCC1002000C20020184B70B5AC
:105740001A68002A28D0EFF3108172B6D2E8CF4F42
:105750000120002CFAD1C2E8440F002CF6D1BFF38F
:105760005F8F00220F4C186859602270C0E88F2F9D
:1057700081F31088002400250B4E3078FCF718FCCC
:1057800020B9002400252046294670BD3078FCF75A
:105790001FFC2046294670BD4FF47A740025EBE7C4
:1057A000A8C60020B84B0220B74B0220014B187846
:1057B000FCF70EBCB74B022038B5044600200D465E
:1057C00001F062FBA8B3002001F074FB88B3FDF781
:1057D000CDFB4FF0FF3E6FF0004C174A821841F1AD
:1057E000000396457CEB03013CBF724663461348B9
:1057F0001BF032FEE8B1002001F046FB58B901462B
:105800004FF0FF3000F02AFD6FF002040B481BF050
:1058100003FE204638BD002001F04CFB0028EED0EE
:1058200021462A46002001F04FFB04460028EDD116
:10583000EAE76FF00204ECE740420F0080C9002065
:1058400008B5FDF793FB4FF0FF3E6FF0004C0F4A99
:10585000821841F1000396457CEB03013CBF724680
:1058600063460B481BF0F8FD70B14FF0FF3000218C
:1058700000F0F4FC002001F06DFB0028F5D1BDE83C
:10588000084003481BF0C8BD08BD00BF40420F00E0
:1058900080C900202DE9F04107460E46FDF766FB62
:1058A0004FF0FF356FF00044324A821841F1000397
:1058B000954274EB03013CBF2A4623462E481BF059
:1058C000CBFD08B9BDE8F081002001F0DDFA002829
:1058D00045D0002E3EDD0025DFF8A48012E02246F0
:1058E000002001F081FB002105444FF0FF3000F063
:1058F000B5FC002001F02EFBFDF738FBC8E90001E4
:10590000AE4227DD002001F08DFB741B8442A8BF4E
:1059100004467919002CE2D121464FF0FF3000F007
:105920009DFC204601F016FB204601F0ADFA88B13F
:10593000204601F077FB0028E2D1FDF717FB0F4A64
:10594000D8F800309B18D8F8042042F100028342B6
:105950008A41D5D20848BDE8F0411BF05DBD00206A
:10596000BDE8F0410021064BC3E9000102481BF0ED
:1059700053BD00BF40420F0080C9002020A1070096
:105980009030002010B5002184B032481BF07CFD1F
:1059900028BB314B1A6802B3EFF3108172B6D2E81C
:1059A000CFEF5FF0010CBEF1000FF8D1C2E84ECF8F
:1059B000BEF1000FF3D1BFF35F8FDFF8A8C0D3F8BB
:1059C00000E09CF800205960D3B201228CF800203E
:1059D000CEE88F0F81F31088CBB104B010BD002149
:1059E0004FF0FF3000F03AFC002001F063FA04466B
:1059F00018481BF011FD002CEFD0184B1B68002B32
:105A0000EBD0174A106804B0BDE810401847FDF706
:105A100029F80446FDF7AAFA4FF0FF3E6FF0004C5C
:105A200010F57A7241F1000396457CEB030138BF13
:105A300063464FF000014FF0010C38BF7246DFF8AB
:105A400028E02046CDE9011CCDF800E0FDF70EF876
:105A500004B010BD80C90020A8C60020FCC10020F1
:105A600000C20020B84B02203D5700104FF05043B9
:105A700030B585B01C68FCF7F5FFFDF711F9A042C1
:105A800002D0002005B030BD00212C4B08461B7809
:105A900001F0ACFD2A480368002B4BD00120FCF735
:105AA00063FD0346274C2849C0B22370FCF7ACFACB
:105AB00020780121FCF766FA0E20FCF795FA60BB0E
:105AC000224B6FF00044C3E90000FCF7CBFF054612
:105AD000FDF74CFA4FF0FF3C10F57A7241F10003EC
