:020000041000EA
:10000000002008205D0100101B0100101D010010E0
:100010001101001011010010110100101101001058
:100020001901001019010010190100101F01001022
:10003000110100101901001021010010230100100E
:100040001101001011010010110100101101001028
:100050001101001011010010110100101101001018
:100060001101001011010010110100101101001008
:1000700011010010110100101101001011010010F8
:1000800011010010110100101101001011010010E8
:1000900011010010110100101101001011010010D8
:1000A00011010010110100101101001011010010C8
:1000B00011010010110100101101001011010010B8
:1000C00011010010110100101101001011010010A8
:1000D0001101001011010010110100101101001098
:1000E0001101001011010010110100101101001088
:1000F0001101001011010010110100101101001078
:100100001101001011010010110100101101001067
:10011000EFF30580103800BE00BE00BE00BE00BE7A
:1001200000BE00BEF2EB887198500210BC50021065
:10013000A001001090A31AE7D3DEFFFF42012110B7
:10014000FF010000B87B0200793512AB4FF00000D0
:100150001E49086006C881F3088810474FF05040D8
:10016000006810B14FF00000F2E70DA40ECC00299A
:1001700002D000F012F8F9E71549164A002000E015
:1001800001C19142FCD11449884714498847144958
:10019000884700BEFDE701C901C29A42FBD3704700
:1001A000BC50021010010020442D0020F07C0210F1
:1001B0000000082000000820F07C02100010082039
:1001C00000100820000000007047000008ED00E06B
:1001D000442D0020606B0220156100108902001080
:1001E0000D610010F8B500BF10B5054C237833B988
:1001F000044B13B10448AFF300800123237010BDFA
:10020000202F0020000000009819021008B5034BB1
:100210001BB103490348AFF3008008BD0000000094
:10022000242F0020981902104FF4007330B4034DAE
:10023000034C05600C60136030BC7047D4C00020D4
:10024000D4B800204FF08C0C70B44FF40076054DFC
:10025000054C0CFB035504EBC32405600C601660D1
:1002600070BC7047ECD1002078D200204FF480633E
:1002700030B4034D034C05600C60136030BC704714
:1002800060D1002060C1002010B582B006F0BAF83D
:1002900040F6B83003F072FD244806F03DF90A2418
:1002A0002E2006F0F7F84FF4FA7003F067FD013CDA
:1002B000F6D10A2006F0EEF81D4809F027F9864627
:1002C000DFF894C04FF480711A4B1B4A0094202031
:1002D000CCF800E009F066FB8646DFF880C06221BA
:1002E000164B174A00940820CCF800E009F05AFB9E
:1002F0000246144B14481A6006F00EF901F0C2F8D9
:1003000002F0F0F9114806F007F902F09DFB1048E1
:1003100002F080FB01200BF087FF0CF00FF80D4876
:1003200002F078FB0BF05EF9FEE700BF98190210AF
:10033000049100205C90002024910020B0900020C7
:1003400024B1002034E20020B8190210D0190210A4
:10035000EC1902100C1A021030E200202CE20020EE
:10036000704700BF003A18BF012242EC40107047AE
:100370004FF0504301205B6888401840003818BF98
:100380000120704700207047704700BF704700BFD2
:10039000704700BF704700BF704700BF4FF050422A
:1003A0000123D0F8FC01526803FA00F01040003835
:1003B00018BF0120704700BF704700BF38B5144612
:1003C000A4F10104B4FA84F408460D46640902F06D
:1003D000E3FC44EC445038BD844600B50B4B85B07B
:1003E0000FCB8DE80F006346188A5A68DCF808C006
:1003F000ADF80C0003F18400DB6869460293CDF888
:1004000004C000920FF0CAFE05B000BD042F021018
:10041000F8B50D4604464FF4867200218434284610
:1004200020F0A2F80121204612F09AF9FF22294675
:100430000746204613F03CF8064608B13046F8BDA2
:10044000204685F8007110F0F1FA03462046C5F801
:10045000043112F0B1F9C5F808013046F8BD00BF0B
:10046000843011F09FBE00BF10B50446282104F06F
:1004700053FA204610BD00BF10B504464FF400717A
:1004800004F04AFA204610BD38B504461549006A02
:1004900008F048FC226A0225134653F8040F02F5BF
:1004A000805C03F5405ECEF80050126803F50053FF
:1004B00082F00702284002F0CF02CCF8002018603A
:1004C00094F82400012102F0D1FB94F825000121C9
:1004D00002F0CCFB94F826000121BDE8384002F080
:1004E000C5BB00BF40420F009446006A1A466346EF
:1004F00021F0FAB908B503F031FD08BD08B503F0E5
:100500002DFD29B14FF47A72002321F0D9F908BDED
:10051000024AA2FB0020800908BD00BFD34D621033
:100520000846002103F0C0BB084603F027BC00BF0B
:10053000084600220C2102F0B7BB00BF94460846D3
:1005400001221946634602F0D3BB00BF0000000041
:100550002DE9F04F2DED0C8B1020ADF52D7D02F027
:100560001BFC10234FF0010242EC443042EC4030BF
:10057000DFF8BCB24FF4FA700BF094F95846FFF76D
:100580002BFF40B101469E4802F044FA4FF0FF3085
:100590000BF088F9FAE7072197A3D3E90023002499
:1005A000984D99480091CDE9024502F033FA0BF1DC
:1005B000840011F0F7FD9FED95BADFED95AADFED10
:1005C000958A0DF5D27A0DF59C790DF1D4084FF08E
:1005D00050420121DBF8FC31526801FA03F3134267
:1005E00003D105200BF05EF9F1E74FF4867200218C
:1005F00050461FF0B9FF0121874812F0B1F8FF22E1
:1006000004465146844812F053FF074630B18348F0
:1006100002F000FA804811F0C5FDD8E77E488AF85C
:10062000004110F003FACAF804017B4812F0C4F844
:100630009AF800410546122CCAF8080140F2C88019
:1006400045F2AA52BAF80010914268D1BAF80D608A
:10065000EC2E64D89AF8023006F113021093DAF8FF
:1006600007309442129340F0238346F2BB6306F1B5
:100670000F0C0AEB0C0252889A4250D14FF6FF73CE
:100680000DF5D9720DF2A511901911F8012F644FD3
:1006900082EA132237F812201B029BB2884283EAB7
:1006A0000203F2D13AF80C209A4238D1109B0A3B4F
:1006B000152B17D8DFE813F012011600C000160042
:1006C00016002B0016001600160016001600160065
:1006D000160016001600160016001600160016006A
:1006E00016002700284621F0DBF8CDE90201DAF8F0
:1006F000040121F0D5F82346CDE90001109A4949BB
:10070000494802F087F9444811F04CFD5FE7282280
:1007100000211CA81FF028FF242E00F06B842D2C34
:1007200056D99AF80030AA2B52D19AF80130552B9D
:100730004ED19AF80230012B4AD1BAF80430242B5A
:1007400046D14FF6FF7341F221010DF2A51010F8CA
:10075000012F83EA02235A0092B21E0448BF4A4086
:1007600053009BB2120448BF4B405A0092B21B0484
:1007700048BF4A4053009BB2170448BF4B405A0041
:1007800092B21E0448BF4A4053009BB2120448BFB5
:100790004B405A0092B21F0448BF4A40530016040F
:1007A0009BB20DF2CD1248BF4B408242CFD1DAED61
:1007B000417ABAF82A20CDED147A9A4208D19AF8F3
:1007C0002C30BB2B04D19AF82D30662B00F0978289
:1007D000DAF8040121F064F8064628460F4621F0B5
:1007E0005FF83246CDE900013B4621460F4802F052
:1007F00011F988E7AFF300800000000000448C404E
:100800003C1A021000405F40681A0210CDCCCC3D6B
:100810000000C84200FEFF46B8B40020A01A021033
:10082000042D0210D41A0210E81B0210741C0210CE
:1008300034B400200AD7233C0B2E7FF470AFDAF8D3
:100840000F301FED047A07EE903AF8EEE77A67EE84
:10085000877ABAF9173017EE900A109321F020F832
:10086000064628460F4621F01BF8DAF81340CDE97A
:100870000401DAF8040121F013F8129A3B46CDE99D
:10088000020100921248324602F0C4F8DAF8080178
:1008900021F006F8CDE90601DAF8040121F000F8AC
:1008A000CDE90401109803F043FF07A3D3E9002327
:1008B00003F0BCFE3246CDE902013B46054906483D
:1008C000009402F0A7F81EE77B14AE47E17A843F5C
:1008D000BC1A0210D41A0210A01B02101F2E7FF4A3
:1008E0001EAFDAF81B3064220AEE103ABAF91F3054
:1008F000002109EE903ABAF921304FA809EE103ADA
:10090000BAF92330DAF8136008EE103ABAF8253055
:10091000DAF817400BEE903ABAF82730DAED41CA10
:100920000DEE103ABAF82C30BAF82970ADF85830FC
:100930001FF01AFE4FF07E533046C9F8203003F006
:10094000F7FED9A3D3E9002303F070FE02460B465D
:100950002046CDE9102303F0EBFED3A3D3E9002317
:1009600003F064FEB8EEC99ADFEDC57AF8EEE99AB5
:10097000B8EEC88AB8EECAAA29EE279A2AEE27AAA4
:1009800069EEA79A28EE278A69EE097AE9EEA97A34
:10099000E8EE087ACDE9140117EE900A20F0BCFFCA
:1009A000129B0CEE100ADDE910012693B2A3D3E9E5
:1009B000002303F03BFE03F0DFFEAFA3D3E90023E7
:1009C0002790DDE9140103F031FE03F0D5FEB2EE0D
:1009D000047ADFEDAC7A2AEE077A6AEE277ABDEE6A
:1009E000C77AFDEEE77ADFEDA86A00238DED297A5C
:1009F000CDED2A7A289056A90DF1AA02F1EC017AE0
:100A000067EEA67AFDEEE77A17EE900A0133042B23
:100A100022F8020FF2D105EE905ADFED9A6AFEEE4F
:100A2000CF5A15EE905A6CEE265ABDF8583007EEA4
:100A3000907A69EEA69AFCEEE55AADF8CA3000232A
:100A40009FED8F6AF8EE6BBAB8EE4D7AF8EE677AE2
:100A500029EE269AFDEEE99ACDF8C230ADF8C630FF
:100A6000ADF8C8308DF8D030ADF8CE3015EE903AF4
:100A70006BEE86BA27EE067A67EE867A28EE268A2D
:100A8000BDEEEC6ABDEEC99AADF8B43019EE903AFD
:100A900016EE102ABDEEC88A2BEEA66AADF8B63067
:100AA00019EE103A27EE267ABCEEC66AADF8B830D9
:100AB00018EE103A67EEA67ABCEEC77AADF8BA30F7
:100AC00016EE103AFCEEE77AADF8BC3017EE103AAD
:100AD000ADF8BE3017EE903AADF8C03045F2AA53EB
:100AE000A8F80030032388F802303C238DF8CC208E
:100AF000664AA8F8043013788DF8CD5088F8033092
:100B0000013326AF0DF1DA0C13703C460CF1100CDA
:100B10000FCC4CF8043C32AB9C4207F110074CF868
:100B2000100C4CF80C1C4CF8082CEED107CF4FF6EB
:100B3000FF73002441F221050DF1D506CCF8000029
:100B4000CCF80410CCF8082016F8012F013483EA01
:100B500002235A0092B2190448BF6A4053009BB264
:100B6000120448BF6B405A0092B21F0448BF6A404B
:100B700053009BB2100448BF6B405A0092B2190454
:100B800048BF6A4053009BB2120448BF6B405A00F2
:100B900092B21F0448BF6A40530010049BB248BF82
:100BA0006B40402CD0D146F2BB62A8F84230A8F886
:100BB00044200023462236484146A8F860200068B9
:100BC0001A4608F037FF1A901AEE100A20F068FE55
:100BD0000446DAF808010D4620F062FECDE9040172
:100BE000DAF8040120F05CFE129B2246CDE90201F6
:100BF000009328482B4601F00DFF9DF858301CEE5D
:100C0000100A129320F04CFECDE916011BEE900A5B
:100C100020F046FE02460B46DAF80401CDE918231F
:100C200020F03EFE0646DAF808010F4620F038FEB6
:100C3000DDE918239DED167BCDE90C01CDE90245D8
:100C400015481A9C15498DED067B012C08BF0146FD
:100C50009DED147BCDE90823129B0E9104938DED3D
:100C6000007BDDE91023CDE90A670D490D4801F04D
:100C7000D1FE48E5AFF3008000000000D0126341D0
:100C80000AD7233C0000C84200FEFF46556B0220F5
:100C900034E20020BC1A0210241A02102C1A02108E
:100CA000D41A0210DC1A021048AFBC9AF2D77A3E6E
:100CB000FFF435AD46F2BB6206F10F010AEB01000D
:100CC000408890427FF42BAD38464FF6FF730DF20B
:100CD000A51C06F10D0E1CF8012FBF4F82EA13224E
:100CE00037F8122001301B029BB2864583EA0203CB
:100CF000F1D83AF801209A423FF4D8AC0FE54F46BC
:100D00000DF5D5743E46E36820686168A26810342A
:100D10000FC60DF5E5739C4207F11007F2D1DDF81F
:100D2000CA013860D9E9004003F002FDA8A3D3E965
:100D3000002303F0A1FCCDE91001D9F8080003F06D
:100D4000F7FCA3A3D3E9002303F096FC02460B466D
:100D500099ED047ACDE91223B9F91430F8EEC75AA7
:100D600006EE103AB9F91630D9ED037A06EE903A4C
:100D7000B9F91830F8EEE77A07EE103AB8EEC77A0C
:100D8000B9F91A30C7EE28BA07EE103AB9F81C3094
:100D900027EE8B8A07EE903AB8EEC66AF8EEE66A5E
:100DA000B8EEC77AF8EE677A284685EEAA9AC6EEBC
:100DB00028CA86EEA8CA87EE28AAC7EEAA9A20F00B
:100DC0006FFD99F81E7099F81F6099F82050CDE9D1
:100DD0000601149820F064FDCDE9040119EE100A13
:100DE00020F05EFDDDE910239DED127BCDE90201CF
:100DF0008DED007B794801F00DFE75A3D3E900234A
:100E0000DDE91001DAED417AFDEEE77AC8F800403D
:100E100017EE904A03F00AFC03F0AEFC6CA3D3E992
:100E20000023C8F80400DDE9120103F0FFFB03F022
:100E3000A3FC2CEEA85A00236CEE285ABDEEC55A2E
:100E4000C8E90933C8F81E30A8F82230C8F82C3099
:100E500088F8303088F83830A8F836302BEEA86A99
:100E600015EE103AFDEEE55AA8F814306AEE286A3D
:100E700015EE903ABDEEC66AA8F8163029EEAA7AA9
:100E800016EE103AFDEEE66AA8F81830BCEEC77A06
:100E900016EE903A9AED42DAA8F81A3017EE103AA8
:100EA000F0EE4D4AA8F81C30F2EE047A45F2AA534F
:100EB000FEEECF4AA9F8003068EE277A032329EE28
:100EC0002A9A14EE902A89F80230FDEEE77A3C2344
:100ED000BDEEC99A88F83170474688F83520404AF7
:100EE00088F83260C8ED037A88ED049AC8F80800E3
:100EF00088F8335088F83440A9F8043013780DF599
:100F00009F7689F80330013313703C4610360FCCBE
:100F100046F8043C41AB9C4207F1100746F8100C20
:100F200046F80C1C46F8082CEFD107CF4FF6FF739C
:100F300041F221040DF2391530607160B26015F88C
:100F4000012F83EA02235A0092B2190448BF62407B
:100F500053009BB2120448BF63405A0092B21B0474
:100F600048BF624053009BB2170448BF63405A0019
:100F700092B21E0448BF624053009BB2100448BFA7
:100F800063405A0092B2190448BF624053009BB2BA
:100F900012040DF2791248BF6340AA42CFD146F243
:100FA000BB62A9F84230A9F84420002346220D482C
:100FB000A9F8602049461A46006808F03BFD012860
:100FC0003FF4A1AB084801F025FDFFF79CBB00BF33
:100FD00000000000D0126341042D0210281C0210F2
:100FE000556B022034E20020B01C02100AD7233CCB
:100FF0000000003852461A23DAF81900DAF8111006
:101000000AEE100ABAF823009AF80F401890BAF8BE
:101010002500DAF815601A90BAF82700BAF91DC051
:10102000BAF91FE0BAF921701690109192F82A10BF
:1010300092F82900023340EA0120222B1CA9C85251
:1010400002F10202F2D107EE90EAB8EEE79A07EE5B
:1010500090CAF8EEE79A07EE907AB8EEE78A5FED6D
:101060001D7A29EE279A69EEA79A28EE278A69EE5B
:10107000097AE9EEA97AE8EE087A9AF8323017EEA2
:10108000900A9AF831701B9320F046FCBDF98C3021
:101090005FED295A06EE103ABDF98E30B8EEC66AF9
:1010A00006EE903ABDF99030F8EEE66A07EE103A97
:1010B000BDF99230B8EEC77A07EE903AF8EEE77ACB
:1010C00066EEA56A27EE257A67EEA57A26EE256AF2
:1010D000062F109998BFD44B0BEE900A0846C9ED25
:1010E000096A98BFDF5D89ED086A88BFFF2789ED2F
:1010F0000A7AC9ED0B7A03F01BFBC7A3D3E90023DF
:1011000003F094FA02460B463046CDE9102303F073
:101110000FFBC1A3D3E9002303F088FADAED417A8B
:101120009FEDC27AFDEEE77AB8EECAAA129BCDE92E
:101130001401DDE910012693B9A3D3E900232AEEB7
:1011400007AA17EE906A03F071FA03F015FBB4A337
:10115000D3E900232790DDE9140103F067FA03F0D7
:101160000BFBB2EE047ADFEDB27A2AEE077A6AEE72
:10117000277ABDEEC77AFDEEE77ADFEDAE6A00238F
:101180008DED297ACDED2A7A289056A90DF1AA0283
:10119000F1EC017A67EEA67AFDEEE77A17EE900A97
:1011A0000133042B22F8020FF2D1DFEDA17A1B9B51
:1011B00005EE105A8DF8CB30BDF960306BEEA7BA52
:1011C00006EE103ABDF96830DFED9B5A06EE903A14
:1011D000BDF95830BEEECF5A07EE103A69EEA74A75
:1011E0000023B8EEC66AFCEEEBBADFED943A15EEDA
:1011F000105A26EE256A29EE275AF8EEE66AB8EE6E
:10120000C77AFDEEE44A2F93ADF8C0308DF8CA30AE
:101210008DF8D030ADF8CE301BEE903A9FED884A75
:1012200066EEA56A27EE257A68EE277AC6EE235A7F
:10123000BDEEC55AADF8B43014EE903A86EEA36A0E
:1012400065EE845AFDEEE77AADF8B63015EE103A49
:10125000C7EE236A26EE046AFDEEE55AADF8B83013
:1012600017EE903A26EE847ABDEEC66AADF8BA3033
:1012700015EE903ABDEEC77AADF8C23016EE103AD0
:10128000ADF8C43017EE103AADF8C630032345F27E
:10129000AA5288F802303C23A8F80020694AA8F82E
:1012A000043013788DF8C97088F8033001338DF855
:1012B000C8408DF8CC608DF8CD5026AF0DF1DA0C1A
:1012C00013703C460CF1100C0FCC4CF8043C32ABC4
:1012D0009C4207F110074CF8100C4CF80C1C4CF811
:1012E000082CEED107CF4FF6FF73002441F2210501
:1012F0000DF1D506CCF80000CCF80410CCF808208D
:1013000016F8012F013483EA02235A0092B219041D
:1013100048BF6A4053009BB2120448BF6B405A005A
:1013200092B21F0448BF6A4053009BB2100448BFEA
:101330006B405A0092B2190448BF6A4053009BB2F6
:10134000120448BF6B405A0092B21B0448BF6A4067
:10135000530017049BB248BF6B40402CD0D146F2DB
:10136000BB62A8F84230A8F8442000234622364841
:101370004146A8F8602000681A4608F05BFB1A9006
:101380001AEE100A20F08CFA0446DAF808010D462D
:1013900020F086FACDE90401DAF8040120F080FAA1
:1013A000129B2246CDE90201009328482B4601F00A
:1013B00031FB19EE900A20F073FACDE9120119EE13
:1013C000100A20F06DFACDE9160118EE100A20F08F
:1013D00067FA02460B46DAF80401CDE9182320F03B
:1013E0005FFA0646DAF808010F4620F059FADDE9FF
:1013F00018239DED167B8DED067B9DED127BCDE9CF
:101400000C01CDE9024512481A9C12498DED047B6E
:10141000012C08BF01461FE048AFBC9AF2D77A3EC4
:1014200000000000D0126341642C02100AD7233C54
:101430000000C84200FEFF4612AC203C0AE81C41F6
:1014400000007A44556B022034E20020BC1A0210DE
:10145000241A02102C1A02109DED147BCDE90823EA
:10146000DDE910230E918DED007BCDE90A6703497C
:10147000034801F0CFFAFFF746B900BFD41A0210B3
:10148000441B021010B504240B480C4984B0CDE96C
:10149000011000234FF4006209490A48009409F042
:1014A0004DFF08B104B010BD23464FF4006204495B
:1014B000054801F095FC00BF442F00205C5000203F
:1014C000D41A021051050010DC1C021030B51C4C5F
:1014D0000421A4461B4A85B0029101254CF8042B37
:1014E0000822194B009501920FCB8CE80F000023C6
:1014F0002A46194604F114000AF088FF4FF0FF3124
:1015000041F212321425162310486061019122879E
:101510000F4A6119009301F128001123626384F8D6
:101520003A5015220AF098FF04F13C0104F18400BE
:101530000FF070F91123C4F8FC3105B030BD00BFC5
:1015400034B40020DC2C0210F42C0210742C021095
:10155000000008404FF050420123D0F800025268CA
:1015600003FA00F01040003818BF0120704700BF98
:10157000704700BFF8B50D4606464FF4867200214D
:1015800028461EF0F1FFB47E9036F4B1402C28BFFF
:1015900040242946304622460CF0F6FF074690B913
:1015A0002B1934B113F8012D611EA2B90C46002C81
:1015B000F8D1304685F800410CF050F90023C5F809
:1015C0000401C5F808313846F8BD012130460CF059
:1015D0005BF90446DAE7E4B2EBE700BF90300CF0C9
:1015E00009BB00BF10B504464FF4027103F094F933
:1015F000204610BD2DE9F041437D044690F914C00A
:101600008AB023B1BCF10D0FA8BF4FF00D0CD4ED83
:10161000016A94ED027AD4ED037A384B384E05AD69
:10162000C4F804320FCE0FC5D4F810E094F8168039
:10163000336804F19007384605A92B60CDED056AA3
:101640008DED067ACDED077A8DF824C0ADF82680B1
:10165000CDF820E00EF07AFA054618B128460AB017
:10166000BDE8F08127490346C4F804123846627E7B
:1016700004F117010DF03CFE05460028EED1224B87
:101680003846A17EC4F804320DF06EFF05460028EE
:10169000E4D11E4B3846E17EC4F804320CF054FD10
:1016A00005460028DAD1637DDBB9237F1BB9184BCF
:1016B000C4F80432D2E702264FF0000CFF27154B86
:1016C0000C22C4F804321E210323CDE9027C04F16C
:1016D0004800019600960BF0A9FE0028E7D00546C9
:1016E000BCE70D4B0122384694F91410C4F80432BB
:1016F0000DF098FD0028D8D00546AFE7141D021064
:10170000583102101C1D0210281D0210401D02102D
:10171000641D02106C1D0210501D0210000000001C
:101720002DE9F04F2DED0E8B1C20ADF52D7D01F038
:1017300033FB1C234FF0010242EC443042EC4030BA
:10174000DFF80CB34FF4FA700AF0ACF85846FFF724
:1017500051FF50B10146DBF80422AD4801F05AF9BF
:101760004FF0FF300AF09EF8FAE7AA48A2A3D3E9A7
:101770000023A3A5D5E90045CDE9004501F04AF9CC
:101780000BF190000CF036FA9FEDA39A9FED9EAB03
:101790000DF5D2780DF59C7A0DF1D4094FF0504239
:1017A0000121DBF80032526801FA03F3134203D13E
:1017B00005200AF077F8F1E74FF4867200214046E1
:1017C0001EF0D2FE9BF81A40002C00F05983402CEA
:1017D00028BF40244146224690480CF0D5FE30B147
:1017E0008F4801F017F98D480CF004FAD6E708EBA2
:1017F000040344B113F8012D611E002A40F0468312
:101800000C46002CF6D1854888F800410CF026F8EB
:1018100098F8004188ED429A122C0546C8F8040158
:1018200040F2B98045F2AA53B8F800209A4265D137
:10183000B8F80D60EC2E61D8D8F8072006F1130334
:101840009C4298F80270109240F0408346F2BB63CD
:1018500006F10F0C08EB0C0252889A424ED14FF65B
:10186000FF73A6460DF5D9720DF2A511901911F866
:10187000012F6C4C82EA132234F812201B029BB217
:10188000814283EA0203F2D138F80C2074469A426E
:1018900034D1A7F10A03152B17D8DFE813F02B0179
:1018A0001600DD00160016002700160016001600B0
:1018B0001600160016001600160016001600160078
:1018C0001600160016001600230028468DED02AB08
:1018D0001FF0E6FF2346CDE900013A46524953483E
:1018E00001F098F84D480CF085F957E728220021BF
:1018F0001CA81EF039FE242E00F0B4842D2C4AD9E9
:1019000098F80030AA2B46D198F80130552B42D1D7
:1019100098F80230012B3ED1B8F80430242B3AD18C
:101920004FF6FF7341F221010DF2A51010F8012FBF
:1019300083EA02235A0092B21E0448BF4A40530071
:101940009BB2120448BF4B405A0092B21B0448BFDE
:101950004A4053009BB2170448BF4B405A0092B212
:101960001E0448BF4A4053009BB2120448BF4B407C
:101970005A0092B21F0448BF4A40530016049BB25B
:101980000DF2CD1248BF4B409042CFD1B8F82A207B
:101990009A4200F0C4822846254D2B6801332B6003
:1019A0001FF07EFF02460B462248214601F032F826
:1019B000214A224B296802FB0133214AB2EB730F03
:1019C00090D398F800411F48102C254628BF1025B9
:1019D0002A4601F01FF844B14446454414F8011B5F
:1019E000194801F017F8A542F8D1184801F012F88B
:1019F00078E700BFAFF300800000000000887A4065
:101A000000000040333313400000000000000000DD
:101A1000701D0210A01D021000000000C4B60020BE
:101A2000D01D0210582F0210EC1D0210E81B0210EE
:101A300078DA0020281E0210295C8FC2D7A3703DDF
:101A400051B81E05581E0210801E02107C1E021086
:101A500034B600200AD7233C0B2E7FF44FAFD8F8C2
:101A60000F301FED047A07EE903AF8EEE77A67EE52
:101A7000877AB8F9173017EE900A12931FF010FF0B
:101A800006462846D8F813400F468DED04AB1FF0EC
:101A900007FF109A3B46CDE90201009212483246F8
:101AA00000F0B8FFD8F808011FF0FAFECDE90601F2
:101AB000D8F804011FF0F4FECDE90401129802F0F9
:101AC00037FE07A3D3E9002302F0B0FD3246CDE98B
:101AD00002013B4605490648009400F09BFF01E7E0
:101AE0007B14AE47E17A843FBC1A0210EC1D021051
:101AF000A01B02101F2E7FF401AFD8F81B30642208
:101B000009EE903AB8F91F30002108EE903AB8F982
:101B100021304FA80CEE103AB8F92330D8F81360F2
:101B200008EE103AB8F82530D8F817400BEE103A06
:101B3000B8F82730B8F829700CEE903AB8F82C3085
:101B4000B8EECCCAADF858301EF00EFD4FF07E5303
:101B50003046CAF8203002F0EBFDDAA3D3E90023C7
:101B600002F064FD02460B462046CDE9122302F046
:101B7000DFFDD4A3D3E9002302F058FDDFEDC67AE0
:101B8000F8EEE88AB8EEC88AF8EEE99A2CEE27CA91
:101B900069EEA79A68EEA78A28EE278A6CEE0C7A7F
:101BA000E8EEA87AE8EE087ACDE9140117EE900A7B
:101BB0001FF0B2FE109B0BEE900ADDE91201269396
:101BC000B3A3D3E9002302F031FD02F0D5FDB0A3A9
:101BD000D3E900232790DDE9140102F027FD02F08C
:101BE000CBFDB2EE047ADFEDAD7A29EE877A69EEAD
:101BF000A77ABDEEC77AFDEEE77ADFEDA96A00238A
:101C00008DED297ACDED2A7A289056A90DF1AA02F8
:101C1000F1EC017A67EEA67AFDEEE77A17EE900A0C
:101C20000133042B22F8020FF2D19FED9C6A07EEDC
:101C3000907A2BEE865ABDF85830DFED976AB8EEF1
:101C40004BBAB8EE6C7AF8EE677A68EE868ABCEE2C
:101C5000C55AADF8CA30002305EE905A2BEE26BACD
:101C600027EE267A67EEA67AFDEEE88A6CEE066A23
:101C7000CDF8C230ADF8C630ADF8C8308DF8CD30F3
:101C80008DF8D030ADF8CE3015EE103AFDEEE55AB5
:101C900028EE068AFDEEE66AADF8B43018EE903A0A
:101CA00015EE905ABDEEC88A6BEE065AADF8B63006
:101CB00016EE903A27EE067AFCEEE55AADF8B8300B
:101CC00018EE103A67EE867ABCEEC77AADF8BA30F5
:101CD00015EE903AFCEEE77AADF8BC3017EE103A0C
:101CE000ADF8BE3017EE903AADF8C030032345F2A0
:101CF000AA5289F802303C23A9F80020694AA9F8C1
:101D0000043013788DF8CC5089F80330013326AFB6
:101D10000DF1DA0C13703C460CF1100C0FCC4CF8A2
:101D2000043C32AB9C4207F110074CF8100C4CF805
:101D30000C1C4CF8082CEED107CF4FF6FF73002493
:101D400041F221050DF1D506CCF80000CCF80410C5
:101D5000CCF8082016F8012F013483EA02235A0038
:101D600092B2190448BF6A4053009BB2120448BFA4
:101D70006B405A0092B21F0448BF6A4053009BB2A6
:101D8000100448BF6B405A0092B2190448BF6A4021
:101D900053009BB2120448BF6B405A0092B21F041A
:101DA00048BF6A40530010049BB248BF6B40402CB0
:101DB000D0D146F2BB62A9F84230A9F844200023F2
:101DC000462239484946A9F8602000681A4607F0BB
:101DD00031FE1A9019EE900A1FF062FD0446D8F801
:101DE00008010D461FF05CFDCDE90401D8F804019F
:101DF0001FF056FD109B2246CDE9020100932B48AF
:101E00002B4600F007FE9DF858301BEE900A109309
:101E10001FF046FDCDE916011BEE100A1FF040FD34
:101E200002460B46D8F80401CDE918231FF038FD0F
:101E30000646D8F808010F461FF032FDDDE91823E9
:101E40009DED167BCDE90C01CDE9024518481A9CA1
:101E500018498DED067B012C08BF01469DED147BD2
:101E6000CDE90823109B0E9104938DED007BDDE9F5
:101E70001223CDE90A671049104800F0CBFD31E587
:101E800001210F480BF000FD0446A0E4E4B2BAE4DF
:101E900000000000D01263410AD7233C0000C84272
:101EA00000FEFF46556B022034E20020BC1A0210EF
:101EB000241A02102C1A0210EC1D0210DC1A021057
:101EC000C4B6002048AFBC9AF2D77A3EFFF416ADF4
:101ED00046F2BB6306F10F0108EB010252889A42F9
:101EE0007FF40CAD00204FF6FF730DF2A51C06F138
:101EF0000D0E12911CF8012FCF4982EA132231F8FE
:101F0000122001301B029BB2864583EA0203F1D8FE
:101F1000129938F801209A423FF4BBACEEE498F8ED
:101F20002C30BB2B7FF437AD98F82D30662B7FF427
:101F300032AD57460DF5D5743E46E36820686168BA
:101F4000A26810340FC60DF5E5739C4207F1100727
:101F5000F2D1DDF8CA01DFEDB98A3860DAE9006054
:101F600002F0E6FBB2A3D3E9002302F085FBCDE942
:101F70001401DAF8080002F0DBFBADA3D3E900237B
:101F800002F07AFBDAED037AB8EEE78ADAED047A4A
:101F9000BAF91430B8EEE76A06EE903ABAF916309C
:101FA000DFEDA75A07EE103ABAF91830B8EEC77A43
:101FB00007EE903AF8EEE77ABAF91A30C7EE28CA77
:101FC00007EE103ABAF81C3087EEA8CA07EE903A2E
:101FD00028EE258AF8EEE66AB8EEC77AF8EE677A58
:101FE000DFED98DA9AF81F309AF82020CDE9160133
:101FF00018EE100AC6EE2D9A86EEA8DAC7EE28BAB9
:1020000087EEADBA109312921FF04AFC02462846A2
:102010009AF81E7014460D468DED04AB1FF040FC7F
:1020200022462B46CDE902010096874800F0F2FCDB
:10203000D8F804011FF034FCCDE9020119EE900A32
:102040001FF02EFC2246CDE900012B467F4800F010
:10205000E1FC77A3D3E90023DDE91401D8ED417A4F
:10206000FDEEE77AC9F8006017EE904A02F0DEFA5A
:1020700002F082FB6EA3D3E90023C9F80400DDE976
:10208000160102F0D3FA02F077FB2DEE285A109BCE
:102090006CEEA85A89F83230BDEEC55A00232CEEFA
:1020A000286AC9E90933C9F81E30A9F82230C9F8ED
:1020B0002C3089F8303089F83830A9F83630FDEE08
:1020C000E55A15EE103A6BEEA86AA9F81430BDEE89
:1020D000C66A15EE903A2BEE2D7AA9F81630FDEE71
:1020E000E66A16EE103A98ED42EAA9F81830BCEE0E
:1020F000C77A16EE903AF2EE047AA9F81A30F0EEAA
:102100004E4A17EE103A28EE278AA9F81C3069EEDD
:10211000AD7A45F2AA53FEEECF4A129AAAF80030E1
:1021200089F83320032314EE902ABDEEC88AFDEE11
:10213000E77A89F8317089F8352089ED038AC9ED8D
:10214000047AC9F8080089F834408AF802303C2340
:102150004F463F4AAAF8043013780DF59F768AF867
:102160000330013313703C4610360FCC46F8043C64
:1021700041AB9C4207F1100746F8100C46F80C1CC6
:1021800046F8082CEFD107CF4FF6FF7341F2210438
:102190000DF2391530607160B26015F8012F83EAD5
:1021A00002235A0092B2190448BF624053009BB206
:1021B000120448BF63405A0092B21B0448BF6240F9
:1021C00053009BB2170448BF63405A0092B21E04EA
:1021D00048BF624053009BB2100448BF63405A009E
:1021E00092B2190448BF624053009BB212040DF230
:1021F000791248BF6340AA42CFD146F2BB62AAF827
:102200004230AAF84420002346221248AAF860204F
:1022100051461A46006807F00DFC01283FF462ABF6
:102220000D4800F0F7FBFFF75DBB00BFAFF3008088
:1022300000000000D0126341582F021000FEFF463C
:10224000CDCCCC3D0000C842BC1A0210F41D0210D7
:10225000556B022034E20020881E02100AD7233C6E
:102260000000003842461A23D8F81900D8F8111097
:102270000BEE100AB8F8230098F80F401890B8F841
:102280002500D8F815601A90B8F82700B8F91DC0D5
:10229000B8F91FE0B8F921701690129192F82A103F
:1022A00092F82900023340EA0120222B1CA9C852CF
:1022B00002F10202F2D107EE90EAF8EEE78A07EEA9
:1022C00090CAF8EEE79A07EE907AB8EEE78A5FEDEB
:1022D0001D7A68EEA78A69EEA79A28EE278A68EE2B
:1022E000A87AE9EEA97AE8EE087A98F8323017EE83
:1022F000900A98F831701B931FF00EFBBDF98C30DB
:102300005FED295A06EE103ABDF98E30B8EEC66A76
:1023100006EE903ABDF99030F8EEE66A07EE103A14
:10232000BDF99230B8EEC77A07EE903AF8EEE77A48
:1023300066EEA56A27EE257A67EEA57A26EE256A6F
:10234000062F129998BFD24B0BEE900A0846CAEDA1
:10235000096A98BFDF5D8AED086A88BFFF278AEDAA
:102360000A7ACAED0B7A02F0E3F9C5A3D3E9002398
:1023700002F05CF902460B463046CDE9122302F02A
:10238000D7F9BFA3D3E9002302F050F907EE105AA2
:10239000DFEDC07ABDEEC77AB8EECBBA109BCDE9BF
:1023A0001401DDE912012693B7A3D3E900232BEE34
:1023B00027BA17EE106A02F039F902F0DDF9B2A37C
:1023C000D3E900232790DDE9140102F02FF902F090
:1023D000D3F9B2EE047ADFEDB07A2BEE077A6BEE2A
:1023E000277ABDEEC77AFDEEE77ADFEDAC6A042509
:1023F0008DED297ACDED2A7A289056AA0DF1AA03FF
:10240000F2EC017A67EEA67AFDEEE77A17EE901A03
:10241000013D23F8021FF3D1DFED9F7A1B9B6BEE8A
:10242000A7BA8DF8CB30BDF96030DFED9D5A06EECE
:10243000103ABDF9683069EEA74A06EE903ABDF948
:102440005830B8EEC66A07EE103A45F2AA53FCEED1
:10245000EBBAA9F800300323DFED923A26EE256AA5
:1024600028EEA75AF8EEE66AB8EEC77AFDEEE44A1F
:1024700089F802301BEE903A9FED8B4A66EEA56A12
:1024800027EE257A68EE277AC6EE235ABDEEC55AA6
:10249000ADF8B43014EE903A86EEA36A65EE845A35
:1024A000FDEEE77AADF8B63015EE103AC7EE236AC6
:1024B00026EE046AFDEEE55AADF8B83017EE903A14
:1024C00026EE847ABDEEC66AADF8BA3015EE903AC3
:1024D000BDEEC77AADF8C23016EE103AADF8C43092
:1024E00017EE103AADF8C6303C23704AA9F8043014
:1024F00013788DF8C97089F8033001338DF8C8401E
:102500008DF8CC602F95ADF8C0508DF8CA508DF87D
:10251000CD508DF8D050ADF8CE5026AF0DF1DA0C7D
:1025200013703C460CF1100C0FCC4CF8043C32AB51
:102530009C4207F110074CF8100C4CF80C1C4CF89E
:10254000082CEED107CF4FF6FF7341F221040DF1B5
:10255000D506CCF80000CCF80410CCF8082016F80A
:10256000012F013583EA02235A0092B2190448BFB1
:10257000624053009BB2120448BF63405A0092B2BB
:102580001F0448BF624053009BB2100448BF634021
:102590005A0092B2190448BF624053009BB2120421
:1025A00048BF63405A0092B21B0448BF62405300C8
:1025B00017049BB248BF6340402DD0D146F2BB62A6
:1025C000A9F84230A9F84420002346223848494659
:1025D000A9F8602000681A4607F02CFA1A901BEE42
:1025E000100A1FF05DF90446D8F808010D461FF0E7
:1025F00057F9CDE90401D8F804011FF051F9109BF7
:102600002246CDE9020100932A482B4600F002FA47
:1026100019EE900A1FF044F9CDE9100118EE900A66
:102620001FF03EF9CDE9160118EE100A1FF038F937
:1026300002460B46D8F80401CDE918231FF030F903
:102640000646D8F808010F461FF02AF9DDE91823DD
:102650009DED167B8DED067B9DED107BCDE90C018C
:10266000CDE9024514481A9C14498DED047B012CD8
:1026700008BF01469DED147BCDE9082320E000BF93
:1026800048AFBC9AF2D77A3E00000000D0126341F6
:10269000142F02100AD7233C0000C84200FEFF4658
:1026A00012AC203C0AE81C4100007A44556B022021
:1026B00034E20020BC1A0210241A02102C1A021054
:1026C000DDE912230E918DED007BCDE90A67034908
:1026D000034800F09FF9FFF705B900BFEC1D021099
:1026E000441B021010B504240B480C4984B0CDE9FA
:1026F000011000234FF4006209490A48009408F0D1
:102700001DFE08B104B010BD23464FF40062044919
:10271000054800F065FB00BFD02F00205C70002052
:10272000EC1D021021170010DC1C0210F0B51F4C2C
:102730000422A446012708261D4B85B01D4D029298
:102740004CF8043B0FCD00970196ACE80F0095E8DC
:10275000070000238CE807003A46194604F12000E0
:1027600009F054FE4FF0FF301A2340F60A321249A6
:1027700084F8466001901148216204F12001009321
:102780001B232064A4F8442001F12800092209F049
:1027900063FE04F1480104F190000BF0A9FF1B2334
:1027A000074AC4E9803205B0F0BD00BF34B600204E
:1027B000242F02103C2F0210742C021000800840BD
:1027C000B41E02102DE9F04F0025E3B002AC8022C8
:1027D000002120461DF0C8FE2E46764FDFF82882E5
:1027E000DFF828A2DFF828920A22386822A907F029
:1027F000FBF9012800F0BC80002003F005FE831CDB
:10280000F2D0FF28F0DC0D2810D00A280ED00828BE
:102810004FD07F2857D01F28EEDD7E2DECD8605595
:10282000013503F037FE03F0DBFDE5E7624803F016
:1028300073FE6655002D34D0042220465F491DF0FA
:1028400049FF002847D0062220465D491DF042FF7F
:102850000546002843D0052220465A491DF03AFF7C
:10286000002876D023786C2B30D163786F2B2DD154
:10287000A378672B2AD1E378202B0DF10B0303D12A
:1028800013F8012F202AFBD01A786F2A56D15A78D4
:102890006E2A53D101234C494C4888F8003003F08C
:1028A000BBFE4B48267003F0B7FE03F099FD0025F0
:1028B000A2E7002DFBD0013D4648665503F0ACFE73
:1028C00003F08EFD98E7002DA9D0F4E72146424899
:1028D00003F0A2FEE5E7414803F01EFEE1E709F040
:1028E0007FFD834609F082FD594602463C4803F0CD
:1028F00093FE2946DAF8000006F070FEC2074CBFCE
:1029000038493949394803F087FE386807F0EAF951
:1029100020220146364803F07FFED9F8000007F078
:10292000E1F908220146334803F076FE98F80030BA
:10293000ABB12549304803F06FFEB2E71A786F2A31
:102940000FD15A78662A0CD19B78663B09D12B4966
:10295000A2E72B4803F060FE03F042FDA1E7274900
:10296000E8E798F80030002B94D00023234993E740
:1029700098F800B0BBF1000F03D016E098F80030D3
:102980005BB90022386822A907F02EF90128F5D09A
:10299000BBF1000F3FF430AF45E71A4822A901937D
:1029A00003F03AFE019B9B46EBE722A9154803F092
:1029B00033FEE6E72CE20020D41E0210D81E0210DF
:1029C000901F0210102002108022021020200210FE
:1029D000582002105C20021030200210E01E02106D
:1029E000981F0210C01E0210C41E0210B81F021051
:1029F000CC1F0210E41F0210FC1F0210CC1E02109C
:102A000018200210D01E0210E826002030E200201C
:102A100034E200200FB400B5C3B044AB53F8042B2C
:102A20004FF4807102A8019303F0E4FA0023054AF1
:102A300002A910681A4606F0FDFF43B05DF804EBEA
:102A400004B070472CE2002010B501240D480E4957
:102A500084B0CDE9011000234FF400620B490C480B
:102A6000009408F06BFC28B1214604B0BDE810408A
:102A700007F006BE23464FF400620449054800F003
:102A8000AFF900BF3CB800205C300020602002108D
:102A9000C5270010DC1C02104FF050422DE9F84F02
:102AA0006D4BD2F800A053F82A70BAF1000F2CD069
:102AB000DFF8B0816FB30026DFF8A0B1DFF8A09196
:102AC000F3080C3358F8235034460836CDB105F0DE
:102AD0000F0120462D09013489B15BF82A2000F04E
:102AE0000703C2404FEAD00C9B00D20701FA03F360
:102AF0000CF18C0C02D449F82C30B8470DB1B4421B
:102B0000E5D3202EDCD1BDE8F88FDFF85C81002F03
:102B1000D1D15248F90801F10C0358F82330002BA9
:102B20007BD013F00F054FEA13120AD050F82A4059
:102B3000FC40E60703D44A4C8C3144F82150002A6B
:102B40006BD012F00F024FEA13210DD050F82A403B
:102B50007D1CEC40E40705D4EC08414D12018C3497
:102B600045F82420002958D011F00F014FEA133204
:102B700007D050F82A40BD1CEC40E60757D5002A84
:102B80004BD012F00F024FEA134107D050F82A4001
:102B9000FD1CEC40E40751D500293ED011F00F0197
:102BA0004FEA135207D02D4C54F82A503C1DE540F3
:102BB000EE074AD58AB312F00F024FEA13610DD027
:102BC000264C54F82A507C1DE540ED0705D4244DD1
:102BD000E40812058C3445F82420F1B111F00F01FE
:102BE0004FEA13731FD01D4CBD1D54F82A20EA4034
:102BF000D60705D4EA081A4D09068C3245F822108A
:102C00005BB154F82A10FA1DD140C90705D4144904
:102C1000D2081B078C3241F822300837202F7FF46E
:102C200079AFBDE8F88F002BF7D00C4CE9E7EC0842
:102C30000B4D09028C3445F82410A0E7EC08084D30
:102C400012038C3445F82420A6E7054DE408090456
:102C50008C3445F82410ADE7B0E1002010E90020E5
:102C600000800240908202404882024010B44FF43B
:102C700080740C4B53F8202003EB8003C00082F0DB
:102C8000400200F1804003F5805C02F0C00200F5D4
:102C9000203003F54053CCF8002041601C605DF803
:102CA000044B7047048003404FF050431B6893B1BE
:102CB0000C4B4FEAD00C00F00700800081400A481E
:102CC00003EB8C030CF18C0C40F82C102AB103F5AB
:102CD000005319607047054BEBE703F5405319604B
:102CE000704700BF9082024000800240488202404C
:102CF0002DE9F0434FF050491F46DFF89880D9F88E
:102D00000030164658F8232004460D4683B032B3EF
:102D100087B348F823704FF050431B68BBB1194B81
:102D2000E10804F00704184AA40005FA04F403EBD0
:102D300081038C3142F821405EB10121152003F559
:102D400000531C6003B0BDE8F04300F043B90F4BE3
:102D5000E6E703F540531C6003B0BDE8F083002FA5
:102D6000DCD015200A4948F8237000F0A5F9D9F8FD
:102D70000030D3E715200649019300F091FA019B3A
:102D8000C7E700BF908202400080024048820240B4
:102D9000992A0010B0E1002030B44FF0000343EC5A
:102DA000440043EC400005254FF480740B4BC200F7
:102DB00053F8201003EB800081F0400102F18043C2
:102DC00003F5203301F0C00200F5805100F54050BA
:102DD0000A605D60046030BC704700BF048003403F
:102DE0000FB400B583B0049C074803F095FB3CB1D9
:102DF00005A92046019103F023F9044803F08CFB58
:102E0000012003F035F900BF642002107C1E02107F
:102E1000EFF3108072B6064BD3E8CF1F01220029D2
:102E2000FAD1C3E8412F0029F6D1BFF35F8F704775
:102E3000A7DD00200023034AC2E88F3F80F31088FB
:102E4000704700BFA7DD002070B58646EFF3108500
:102E500072B6124CD4E8CF6F0120002EFAD1C4E82C
:102E6000460F002EF6D1BFF35F8F4FF0010CC8085C
:102E700001F007030CFA03F31EF800C01CEA030676
:102E800008D14CEA030C0EF800C0C4E88F6F85F33C
:102E9000108870BD1046FFF7A3FF00BFA7DD00201C
:102EA000F8B5EFF3108772B61C4ED6E8CF5F012459
:102EB000002DFAD1C6E8454F002DF6D1BFF35F8F44
:102EC0009A421BD8012502E00132934222D3D40852
:102ED00010F804E002F0070C05FA0CFC1EEA0C0FD7
:102EE000F2D14EEA0C0E00F804E010460023C6E8CA
:102EF0008F3F87F31088984207DBF8BD0023C6E8B0
:102F00008F3F87F310884FF0FF300029F5D00698E7
:102F1000FFF766FF4FF0FF30E8E700BFA7DD0020B6
:102F2000044A1078431CDBB2182B28BF10231370FF
:102F3000704700BFE92600200146024A0248FFF719
:102F400083BF00BF74200210C0E1002010B5054C03
:102F500082B001461F23182200940348FFF7A0FF08
:102F600002B010BD94200210C0E100204FF0E0221A
:102F7000936843F000539360704700BF0021044BF7
:102F800003F12002C3E88F1F01339342FAD1704747
:102F90009CDD00204FF0E0234FF08032C3F8002486
:102FA000C3F80424C3F80824C3F80C24C3F810247D
:102FB000C3F81424C3F81824C3F81C24C3F820242D
:102FC000C3F82424C3F82824C3F82C24C3F83024DD
:102FD00062B67047012300F01F029340400941B1DF
:102FE000800000F1604000F56140C0F8803103606E
:102FF0007047024A203042F82030704700E100E07C
:103000000123064A410952F8212000F01F0003FA6B
:1030100000F01040003818BF0120704700E100E0C8
:1030200001224309034900F01F008240403341F868
:103030002320704700E100E0054A10309268054BFC
:1030400052F82000C01A2F288CBF002001207047A2
:1030500000ED00E0EC260020F8B50D46EFF31087F8
:1030600072B6124ED6E8CF2F0123002AFAD1C6E855
:10307000423F002AF6D1BFF35F8F0D4B00F11004E1
:103080009B680C4A53F82430934203D0994201D0F4
:1030900001F020F9064B9B6843F82450BFF35F8F83
:1030A0000023C6E88F3F87F31088F8BDA5DD002018
:1030B00000ED00E0110100102DE9F04F81468B4634
:1030C000164683B0EFF3108372B6DFF8D0A10093F9
:1030D000DAE8CF1F01230029FAD1CAE8413F0029CD
:1030E000F6D1BFF35F8F664B93F90040002CC0F21E
:1030F000A080644D04EB440705EB870898F80610A0
:1031000009F110091970604BBF009B6853F8290042
:103110006300411B2F292FD95C49884240F0A480CD
:103120001C445B4B02372F44043BDB1BC3F34A03B5
:103130006FEAC3434FF421416FEAD34325F82410CB
:1031400005EB840463804BF60153A380FF2348F012
:103150000100E671C4F808B0A3714B4B9B6843F8BB
:103160002900BFF35F8F0023CAE88F3F009B83F3E2
:10317000108803B0BDE8F08F20F0010E9EF8071014
:10318000B1422ED84FF42143EB53414BB91C294493
:10319000043B04375B1A2F44AEF10401C91BC1F391
:1031A0004A043C49C3F34A030B432143A8F80410E3
:1031B0003949A8F802304AF6AA2073465B1B5B41E6
:1031C0005843000D88F8076088F80600C8F808B072
:1031D00048F00100CEF80010BFE7D179B1422ED9F6
:1031E00096469EF906C00CEB4C02BCF1000F05EBB5
:1031F0008202F2DA4BF601510EF10402A8F1040743
:10320000BF1AC7F34A076FEAC7476FEAD7478EF876
:10321000064003EB0408204C05EB8803AEF804706D
:1032200045F82840998083F806C0DE71C3F808B0DD
:1032300093E701F04FF8124B93F9004059E77246BB
:1032400032F8041F490514D44915023102EB41013B
:1032500001916FF00701C91B019F491B3944C1F35C
:103260004A0141F46041C9E7019301F033F8019B41
:1032700056E701F5FF1101F5FF511F31E4E700BFEB
:10328000596B0220EC26002000ED00E01101001037
:103290001C27002000E0FFFF01488047A5DD00203B
:1032A0002DE9F04F83B0EFF3108A72B6714ED6E875
:1032B000CF2F0123002AFAD1C6E8423F002AF6D1D7
:1032C000BFF35F8F6C4B00F110089B686B4A53F89B
:1032D0002850954245D08D420C4650D0684FEB1B8C
:1032E0002F2B3ED801214FEA50194FEA890909F1E5
:1032F000604909F5614900F01F0301FA03F0D9F8AC
:103300000030C9F8800000EA030BBFF35F8FEFF3D2
:103310000581C9B2002934D0884505D0CDE9001017
:1033200000F0D8FFDDE9001025F0010EDEF808C03E
:10333000644505D189E0D3F808C0644531D09E4684
:103340009EF9062002EB4203002A07EB8303F2DA20
:10335000644561D0BBF1000F20D0C9F88001C9F8E5
:103360000000454B9B6843F82850BFF35F8F002354
:10337000C6E88F3F8AF3108803B0BDE8F08F15468A
:10338000EFE725F0010EDEF808C06445D8D19EF9BC
:1033900006407346002C08DA154646E0C9F880005E
:1033A000DFE793F90640002C37DB04EB440C07EB16
:1033B0008C0C9CF80710DCF80820D9719A609CF9F5
:1033C00006206100002A9A713DDBBCF804E05FEA48
:1033D0004E5E05D50EF5FF1E0EF5FF5E0EF11F0EBB
:1033E0006FF0070C0A194FEA6E5E920002EB4E0274
:1033F00008323A44ACEB030C6244C2F34A026FEA6F
:10340000C2426FEAD2429A801E4B21441A7807EBDF
:1034100081011C708A719DE77346D9B9FF228EF82D
:1034200006204BF60152AEF80420164C4AF6AA22AA
:1034300094F800C01946C91B49414A43120D83F84C
:1034400006C0227086E7104ADDE79EF90640734603
:10345000002CAADA0D4A0E4CD21A083AC2F30A31ED
:103460006FEA01516FEA115144EA5202DA80998001
:1034700070E700BFA5DD002000ED00E011010010A5
:10348000EC260020596B022001BDFFFF26270020FB
:1034900000F8FFFF4FF0FF0C20F0030303F160433F
:1034A00003F5644300F003001A68C0000CFA00FC46
:1034B00022EA0C0281400A431A607047F0B5EFF32C
:1034C0000585EDB2EFF3108C72B62649D1E8CF2F07
:1034D0000123002AFAD1C1E8423F002AF6D1BFF306
:1034E0005F8F214E40F0010EB4684AF6AA2354F8CB
:1034F00025701E4A0446A41A644163431B0D774598
:103500005BB21BD092F906409C421CD092F912404B
:103510009C4223D092F91E409C4221D092F92A402D
:103520009C4208BF03240FD0114A00241578137061
:103530008571C1E88F4F8CF31088F0BDB2680D4CD7
:1035400042F82540F0E7002404EB440402EB840237
:10355000FF2494714BF601549480E5E70124F3E7CE
:103560000224F1E7A5DD002000ED00E0EC260020BC
:10357000596B02201101001010B5074C82B00146B2
:103580000523002200940548FFF78AFC0028A8BF05
:10359000C0F1330002B010BDB02002105D6B0220FC
:1035A000014B0B44036070479CDD0020F8B5124CC2
:1035B000124DAC4211D24FF0FF36002723686BB199
:1035C000FFF7AEFC01462046FFF7EAFF6660277270
:1035D000BFF35F8F0C34AC42F0D3F8BDFFF7A0FC13
:1035E00001462046FFF7DCFF6660BFF35F8F0834BB
:1035F000AC42E3D3F8BD00BF342D0020442D0020A1
:1036000010B50446FFF78CFC01462046FFF7C8FFC3
:103610004FF0FF336360BFF35F8F10BD10B50446FA
:103620000120FFF793FC034B03442360BFF35F8F3C
:1036300010BD00BF9CDD0020024B0B440360BFF3B4
:103640005F8F70479CDD00202DE9F04F2DED028B40
:1036500085B0EFF30583DBB2103B9A0818BF012257
:103660004FF0010103F0030B18BFAD4DAD4B08BF88
:10367000AD4D0BEB820253F8226001FA0BF205F517
:1036800041539FEDA58B01925A6031E0B3881B0432
:1036900040F19580B379002B40F0DF80B6F9083017
:1036A000002B0093C0F205811A46736902EB4204B5
:1036B00003EBC403D3E90247B7F1FF3F08BFB4F1FE
:1036C000FF3F0ED005EB8B01AB6A0A69D21AE31AF1
:1036D000934205D301232A6A03FA0BF3134200D164
:1036E0000C61284600F032FCA042B941C0F2E180F2
:1036F000B6F90830019A002B0093EA63C6DBD6F8CE
:10370000148003EB4309284608EBC907D7E9024AAE
:1037100000F01CFCA04271EB0A01B7DBBAF1000F0C
:10372000C0F2CD80D7E90431804A934200F0008195
:103730007A88B6F9080092B242EA004098470246F9
:103740000B4652EA030100F0BA80002B80F2D580CC
:10375000B4EB020E6AEB030A38F93930C7E902EA22
:10376000002B93DB716903EB430201EBC202D2E948
:103770000270BE457AEB000C4FEA430286DBB4468A
:103780002CF8083F06E003EB430001EBC0005A00B1
:10379000D0E90270BE451A447AEB000001EBC20486
:1037A00004DB31F93230A446002BECDA28F839304A
:1037B000009BACF80030B3881B043FF56BAF336956
:1037C000EFF3108272B6D3E8CF0F01210028FAD1AF
:1037D000C3E8401F0028F6D1BFF35F8F4FF6FF7498
:1037E000B0880023316900B2B480C1E88F3F82F312
:1037F00010889842FFF64EAF0746A946746906F155
:10380000080807EB470E04EBCE03D3E90250B6F9E4
:103810000830C446002B13DBB246009704E034F9AD
:1038200036309446002B09DB03EB430604EBC6025B
:10383000D2E90271BD4270EB0101F0DA5646009FF9
:10384000ACF8007034F93E7024F83E30002FD8DA1E
:10385000B3794D46002B3FF421AF0023B371B6F985
:10386000083006F1080E5F1C009322D09C46706958
:1038700002E08E465A1C16D003EB430200EBC20155
:103880004C881F46240430F93230F2D5BC4581ED16
:10389000028BEFD0AEF800303189BC4620F83210F0
:1038A0005A1C3781E8D16346002BCDF800C0BFF623
:1038B000FBAE40BF05B0BDEC028BBDE8F08F38F821
:1038C000393033813369EFF3108272B6D3E8CF0F0A
:1038D00001210028FAD1C3E8401F0028F6D1BFF328
:1038E0005F8F7388316928F83930009B738000231B
:1038F000C1E88F3F82F31088C8E62846CDE902234D
:1039000000F024FB029A039B10EB020E43EB010A2A
:1039100022E700BFAFF30080FFFFFFFFFFFFFFFFC5
:1039200000800B4054E6002000000B404936001098
:1039300008460B69029198470028C0D00299D1E946
:103940000023FEE60B4808B50368EFF3108172B65A
:10395000D3E8CFCF0122BCF1000FF9D1C3E84C2F3F
:10396000BCF1000FF4D1BFF35F8F05F02BFC0020FA
:10397000002108BD20E900202DE9F84F364C2569CB
:103980002DB1BDE8F84F0A213448FFF709BEDFF832
:10399000E4800321404600F0C7FA0326C4F80C80F7
:1039A000FFF7BEFA4FF0504C2D4B267003442361B5
:1039B000DCF800300F216370636961801D834FF074
:1039C0000405A3F878504FF00505A3F890504FF088
:1039D0000605A3F8A8504FF007050E214FF6FF7219
:1039E00008274FF00A0EA3F8C0504FF001094FF01E
:1039F0000C0C4FF0020B4FF0090A0D204FF00B0595
:103A0000A3F868111749A280A3F808E1A160A3F800
:103A100048B0A3F8F0A0A3F82051A3F838C1A3F848
:103A20005001A3F83090A3F86060A3F8D8701A8012
:103A30000D4B3046C8F820700C49DC60FFF70CFBDA
:103A400049463046FFF7C6FA094B0A211F6403486E
:103A5000BDE8F84FFFF7A4BD3427002020E900207F
:103A60009CDD0020FFFF100054E6002049360010C6
:103A700000200B4000000B40004870473427002016
:103A8000F8B59DF82050044617461E4635B900F09B
:103A900065FA874266EB010100295CDB2169EFF3DF
:103AA000108372B6D1E8CF0F01220028FAD1C1E805
:103AB000402F0028F6D1BFF35F8FB4F9022065696B
:103AC00002EB4201002A4FEAC10C206905EBC1015B
:103AD00039DB35F80CE0A4F802E04FF0000EC0E846
:103AE0008FEF83F310884888069B0130C0F30E00E7
:103AF000012838BF01200B61079B48804B61C1E959
:103B0000027640EA02402369EFF3108172B6D3E8EF
:103B1000CF7F0126002FFAD1C3E8476F002FF6D1DF
:103B2000BFF35F8FA38825F80C30A2802369C3E818
:103B30008FEF81F310880122E368217803F50153A8
:103B40008A405A60F8BD0022C0E88F2F83F31088A6
:103B50004FF0FF30F8BD2846F8BD00BF0146F0B574
:103B60000069EFF3108772B6D0E8CF5F0124002D13
:103B7000FAD1C0E8454F002DF6D1BFF35F8FB1F900
:103B800002E04C690EEB4E0CBEF1000F4FEACC0583
:103B9000086904EBCC0C3CDB665B4E800026C0E879
:103BA0008F6F87F31088BCF80200CCE90223013044
:103BB000C0F30E00012838BF0120059BACF80200BD
:103BC000CCF81030069B40EA0E40CCF814300B695C
:103BD000EFF3108272B6D3E8CFCF0127BCF1000F0C
:103BE000F9D1C3E84C7FBCF1000FF4D1BFF35F8F74
:103BF0008B886353A1F804E00B69C3E88F6F82F3ED
:103C000010880122CB68097803F501538A405A6075
:103C1000F0BD0023C0E88F3F87F310884FF0FF30DE
:103C2000F0BD00BF03464089B0EB214F37DD586936
:103C30000A1402EB420210B500EBC2001C69EFF35C
:103C4000108C72B6D4E8CFEF0122BEF1000FF9D18B
:103C5000C4E84E2FBEF1000FF4D1BFF35F8F42884E
:103C600089B292B28A4207D000221B69C3E88F2F23
:103C70008CF31088002010BD42F4004242800121E4
:103C8000002218699971C0E88F2F8CF310881C7876
:103C9000DA68084602F50153A140596010BD0020C2
:103CA000704700BF407870472DE9F04383B0044669
:103CB0000E4600F053F94FF0FF326FF00043241826
:103CC00046EB0106A24273EB06013CBF14461E46BA
:103CD000B4F1960546F1FF37AC4276EB07033CBFE3
:103CE00000252F4600F03AF9281A67EB010C01284D
:103CF0007CF1000C06DA2046314603B0BDE8F04303
:103D000000F064B900F02AF9854267EB010100294F
:103D10000ADB0021154B2A46009315483B460191CA
:103D2000FFF71CFF0130E6D0DFF84C80DFF844904D
:103D3000D8F824309F4205D8D8F82820AA42DAD2F1
:103D40009F42D8D1D9F80030EFF3108172B6D3E892
:103D5000CF0F01220028FAD1C3E8402F0028F6D166
:103D6000BFF35F8F034805F0FBF9E1E74539001029
:103D70003427002020E9002000000B402DE9F0430B
:103D800083B0064600F0EAF84FF47A7304464FF029
:103D9000FF306FF00042E6FB0341A04272EB0103EB
:103DA0003ABF044615460D46B4F1960645F1FF3775
:103DB000B44275EB07033CBF0026374600F0CEF84F
:103DC000301A67EB0101012871F1000106DA204683
:103DD000294603B0BDE8F04300F0F8B800F0BEF8A3
:103DE000864267EB010100290ADB0021154B3246B0
:103DF000009315483B460191FFF7B0FE0130E6D035
:103E0000DFF84C80DFF84490D8F824309F4205D882
:103E1000D8F82820B242DAD29F42D8D1D9F800305F
:103E2000EFF3108172B6D3E8CF0F01220028FAD148
:103E3000C3E8402F0028F6D1BFF35F8F034805F099
:103E40008FF9E1E7453900103427002020E90020F0
:103E500000000B402DE9F04306460D4683B0EFF31A
:103E60000584E4B23CB12D4B5A6AAA421CD2002010
:103E700003B0BDE8F0832A4FD7F80C9097F8008084
:103E8000484600F063F808F1040859F828301B1A76
:103E9000301A65EB0101984271F1000110DB20BF7F
:103EA0001E4B5A6AAA42E2D314BF012400249B6A23
:103EB000B34234BF204644F0010003B0BDE8F083B4
:103EC00000F04CF8864265EB0101002914DB154B2C
:103ED0003846CDE9003432462B46FFF73FFE011E3F
:103EE0000ADD0E4B5A6AAA4216D39B6AB34211D31B
:103EF0000B48FFF797FEB6E7084B5C6AAC42B6D3B7
:103F0000641B18BF01249B6AB34234BF204644F0AF
:103F10000100ADE7AA42EBD120BFE9E700000B406A
:103F2000342700204539001010B4054B054C064AD3
:103F3000A04214BF1846581C5DF8044BFEF784BF1E
:103F4000C4E1002000800B40CC2002100346416AEF
:103F50000A46986A596A8A42FAD17047034B596AED
:103F60000A46986A596A9142FAD1704700000B409C
:103F700030B4154A536A9C46946A536A6345FAD131
:103F8000021959414FF0000528BF01250E4B5B6A0D
:103F9000B5B15A1C08BF1A4608D04FF0FF310A4687
:103FA0000948436A8B42FCD38B4207D1064902E0A1
:103FB000486A984202D1886A9042F9D330BC70476F
:103FC0009942EDD8F0E700BF00000B40074A536A62
:103FD0009942FCD8994207D1044B02E05A6A9142B7
:103FE00002D19A6A9042F9D8704700BF00000B4096
:103FF00000EB400C4FEA8C0C0CF1804C0CF5803C33
:10400000F0B51646DCF80420051FB2F5803F38BF36
:104010004FF48032EDB238BFCCF80420012D2AD9FC
:104020004FF40067254C0CF54052176054F82020DF
:10403000B2B9DCF80020012D82EA461202F0E0025B
:104040000CF5805632602AD94FF4006144F82030D4
:104050004FF480330CF500521160CCF80430F0BD01
:104060006769B7FBF2FE0EF1010E0EEB4E0EBEF1CC
:10407000030EFCD2DDE70129D2D103240CF5405216
:104080001460DCF80820D207FBD5DCF800200B4CCC
:1040900082EA461202F0E0020CF5805632600122FC
:1040A000DCF800504D4005F00305356002FA01F1DF
:1040B000DCF808200A42FBD0C6E700BFC8E10020B8
:1040C000014B53F820007047C8E1002070B4039DF5
:1040D00004682D0345EA03451B4B002CB3FBF1F3A9
:1040E000B2FBF3F61FDB194A194B904214BF4FF491
:1040F00080424FF40042174C1A6003F580531A6057
:10410000A36832EA0303FBD1212200F540530433B4
:10411000016086601A600268002AFCDA0822C56025
:104120001A6070BC7047036803F03F038B42DAD11A
:104130008368C3F30B03B342D5D1C36803F4EE2302
:10414000AB42D0D1EDE700BF001BB70000800540B7
:10415000002002400000024030B44FF080441C4B6D
:104160001C60E0B11B4CA3F54053DC611A4C40F0DD
:10417000010044401C62596298624FF080454FF044
:10418000E061134B1548164C1D60846019604AB9F4
:1041900030BC4FF00042A3F580531A607047114BBA
:1041A000D861EAE74FF47A7303FB02F2B2F1807F41
:1041B0002ABF6FF07F4313461A464FF080410A4CE6
:1041C00008482360094B426030BC1960704700BF4B
:1041D00000B00D40D3C007B02D3FF84F00A0014004
:1041E000F3FFFF0100800D4044E6002000A00D40D9
:1041F000012300EB4000800000F1804000F58410B6
:1042000041600360704700BF002370B5DB8A04463D
:104210000D46002242E800F2520254BF1021042150
:1042200044F25220984786462B462246F446BDE883
:1042300070400A214FF48170604700BF0023DB8A81
:10424000002242E800F2520201D410211847042152
:10425000184700BF08B503460846191E02DB1AB10D
:1042600040F03000FFF7D0FF40F02000FAE700BF39
:10427000034AD2F82838002BFBD0BFF35F8F70477A
:1042800000000E400021044B044ABFF35F8F43F847
:10429000041B9342F9D170470C080E402C080E40C5
:1042A00010B44FF48D704FF42A64064A064B074948
:1042B0001460D06019605368002BFCDA5DF8044B81
:1042C000704700BF0080044000A0044000B0FA0026
:1042D000704700BF08B50148FEF782FDF0200210CC
:1042E00038B5054C054DAC4204D254F8043B984710
:1042F000AC42FAD338BD00BF401902108019021039
:1043000038B5054C054DAC4204D254F8043B9847EF
:10431000AC42FAD338BD00BF6C19021080190210EC
:1043200010B40748074C084B084A094904601A6052
:104330008B6832EA0303FBD15DF8044B704700BF82
:10434000002002407F3BEFEF00300240F6FFF30316
:1043500000000240044BDB6CB3F5004F03D14FF477
:104360008022024BDA647047000011500020115087
:104370004FF0E022044BD2F8881D0B43C2F8883D71
:1043800010EE3004704700BF030330006FF060414F
:10439000044B054A19609368DB4333F06043FAD15C
:1043A000704700BF003002400000024010B545F2E7
:1043B0005320FFF743FFBDE8104003460420184791
:1043C00010B545F25320FFF739FFBDE81040034612
:1043D00001201847FEF7D2BD1449154B70B55C1A81
:1043E000A610442E324628BF4422124D9200284681
:1043F0001CF0FAFAB4F5867F13D80F4AC6F14400D0
:1044000012D02B19410803EBC101C3E90022083384
:104410008B42FAD1C30704D520F00100304445F89F
:104420002020064B9D6070BD4320F8E7000000107F
:1044300010010010000000201101001000ED00E04C
:10444000002370B52B4C82B0C4F88430FFF728FFEE
:104450000122294BDA63636C012BFCD10321264A2C
:10446000244B11639C6B012CFCD1022605252146AF
:104470000523224A22480096FFF728FE21462B46B4
:10448000204A21480095FFF721FE002204203146F2
:104490001E4BFFF7ADFD2146284600221C4BFFF7BF
:1044A000A7FD0022082011461A4BFFF7A1FD0022AC
:1044B00009201146174BFFF79BFD002206201146ED
:1044C000134BFFF795FD0022114B07201146FFF714
:1044D0008FFD0420FFF7F4FD00240F4BA3FB0035F4
:1044E000AD0CE0B229460134FFF782FE062CF8D16C
:1044F00002B070BD0000014000300140002F68593B
:1045000000000540008C864700800540001BB70076
:1045100080D1F008006CDC0283DE1B43C1F30A5338
:104520000A467BB3A3F2FF33002B24DBC3F1340331
:10453000002B2BDD0121C3F1200C00B58646A3F131
:10454000200001FA00F021FA0CFC002A40EA0C00DD
:1045500001FA03F307DB1EF1FF3E42F1FF321EEBCF
:10456000030E40EB02025B4260EB400C0CEA0201DE
:1045700003EA0E0000BD00294FF0000007DA4FF0FB
:1045800000417047184601F00041704770470149EB
:10459000704700BF0000F03F86B003B451FC080430
:1045A000CDE9020151FC0904CDE9040151EC0A04F2
:1045B000CDE9060103BCF047BDE800504EEC00C455
:1045C000BDE800504EEC01C4BDE800504EEC02C402
:1045D00000BD000000B5FFF7DFFF02E010FE30F481
:1045E000F8D441EC100443EC112400EE010410EE69
:1045F000010480EE200451EC1004704700B5FFF771
:10460000CBFF02E010FE30F4F8D441EC100443EC90
:10461000112400EE010410EE210480EE200451EC80
:104620003004704700B5FFF7B7FF02E010FE30F42A
:10463000F8D410B541EC100443EC112451EC0404FF
:1046400053EC0524A0FB024C5FF0000EE0FB03CE10
:10465000E1FB02CE4CEC20440024E1FB03E444ECFB
:1046600030E480EE200451EC5004BDE81040704767
:1046700000B5FFF791FF02E010FE30F4F8D441ECF2
:10468000100443EC112451EC2104A0FB01126FEA49
:10469000820252FB100052FB12F252FB1000A0EB00
:1046A000D07C53EC04245CFB13F153EC1524A1FBE8
:1046B000022001FB030053EC4424A2EB000050FB5A
:1046C0001CF24FEA111312EB017043EBE27140EA66
:1046D000515020EA915020F0070053EC7524A0FBC4
:1046E000023C53EC752400FB03CC01FB02CC53ECE1
:1046F0000424ACEB824C40EA5C70A0F1010041EC78
:10470000400480EE200451EC7004704700B5FFF7C0
:1047100043FF02E010FE30F4F8D441EC100480EEC8
:10472000220410EEB204704700B5FFF735FF02E037
:1047300010FE30F4F8D440EC700400EE010410EEEA
:10474000210480EE200451EC3004704700B5FFF7DF
:1047500023FF02E010FE30F4F8D440EC600400EED9
:10476000010410EE210480EE200451EC3004704767
:1047700000B5FFF711FF02E010FE30F4F8D441EC71
:10478000800400EE010410EE010480EE400410EEFF
:104790001304704700B5FFF7FFFE02E010FE30F48F
:1047A000F8D441EC800400EE010410EE010480EE28
:1047B000400410EE3304704700B5FFF7EDFE02E051
:1047C00010FE30F4F8D441EC100443EC112400EE58
:1047D000010410EE3004C0F30070704700B5FFF71D
:1047E000DBFE02E010FE30F4F8D443EC102441EC80
:1047F000110400EE010410EE30F48CBF0120002003
:10480000704700BF00B5FFF7C7FE02E010FE30F4AE
:10481000F8D443EC102441EC110400EE010410EE36
:1048200030F42CBF01200020704700BF00B5FFF717
:10483000B3FE02E010FE30F4F8D441EC100443EC77
:10484000112400EE010410EE30F42CBF01200020F2
:10485000704700BF00B5FFF79FFE02E010FE30F486
:10486000F8D441EC100443EC112400EE010410EEE6
:1048700030F48CBF01200020704700BF38B50446DB
:1048800009481DF039F820461AF09CFE05460648F6
:104890001DF01AF82DB1054B2C449C4201D8284636
:1048A00038BD0348FEF79CFA342D00200000082094
:1048B000FC20021038B505460C460A481DF01CF8CD
:1048C000284621461BF0D2F9054606481CF0FCFF9D
:1048D0002DB1054B2C449C4201D8284638BD0348D5
:1048E000FEF77EFA342D002000000820FC20021084
:1048F00010B5044605481CF0FFFF20461AF06AFE7A
:10490000BDE8104001481CF0DFBF00BF342D00207F
:10491000FFF7B4BFFFF7ECBFFFF7EABF9A4238BF1B
:1049200088547047704700BF2DE9F04F83B0994617
:10493000DDE90DAB0F9B884611469A07074616D155
:10494000DA453AD20C460D46ABEB0A060E44224637
:104950004B46414620200134B847B442F7D129469E
:10496000BAF1000F08D1204603B0BDE8F08F0C4625
:10497000BAF1000F10D00E4655460C9B2E449A44B7
:104980000191721B4B46013D41461AF8010D344618
:10499000B847002DF5D101990F9B9B07E3D5651A08
:1049A000AB45E0D922464B46414620200135B84769
:1049B0005D4504F10104F5D3D5E70C46BAF1000FCB
:1049C000D9D1D0E72DE9F04F0F9FDDF8248017F003
:1049D000020F0A9C9DF82CA00E9DDDE90C9644D197
:1049E000F5BBB44241D207F0010B04F1FF3C4FF09C
:1049F000300EC44404E00134A6420CF801EF01D9A2
:104A0000202CF8D1BBF1000F00F08880A5422CD9F2
:104A100004F1FF3C4FF0300EC44404E00134AC42DA
:104A20000CF801EF21D0202CF8D117F0100F0ED088
:104A300017F4806F54D1A64263D0A54261D0B9F17A
:104A4000100F50D0B9F1020F56D0202C29D12024BC
:104A5000CDE90B57CDE90984BDE8F04FFFF764BFFE
:104A600017F0010B34D1B442BFD317F0100F1ED092
:104A700017F4806FE3D1002CDDD1B9F1100F63D0B2
:104A8000B9F1020F77D0302488F800400124BAF140
:104A9000000F11D17E0748D52B2608F80460013499
:104AA000D6E7264601344FF0300C08F806C0202C1B
:104AB000CDD0BAF1000FEDD02D2608F804600134F6
:104AC000CDE90B57CDE90984BDE8F04FFFF72CBFC6
:104AD000BAF1000F30D0B44205F1FF3585D395E728
:104AE000B9F1100FB3D1BE063BD5202CAFD058265C
:104AF00008F804600134A8E7202CA8D02646013429
:104B000007E0661EB9D0B9F1100F36D0B9F1020F27
:104B1000C9D14FF0620C08F806C096E717F0100FE5
:104B2000C5D017F4806F86D089E73E0790D5202640
:104B300008F8046001348BE717F00C0F00D0013D3A
:104B4000B442FFF452AF61E7BC0612D4782488F86F
:104B50000040302488F801400224BAF1000F99D0B7
:104B6000AAE7202C3FF473AF782608F804600134DC
:104B70006BE75824EBE76224E9E717F0200FA4F174
:104B8000020C04D04FF0580E08F80CE08BE74FF001
:104B9000780E08F80CE086E700B9704701F07ABC9F
:104BA00010B1D1E900311847704700BF0000000084
:104BB0002DE9F04F97B09DED207BDDE9225B0746A4
:104BC000884651EC170B249C99460C920B460246E2
:104BD0008DED047B0794FFF7F3FD002840F0F4818E
:104BE000DDE904014FF0FF326FF48013FFF7FAFDA7
:104BF000002840F01B81DDE904014FF0FF32AC4B8F
:104C0000FFF72CFE002840F0EE80DDE90401A4A3AC
:104C1000D3E90023FFF722FE002840F0D380DDE92E
:104C20000401A1A3D3E90023FFF7DCFD002840F035
:104C3000C980DDE9040100220023FFF7D3FD00282D
:104C400040F0E88023460D9013F4806F08BF0625DE
:104C500030212B460EAAA5F1200605E0013BB34208
:104C600002F8011B00F09381092BF7D81E46ED1ABC
:104C7000DDE90401FFF780FD8E4B044603EBC6031C
:104C800093ED007B8DED087BFFF752FD02460B464E
:104C9000DDE90401FFF7B6FCDDE90823FFF7C6FCF8
:104CA00002460B46CDE90A23FFF778FD8246FFF75F
:104CB00051FD02460B46DDE90A01FFF7A3FC02465F
:104CC0000B46CDE90A2300227B4BFFF7C7FD0028E6
:104CD00000F0FE800AF1010A5046FFF73BFD024654
:104CE0000B46DDE90801FFF791FD10B14FF0000A16
:104CF0000134002E00F0FD80681E0EABDFF8CCC141
:104D000018440FE0ACFB0A21C90801EB8102AAEBB1
:104D100042023032BAF1090F00F8012F40F21C8133
:104D20008A461D46202D05F1010306F1FF36E9D123
:104D30002025691E0EAB6148194410E080FB046217
:104D4000C3EBA20303EB8302A4EB420404F13002A1
:104D500001351C4601F8012F002B00F0EB80202DBF
:104D60004FEAE473EAD1079B03F00303012B18D148
:104D7000BBF1000F15D00D9B002B00F00A810BF149
:104D8000FF3BBBF1200F0CD96B1E0EA930220B4448
:104D900005E001355D4503F8012F80F0D180202D1D
:104DA000F7D1079B0EACCDE902B341464B463846DE
:104DB0000C9A01950094FFF7B7FD8246504617B054
:104DC000BDE8F08F079B9DED047BCDE923B3414601
:104DD0004B4638460C9A8DED207B229517B0BDE8E6
:104DE000F04F00F045B9610723464CBF042303236D
:104DF0004146219338464B46079A48BF304CCDE98F
:104E000022B258BF2F4C0C9A209417B0BDE8F04F37
:104E1000FFF78ABDDDE9042300200021FFF7F2FB44
:104E20000123CDE904010D9323460DE723469C079A
:104E300040F0AA80BBF1040F40F2A6800C9B1D46F7
:104E40001C1F04EB0B0A2A464B4641462020013525
:104E5000B847AA45F7D155461B4C261F14F8010D3B
:104E60002A464B464146B847B44205F10105F5D103
:104E7000079B0AF1040A9807A0D50C9CAAEB04032F
:104E80009B459BD952464B46414620200AF1010AD8
:104E9000B847AAEB04039B45F4D88FE7AFF3008033
:104EA0000000000065CDCD410000000065CDCDC102
:104EB000FFFFEF7FD83102100000E03F67666666B3
:104EC0005C2102106421021070210210CDCCCCCCE8
:104ED0000022DDE90A01634BFFF784FC00287FF420
:104EE00008AFBAF1000F6AD10AF1010A002E7FF46F
:104EF00003AF2046FFF71CFC02460B46DDE9040128
:104F0000FFF780FB02460B46CDE904230022554BF8
:104F1000FFF768FC00287FF40CAFDDE904010022F4
:104F2000504BFFF79BFC00287FF403AF013424F0C3
:104F30000104FEE6079B03F00303012B00F08280CF
:104F4000202D3FF42EAF0D9B7BB32D220DEB0503DF
:104F500083F83820013524E7202B3FF4E9AE0EAA70
:104F600015441E44302204E0202B05F8012F3FF4A5
:104F7000DFAE9E4203F10103F6D12E220DEB0603B4
:104F800083F83820751CD4E6DDF830A063E72025CF
:104F90006EE6079B13F00C0F50D00BF1FF3BAB45B7
:104FA0003FF6F2AE202D3FF4FCAE079B5A0701D529
:104FB0002B22CBE71B077FF5F4AE2022C6E71AF0C1
:104FC000010F3FF496AE8FE7A60734D1BBF1030F74
:104FD00031D90C9B1D46DC1E04EB0B0A2A464B46BE
:104FE000414620200135B847AA45F7D155461E4C09
:104FF000E61E14F8010D2A464B464146B847B44216
:1050000005F10105F5D1079B0AF1030A9D077FF51C
:10501000D5AE0C9CAAEB04039B457FF6CFAE52465F
:105020004B46414620200AF1010AB847AAEB040387
:105030005B45F4D3C2E6DDF830A0D7E7AB453FF6D9
:10504000A3AEAEE6BBF1000F3FF47AAF0D9B002B91
:105050009FD00BF1FF3B5D45FFF496AE202D7FF412
:1050600074AF9EE60000E03F6B21021000000000DC
:105070002DE9F04F9FB02A9EDDE92845074693466B
:105080000891099322462B46204629460E96DDE9D3
:105090002BA6FFF795FB002840F0BE80204629464E
:1050A0004FF0FF32784BFFF7D9FB002840F0B48077
:1050B000204629464FF0FF326FF48013FFF792FB32
:1050C000002840F0A9802046294600220023FFF74F
:1050D00089FB002840F0D581CDE90A45DDE90A23A6
:1050E0009046994606F4006216F480630F9213937B
:1050F00040F0A18058EA090340F0CA80002A40F03D
:10510000E38106230E9316F00202109240F0D48140
:105110005346042B38BF04230C920422043B129202
:105120000F932046294600220023FFF75BFB00284F
:1051300040F0F3819DED0A7B0F9B5A4603930E9B33
:105140008DED007B029326F4006304933846099B9F
:105150000899FFF72DFD024616F0200F099B0899CC
:105160000CBF6520452002F10108B8470C9A129B3C
:1051700016AC5D1E82EAE273A3EBE273D10F002648
:1051800022469946DFF804C101E0202E10D0CE4619
:10519000ACFB0930C00800EB8003A9EB43033033BC
:1051A000BEF1090F814606F1010602F8013BECD879
:1051B0000523002006930A2305950094099D089C69
:1051C0004246CDE90330CDE901612B462146384600
:1051D000FFF7F8FB109A8046D2B1A0EB0B06B24560
:1051E00016D90BEB06022B46214620200136B84784
:1051F000B245F6D80BF1FF335344CBF10102A3EBD8
:1052000008034244924538BF002308F1010898443E
:1052100040461FB0BDE8F08F5A463846CDE92845D4
:10522000CDE92BA60E9C099B08992A941FB0BDE8D6
:10523000F04FFFF7BDBC58EA09032BD1002A3FF419
:1052400062AF00230C930E9B0C9A934200F3B9813A
:105250004FF000082046294600220023FFF7C2FA3B
:10526000002840F013819DED0A7B26F4006646F489
:1052700080668DED287B5A463846CDE92A8A099BFF
:1052800008992C96D2E700BFFFFFEF7FCDCCCCCCA6
:1052900006230E93C9F30A50A0F2FF30FFF748FA35
:1052A000C1A3D3E90023FFF7C1F9C1A3D3E90023C8
:1052B000FFF794F9C9F31309CDE90C0149F07F51C7
:1052C00040460022B24B41F44011FFF79BF9A4A3E2
:1052D000D3E90023FFF7AAF902460B46DDE90C01EA
:1052E000FFF77CF9FFF748FA0C90FFF721FA9EA32D
:1052F000D3E9002380468946FFF798F90022A54BA1
:10530000FFF76CF9FFF738FA034649464046129317
:1053100097A3D3E90023FFF789F9804612988946BD
:10532000FFF706FA94A3D3E90023FFF77FF90246BB
:105330000B4640464946FFF765F902460B46804654
:105340008946FFF773F942464B46CDE910014046C6
:105350004946FFF743F90022CDE91401DDE91001C8
:105360008D4BFFF789F900228C4BFFF737F9024686
:105370000B46DDE91001FFF77FF90022884BFFF7AC
:105380002DF902460B46DDE91001FFF775F942469B
:105390004B468046894600204FF08041FFF732F9A6
:1053A00002460B4640464946FFF718F902460B46AF
:1053B000DDE91401FFF760F900227A4BFFF70EF9DF
:1053C000129B002203F2FF3C4FEA0C53FFF72EF929
:1053D00080468946DDE90A0142464B46FFF702FA5C
:1053E00050B10C9B4046013B49460C9300226B4B4D
:1053F000FFF742F9804689460C9A43466332C62A33
:1054000006F00202109249460F9A2CD8002A5ED06C
:10541000042212920B433FF416AFDDE90A0158A3B0
:10542000D3E90023FFF706FA48B1DDE90A0156A3E4
:10543000D3E90023FFF7D6F900287FF404AF0E9BD1
:10544000002B50D0139A002A7DD0013B0E93129B63
:105450009A4505D9109B002B00F0AE8002231093D3
:1054600000230F9344E022BBBAF1050F4FD906F099
:105470000203002B49D105231293AAF105030F93D0
:105480003AE005F100430A940B9327E626F4006600
:1054900046F4806638462C96DDE90A67344607F103
:1054A00000455A46CDE92A8ACDE92845099B089945
:1054B000BCE605221292ADE700230222CDE90F32AD
:1054C00004220C9312922CE64FF00508C2E6BAF1C2
:1054D000040F1FD9109B002B78D104231293AAF13B
:1054E00004030F9304E0129B9A4531D80E9B0F934F
:1054F0000C9B002B3FF415AEDDE90A0142464B46FA
:10550000FFF7BAF8CDE90A010BE602231093052351
:105510001293F1E704231293EAE7DDE90A45A04676
:105520000F9B05F1004903930E9B5A46029326F404
:10553000006304933846CDE90089099B0899FFF779
:1055400037FB024608E6129B9A4544D80F92CFE7F4
:10555000109B8BB30E9B0F9302231093C8E700BFE1
:1055600061436F63A787D23F71A379094F930A40C4
:105570001655B5BBB16B0240EF39FAFE422EE63F3D
:105580002D431CEBE2361A3F0000000080842E41C0
:105590000000F83F0000E03F00002C4000002440E5
:1055A000000018400000F03FFB799F501344D33FA8
:1055B000B3C8608B288AC63F129BAAEB03030F93E4
:1055C00096E7A3EB020808F1FF3843E604231293A1
:1055D000022310938CE7109B002BEDD002230F9237
:1055E000109385E72DE9F04F9BB0249C954D0A94CC
:1055F000954CB1F1000A18BF834625601878934C8A
:10560000914608BFA3460993002800F093824FF00B
:1056100000080AE042464B46514608F10108D847C7
:10562000099B1878002800F0CE80099B252803F1FB
:1056300001030993EED11C460023224612F8010B08
:10564000A0F1200110290AD8DFE801F04009093C47
:105650000909090909090938093409093000A0F1C3
:1056600030010929099440F28A802A2800F0F0804C
:1056700000252E2800F096800026A0F1680112294E
:105680002DD8DFE811F049012C0043012C0038012E
:105690002C002C002C002C002C002C002C002700AF
:1056A0002C002C002C002C002C002700144643F06A
:1056B0000103C2E7144643F00203BEE7144643F079
:1056C0000403BAE7144643F01003B6E7144643F068
:1056D0000803B2E70999487843F4807301326728D8
:1056E00009927ED8242840F2C180A0F12502422AE6
:1056F00000F2BC80DFE812F05001BA00BA00BA0034
:10570000BA00BA00BA00BA00BA00BA00BA00BA00C9
:10571000BA00BA00BA00BA00BA00BA00BA00BA00B9
:10572000BA00BA00BA00BA00BA00BA00BA00BA00A9
:10573000BA00BA00BA00BA00190137011901BA005B
:10574000BA00BA00BA00BA00BA00BA00BA00BA0089
:10575000BA00BA00BA00BA00BA00BA00BA00BC0176
:10576000BA00BA00BA00BA00BA00BA00BA00BA0069
:10577000BA00BC015801BC0119013701190100250B
:1057800000E0013205EB850500EB45051078303D62
:10579000A0F130010929F4D92E28099202F1010261
:1057A0007FF46AAF099943F4806348781146A0F109
:1057B0003006092E40F221812A2800F02F8109921B
:1057C0000026013259E74446C14501D809F1FF38A6
:1057D0004B46424651460020D84720461BB0BDE804
:1057E000F08FA0F16902D2B20F2A3FD8012149F20D
:1057F00041079140394040F0F3800A2A3DD0072A02
:1058000034D10A9D55F8042B002A00F0138143F08F
:10581000210012AB1F460B9303E0202900F01481F6
:105820001A4602F00F042346092C94BF3033373355
:105830000F2A07F8013B01F101014FEA1213ECD8DE
:1058400002E100BFE555001040E6002025490010A8
:105850000A99099851F8045B4078002DCDE9092197
:10586000BCBF43F002036D42013202E742464B46A1
:10587000514608F10108D847D2E60A99002E51F89E
:10588000047B18BF3246387808BF4FF0FF3200283B
:1058900000F07B83BC18A4463A4604E012F8014F9E
:1058A000002C00F03F819445F8D16446E41B5A0572
:1058B00040F12281B44228BF344613F0020300F0C5
:1058C00088820223CDE90A5142461D46464408E03B
:1058D0004B465146D84717F8010F08F1010810B19F
:1058E00042464645F4D12B460B990A9D002B40F0C9
:1058F00041810A9194E6099948786C287FF4ECAECE
:105900000A46887843F440730332E8E6099943F481
:10591000007348780132E2E609994878682800F077
:10592000038143F080030132D9E6672800F0D98073
:10593000472800F0DC80452800F0DB80CDE90353E8
:105940000A9B0296073323F007031C464246F4E8FD
:1059500002674B4651465846CDE900670A94FFF767
:1059600087FB80465CE6462808BF43F02003CDE96C
:1059700003530A9B0296073323F007031C46424653
:10598000F4E802674B4651465846CDE900670A9451
:10599000FFF70EF9804643E642464B465146252026
:1059A00008F10108D8473BE60A9A990702F1040476
:1059B00008F1010640F1C68010784B464246514638
:1059C000D847012D88BFA84440F2BD8132464B46DE
:1059D000514620200136D8474645F7D10A941FE6A4
:1059E0006F2800F0818040F24882782800F0908192
:1059F0000A2723F01003BC4641E0002606EB86068A
:105A000000EB4600A0F1300611F8010FA0F13002C2
:105A1000092AF3D90A46099101322EE6DDE9092166
:105A200051F8046B9078023209920A91013226EA09
:105A3000E67622E623F0100013F4806240F02100A5
:105A40003FF4E7AE12AB0B930B9B06900093082339
:105A50001020059300234246CDE9023001914B46C8
:105A6000514658460496FEF7ADFF0A958046D7E5A5
:105A7000582862D0622840F08F800227BC4613F479
:105A8000806000F0DD8023F00D0313F4007240F01D
:105A900081810A990F1D13F4807140F037825C06F2
:105AA0000A9A40F13B811278002A40F04E8123F09F
:105AB0001003002800F04981114612AA0B92CDE98B
:105AC0000553CDE903C601910B9B42460093002389
:105AD0005146029358464B46FEF774FF0A9780469C
