:020000041000EA
:10000000002008205D0100101B0100101D010010E0
:100010001101001011010010110100101101001058
:100020001901001019010010190100101F01001022
:10003000110100101901001021010010230100100E
:100040001101001011010010110100101101001028
:100050001101001011010010110100101101001018
:100060001101001011010010110100101101001008
:1000700011010010110100101101001011010010F8
:1000800011010010110100101101001011010010E8
:1000900011010010110100101101001011010010D8
:1000A00011010010110100101101001011010010C8
:1000B00011010010110100101101001011010010B8
:1000C00011010010110100101101001011010010A8
:1000D0001101001011010010110100101101001098
:1000E0001101001011010010110100101101001088
:1000F0001101001011010010110100101101001078
:100100001101001011010010110100101101001067
:10011000EFF30580103800BE00BE00BE00BE00BE7A
:1001200000BE00BEF2EB8871B4910610D8910610A3
:10013000A001001090A31AE7D3DEFFFF42012110B7
:10014000FF01000024C00600793512AB4FF000001B
:100150001E49086006C881F3088810474FF05040D8
:10016000006810B14FF00000F2E70DA40ECC00299A
:1001700002D000F012F8F9E71549164A002000E015
:1001800001C19142FCD11449884714498847144958
:10019000884700BEFDE701C901C29A42FBD3704700
:1001A000D891061020010020A43000205CC1061068
:1001B00000000820000008205CC106100010082084
:1001C00000100820000000007047000008ED00E06B
:1001D000A430002094CC0220216000109D02001069
:1001E00019600010F8B500BF064B0749C91A8910FD
:1001F00048BF0131491003D0044B0BB101481847E7
:10020000704700BFA4300020A43000200000000090
:1002100008B5054B1BB105490548AFF30080BDE8A3
:100220000840FFF7E1BF00BF00000000503B012085
:1002300040D1021084464FF4007300B50348DFF844
:1002400010E0CCF800E00860136000BD40EE002034
:1002500040F6002010B58C244FF4007EDFF818C063
:1002600004FB03C40460034800EBC3200860C2F829
:1002700000E010BDE40701205807012084464FF438
:10028000806300B50348DFF810E0CCF800E00860B8
:10029000136000BDCCF60020CC06012010B582B062
:1002A00006F036F840F6B83003F072FC254806F048
:1002B000B9F80A242E2006F073F84FF4FA7003F010
:1002C00067FC013CF6D10A2006F06AF81E4813F0DC
:1002D000D5FE8646DFF898C04FF480711B4B1C4A50
:1002E00000942020CCF800E014F01AF98646DFF8DC
:1002F00084C06221174A184B00940820CCF800E013
:1003000014F00EF9154B1860154806F08BF800F044
:10031000A3F800F0AFFF01F085FE01F06BFF11487C
:1003200006F080F802F0D2F80F4802F0B5F801208C
:1003300016F070FE16F012FF0C4802F0ADF815F042
:1003400087FFFEE740D10210ECC5002044C5002025
:100350000CC600200CE6002098C50020D821012002
:1003600060D1021078D1021094D10210B4D10210E1
:10037000D4210120D021012070B52B4802F08CF847
:100380000EF07EFD38B1294802F086F8BDE87040D5
:10039000002015F0DFBF264802F07EF8254D0EF054
:1003A0001BFD254E08E001460522244802F074F8A2
:1003B00041F2883016F064F92149224802F06CF8C5
:1003C00047F230532049214A1D480EF011FD002804
:1003D000E9D112F0D7FE286804300EF0B1F90446D6
:1003E00012F0D8FE21461A4802F056F80121306872
:1003F00013F0BEFE40F6B83016F042F912F0C2FE1D
:100400002B6893F8334012F0C5FE6307F2D411480D
:1004100002F042F80121306813F098FE4FF47A7030
:1004200016F02EF9C8E700BFCCD10210E4D10210BB
:1004300010D20210403B0120D42101204CD20210E6
:1004400028D2021030D20210BCEC0210040040008E
:100450007CD202109CD2021010B503240B480C4928
:1004600084B0CDE9011000234FF4006209490A4825
:10047000009415F097FD08B104B010BD23464FF469
:1004800000620449054802F049FA00BFA033002089
:1004900044650020B0D2021079030010B8D20210D7
:1004A000704700BF003A18BF012242EC401070476D
:1004B0004FF05042012352688B40134214BF012079
:1004C0000020704700207047704700BF704700BF92
:1004D000704700BF704700BF704700BF4FF05042E9
:1004E0000123D0F8FC1152688B40134214BF012045
:1004F00000207047704700BF00B5084683B00192E6
:10050000009102F0E5F9019A0099A2F10102B2FA14
:1005100082F2520942EC441003B000BD844610B58B
:100520000C4B84B00FCB8DE80F00BCF81000DCF84A
:100530000820DCF80430DCF80C40ADF80C0069460B
:100540000CF184000294019200931AF065FE04B04D
:1005500010BD00BF60FB021070B50D464FF48672EF
:1005600082B000F18404002128462BF099FB012180
:1005700020461DF075F9FF220646294620461DF04B
:10058000F9FF034610B1184602B070BD019085F81E
:10059000006120461BF096FA02462046C5F8042169
:1005A0001DF08AF9019BC5F80801184602B070BD1C
:1005B00084301CF073BE00BF00B5282183B00190C9
:1005C00004F03CF9019803B000BD00BF00B54FF442
:1005D000007183B0019004F031F9019803B000BDBF
:1005E00038B504461549006A08F0B6FB226A0225B0
:1005F000134653F8040F02F5805C03F5405ECEF815
:100600000050126803F5005382F00702284002F000
:10061000CF02CCF80020186094F82400012102F0E9
:1006200069F894F82500012102F064F894F8260096
:100630000121BDE8384002F05DB800BF40420F0024
:100640009446006A1A4663462CF00ABD08B503F0CA
:10065000C3FB08BD08B503F0BFFB29B14FF47A72A4
:1006600000232CF0EDFC08BD024BA3FB00308009F9
:1006700008BD00BFD34D62100846002103F022BA26
:10068000084603F085BA00BF084600220C2102F09C
:1006900071B800BF084619461346012202F08EB811
:1006A0002DE9F04F2DED0C8B1020ADF51D7D02F0E6
:1006B0000FF910234FF0010242EC443042EC40307D
:1006C000DFF844B14FF4FA7015F0DAFF5846FFF73F
:1006D00025FF40B10146424801F0DEFE4FF0FF30F9
:1006E00015F0CEFFFAE707213BA3D3E9002300244E
:1006F0003C4D3D480091CDE9024501F0CDFE0BF1A6
:1007000084001CF0CBFD9FED39BADFED39AADFED97
:10071000398A41F221070DF5B2784FF0504201219C
:10072000DBF8FC31526801FA03F3134203D10520D0
:1007300015F0A6FFF1E74FF48672002140462BF03A
:10074000AFFA01212C481DF08BF8FF2204464146E8
:1007500029481DF00FFF054630B1284801F09CFEE6
:1007600025481CF09BFDD8E7234888F800411BF082
:10077000A9F9C8F8040120481DF09EF898F8004136
:100780000990122CC8F808010FD945F2AA53B8F8FD
:1007900000209A423AD02D2C07D9D8F80030184AB8
:1007A00023F07F43934200F0F381D8F804012CF04A
:1007B00037FC054609980E462CF032FC2A46CDE956
:1007C0000001334621460F4801F066FE0A481CF03E
:1007D00065FDA2E7AFF300800000000000988C40A8
:1007E000F0D2021000405F401CD30210CDCCCC3DB3
:1007F0000000C84200FEFF46A0E9002054D30210CA
:10080000AA55010004D402101CE90020B8F80D30EC
:10081000EC2BC0D803F113029442BCD103F10F02B8
:1008200008EB02018878BB28B5D1C9786629B2D116
:1008300038F802609E464FF6FF7203F10D000DF28C
:10084000651111F801CFCC4B8CEA122C33F81CC087
:1008500001358CEA0222A84292B2F2D8B242734623
:1008600099D198F80260D8F807500F2E00F0548301
:100870001F2EABD00A2E40F02B831F2B8BD1D8F824
:100880001B30B8F82CC008EE103AB8F91F306422BB
:1008900009EE903AB8F9213000210DEE103AB8F97E
:1008A00023303FA809EE103AB8F82530ADF850C013
:1008B0000CEE103AB8F82730D8F813400BEE903A07
:1008C000B8F82930D8ED41CAD8F817600A932BF050
:1008D000E7F94FF07E539FEDA9AAB8EECDDA204696
:1008E000469303F097FEA0A3D3E9002303F010FE84
:1008F0002DEE0ADAF8EEE99ACDE90C01304603F064
:1009000089FE99A3D3E9002303F002FE69EE8A9AD7
:10091000B8EEC99A2DEE0D7A29EE0A9AA9EEA97AB7
:10092000A9EE097ACDE90E0117EE100A2CF0B4FBFE
:100930008FA3D3E90023DDED0A7AB8EEC88AB8EEBA
:10094000677AB8EE4CCAFDEEEC7AF8EE6BBA044664
:10095000DDE90C01CDED0A7A28EE0A8A2CEE0ACAEE
:100960006BEE8ABA169527EE0AAA03F0D1FD03F0C2
:1009700075FE7FA3D3E900231790DDE90E0103F094
:10098000C7FD03F06BFEF2EE047ADFED7D6A68EEE0
:10099000277A28EE268AFDEEE77ABDEEC88A9FED1B
:1009A000797A0023CDED197A8DED1A8A189046A92F
:1009B0000DF16A02F1EC017A67EE877AFDEEE77AD3
:1009C00017EE900A0133042B22F8020FF2D1DDED6D
:1009D000097AFEEECF7ABDF85030DFED696AADF8E6
:1009E0008A3017EE903A07EE904A27EEA67A69EE23
:1009F000A69ABCEEC77A8DF88D3000236DEE267A6C
:100A0000FDEEE99ACDF88230ADF88630ADF8883049
:100A10008DF89030ADF88E3017EE103A29EE269A08
:100A2000FDEEE77AADF8743019EE903A2CEE26CA56
:100A3000BDEEC99AADF8763017EE903A6BEEA6BAD5
:100A4000BCEECCCAADF8783019EE103A2AEE26AAE0
:100A5000FCEEEBBAADF87A301CEE103ABCEECAAA46
:100A6000ADF87C301BEE903AADF87E301AEE103ABD
:100A7000ADF8803003230A9A8DF896308DF88C20DB
:100A800045F2AA523C23ADF894203F4AADF8983085
:100A9000137816AE8DF89730013313700DF19A0C60
:100AA00034460CF1100C0FCC4CF8043C22AB9C42A9
:100AB00006F110064CF8100C4CF80C1C4CF8082CE5
:100AC000EED107CE4FF6FF7341F221050DF19504EB
:100AD000CCF80000CCF80410CCF8082014F8012F52
:100AE00083EA02235A001E0448BF6A4053001004E0
:100AF00048BF6B405A00190448BF6A4053001204B3
:100B000048BF6B405A001E0448BF6A40530010049F
:100B100048BF6B405A00190448BF6A405300120492
:100B20000DF1D50248BF6B40A242D7D146F2BB625D
:100B3000ADF8D630ADF8D820002346221348ADF8E2
:100B4000F42000681A4625A913F038FD461E7042AD
:100B5000704100287FF43AAED8ED427A98F800410F
:100B6000CDED097A17E600BF48AFBC9AF2D77A3EBE
:100B700000000000D012634160F902100AD7233C44
:100B80000000C84200FEFF4681CC0220D82101208F
:100B9000B8F80430242B7FF408AE4FF6FF7341F20F
:100BA00021010DF2651010F8012F83EA02235A008B
:100BB0001D0448BF4A405300120448BF4B405A002E
:100BC0001B0448BF4A405300160448BF4B405A001C
:100BD0001D0448BF4A405300120448BF4B405A000E
:100BE0001E0448BF4A40530015049BB248BF4B4007
:100BF0000DF28D1248BF9BB29042D4D1B8F82A2092
:100C00009A427FF4D2AD46F2BB63B8F82C209A42E8
:100C10007FF4CBADD8F804410DF5B5750DF1F80CA6
:100C20006646EB6828686968AA6810350FC60DF536
:100C3000C5739D420CF1100CF2D1DDF88A01CCF89D
:100C40000000DDE93E300E9303F0E4FCAAA3D3E9F3
:100C5000002303F083FCCDE90A01409803F0DAFC9D
:100C6000A5A3D3E9002303F079FC9DED427ABDF9F9
:100C70000C21F8EEC75A06EE102ABDF90E21DDED63
:100C8000417A06EE902ABDF91021F8EEE77A07EED8
:100C9000102AB8EEC77ABDF91221C7EE28BA07EEBE
:100CA000102ABDF8142127EE8B8A07EE902AB8EEA1
:100CB000C66AF8EEE66AB8EEC77AF8EE677A9DF88B
:100CC0001821CDE90C01099885EEAA9AC6EE28CA2A
:100CD00086EEA8CA87EE28AAC7EEAA9A09922CF037
:100CE0009FF9CDE9060120462CF09AF9CDE90401DF
:100CF00019EE100A2CF094F9DDE90A239DED0C7B26
:100D0000CDE902018DED007B7D489DF816619DF8CF
:100D1000175101F0C1FBDDE90A01D8ED417AFDEE82
:100D2000E77A0E9B17EE904A259373A3D3E900232D
:100D300003F0EEFB03F092FC6FA3D3E900232690AF
:100D4000DDE90C0103F0E4FB03F088FC2CEEA85A6B
:100D500000236CEE285ABDEEC55ACDE92E33CDF8EE
:100D6000B230ADF8B63030938DF8C4308DF8CC3059
:100D7000ADF8CA302BEEA86A15EE103AFDEEE55A32
:100D8000ADF8A8306AEE286A15EE903ABDEEC66A54
:100D9000ADF8AA3029EEAA7A16EE103AFDEEE66A10
:100DA00098ED42DAADF8AC30BCEEC77A16EE903A68
:100DB000F2EE047AADF8AE30F0EE4D4A17EE103A8E
:100DC00068EE277AADF8B03029EE2A9A45F2AA5398
:100DD000FEEECF4A099AADF8F8308DF8C72003230C
:100DE00014EE902AFDEEE77ABDEEC99A8DF8C56043
:100DF0008DF8C6508DF8C920CDED287A8DED299A51
:100E000027908DF8C8408DF8FA303C233D4AADF864
:100E1000FC30137825AE8DF8FB3001330DF1FE0563
:100E20001370344610350FCC45F8043C31AB9C426E
:100E300006F1100645F8100C45F80C1C45F8082C76
:100E4000EFD107CE4FF6FF730DF1F904286069600A
:100E5000AA6014F8012F83EA02235A00190448BF3C
:100E60007A405300120448BF7B405A001B0448BF1D
:100E70007A405300160448BF7B405A001D0448BF07
:100E80007A405300100448BF7B405A00190448BF01
:100E90007A40530012040DF2391248BF7B40A2423F
:100EA000D7D146F2BB62ADF83A31ADF83C21002310
:100EB00046221548ADF8582100681A463EA913F09D
:100EC0007DFB01283FF482AC104801F0E5FA7DE497
:100ED00009982CF0A5F8CDE90201D8F804012CF00E
:100EE0009FF82346CDE9000132460949094801F03F
:100EF000D3FA6BE4AFF3008000000000D01263412E
:100F0000B8D3021081CC0220D821012040D4021095
:100F100070D3021078D30210242B7FF43CACB8F9C4
:100F20002330B8F92B200CEE903AB8F92530B8F9F7
:100F30002D100CEE103AB8F92730D8F811000BEE4E
:100F4000903AB8F929300C920A9398F832300E9101
:100F5000149303F05FFBC5A3D3E9002303F0D8FA91
:100F6000CDE91001D8F8150003F054FBBFA3D3E975
:100F7000002303F0CDFACDE91201B8F91F00DFED2F
:100F8000B27A09EE100AB8F91D00B8EEC99A09EE56
:100F9000900AB8F92100F8EEE99A08EE100AD8F89C
:100FA0001900B8EEC88A0AEE100A29EE279AB8EEA0
:100FB000CAAA69EEA79A2AEE27AA28EE278A69EE1E
:100FC000097AE9EEA97AE8EE087AB8F92F4017EE27
:100FD000900A0DEE104A98F80F6098F831402CF006
:100FE0005BF8DDED0A7AB8EEE76ADDED0C7AF8EE33
:100FF000E76ADDED0E7A9FED955AB8EEE77AF8EEE6
:10100000CD7A67EE857ACDED497AD8ED417ADFED7C
:10101000904A66EE856A27EE057AFDEEE77AF8EEED
:10102000EB5A26EE056AF8EEECCAB8EECCCA062CEE
:1010300098BF884B159098BF1C5DDDE9100180A317
:10104000D3E90023CDED476A8DED487A6CEEA4CA52
:101050002CEE24CA65EEA4BA8DED466A88BFFF2443
:10106000169517EE905A03F053FA03F0F7FA74A3AB
:10107000D3E900231790DDE9120103F049FA03F0E8
:10108000EDFAF2EE047ADFED746A6AEE277A2AEE60
:1010900026AAFDEEE77ABDEECAAA9FED707A00237C
:1010A000CDED197A8DED1AAA189046A90DF16A02B4
:1010B000F1EC017A67EE877AFDEEE77A17EE900A97
:1010C0000133042B22F8020FF2D1DDED097AFEEE96
:1010D000CF7A149BDFED605A8DF88B3017EE903A83
:1010E000DDED157A67EEA57A69EEA59AFCEEE77A52
:1010F0008DF88D300023DFED5A4A29EE259AFDEE5A
:10110000E99A1F93ADF880308DF88A308DF89030D1
:10111000ADF88E3017EE903A9FED525A8CEEA46ADD
:1011200028EE258ABDEEC99AADF8743019EE903AD2
:10113000CCEE246A26EE056ABDEEC88AADF876309C
:1011400019EE103A8BEEA47A66EE856ABDEEC66A99
:10115000ADF8783018EE103A27EE057AFDEEE66A23
:10116000ADF87A3016EE103ABDEEC77AADF882309F
:1011700016EE903AADF8843017EE103AADF886309E
:10118000032345F2AA528DF896303C23ADF8942003
:10119000354AADF8983013788DF888608DF897301F
:1011A00001338DF889408DF88C5016AE13700DF117
:1011B0009A0C34460CF1100C0FCC4CF8043C22ABCA
:1011C0009C4206F110064CF8100C4CF80C1C4CF824
:1011D000082CEED107CE4FF6FF7341F221050DF139
:1011E0009504CCF80000CCF80410CCF8082014F8D2
:1011F000012F83EA02235A001E0448BF6A405300AD
:10120000100448BF6B405A00190448BF6A4053009D
:10121000120448BF6B405A001E0448BF6A40530086
:10122000100448BF6B405A00190448BF6A4053007D
:1012300012040DF1D50248BF6B40A242D7D175E42C
:1012400000000000D01263410AD7233C00000038A0
:1012500012AC203CC0F802100000C84200FEFF465D
:101260000AE81C4100007A4481CC022048AFBC9AB5
:10127000F2D77A3E10B504240B480C4984B0CDE96E
:10128000011000234FF4006209490A48009414F049
:1012900089FE08B104B010BD23464FF40062044932
:1012A000054801F03BFB00BF2C34002044850020A2
:1012B00070D30210A1060010B8D2021010B51E4C57
:1012C0000421A4461D4A84B04FF0010E02914CF84F
:1012D000042B08221A4BCDF800E001920FCB8CE8CA
:1012E0000F0000237246194604F1140015F0ACFFFC
:1012F0004FF0FF3141F212324FF0140C1623114817
:10130000606101912287104A04EB0C01009301F106
:1013100028001123626384F83AC0152215F0BAFF41
:1013200004F13C0104F184001AF0C2FA1123C4F85C
:10133000FC3104B010BD00BF1CE9002038F90210D8
:1013400050F90210D0F80210000008404FF050424F
:101350000123D0F8FC1152688B40134214BF0120C6
:1013600000207047704700BFF0B590F91450427DDF
:101370000D2D2B46A8BF0D23044690ED016AD0ED3C
:10138000026A90ED037AD0ED047A002A18BF1D4658
:1013900087B0DFF888E00DF1040C877DBEE80F0010
:1013A000ACE80F00DEF8003004F18C0001A9CCF8A5
:1013B00000308DED016AADF81670CDED026A8DED4D
:1013C000037ACDED047A8DF8145019F0D9FB074655
:1013D00010B1384607B0F0BD627E04F1170104F188
:1013E0008C0020F0C9FA07460028F2D1627D002A5D
:1013F000EFD0012294F9141004F18C0018F036FF9C
:1014000050B994F91410A942E3D0012204F18C00E0
:1014100018F02CFF0746DCE70746DAE7B0FD0210BC
:1014200030B50D4683B04FF4867200F18C04002174
:1014300028462AF035FC0121204617F0EDF9402816
:10144000024628BF402229462046019218F08AF819
:10145000019A034610B1184603B030BD019085F8DB
:101460000021204617F0C2F9019B0022C5F80401B3
:101470001846C5F8082103B030BD00BF8C3017F006
:1014800081BB00BF00B54FF4007183B0019003F041
:10149000D5F9019803B000BD2DE9F04F2DED0E8B6D
:1014A0001C20ADF5197D01F013FA1C234FF0010249
:1014B00042EC443042EC4030DFF844A14FF4FA7083
:1014C00015F0DEF85046FFF74FFF40B101464248A5
:1014D00000F0E2FF4FF0FF3015F0D2F8FAE73F4896
:1014E00037A3D3E9002338A5D5E90045CDE9004568
:1014F00000F0D2FF0AF18C0017F044FB9FED38CAD0
:10150000DFED38BADFED388A9FED31AB9FED379ACA
:101510000DF5AA7B4FF050420121DAF8FC315268F8
:1015200001FA03F3134203D1052015F0A9F8F1E7FE
:101530004FF48672002158462AF0B2FB01212C4854
:1015400017F06AF90446402C28BF40245946224629
:10155000274818F007F8064630B1264800F09CFFEF
:10156000234817F00FFBD5E721488BF8004117F00F
:101570003DF99BF800718BED429A122F0546CBF88E
:1015800004010FD945F2AA53BBF800209A4239D082
:101590002D2F07D9DBF80030174A23F07F43934201
:1015A00000F0E68128462BF03BFD02460B4613482F
:1015B000394600F071FF0E4817F0E4FAAAE700BFC1
:1015C0000000000000887A400000004033331340E0
:1015D00000000000000000006CD4021098D402103B
:1015E000CDCCCC3D0000C84200FEFF46000000000C
:1015F000A8EB0020C8D40210AA55010028D502107B
:101600001CEB0020BBF80D30EC2BC1D803F113020A
:101610009742BDD103F10F020BEB02018878BB2882
:10162000B6D1C9786629B3D13BF802109E464FF671
:10163000FF7203F10D040DF2551010F801CFC64BE7
:101640008CEA122C33F81CC001368CEA0222B44218
:1016500092B2F2D88A4273469AD19BF80260DBF8C4
:1016600007400F2E00F038831F2EA4D00A2E40F022
:1016700014831F2B8CD1DBF81B30642208EE103A48
:10168000BBF91F3000210EEE103ABBF921303BA808
:101690000DEE903ABBF92330DBF8137009EE903A67
:1016A000BBF82530DBF817600DEE103ABBF8273099
:1016B000DFEDAAEA0CEE903ABBF82930F8EEEDDA4D
:1016C0000BEE103ABBF82C30B8EECEEAADF82C3069
:1016D0002AF0E6FA4FF07E533846429302F09AFF22
:1016E00099A3D3E9002302F013FF6DEEAEDACDE942
:1016F0000601304602F08EFF93A3D3E9002302F0E7
:1017000007FFF8EEE99A2EEE2EEA6DEEAD7A69EE5D
:10171000AE9AEEEE0E7AE9EEA97A064617EE900A38
:101720000F462BF0B9FC8AA3D3E9002307EE905AA9
:10173000FDEEE77A1090DDE90601CDED087A12940E
:1017400002F0E6FE02F08AFF81A3D3E90023B8EE9F
:10175000C88A13903946304602F0DAFE02F07EFF66
:1017600028EE2E8AF2EE047ADFED7D6A68EE277AA3
:1017700028EE268AB8EE4DDAF8EE6CCAB8EE4BBA0F
:10178000FDEEE77ABDEEC88A2DEE2EDA6CEEAECA1B
:101790002BEE2EBA9FED737A0023CDED157A8DEDE9
:1017A000168A149042A90DF15A02F1EC017A67EE03
:1017B000877AFDEEE77A17EE900A0133042B22F8C0
:1017C000020FF2D19FED667ADDED107A67EE877A2F
:1017D000BDF82C302EEE07EAADF87A30089BFCEE0F
:1017E000E77A8DF87C3000236DEE87DABDEECEEA25
:1017F000CDF87230ADF87630ADF878308DF87D30B8
:101800008DF88030ADF87E3017EE903A69EE879A09
:10181000FDEEEDDAADF864301EEE103A2DEE07DA8B
:10182000FDEEE99AADF866301DEE903A6CEE87CA8F
:10183000BCEECDDAADF8683019EE903A2BEE07BA6F
:10184000FCEEECCAADF86A301DEE103ABCEECBBA35
:10185000ADF86C301CEE903AADF86E301BEE103ADD
:10186000ADF87030032345F2AA528DF886303C2340
:10187000ADF884203C4AADF88830137812AE8DF86C
:101880008730013313700DF18A07344610370FCCBF
:1018900047F8043C1EAB9C4206F1100647F8100CBA
:1018A00047F80C1C47F8082CEFD107CE4FF6FF7312
:1018B00041F221050DF1850438607960BA6014F8B1
:1018C000012F83EA02235A00190448BF6A405300DB
:1018D000120448BF6B405A001B0448BF6A405300C3
:1018E000170448BF6B405A001E0448BF6A405300AB
:1018F000100448BF6B405A00190448BF6A405300A7
:1019000012040DF1C50248BF6B40A242D7D146F286
:10191000BB62ADF8C630ADF8C8200023462213489C
:10192000ADF8E42000681A4621A912F047FE451ED2
:101930006842684100287FF43EAEDBF804519BF812
:10194000007125E6AFF3008048AFBC9AF2D77A3E2B
:1019500000000000D0126341B0FB02100AD7233C04
:101960000000C84200FEFF4681CC0220D8210120A1
:10197000BBF80430242B7FF415AE4FF6FF7341F211
:1019800021010DF2551010F8012F83EA02235A00AD
:101990001C0448BF4A405300120448BF4B405A0041
:1019A0001B0448BF4A405300160448BF4B405A002E
:1019B0001C0448BF4A405300120448BF4B405A0021
:1019C0001E0448BF4A40530014049BB248BF4B401A
:1019D0000DF27D1248BF9BB29042D4D1BBF82A20B1
:1019E0009A427FF4DFAD46F2BB63BBF82C209A42EB
:1019F0007FF4D8AD0DF5AD743AAF3E46E36820688C
:101A00006168A26810340FC60DF5BD739C4207F1E2
:101A10001007F2D1DDF87A013860DDE93A4002F0D2
:101A2000F9FDA5A3D3E9002302F098FDCDE9060155
:101A30003C9802F0EFFDA0A3D3E9002302F08EFD55
:101A40009DED3E7ABDF9FC30F8EEC75A06EE103A2D
:101A5000BDF9FE30DDED3D7A06EE903ABDF900317C
:101A6000F8EEE77A07EE103AB8EEC77ABDF9023120
:101A700087EE28DA07EE103ABDF8043127EE8C8A9B
:101A800007EE903AB8EEC66AF8EEE66AB8EEC77AA4
:101A9000F8EE677ACDE908012846C5EEAB9A86EEE6
:101AA00028EAC6EEA8DAC7EE28CA87EEABBA2BF052
:101AB000B7FACDE9040119EE900A2BF0B1FADDE98D
:101AC00006239DED087BCDE902018DED007B7C486E
:101AD0009DF806719DF807619DF8085100F0DCFC47
:101AE00075A3D3E90023DDE90601DBED417AFDEEC4
:101AF000E77A219417EE904A02F00AFD02F0AEFD5B
:101B00006DA3D3E900232290DDE9080102F000FD76
:101B100002F0A4FD2EEE285A00236DEEA85ABDEE69
:101B2000C55ACDE92A33CDF8A230ADF8A6302C93B2
:101B30008DF8B4308DF8BC30ADF8BA302DEE286A8F
:101B400015EE103AFDEEE55AADF898306CEEA86A45
:101B500015EE903ABDEEC66AADF89A302BEE2B7AB0
:101B600016EE103AFDEEE66AADF89C30BCEEC77A90
:101B700016EE903ADBED42EAADF89E3017EE103AE1
:101B8000F0EE6E4AADF8A030F2EE047A45F2AA53B8
:101B9000FEEECF4AADF8E83068EE277A032369EE0F
:101BA000AB9A14EE902A8DF8EA30FDEEE77A3C23EA
:101BB000FDEEE99A8DF8B920424A8DF8B5708DF89E
:101BC000B660CDED247ACDED259A23908DF8B750EF
:101BD0008DF8B840ADF8EC30137821AF8DF8EB30CC
:101BE00001330DF1EE0613703C4610360FCC46F86B
:101BF000043C2DAB9C4207F1100746F8100C46F848
:101C00000C1C46F8082CEFD107CF4FF6FF7341F2BA
:101C100021040DF1E90530607160B26015F8012F03
:101C200083EA02235A00190448BF62405300120499
:101C300048BF63405A001B0448BF6240530017046A
:101C400048BF63405A001E0448BF6240530010045E
:101C500048BF63405A00190448BF62405300120451
:101C60000DF2291248BF6340AA42D7D146F2BB62A7
:101C7000ADF82A31ADF82C21002346221248ADF8E8
:101C8000482100681A463AA912F098FC01283FF44E
:101C900092AC0E4800F000FC8DE428468DED02ABBE
:101CA0002BF0BEF93B46CDE9000132460849094810
:101CB00000F0F2FB7FE400BF00000000D01263419F
:101CC000ECD4021081CC0220D821012058D502107A
:101CD000E4D4021078D30210242B7FF459ACBBF962
:101CE0002330BBF92B200CEE903ABBF92530BBF921
:101CF0002D100DEE903ABBF92730DBF811000EEEF7
:101D0000903ABBF92930089206939BF832300B9138
:101D1000109302F07FFCC1A3D3E9002302F0F8FB8B
:101D2000CDE90C01DBF8150002F074FCBBA3D3E98C
:101D3000002302F0EDFBCDE90E01BBF91F00DFED42
:101D4000AE7A09EE900ABBF91D00F8EEE99A0DEEA5
:101D5000100ABBF92100B8EECDDA08EE100ADBF864
:101D60001900B8EEC88A0BEE100A69EEA79AB8EE11
:101D7000CBBA2DEE27DA2BEE27BA28EE278A69EEAA
:101D8000A97AEDEE0D7AE8EE087ABBF92F6017EE2E
:101D9000900A0EEE106A9BF80F709BF831602BF0E2
:101DA0007BF9DDED067AB8EEE76ADDED087AF8EE4C
:101DB000E76ADDED0B7ADFED915AB8EEE77AF8EEDF
:101DC000CE7A67EEA57ACDED457A07EE905A9FED73
:101DD0008C5A66EEA56A27EE257AFDEEE77AB8EE14
:101DE000ED4AF8EEEE4A26EE256AF8EEECCA062E2B
:101DF00098BF844B119098BF9E5DDDE90C017CA3D8
:101E0000D3E900232CEE85EACDED436A8DED447ACB
:101E100017EE905A64EE05DA64EE85CA8DED426ADB
:101E200088BFFF26129402F073FB02F017FC70A328
:101E3000D3E900231390DDE90E0102F069FB02F003
:101E40000DFCF2EE047ADFED706A6BEE277A2BEE72
:101E500026BAFDEEE77ABDEECBBA9FED6C7A002391
:101E6000CDED157A8DED16BA149042A90DF15A02F6
:101E7000F1EC017A67EE877AFDEEE77A17EE900AC9
:101E80000133042B22F8020FF2D1DFED5F5ADDEDB2
:101E9000117A67EEA57A109B2DEE25DAFCEEE77A33
:101EA0008DF87B300023DFED5A4A69EEA59ABDEE2E
:101EB000CDDA1B93ADF870308DF87A308DF87D3027
:101EC0008DF88030ADF87E3017EE903A9FED515A84
:101ED0008EEE246A28EE258AFDEEE99AADF864308C
:101EE0001DEE103ACDEEA46A26EE056ABDEEC88A54
:101EF000ADF8663019EE903A8CEEA47A66EE856AFB
:101F0000BDEEC66AADF8683018EE103A27EE057AD5
:101F1000FDEEE66AADF86A3016EE103ABDEEC77A0D
:101F2000ADF8723016EE903AADF8743017EE103A04
:101F3000ADF87630032345F2AA528DF886303C2363
:101F4000ADF88420344AADF8883013788DF8787075
:101F50008DF8873001338DF879608DF87C5012AEA2
:101F600013700DF18A07344610370FCC47F8043C44
:101F70001EAB9C4206F1100647F8100C47F80C1CEB
:101F800047F8082CEFD107CE4FF6FF7341F2210539
:101F90000DF1850438607960BA6014F8012F83EA86
:101FA00002235A001B0448BF6A405300170448BF6D
:101FB0006B405A001E0448BF6A405300100448BFDB
:101FC0006B405A00190448BF6A405300120448BFCE
:101FD0006B405A001F0448BF6A4016044FEA420390
:101FE0000DF1C50248BF6B40A242D6D18FE400BFBD
:101FF00000000000D01263410AD7233C00000038E3
:1020000012AC203C70FB02100000C84200FEFF46EC
:102010000AE81C4100007A4481CC022048AFBC9AF7
:10202000F2D77A3E10B504240B480C4984B0CDE9B0
:10203000011000234FF4006209490A48009413F08C
:10204000B1FF08B104B010BD23464FF4006204494B
:10205000054800F063FC00BFB834002044A5002010
:10206000E4D4021099140010B8D2021070B51F4CBD
:102070000422A446012608251D4B84B0DFF87CE02D
:1020800002924CF8043BBEE80F0000960195ACE8C4
:102090000F009EE8030000238CE803003246194637
:1020A00004F11C0015F0D0F84FF0FF301A2340F671
:1020B0000A32104984F8425001900F48E16104F15E
:1020C0001C0100931B23E063A4F8402001F12800C9
:1020D000092215F0DFF804F1440104F18C0017F037
:1020E000F5FA1B23C4F8FC3104B070BD1CEB0020D2
:1020F00080FB0210D0F802100080084098FB02100C
:10210000F0B533489DB000F0C7F94FF0FF3101231F
:102110003048002200680091194611F0C1FF2E4896
:1021200002A90CF04DFA40B92B492C4800F0B4F943
:102130004FF0FF3014F0A4FAFAE711F023F808F09A
:1021400073FE074611F026F88FB341F28D32224913
:10215000234800F0A1F9234C6422206803A912F05F
:1021600003FB0128F8D1BDF86C30002BF4D011F03E
:1021700009F84FF420723620BDF86C1007F03EFECF
:102180000546E0B1BDF86C2003A9406829F0C2FF04
:1021900041F28D332946384602AA08F0E7FC06468C
:1021A000284607F0B7FF76B910F0F4FFD4E70E48E1
:1021B00000F072F94FF0FF3014F062FAFAE70B48C2
:1021C00000F06AF9F0E73146094800F065F9EBE7FD
:1021D00084D50210D4210120B0D50210C0D5021040
:1021E00024D60210D8210120F8D5021060D60210A2
:1021F00048D6021010B502240B480C4984B0CDE932
:10220000011000234FF4806209490A48009413F03A
:10221000C9FE08B104B010BD23464FF480620449E2
:10222000054800F07BFB00BF1CED0020443500207A
:102230007CD6021001210010B8D202102DE9F04F17
:102240000025E3B002AC80220021204629F028FDC1
:102250002E46794FDFF83482DFF834A2DFF834926B
:102260000A22386822A912F07FFA012800F0C28001
:10227000002004F04FF8831CF2D0FF28F0DC0D287A
:1022800010D00A280ED008284FD07F2857D01F28FA
:10229000EEDD7E2DECD8605504F082F8013504F0B7
:1022A00025F8E5E7654804F0BDF86655002D34D003
:1022B00004222046624929F09FFD00284DD00622C5
:1022C0002046604929F098FD0546002849D005229E
:1022D00020465D4929F090FD00287CD023786C2BA6
:1022E00036D163786F2B33D1A378672B30D1E37865
:1022F000202B0DF10B0303D113F8012F202AFBD063
:102300001A786F2A5CD15A786E2A59D101234F4925
:102310004F4888F8003004F003F94E48267004F066
:10232000FFF803F0E3FF0025A2E7002DFBD0013DFD
:102330004948665504F0F4F803F0D8FF98E7002DFB
:10234000F5D1605504F02CF8013503F0CFFF8FE78D
:102350002146424804F0E4F8DFE7414804F062F81F
:10236000DBE714F05BFF834614F05EFF594602463C
:102370003C4804F0D5F82946DAF8000011F0E6FEF2
:10238000C2074CBF38493949394804F0C9F83868A0
:1023900012F068FA20220146364804F0C1F8D9F854
:1023A000000012F05FFA08220146334804F0B8F842
:1023B00098F80030ABB12549304804F0B1F8ACE7EB
:1023C0001A786F2A0FD15A78662A0CD19B78663B0F
:1023D00009D12B499CE72B4804F0A2F803F086FFB3
:1023E0009BE72749E8E798F80030002B8ED00023C0
:1023F00023498DE798F800B0BBF1000F03D016E039
:1024000098F800305BB90022386822A912F0ACF9C4
:102410000128F5D0BBF1000F3FF42AAF8CE71A4832
:1024200022A9019304F07CF8DDF804B0EBE722A9BF
:10243000154804F075F8E6E7D02101209CD602107B
:10244000A0D6021058D70210D8D70210DCEE021026
:10245000E8D7021020D8021024D80210F8D70210B2
:10246000A8D6021060D7021088D602108CD60210AF
:1024700080D7021094D70210ACD70210C4D7021034
:1024800094D60210E0D7021098D602100829002036
:10249000D4210120D82101200FB400B5C3B044AB32
:1024A00053F8042B4FF4807102A8019303F02EFD22
:1024B0000023054A02A910681A4612F07FF843B0BB
:1024C0005DF804EB04B07047D021012010B5012461
:1024D0000D480E4984B0CDE9011000234FF400628D
:1024E0000B490C48009413F05DFD28B1214604B05F
:1024F000BDE8104012F0B0BE23464FF4006204491C
:10250000054800F00BFA00BFA8ED0020444500206C
:1025100028D802103D220010B8D202104FF05042CD
:102520002DE9F84F6E4BD2F800A053F82A70BAF19B
:10253000000F2BD0DFF8B48167B30026DFF8A4B119
:10254000DFF8A491F3080C3358F8235034460836CA
:10255000C5B105F00F012D0989B15BF82A2004F0FF
:102560000703E240E0089B00D20701FA03F300F101
:102570008C0C03D4204649F82C30B84715B10134EF
:10258000B442E6D3202EDDD1BDE8F88FDFF86081BC
:10259000002FD2D1534DFC0804F10C0358F823301E
:1025A00007F10800002B7CD013F00F064FEA13123E
:1025B0000AD055F82A10F940C90703D44A498C3487
:1025C00041F82460002A6CD012F00F024FEA132168
:1025D0000DD055F82A407E1CF440E40705D4F408D9
:1025E000414E12018C3446F82420002959D011F0B4
:1025F0000F014FEA133407D055F82A20BE1CF240D1
:10260000D20758D5002C4CD014F00F044FEA1341D8
:1026100007D055F82A20FE1CF240D20752D50029D7
:102620003FD011F00F014FEA135207D02D4C54F850
:102630002A603C1DE640F6074BD592B312F00F021C
:102640004FEA13610DD0274C54F82A607C1DE640F8
:10265000F60705D4244EE40812058C3446F82420ED
:10266000F9B111F00F014FEA13731FD01D4CBE1DBD
:1026700054F82A20F240D20705D4F2081A4E09066F
:102680008C3246F8221007375BB154F82A20FA4002
:10269000D10706D41449FF081B0707F18C0241F843
:1026A000223020283FF470AF074674E7002BF8D0A3
:1026B0000C4C0737E9E7F2080B4E09028C3246F85A
:1026C00022109FE7F208084E24038C3246F822407D
:1026D000A5E7054EE40809048C3446F82410ACE75D
:1026E00078170120004A01200080024090820240B9
:1026F000488202404FF4807C0C4B00B553F82020F8
:1027000003EB8003C00082F0400200F1804003F53B
:10271000805E02F0C00200F5203003F54053CEF891
:1027200000204160C3F800C000BD00BF048003402A
:10273000DFF81CC0C90041EA82015CF820200CEBE4
:102740008003514003F5805301F00C01196070477C
:1027500004800340064B022203EB800319B103F50A
:1027600000531A60704703F540531A60704700BF6A
:10277000048003404FF050431B6893B10C4B4FEA69
:10278000D00C00F00700800081400A4803EB8C0366
:102790000CF18C0C40F82C102AB103F50053196091
:1027A0007047054BEBE703F540531960704700BFD6
:1027B0009082024000800240488202402DE9F041B0
:1027C0004FF0504690461D463268214B0F4653F855
:1027D0002210044682B031B38DB3114643F8225023
:1027E000C9B11C4BE10804F007041B48A40007FA18
:1027F00004F403EB81038C3140F82140B8F1000F61
:102800000BD00121152003F500531C6002B0BDE878
:10281000F04100F0A9B9114BE4E703F540531C6007
:1028200002B0BDE8F08145B143F8225015200A46B8
:102830000B4900F013FA3168D2E71146D0E7084996
:102840001520019200F004FB3168019A004BC5E7A6
:1028500078170120908202400080024048820240A6
:102860001D25001030B54FF050450F4C2B6885B03A
:1028700054F823C01CEA000F09D140EA0C0044F8C8
:102880002300152005B0BDE8304000F0E7B9CDE9E0
:102890000212019001F094FCDDE902122B6801980C
:1028A00054F823C0E9E700BF004A012010B50446F0
:1028B000152000F0CDFA4FF05043044A196852F841
:1028C000213023EA040342F8213010BD004A0120E0
:1028D0004FF0000300B543EC440043EC40004FF0E0
:1028E000050E4FF4807C0C4BC20053F8201003EB14
:1028F000800081F0400102F1804303F5203301F0B4
:10290000C00200F5805100F540500A60C3F804E0B1
:10291000C0F800C000BD00BF048003400FB400B584
:10292000084883B003F07EFD049B3BB105A918461F
:10293000019103F00BFB044803F074FD012003F048
:102940001DFB00BF2CD802103CD80210EFF3108002
:1029500072B6064BD3E8CF1F01220029FAD1C3E893
:10296000412F0029F6D1BFF35F8F70474712012036
:102970000023034AC2E88F3F80F31088704700BFEE
:102980004712012070B51646EFF3108472B6DFF8D7
:1029900048E0DEE8CF2F0123002AFAD1CEE8423FFB
:1029A000002AF6D1BFF35F8F012301F0070CCA089C
:1029B00003FA0CF310F802C01CEA030508D14CEA34
:1029C000030C00F802C0CEE88F5F84F3108870BD5E
:1029D0003046FFF7A3FF00BF47120120F8B50F46AE
:1029E0001946EFF3108672B61C4DD5E8CF4F012380
:1029F000002CFAD1C5E8443F002CF6D1BFF35F8F1D
:102A00008A421BD8012402E00132914222D3D3082A
:102A100010F803E002F0070C04FA0CFC1EEA0C0F9D
:102A2000F2D14EEA0C0E00F803E010460023C5E890
:102A30008F3F86F31088984207DBF8BD0023C5E876
:102A40008F3F86F310884FF0FF30002FF5D00698A7
:102A5000FFF764FF4FF0FF30E8E700BF47120120A7
:102A600000B5EFF3108E72B6104BD3E8CFCF012232
:102A7000BCF1000FF9D1C3E84C2FBCF1000FF4D129
:102A8000BFF35F8F01224FEAD10C01F0070102FA78
:102A900001F110F80C2022EA010200F80C200022BB
:102AA000C3E88F2F8EF3108800BD00BF47120120AE
:102AB000044A1078431CDBB2182B28BF1023137074
:102AC000704700BF092900200146024A0248FFF76B
:102AD00059BF00BF40D802108817012000B5DFF8A9
:102AE0001CC083B001461F231822CDF800C0024845
:102AF000FFF774FF03B000BD8817012060D80210F3
:102B00004FF0E022936843F000539360704700BF9A
:102B10000021044B03F12002C3E88F1F01339342CD
:102B2000FAD170473C1201204FF0E0234FF0803281
:102B3000C3F80024C3F80424C3F80824C3F80C2401
:102B4000C3F81024C3F81424C3F81824C3F81C24B1
:102B5000C3F82024C3F82424C3F82824C3F82C2461
:102B6000C3F8302462B67047012300F01F0293407F
:102B7000400941B1800000F1604000F56140C0F8BB
:102B8000803103607047024A203042F8203070479D
:102B900000E100E00123064A410952F8212000F03B
:102BA0001F008340134214BF01200020704700BF64
:102BB00000E100E001224309034900F01F008240C8
:102BC000403341F82320704700E100E0054A10300F
:102BD0009268054B52F82000C01A2F288CBF0020A5
:102BE0000120704700ED00E00C29002010B582B0F4
:102BF000EFF3108472B6164BD3E8CFCF0122BCF1AD
:102C0000000FF9D1C3E84C2FBCF1000FF4D1BFF392
:102C10005F8F104A10309268DFF83CC052F82020D5
:102C2000624508D0914206D0CDE9000101F0C8FA12
:102C30000199074B0098074A926842F82010BFF3A9
:102C40005F8F0022C3E88F2F84F3108802B010BD7D
:102C50004512012000ED00E0110100102DE9F04FB8
:102C600006468A46154683B0EFF3108872B6714F58
:102C7000D7E8CF2F0123002AFAD1C7E8423F002A24
:102C8000F6D1BFF35F8F6C4991F90020002A7BDBFE
:102C90006A4802EB420400EB840393F806C0103646
:102CA00081F800C06649A40089684FEA420B51F8D8
:102CB00026E0AEEB00012F292ED962498E4540F067
:102CC000848043F0010E604B02340444043B1B1B20
:102CD000C3F34A036FEAC3434FF421416FEAD3437E
:102CE0005A4420F8221000EB820253804BF6015325
:102CF0009380FF23D571C2F808A09371504B9B6855
:102D000043F826E0BFF35F8F0023C7E88F3F88F3C7
:102D1000108803B0BDE8F08F2EF0010C9CF807106E
:102D2000A9425AD9B14601941E4603E0CB79AB4281
:102D300030D98C469CF9064004EB4401002C00EB92
:102D40008101F3DA00944BF6015433464E460CF100
:102D50000409043BA3EB0903C3F34A036FEAC3432B
:102D60006FEAD343ACF80430384B0BEB02018CF81C
:102D7000062040F82130009B00EB81029480937183
:102D8000D571C2F808A0B9E701F01AFA2A4991F9F9
:102D900000207DE76FF007010094019C33460C1B77
:102DA0006146241A019431F8044F4E4644F30A0454
:102DB000023401EB4404894601990C44C4F34A04EB
:102DC0006FEAC4446FEAD444C3E7CDE9002301F0BD
:102DD000F7F9DDE90023194873E71B4AA11CDD71EF
:102DE0000144043A251D521A0544ACF10401491B63
:102DF000C1F34A016FEAC141C2F34A026FEAC2421B
:102E00006FEAD1414FF4214E6FEAD24299800F49C7
:102E100020F804E05A804AF6AA256246121A524166
:102E200055432D0DC3F808A09D7143F0010ECCF859
:102E3000001063E74512012089CC02200C290020F4
:102E400000ED00E0110100103C29002001488047FE
:102E50002DE9F04F034685B0EFF3108772B6764C3C
:102E6000D4E8CF0F01220028FAD1C4E8402F00286F
:102E7000F6D1BFF35F8F714A03F110069268DFF855
:102E8000D48152F8260040454BD0884257D06C4D33
:102E9000A0EB050CBCF12F0F43D84FF0010E4FEA09
:102EA000531C4FEA8C0C0CF1604202F56142D2F8DF
:102EB00000C003F01F030EFA03F300920193C2F85F
:102EC000803003EA0C09BFF35F8FEFF30583DBB2B9
:102ED0009A46002B35D09E4205D0CDE9020101F083
:102EE0006FF9DDE9020120F0010EDEF808C061454E
:102EF00005D18CE0D3F808C0614532D09E469EF9DA
:102F0000062002EB4203002A05EB8303F2DA614557
:102F100060D0DDE90032B9F1000F1FD0C3F8802185
:102F20001A60464B9B6843F82600BFF35F8F00236F
:102F3000C4E88F3F87F3108805B0BDE8F08F4046A6
:102F4000EFE720F0010EDEF808C06145D7D19EF909
:102F500006B09B45734609DA404646E0C3F8802038
:102F6000DFE793F906B0BBF1000F34DB0BEB4B0C42
:102F700005EB8C0292F807E04FEA8C010291916810
:102F800083F807E092F906C09960BCF1000F83F85E
:102F900006C04FEA4B0E38DB6FF0070C928802999F
:102FA00042F30A0201EB420208322A44ACEB030C62
:102FB0006244C2F34A026FEAC2426FEAD2429A8086
:102FC000204BDE441A7805EB8E0E83F800B08EF8A5
:102FD00006209EE77346BAF1000F1ED1FF228EF83D
:102FE00006204BF60152AEF80420DFF858C04AF62E
:102FF000AA229CF800E01946491B49414A43120D98
:1030000083F806E08CF8002083E70F4AD7E79EF9A3
:1030100006B07346BBF1000FA8DA0C4A0C4DD21A69
:10302000083AC2F30A316FEA01516FEA115145EAD9
:103030005202DA8099806CE74512012000ED00E031
:103040000C29002089CC022001BDFFFF4629002069
:1030500000F8FFFF110100104FF0FF0C20F00303F8
:1030600003F1604303F5644300F003001A68C000F5
:103070000CFA00FC22EA0C0281400A431A607047F5
:103080002DE9F041EFF30583DBB29E46EFF31085A7
:1030900072B62949D1E8CF2F0123002AFAD1C1E81D
:1030A000423F002AF6D1BFF35F8FDFF89C8040F0EB
:1030B0000106D8F808704AF6AA2357F82E7004467D
:1030C0001E4AA41A644163431B0DB7425BB21ED073
:1030D00092F906409C4220D092F912409C4227D09F
:1030E00092F91E409C4225D092F92A409C4208BF8A
:1030F000032413D0124A002492F800C0137080F801
:1031000006C0C1E88F4F85F31088BDE8F081D8F87C
:1031100008200C4C42F82E40ECE7002404EB440459
:1031200002EB8402FF2494714BF601549480E1E792
:103130000124F3E70224F1E7451201200C290020C5
:1031400089CC02201101001000ED00E0C0F1330134
:103150000148FFF785BC00BF90CC022000B5DFF826
:1031600024C083B0014605230022CDF800C00448E6
:10317000FFF734FC0028A8BFC0F1330003B000BD46
:1031800090CC02207CD8021030B583B004460D46A6
:103190000192FFF78DFC0146204600F007F8019AE6
:1031A000A580E280BFF35F8F03B030BD014B0B44BD
:1031B000036070473C120120F8B5124C124DAC422E
:1031C00011D24FF0FF36002723686BB1FFF770FC78
:1031D00001462046FFF7EAFF66602772BFF35F8F64
:1031E0000C34AC42F0D3F8BDFFF762FC0146204638
:1031F000FFF7DCFF6660BFF35F8F0834AC42E3D3B8
:10320000F8BD00BF94300020A430002010B5044663
:10321000FFF74EFC01462046FFF7C8FF4FF0FF3393
:103220006360BFF35F8F10BD10B50446FFF740FC2D
:1032300001462046FFF7BAFF4FF0FF3200236260DD
:103240002372BFF35F8F10BD10B504460120FFF756
:1032500045FC034B03442360BFF35F8F10BD00BFE9
:103260003C120120024B0B440360BFF35F8F704799
:103270003C120120000000002DE9F04F2DED028BE3
:1032800085B0EFF30583DBB2103B9A0818BF01222B
:103290004FF0010103F0030B18BFA94CA94B08BF65
:1032A000A94C0BEB820253F8225001FA0BF204F501
:1032B00041539FEDA18B02925A602FE0AB88190415
:1032C00040F19480AB79002B40F0DE80B5F90860C6
:1032D000002EC0F21C816B6906EB460603EBC603A9
:1032E000D3E90267B7F1FF3F08BFB6F1FF3F0ED049
:1032F00004EB8B01A36A0A69D21AF31A934205D32D
:103300000123226A03FA0BF3134200D10E61204617
:1033100000F05AFDB042B941C0F2F980B5F9086039
:10332000029B002EE363C9DBD5F8149006EB460A36
:1033300009EBCA07BB682046D7F80C80019300F060
:1033400043FD019B984271EB0801B7DBB8F1000F18
:10335000C0F2C080D7E904317C4A934200F0F88083
:103360007A88B5F9080092B242EA004098470246CE
:103370000B4652EA030100F0AD80002B80F2CD80B5
:103380000199B1EB020E68EB030839F93A30C7E94D
:1033900002E8002B92DB686903EB430200EBC202F8
:1033A000D2E90271BE4578EB010C4FEA430285DB9E
:1033B000AC462CF8083F06E003EB430100EBC101EB
:1033C0005A00D1E90271BE4578EB01011A4405DBD0
:1033D00030F9323000EBC20C002BEDDA29F83A302C
:1033E000ACF80060AB8819043FF56CAF2B69EFF3C4
:1033F000108272B6D3E8CF0F01210028FAD1C3E8BA
:10340000401F0028F6D1BFF35F8F4FF6FF76A888E4
:103410000023296900B2AE80C1E88F3F82F3108893
:103420009842FFF64FAF0746A1466E6905F10808BE
:10343000B5F9083007EB470E002BC44606EBCE0269
:1034400015DBD2E90240AA46019704E036F935308F
:103450009446002B09DB03EB430506EBC502D2E9DA
:103460000271BC4270EB0101F0DA5546019FACF8E5
:10347000007036F93E7026F83E30002FD8DAAB796E
:103480004C46002B3FF422AF0023AB71B5F9086026
:10349000721C33463BD0686905F1080E03E08E4686
:1034A0005A1C3FF415AF03EB430200EBC2014F88F7
:1034B0009C463F0430F93230F1D5664581ED028BF0
:1034C000EED0AEF800302989664620F83210A5F813
:1034D00008C0E5E739F83A302B812B69EFF3108209
:1034E00072B6D3E8CF0F01210028FAD1C3E8401FFC
:1034F0000028F6D1BFF35F8F6B88296929F83A302D
:1035000000236E80C1E88F3F82F31088D6E640BF6B
:1035100005B0BDEC028BBDE8F08F2046039301920D
:1035200000F052FC019A039B10EB020E43EB0108E2
:103530002BE700BFAFF30080FFFFFFFFFFFFFFFFA0
:1035400000800B40703B012000000B4079320010DE
:1035500008460B69039198470028BBD00399D1E92D
:10356000002306E70B4808B50368EFF3108172B635
:10357000D3E8CFCF0122BCF1000FF9D1C3E84C2F23
:10358000BCF1000FF4D1BFF35F8F10F0D5FB00202A
:10359000002108BD144A012038B5384B1C692CB1F4
:1035A000BDE838400A213648FFF700BE0321354800
:1035B00000F0D6FB334D314BDD60FFF779FA324A2C
:1035C0004FF0504E024403202C4B4FF00F0C18705C
:1035D0001A61DEF800204FF6FF715A705A69A3F89D
:1035E00002C014834FF00204A2F848404FF00404D4
:1035F000A2F878404FF00504A2F890404FF006047E
:10360000A2F8A8404FF00704A2F8C0404FF0090408
:10361000A2F8F0404FF00A04A2F808414FF00B0462
:10362000A2F820414FF00C04A2F838414FF00104F9
:1036300014864FF00804A2F8D840144C4FF00D0E39
:103640004FF00E0C9C6008249980A2F850E1A2F87B
:1036500068C1A2F8600011800D4A2C620D49D36048
:10366000FFF7C4FA01210320FFF77EFA0A4B0A2173
:103670001C640348BDE83840FFF798BD542900207A
:10368000144A012000000B403C120120FFFF1000F3
:10369000703B01207932001000200B400048704739
:1036A000542900202DE9F041064618200C4601F06F
:1036B00057F80546002842D01821204601F06CF842
:1036C00001216861304600F069FBEE600746FFF7B4
:1036D000EFF94FF050414FF6FF721A4B2F70034431
:1036E0002B610B686C816B70631E2A81AA806B80D2
:1036F0005CB1002304EB44046869A10020F81320A6
:103700000C33994202F10102F8D10F4C4FF001083D
:10371000341BB4FA84F4640907EB84040B4B08FAF5
:1037200007F720460A49376243F8245006F5015648
:10373000FFF75CFA41462046FFF716FA3760284645
:10374000BDE8F0813C12012000800B40703B01205D
:10375000793200101D4B984237D030B5C3681C4DEC
:103760000446581B0121B0FA80F0227803F5415E2F
:1037700001FA02FC400985B002EB8000C3F820C0CA
:10378000CEF800C0039202930190FFF7EDF9019883
:103790001049FFF75DFBDDE9020100F0F3FAE36891
:1037A0004FF0000C5A1BB2FA82F223780A495209F0
:1037B000606903EB820341F823C001F02BF8204637
:1037C00005B0BDE8304001F025B87047542900200D
:1037D00000800B4079320010703B0120F0B583B0BF
:1037E0009DF828401D46034654B9CDE9000200F07B
:1037F000F3FA019A009B824265EB0101A1425BDB77
:103800001969EFF3108072B6D1E8CF6F0124002E52
:10381000FAD1C1E8464F002EF6D1BFF35F8FB3F95E
:1038200002401F69002C3EDBD3F814C004EB440EA9
:103830003CF83E10002659800CEBCE01C7E88F6F94
:1038400080F310884888C1E902250130C0F30E00DA
:10385000012838BF0120089A48800A61099A40EA85
:1038600004404A611A69EFF3108172B6D2E8CF7F43
:103870000125002FFAD1C2E8475F002FF6D1BFF330
:103880005F8F9A882CF83E201A699C80C2E88F6F5F
:1038900081F3108801211C78DA68A14002F50153F8
:1038A000596003B0F0BD0023C7E88F3F80F3108854
:1038B0004FF0FF3003B0F0BD204603B0F0BD00BFB5
:1038C000F0B516461F4602690346EFF3108072B644
:1038D000D2E8CF4F0121002CFAD1C2E8441F002CBE
:1038E000F6D1BFF35F8FB3F902101D69002945DBE4
:1038F000D3F814E001EB41023EF832400EEBC20C6B
:103900005C800024C5E88F4F80F310880598354609
:10391000CCF8100006983E46CCF81400BCF8020023
:10392000CCE902560130C0F30E00012838BF012057
:10393000ACF8020040EA0140D3F810C0EFF3108564
:1039400072B6DCE8CF7F0126002FFAD1CCE8476FB2
:10395000002FF6D1BFF35F8FB3F804C02EF832C04A
:1039600099801A69C2E88F4F85F3108801211C786D
:10397000DA68A14002F501535960F0BD0023C5E8A3
:103980008F3F80F310884FF0FF30F0BD0346408931
:10399000B0EB214F3ADD58690A1402EB420210B530
:1039A000D3F810C000EBC200EFF3108E72B6DCE863
:1039B000CF4F0122002CFAD1CCE8442F002CF6D1B5
:1039C000BFF35F8F428889B292B28A4207D0002249
:1039D0001B69C3E88F2F8EF31088002010BD6FEA9B
:1039E00042426FEA524242800121002218699971D5
:1039F000C0E88F2F8EF3108893F800C0DA6808466D
:103A000002F5015301FA0CF1596010BD0020704716
:103A100040787047F0B5B0F1960461F10006A0421D
:103A200071EB060338BF002483B038BF2646054635
:103A30000F4600F0D1F9201A66EB0101012871F15F
:103A4000000106DA2846394603B0BDE8F04000F030
:103A5000FDB900F0C1F9844266EB010100290ADBDF
:103A60000021144B22460093134833460191FFF77F
:103A700027FF0130E6D0114A536A9E4204D8916A6A
:103A8000A142DFD29E42DDD10D4B1B68EFF31081C6
:103A900072B6D3E8CFCF0120BCF1000FF9D1C3E853
:103AA0004C0FBCF1000FF4D1BFF35F8F044810F04E
:103AB0000FF9E0E7653500105429002000000B40A5
:103AC000144A0120F0B583B004460D4600F084F995
:103AD0004FF0FF326FF00043241845EB0105A2427E
:103AE00073EB05013CBF14461D46B4F1960645F143
:103AF000FF37B44275EB07033CBF0026374600F0A2
:103B00006BF9301A67EB0101012871F1000106DA47
:103B10002046294603B0BDE8F04000F097B900F018
:103B20005BF9864267EB010100290ADB0021144B97
:103B30003246009313483B460191FFF7C1FE013026
:103B4000E6D0114A536A9F4204D8916AB142DFD24B
:103B50009F42DDD10D4B1B68EFF3108172B6D3E8A5
:103B6000CFCF0120BCF1000FF9D1C3E84C0FBCF15D
:103B7000000FF4D1BFF35F8F044810F0A9F8E0E71D
:103B8000653500105429002000000B40144A012024
:103B9000F0B583B0064600F01FF94FF47A7304467F
:103BA0004FF0FF306FF00042E6FB0341A04272EBA2
:103BB00001033ABF044615460D46B4F1960645F199
:103BC000FF37B44275EB07033CBF0026374600F0D1
:103BD00003F9301A67EB0101012871F1000106DADF
:103BE0002046294603B0BDE8F04000F02FB900F0B0
:103BF000F3F8864267EB010100290ADB0021144B30
:103C00003246009313483B460191FFF759FE0130BD
:103C1000E6D0114A536A9F4204D8916AB142DFD27A
:103C20009F42DDD10D4B1B68EFF3108172B6D3E8D4
:103C3000CFCF0120BCF1000FF9D1C3E84C0FBCF18C
:103C4000000FF4D1BFF35F8F044810F041F8E0E7B4
:103C5000653500105429002000000B40144A012053
:103C6000EFF30582D2B282B1384B5A6A8A4202D24D
:103C700000221046704714BF012200229B6A834233
:103C800028BF42F001021046704770B584B003921D
:103C90002F4A0646D368157818460C46029300F062
:103CA00093F8029B05F1040C53F82CC0039AACEB7B
:103CB000000C301A64EB0101604571F100010FDB6B
:103CC00020BF224B596AA14207D314BF0122002210
:103CD0009B6AB34228BF42F00102104604B070BD97
:103CE000029200F079F8864264EB01010029029A01
:103CF0001BDB18492346CDE9001215483246FFF771
:103D0000DFFD011E11DD114B5A6AA2421CD39B6AD2
:103D1000B34217D30E48FFF739FE0C4B5A6AA24242
:103D2000D3D20022104604B070BD084B5A6AA2429A
:103D3000F7D3121B18BF01229B6AB34228BF42F07F
:103D40000102CAE7A242E5D120BFE3E700000B4031
:103D500054290020653500100048704700000B40D2
:103D600010B4054B054C064AA04214BF1846581C17
:103D700010BCFEF707BE00BF8C17012000800B406F
:103D800098D80210034B044A904214BF1846581C9E
:103D9000FEF766BE8C17012000800B4010B5074A65
:103DA000074B084C82B0A04214BF1046501C009331
:103DB00000220323FEF712FE02B010BD8C17012073
:103DC000BCD8021000800B400346416A0A46986A3C
:103DD000596A8A42FAD17047034B596A0A46986A6F
:103DE000596A9142FAD1704700000B4000B58E46E7
:103DF000154A536A9C46916A536A6345FAD1401842
:103E000053EB0E034FF0000228BF0122BAB10E4B54
:103E10005A6A531C08BF104608D04FF0FF331846AB
:103E200009494A6A9A42FCD39A4207D1064B02E0FA
:103E3000596A914202D1996A8142F9D300BD024A7E
:103E4000526A9342ECD8EFE700000B40074A536AEE
:103E50009942FCD8994207D1044B02E05A6A914238
:103E600002D19A6A9042F9D8704700BF00000B4017
:103E700000EB400C4FEA8C0C0CF1804C0CF5803CB4
:103E800070B51E46DCF80430041FB3F5803F38BF20
:103E90004FF48033E4B238BFCCF80430012C2ED973
:103EA0004FF40065284B0CF5405ECEF8005053F8F7
:103EB00020E0BEF1000F17D1DCF800E0012C8EEA03
:103EC000421202F0E0020CF5805ECEF800202BD901
:103ED0004FF4006143F820604FF480330CF500523A
:103EE0001160CCF8043070BD5D69B5FBFEFE0EF1CB
:103EF000010E0EEB4E0EBEF1030EFCD2DCE70129E3
:103F0000CED103240CF540531C60DCF80830DB07ED
:103F1000FBD5DCF800300CF5805E83EA421303F039
:103F2000E003CEF80030084B0122DCF800404C40A2
:103F300004F00304CEF8004002FA01F1DCF8082096
:103F40000A42FBD0C4E700BF94170120014B53F88D
:103F5000200070479417012010B5029C8E464FEA4E
:103F6000043C4CEA034C1C4BB3FBF1F30168B2FB7D
:103F7000F3F4002920DB194A194B904214BF4FF487
:103F800080424FF4004217491A6003F580531A60CB
:103F90008B6832EA0303FBD1212200F5405304333E
:103FA000C0F800E084601A600268002AFCDA082287
:103FB000C0F80CC01A6010BD036803F03F037345DE
:103FC000D9D18368C3F30B03A342D4D1C36803F4EC
:103FD000EE236345CFD110BD001BB7000080054024
:103FE00000200240000002404FF0804C214B00B501
:103FF000C3F800C0002839D0DFF888C0A3F54053CB
:10400000C3F81CC0DFF880C040F0010080EA0C0C4F
:10401000C3F820C0596298624FF0804E4FF0E061C3
:10402000144B1548DFF864C0C3F800E0C0F808C0BE
:1040300019602AB94FF00042A3F580531A6000BD01
:104040004FF47A7303FB02F2B2F1807F2ABF6FF064
:104050007F4313461A464FF08041DFF834C00748CB
:10406000CCF80030064B4260196000BD034BD861AC
:10407000D2E700BF00B00D4000A0014000800D401D
:1040800000A00D40D3C007B02D3FF84FF3FFFF0154
:1040900004260120012300EB4000800000F1804055
:1040A00000F5841041600360704700BF10B5002424
:1040B00082B00B46E48A002141E800F1CDE900031B
:1040C0004B0254BF1021042144F25220A047DDE9E5
:1040D000002386460A214FF48170F44602B0BDE801
:1040E000104060470023DB8A002242E800F25202BF
:1040F00001D4102118470421184700BF08B5034612
:104100000846191E02DB1AB140F03000FFF7CEFF5F
:1041100040F02000FAE700BF002310B5DA8A044619
:1041200086B0002343E800F35B0254BF1021042152
:1041300045F24730904710220346052101A89847D1
:10414000052802D0002006B010BD0DF1080CBCE817
:104150000F00206001206160A260E36006B010BD26
:10416000034AD2F82838002BFBD0BFF35F8F70478B
:1041700000000E400021044B044ABFF35F8F43F858
:10418000041B9342F9D170470C080E402C080E40D6
:104190004FF42A6C4FF48D70054A064B0649C2F85D
:1041A00000C0D06019605368002BFCDA704700BF74
:1041B0000080044000A0044000B0FA00704700BF37
:1041C00008B50148FEF7AAFBD0D8021038B5054C57
:1041D000054DAC4204D254F8043B9847AC42FAD3A4
:1041E00038BD00BFE8D0021028D1021038B5054C08
:1041F000054DAC4204D254F8043B9847AC42FAD384
:1042000038BD00BF14D1021028D102100648DFF8D3
:1042100028C0064B064A0749C0F800C01A608B68E0
:1042200032EA0303FBD17047002002400030024015
:10423000F6FFF303000002407F3BEFEF044BDB6C23
:10424000B3F5004F03D14FF48022024BDA6470477C
:1042500000001150002011504FF0E022044BD2F822
:10426000881D0B43C2F8883D10EE3004704700BF34
:10427000030330006FF06041044B054A19609368F6
:10428000DB4333F06043FAD1704700BF0030024097
:104290000000024010B545F25320FFF723FFBDE8B0
:1042A000104003460420184710B545F25320FFF78D
:1042B00019FFBDE81040034601201847FEF728BC4F
:1042C0001449154B70B55C1AA610442E324628BF0F
:1042D0004422124D9200284627F01CFFB4F5867F39
:1042E00013D80F4A14D0C6F144002B19410803EB30
:1042F000C101C3E9002208339942FAD1C30704D5AA
:1043000020F00100304445F82020064B9D6070BD30
:104310004320F8E70000001010010010000000200A
:104320001101001000ED00E0002370B52B4C82B0AD
:10433000C4F88430FFF72CFF0122294BDA63636C49
:10434000012BFCD10321264A244B11639C6B012CC9
:10435000FCD10226052521460523224A2248009643
:10436000FFF7FAFD21462B46204A21480095FFF72A
:10437000F3FD0022042031461E4BFFF779FD214654
:10438000284600221C4BFFF773FD0022082011462F
:104390001A4BFFF76DFD002209201146174BFFF75E
:1043A00067FD002206201146134BFFF761FD002236
:1043B000114B07201146FFF75BFD0420FFF7C6FDF8
:1043C00000240F4BA3FB0035AD0CE0B229460134AD
:1043D000FFF760FE062CF8D102B070BD000001406E
:1043E00000300140002F685900000540008C8647CE
:1043F00000800540001BB70080D1F008006CDC0293
:1044000083DE1B43C1F30A530A4673B3A3F2FF339F
:10441000002B23DB332B2CDC0121844600B5C3F1B8
:104420001400C3F1340E143B01FA00F021FA03F337
:10443000002A40EA030001FA0EF107DB1CF1FF3C01
:1044400042F1FF321CEB010C40EB02024B4260EBED
:10445000400E0EEA020103EA0C0000BD00294FF0F5
:10446000000007DA4FF000417047184601F00041A4
:1044700070477047004970470000F03F86B003B4B2
:1044800051FC0804CDE9020151FC0904CDE9040105
:1044900051EC0A04CDE9060103BCF047BDE8005029
:1044A0004EEC00C4BDE800504EEC01C4BDE8005025
:1044B0004EEC02C400BD000000B5FFF7DFFF02E0D4
:1044C00010FE30F4F8D441EC100443EC112400EE5B
:1044D000010410EE010480EE200451EC100470473A
:1044E00000B5FFF7CBFF02E010FE30F4F8D441EC4A
:1044F000100443EC112400EE010410EE210480EEC0
:10450000200451EC3004704700B5FFF7B7FF02E01C
:1045100010FE30F4F8D410B541EC100443EC112433
:1045200051EC040453EC0524A0FB024C5FF0000E98
:10453000E0FB03CEE1FB02CE4CEC20440024E1FB87
:1045400003E444EC30E480EE200451EC5004BDE878
:104550001040704700B5FFF791FF02E010FE30F405
:10456000F8D441EC100443EC112451EC2104A0FBDD
:1045700001126FEA820252FB100052FB12F252FB50
:104580001000A0EBD07C53EC04245CFB13F153EC43
:104590001524A1FB022001FB030053EC4424A2EBF1
:1045A000000050FB1CF24FEA111312EB017043EBB9
:1045B000E27140EA515020EA915020F0070053EC9C
:1045C0007524A0FB023C53EC752400FB03CC01FBDB
:1045D00002CC53EC0424ACEB824C40EA5C70A0F1BA
:1045E000010041EC400480EE200451EC700470475F
:1045F00000B5FFF743FF02E010FE30F4F8D441ECC1
:10460000100480EE220410EEB204704700B5FFF7EC
:1046100035FF02E010FE30F4F8D440EC700400EEF8
:10462000010410EE210480EE200451EC30047047A8
:1046300000B5FFF723FF02E010FE30F4F8D440ECA1
:10464000600400EE010410EE210480EE200451EC21
:104650003004704700B5FFF711FF02E010FE30F4A0
:10466000F8D441EC800400EE010410EE010480EE69
:10467000400410EE1304704700B5FFF7FFFE02E0A0
:1046800010FE30F4F8D441EC800400EE010410EE8A
:10469000010480EE400410EE3304704700B5FFF7CC
:1046A000EDFE02E010FE30F4F8D441EC100443ECCF
:1046B000112400EE010410EE3004C0F300707047C6
:1046C00000B5FFF7DBFE02E010FE30F4F8D443EC57
:1046D000102441EC110400EE010410EE30F48CBF04
:1046E00001200020704700BF00B5FFF7C7FE02E0C1
:1046F00010FE30F4F8D443EC102441EC110400EE29
:10470000010410EE30F42CBF01200020704700BFE0
:1047100000B5FFF7B3FE02E010FE30F4F8D441EC30
:10472000100443EC112400EE010410EE30F42CBF11
:1047300001200020704700BF00B5FFF79FFE02E098
:1047400010FE30F4F8D441EC100443EC112400EED8
:10475000010410EE30F48CBF01200020704700BF30
:1047600038B50446094828F083FC204626F094FA20
:104770000546064828F068FC2DB1054B2C449C42A8
:1047800001D8284638BD0348FEF7C8F89430002009
:1047900000000820DCD8021070B504460E460B4815
:1047A00028F066FC3146204626F0E2F90546074827
:1047B00028F04AFC35B106FB0454054B9C4201D855
:1047C000284670BD0348FEF7A9F800BF94300020CA
:1047D00000000820DCD8021038B505460C460A480F
:1047E00028F046FC2846214626F0CEFD0546064820
:1047F00028F02AFC2DB1054B2C449C4201D82846B8
:1048000038BD0348FEF78AF89430002000000820E5
:10481000DCD8021010B50446054828F029FC2046D3
:1048200026F042FABDE81040014828F00DBC00BF58
:1048300094300020FFF794BFFFF7ECBFFFF7EABF0B
:104840009A4238BF88547047704700BF2DE9F04F37
:1048500083B00F461146DDE90EB292079846DDE9B6
:104860000C93064629D00D469BB109EB030405EBDA
:10487000040A01950D460D93AAEB040214F8010DEC
:1048800043463946B047A145F6D129460D9B019DC7
:104890001D440F9B9B070CD56C1AA34509D92A46CA
:1048A0004346394620200134B0475C4505F10105F7
:1048B000F5D3284603B0BDE8F08F5B4515D28A4694
:1048C0001C468946ABEB03050D4452464346394628
:1048D00020200AF1010AB047AA45F6D149462346ED
:1048E000DDF83090002CC0D1E3E70D46002BBCD1A1
:1048F000DFE700BF2DE9F04F0F460F9906469DF800
:104900002C008D079046DDE90CA299468346099C50
:10491000DDF828C00E9B49D4002B42D1944545D2E6
:1049200001F0010504F1FF3E3020E64405E00CF102
:10493000010C62450EF8010F02D9BCF1200FF6D12F
:10494000002D00F08780634530D9601E4FF0300E97
:10495000604405E00CF1010C9C4500F801EF25D006
:10496000BCF1200FF6D1CD060ED5480551D46245D5
:1049700064D0634562D0BAF1100F4DD0BAF1020F86
:1049800055D0BCF1200F2DD12022CDE90B310A9258
:104990004B464246394630460994BDE8F04FFFF792
:1049A00055BF11F001052ED19445BBD3CD061ED5C0
:1049B0004805E0D4BCF1000FD9D1BAF1100F5FD097
:1049C000BAF1020F74D030224FF0010C2270BBF10B
:1049D000000F12D1480742D52B2204F80C200CF10D
:1049E0000102D2E762460CF1010C3020A054BCF168
:1049F000200FC9D0BBF1000FECD02D2204F80C2001
:104A00000CF10102C1E798B3944503F1FF3389D358
:104A100099E7BAF1100FB7D18D063DD5BCF1200F43
:104A2000B2D0582204F80C200CF1010CA9E7BCF11B
:104A3000200FA9D062460CF1010C08E0BCF1010284
:104A4000BBD0BAF1100F35D0BAF1020FCDD1622030
:104A5000A05496E7CD06CAD5480588D58BE70A0746
:104A600049BF2022624604F80C200CF101028CE7B9
:104A700011F00C0F00D0013B9445FFF453AF62E7F7
:104A80008A0613D47822227030224FF0020C627012
:104A9000BBF1000F9ED0B0E7BCF1200F3FF474AF24
:104AA000782204F80C200CF1010C6AE75822EAE79E
:104AB0006222E8E78D06ACF1020004D54FF0580EF3
:104AC00004F800E091E74FF0780E04F800E08CE77E
:104AD00000B9704701F064BC10B1D1E9003118474A
:104AE000704700BF000000002DE9F04F97B09DED2A
:104AF000207BDDE9225B8046894651EC170B9A4604
:104B0000249B0C92079302460B468DED047BFFF726
:104B1000C9FD002840F0E381DDE904014FF0FF32D8
:104B20006FF48013FFF7D0FD002840F0CB80DDE963
:104B300004014FF0FF32B24BFFF702FE002840F0B5
:104B40009F80DDE90467AAA3D3E9002330463946F4
:104B5000FFF7F6FD002840F08280A7A3D3E90023E9
:104B600030463946FFF7B0FD002878D13046394647
:104B700000220023FFF7A8FD002840F098800D9048
:104B8000079B302113F4806F08BF06250EAA2B4621
:104B9000A5F1200605E0013BB34202F8011B00F03D
:104BA0006581092BF7D81E46ED1ADDE90401FFF7F0
:104BB00055FD944B044603EBC60393ED007B8DED4E
:104BC000087BFFF727FD02460B46DDE90401FFF7EE
:104BD0008BFCDDE90823FFF79BFCCDE90A01FFF719
:104BE0004FFD0746FFF728FD02460B46DDE90A01A7
:104BF000FFF77AFC0022844BCDE90A01FFF7A0FD04
:104C0000002800F0888001373846FFF715FD02467E
:104C10000B46DDE90801FFF76BFD08B10027013401
:104C2000002E00F088800DF13703DFF8F0C158192D
:104C30000DE0ACFB0721C90801EB8102A7EB4202A2
:104C40003032092F00F8012F40F2FB800F46202D53
:104C500006F1FF3605F10105EBD1202586E0079B23
:104C60009DED047BCDE923B34946534640460C9A5B
:104C70008DED207B229517B0BDE8F04F00F080B994
:104C8000079B494658074CBF042303234046219302
:104C90005346079A48BF5D4CCDE922B258BF5C4CE1
:104CA0000C9A209417B0BDE8F04FFFF7CFBD3B46FC
:104CB000324600200021FFF717FC0123CDE9040153
:104CC0000D935DE7079B03F002029C07049200F03E
:104CD000F4800C9F3D464F4E341D14F8010D2A46BA
:104CE00053464946C047A64205F10105F5D1049B4C
:104CF0003C1D63B10C9D631B9B4508D9224653465E
:104D0000494620200134C047631B9B45F6D8204606
:104D100017B0BDE8F08F0022DDE90A013A4BFFF73A
:104D2000D3FC00287FF47CAF002F40F0C280013715
:104D3000002E7FF478AF2046FFF76CFC02460B464E
:104D4000DDE90401FFF7D0FB00222F4B06460F469A
:104D5000FFF7BAFC40B93046394600222A4BFFF72C
:104D6000EFFC002800F0A1800DF137032A48591903
:104D70000EE080FB0476C2EBA60202EB8206A4EBF7
:104D8000460630361446013501F8016F002A47D037
:104D9000202D4FEAE472ECD1079A02F00302012AB7
:104DA00014D1BBF1000F11D00D9A002A60D00BF185
:104DB000FF3BBBF1200F09D930222B4404E0013521
:104DC0005D4503F8012F31D2202DF8D1079B0EACA1
:104DD000CDE902B300945346494640460C9A0195EA
:104DE000FFF734FD0446204617B0BDE8F08F00BF42
:104DF0000000000065CDCD410000000065CDCDC1B3
:104E0000FFFFEF7F30FE02100000E03F3CD90210B0
:104E100044D902104CD9021067666666CDCCCCCC62
:104E2000079A02F00302012A00F09680202DCDD0CF
:104E30000D9B3BB32D220DEB050383F83820013584
:104E4000C4E7202D3FF409AF30212E445A1905E064
:104E50000135202D02F8011F3FF4FFAEAE42F7D11D
:104E60002E226E44013586F838207FE720259CE607
:104E7000079A12F00C0F5AD00BF1FF3BAB459BD8B1
:104E8000202DA3D0079B5A0706D52B220DEB050337
:104E900083F83820013599E71B0797D520220DEBC1
:104EA000050383F83820013590E7013424F001042C
:104EB0005AE7F9077FF5B4AE39E7BBF1040F7FF687
:104EC00008AF0C9B1D46043B03EB0B072A465346D9
:104ED000494620200135C047AF42F7D1FAE6079B8B
:104EE00003F002029D07049225D00C9F3D46224EFE
:104EF000F41C14F8010D2A4653464946C047A64201
:104F000005F10105F5D1049BFC1C002B3FF4FFAE1D
:104F10000C9D631B9B457FF6FAAE224653464946DD
:104F200020200134C047631B9B45F6D8EFE6AB4514
:104F30003FF642AF4AE7BBF1030FD6D90C9B1D46A3
:104F4000033B03EB0B072A46534649462020013515
:104F5000C047BD42F7D1C9E7BBF1000F3FF466AFD0
:104F60000D9A002A84D00BF1FF3B5D45FFF424AF7E
:104F7000202D7FF45FAF29E748D902100000000020
:104F80002DE9F04F9FB01E46DDE928ABDDE92B98F7
:104F90002A9B04460D460B920A9352465B465046A6
:104FA0005946FFF77FFB002840F0C680504659461F
:104FB0004FF0FF327B4BFFF7C3FB002840F0BC8073
:104FC000504659464FF0FF326FF48013FFF77CFBD9
:104FD000002840F0B1805046594600220023FFF7D8
:104FE00073FB002840F0DD81CDE908ABDDE9081254
:104FF00018F480600B460F4608F400610C9214917F
:10500000159040F0A880134340F0D080002940F074
:10501000EC8106230A9318F00202109240F0DD8121
:105020004B46042B38BF04230E920422043B1292F9
:1050300014935046594600220023FFF745FB0028F1
:1050400040F02A829DED087B149B0B9A03930A9BE8
:105050008DED007B029328F40063049329463346C8
:105060002046FFF741FD024618F0200F334629463F
:105070000CBF6520452002F10108A047129B0DF1ED
:10508000580A03F1FF3B0E9B002283EAE37C504663
:10509000DFF814E10B9FACEBE37CD90FCDF8208057
:1050A00002E0202AC44610D0AEFB0C384FEAD808E4
:1050B00008EB8803ACEB430301303033BCF1090F3C
:1050C00002F1010200F8013CEBD805234FF0000C7F
:1050D00006930A23DDF82080CDE90121CDE9033CC8
:1050E000CDF800A03346424629462046CDF814B0FC
:1050F000FFF700FC109B8246D3B1A0EB0708C14527
:1051000016D907EB080233462946202008F101088A
:10511000A047C145F5D87B1E4B44C7F10102A3EB64
:105120000A035244914538BF00230AF1010A9A4408
:1051300050461FB0BDE8F08F334629462046CDE9E2
:1051400028AB0A9CCDE92B980B9A2A941FB0BDE896
:10515000F04FFFF7C9BC57EA020329D100293FF4F9
:105160005AAF00230E930A9B0E9A934200F3BA8122
:1051700000275046594600220023FFF7A5FA0028D1
:1051800040F015819DED087B28F4006343F48063B3
:105190002C938DED287B334629462046CDE92A798C
:1051A0000B9AD3E7FFFFEF7FCDCCCCCC06230A933D
:1051B0000C9BC3F30A50A0F2FF30FFF72BFAB2A307
:1051C000D3E90023FFF7A4F9B1A3D3E90023FFF744
:1051D00077F90C9BCDE90E01C3F3130343F07F5124
:1051E00038460022A24B41F44011FFF77DF994A309
:1051F000D3E90023FFF78CF902460B46DDE90E01E7
:10520000FFF75EF9FFF72AFA0E90FFF703FA8EA375
:10521000D3E90023CDE90C01FFF77AF90022954B81
:10522000FFF74EF9FFF71AFA89A3D3E900230746DF
:10523000DDE90C01FFF76CF9CDE90C013846FFF709
:10524000E9F985A3D3E90023FFF762F902460B468B
:10525000DDE90C01FFF748F902460B46CDE90C23C6
:10526000FFF756F9CDE91001DDE90C0102460B46C6
:10527000FFF726F90022CDE91201DDE910017E4B8E
:10528000FFF76CF900227D4BFFF71AF902460B4637
:10529000DDE91001FFF762F90022794BFFF710F901
:1052A00002460B46DDE91001FFF758F9CDE9100180
:1052B000DDE90C2300204FF08041FFF715F902468D
:1052C0000B46DDE91001FFF7FBF802460B46DDE96E
:1052D0001201FFF743F900226A4BFFF7F1F807F2DA
:1052E000FF3C00224FEA0C53FFF712F902460B462F
:1052F000DDE90801CDE90C23FFF7E6F950B1DDE95E
:105300000C010E9B0022013B0E935C4BFFF726F92C
:10531000CDE90C01DDE90C010E9B02466333C62B7F
:1053200008F002031093149B2DD8002B5FD00423A8
:1053300012930A433FF417AFDDE9080148A3D3E90C
:105340000023FFF7E9F948B1DDE9080146A3D3E9F5
:105350000023FFF7B9F900287FF405AF0A9B002B63
:1053600051D0159A002A00F0AC80013B0A93129BA1
:10537000994505D9109B002B00F0AF8002231093B4
:105380000023149344E02BBBB9F1050F4FD908F06B
:105390000203002B49D105231293A9F105031493AD
:1053A0003AE00BF10043CDF820A009931EE628F463
:1053B000006343F480632046CDE92A792C93334679
:1053C000DDE908673446294607F10045CDE928455F
:1053D0000B9ABBE605231293ABE70222002310923F
:1053E0000422149312920E9323E60527C1E6B9F125
:1053F000040F1FD9109B002B77D104231293A9F11E
:105400000403149304E0129B99455FD80A9B1493FC
:105410000E9B002B3FF40DAEDDE90801DDE90C2306
:10542000FFF79CF8CDE9080103E60223109305235A
:105430001293F1E704231293EAE700BFAFF3008071
:1054400061436F63A787D23F71A379094F930A40E5
:105450001655B5BBB16B0240EF39FAFE422EE63F5E
:105460002D431CEBE2361A3F0000000080842E41E1
:105470000000F83F0000E03F00002C400000244006
:10548000000018400000F03FFB799F501344D33FC9
:10549000B3C8608B288AC63F149BDDE908A7039335
:1054A0000A9B07F1004B029328F400630B9A0493C4
:1054B000294633462046CDE900ABFFF715FB0246EF
:1054C000D2E5129B994515D81492A1E7109B23B100
:1054D0000A9B1493022310939AE7129BA9EB0303F0
:1054E000149395E79B1A5F1E43E60423129302234D
:1054F00010938DE7109B002BEFD002231492109392
:1055000086E700BF2DE9F04F91469A4C9A4AB1F1D7
:10551000000A9BB018BF834614601878974ADDF8DC
:10552000908008BF9346002800F08A821D4600261E
:10553000CDF8209008E032465146089BD847013606
:105540002878002800F0C780252805F10105F2D150
:1055500000222B4613F8011BA1F1200010280AD8C5
:10556000DFE800F03F09093B090909090909093782
:10557000093309092F00A1F13000092840F2898080
:105580002A2900F0E98000242E2900F094800027C9
:10559000A1F1680012282CD8DFE810F04E012B0092
:1055A00049012B0040012B002B002B002B002B006E
:1055B0002B002B0027002B002B002B002B002B0097
:1055C00027001D4642F00102C3E71D4642F00202D9
:1055D000BFE71D4642F00402BBE71D4642F0100241
:1055E000B7E71D4642F00802B3E7697842F48072DB
:1055F000013367291D467ED8242940F2B880A1F1E5
:105600002503422B00F2B380DFE813F05101B10013
:10561000B100B100B100B100B100B100B100B10002
:10562000B100B100B100B100B100B100B100B100F2
:10563000B100B100B100B100B100B100B100B100E2
:10564000B100B100B100B100B100B1001E013A01DA
:105650001E01B100B100B100B100B100B100B10054
:10566000B100B100B100B100B100B100B100B100B2
:10567000B100B401B100B100B100B100B100B1009E
:10568000B100B100B100B4015801B4011E013A01EA
:105690001E01002404EB840401EB440419781D4628
:1056A000A1F130000928A4F1300403F10103F1D97C
:1056B0002E297FF46CAF69781846A1F13007092FC5
:1056C00042F4806240F225812A2900F032811D4691
:1056D000002701335CE73446DDF82090B14501D85E
:1056E00009F1FF364B46324651460020D847204646
:1056F0001BB0BDE8F08FA1F16903DBB20F2B36D8E8
:10570000012049F2410C984010EA0C0040F0F4806E
:105710000A2B35D0072B2AD158F8041B002940F05A
:10572000108122F0100412F4806144F0210400F092
:105730000A8112AA082305931023CDE900203246DE
:105740000694049703930023029351465846089BFE
:10575000FFF7D0F80646F3E658F8044B6978002CBA
:105760001D46BCBF42F00202644201330CE708460A
:10577000E1E600BF05550010FC2501204948001056
:1057800058F8049B002F99F8000014BF3B464FF0D7
:10579000FF33002800F08283494603EB090C04E044
:1057A00011F8013F002B00F043818C45F8D1ACEBA0
:1057B0000901530540F12081B94228BF394612F052
:1057C000020300F083820223CDE90948324688466D
:1057D000089C37440B9307E023465146D84719F8F5
:1057E000010F013610B13246B742F5D10B9B41464D
:1057F000099CDDF82880002B3FF4A2AE37468C428E
:105800007FF69EAE2644089C761A3A4623465146B9
:1058100020200137D847B742F7D191E669786C2943
:105820007FF4E4AEA97842F44072EB1CE1E66978BB
:1058300042F400720133DCE66978682900F0FB80ED
:1058400042F080020133D4E6672900F0C98047297D
:1058500000F0CD80452900F0CC80CDE9034208F16D
:105860000708029728F007083246F8E80267514611
:10587000CDE900675846089BFFF782FB06465FE6C6
:10588000462908BF42F02002CDE9034208F107088B
:10589000029728F007083246F8E802675146CDE93A
:1058A00000675846089BFFF71FF9064648E6324650
:1058B00051462520089BD847013641E608F10403EC
:1058C0009207099306F1010740F1C3803246514621
:1058D00098F80000089BD847012C40F2B481264478
:1058E000089C3A462346514620200137D847B74204
:1058F000F7D1DDF8248023E66F2974D040F241828D
:10590000782900F086814FF00A0922F010024B46F8
:1059100038E0002707EB870701EB4701A1F13007CB
:1059200010F8011FA1F13003092BF3D90546431CE0
:105930002EE658F8047BA97802356B1C27EAE77736
:1059400026E642F0210412AA944602E020283FF401
:10595000F1AE01F00F03092B94BF303337330F2919
:105960008CF8003000F101000CF1010C4FEA11112C
:10597000ECD8DFE6582966D0622940F089804FF0E4
:1059800002094B4612F4806C00F0D48022F00D0224
:10599000099212F4007140F07B8112F4807008F1DA
:1059A000040940F03882510640F13A8198F800101D
:1059B000002940F04A81099A22F010020992BCF1B4
:1059C000000F00F04281084612AA0999CDE9033779
:1059D000CDE9054101900023009202933246A1E0F7
:1059E00042F4006239E74FF008094B46CAE742F437
:1059F000006242F0200230E712F0020300F08C81D6
:105A00000223CDE909481F468846089C32462346B2
:105A10005146D84719F8010F01360028F6D13B4608
:105A20004146099CDDF82880002B3FF489ADE5E66E
:105A3000A1EB0901BDE6A97842F0C002EB1CD8E554
:105A4000044606464AE64FF0100942F020024B4653
:105A500098E7012C40F2F180374606F1FF39CDF886
:105A60002880DDF82080A1443A4643465146202054
:105A70000137D8474F45F7D1DDF828803A4698F8E6
:105A800000005146089BD8472644DDF8248057E59E
:105A900012F4806300F0C1804FF4806322F01100A3
:105AA00010F4007E4AD110F4807C08F1040940F023
:105AB0003781410600F1A980020640F1E381B8F97F
:105AC000002082EAE271A1EBE2711FFA81FED10FA0
:105AD0000991002A00F05F81734612AA9646DFF80A
